:040000006F20C07637
:1000040000000000000000000A0B00000A0B0000C2
:10001400000000000A0B00000000000000000000C7
:100024000A0B00000A0B00000000000000000000A2
:100034000A0B0000000000000A0B00000000000092
:100044000A0B00000A0B00000A0B0000000000006D
:100054000A0B00000A0B00000A0B00000A0B000048
:100064000A0B00000A0B00000A0B00000A0B000038
:100074000A0B00000A0B00000A0B00000A0B000028
:100084000A0B00000A0B00000A0B00000A0B000018
:100094000A0B00000A0B00000A0B00000A0B000008
:1000A4000A0B00000A0B00000A0B00000A0B0000F8
:1000B4000A0B00000A0B00000A0B00000A0B0000E8
:1000C4000A0B0000B62500000A0B00000A0B000012
:0C00D4000A0B00000A0B00000A0B0000E1
:1000E000B7270140938707409847B706400013673A
:1000F000170098C79847558F98C79843098B75DFA5
:10010000E847420541818280E54763ECA7028967A1
:100110009387877F0A053E951C418287B717014068
:10012000938707800D4798CBB71701403707000525
:10013000938707C01307872D98CBB7170140254732
:1001400098CB8280B7170140938707803707030059
:1001500098CBB717014037070005938707C01307EF
:10016000872D98CBB717014037070900D1BFB717C4
:100170000140416793870780090798CBB717014073
:1001800037070006938707C01307871D75B7B71792
:100190000140938707803707030098CBB7170140CA
:1001A00037070004938707C01307873D71B7B71758
:1001B00001403707020093870780050798CBB717E0
:1001C000014037070004938707C01307873D51BFDD
:1001D000B71701403707020093870780050798CBC0
:1001E000B717014037078004938707C01307873587
:1001F000A1B7B7170140938707800D47CDB7B71751
:1002000001403707020093870780050798CBB7178F
:10021000014037070005938707C01307872D98CB48
:10022000C16737170140A1071CCB8280B717014077
:10023000938707800D4795B7B7170140370702002E
:1002400093870780050791BFB71701409387078001
:100250003707030098CBB71701403707800793870C
:1002600007C013078705F5BDB717014093870780BF
:100270003707030098CBB7170140370780069387ED
:1002800007C013078715F1BDB71701409387078093
:100290000D4798CBB717014037078006938707C0F3
:1002A00013078715ADBFB7170140938707800D4728
:1002B00055B7B7170140938707800D4701B7B717A8
:1002C0000140938707800D4798CBB7170140370748
:1002D0000006938707C01307871D91B7B717014022
:1002E000938707800D4798CBB717014037078007E2
:1002F000938707C01307870581B5B7170140938718
:1003000007800D4798CBB717014037070004938744
:1003100007C01307873D21B7B717014093870780B0
:100320000D4798CBB717014037078007938707C061
:100330001307870598CBB7070800371701408507D3
:10034000E5B5B7170140938707800D4798CBB717DE
:10035000014037078006938707C013078715E9BB5D
:10036000B7170140938707800D4798CBB717014017
:1003700037078006938707C01307871565BFB71730
:1003800001404167938707800907EDB5B717014022
:10039000938707800D4798CBB71701403707800533
:1003A000938707C01307872541BBB71701404167F3
:1003B00093870780090798CBB717014037070004D8
:1003C000938707C01307873DB5B7B71701409387D9
:1003D00007800D4798CBB717014037070006938772
:1003E00007C01307871DB5BB89679387F77063E163
:1003F000A704A9473355F50242054181B9ED854768
:10040000A38DF184A9463357D50293074006B3570D
:10041000F5023377D70293F7F70F3375D502238CA4
:10042000F18493878185A380E7002381A7008280E0
:10043000E1679387F76963EAA7009307400633559E
:10044000F50289474205418165BF9307803E3355D8
:10045000F50281474205418165B7130740063357CE
:10046000E5020946A38DC1843355F5021377F70FD2
:100470003375F5026DB7411122C483C7418006C6AA
:10048000130740026383E704130760026384E706EF
:10049000130730026393E70203C58185B531B717AF
:1004A00001404147938707C0D8CB83C6B185054734
:1004B0006395E6001307004098CB93074002B240D3
:1004C0002382F18022444101828003C591852D3928
:1004D000B717014013070004938707C0D8CB83C622
:1004E000B18509476395E6001307004098CB930751
:1004F0006002F1B703C5A1850139B7170140214753
:10050000938707C0D8CB83C6B1850D476395E600B6
:100510001307004098CB9307300255B737160140B8
:10052000930706C094479395460163CE050283C6A0
:100530004180130640026380C60213066002638096
:10054000C60213063002638EC60083D64185850637
:10055000239AD1843DA89146238BD184FDB78D4643
:10056000E5BF8946D5BF14469395E6008546E3C5A9
:1005700005FE83C6618591CE9145639DB60283C514
:10058000418013064002E392C5FC238B0184A389BA
:10059000D18403C7618521CB83D641859307A00F02
:1005A0001305F00F63F1D708A9473307F702137556
:1005B000F70F82808D456397B60083C5418013068F
:1005C0006002D1B789456397B60083C541801306A1
:1005D000300255BF8545E39AB6F610469315E600FE
:1005E000E3C505F65DB703C531850DC983D64185E1
:1005F0001306A00F637CD600239A0184AD47330510
:10060000F502A38901841375F50F8280094663778B
:10061000D600239A0184A38901848280239A0184CD
:10062000A38901840145828003C7218583C7118581
:1006300001C7860793F7F70F2388F1848280B727D5
:100640000240D84793761700EDFE9376070289E6BD
:1006500023A8070001458280D8C705458280411143
:1006600006C622C426C24AC0D93FB7C7000883A421
:1006700007F023A69184E137B7C7000803A947F024
:10068000FD1423A42185653FB7C7000803A487F0A4
:1006900023A281846D37B7C7000883A7C7F001453F
:1006A00023A0F1847557636B9700FD566308D9004A
:1006B00036946365870085073335F000B2402244E5
:1006C0009244024941018280411106C622C4853FFD
:1006D000B7C7000803A407F123AE81828D37B7C7DF
:1006E000000883A747F1014523ACF1827D7713070A
:1006F000C7313A94116713074752636F8700056744
:100700009386C7E01307479C05456377D700417779
:100710002A97BA9713B51700B2402244410182804C
:100720005D714EDE83A9C184A6C283A44184CAC080
:1007300003A98184B3E7990086C6A2C452DC56DAC5
:100740005AD85ED662D466D2B3E7270185E38144E6
:10075000B64026440649F259625AD25A425BB25B0D
:10076000225C925C2685964461618280C93DB7C750
:10077000000803A487F1FD57E31BF4FCC935B7C794
:10078000000883A7C7EFE39487FCB7270240984B84
:1007900013770708631B070EB7270240984B931681
:1007A000070163C40610613D37240240B707020009
:1007B0001CC8B7C70008938707F05CC81C4893E7BC
:1007C00007041CC8AD3D41D52328040003A70184BC
:1007D0004EC04AC23AC603A7C18326C43AC803A77B
:1007E00081833ACA7D573ACC3ACE1C4893F7070822
:1007F000E9EFB7270240984B9316070163C7060E2F
:100800003D3D37240240C1671CC80149370A080032
:10081000854A7D5BB70B04001C48B3E747011CC841
:10082000393DE30605F2B7C4000837CC0008931C35
:1008300049008A89938404F0130C0CF16317090CA6
:1008400083A709009CC01C4891049109B3E7770174
:100850001CC8F533E39484FFB7C70008938707F0FB
:100860005CC81C4893E707041CC8D13BAA84E3007A
:1008700005EE0509C147E311F9FA23280400C13345
:10088000A167938707081CC8E1B5370767451307B9
:100890003712D8C33797EFCD1307B79AD8C39C4BFD
:1008A00093F70708E38A07EE5DB537076745130737
:1008B0003712D8D33797EFCD1307B79AD8D39C4BBD
:1008C00013970701E35107EE59B5B70767459387BB
:1008D00037125CC0B797EFCD9387B79A5CC01C48BE
:1008E00093F70708E38707F09DB5370767451307B8
:1008F0003712D8D33797EFCD1307B79AD8D39C4B7D
:1009000013970701E35E07EE99B56316590183A7B4
:1009100009019CC80DBFB387940123A0670125B7C7
:1009200083C60183411122C43714014006C6AE8735
:100930001304048083C5C181BDC2B706002083C6ED
:100940000600B1EE930700021CC885476381F502DB
:1009500089476387F50281E903A581817134914755
:100960001CC8A1475CC82244B240410129B603A576
:1009700041818145953C91475CC8A1471CC8E5B7BA
:1009800083A7818103A741811305803E8145B387F9
:10099000E70233D5A702893C91471CC8F9BF9306EB
:1009A000000254C885466381D50289476386F504F1
:1009B000DDF98545153CB71701409387078011473E
:1009C00098CB2147D8CB45B7114758C8214718C8FD
:1009D00041677D17639FE70005671307A7B0239C56
:1009E000E1849387818529472381E700A38D0184D2
:1009F0009DBF3E85D53A85BF238E01805DBF37F709
:100A000000E01C473E951C47898FE3CE07FE82809D
:100A10004111B727014093870740214706C6D8DB1D
:100A2000EFF00FEC83A7C1841307803E3305F50276
:100A300083A781843355E502B3C7E7023E95B70724
:100A4000002083D7270023AAA1829387773E63D211
:100A5000A70A03C7018319CF23880182B717014072
:100A60009387078013070002D8CBB70700200547FC
:100A70002380E70083A7C182AA973165130505B8D3
:100A800023A6F182AD3FB727014093870740114766
:100A9000D8DBEFF0EFE483A741841307803E3305F2
:100AA000F50283A701843355E502B3C7E7023E95FB
:100AB00083D7418223A4A1829387471F63D1A704D0
:100AC00003C7018319CF23880182B7170140938799
:100AD000078013070002D8CBB70700200547238003
:100AE000E70083A70182B240AA9723A0F1824101C7
:100AF0008280E35105F823AA01820145A5BFE35294
:100B000005FE23A401820145E9BF01A09387C185A9
:100B1000DC470A05AA9703D5E7FF82809387C18542
:100B200003C7470183C65701158F1377F70F636813
:100B3000A700DC470A05AA9703D5E7FF8280198D35
:100B400019473305E5029C4BAA9703D5A7FF82807E
:100B50009387C18503C7470183C65701158F137754
:100B6000F70F6368A700DC470A05AA9703D5E7FFDC
:100B70008280198D19473305E5029C4BAA9703D54E
:100B8000C7FF82809387C18503C7470183C657018A
:100B9000158F1377F70F6368A700DC470A05AA973C
:100BA00003D5C7FF8280198D19473305E5029C4B99
:100BB000AA9703D5E7FF8280B77702401307200A80
:100BC0002396E7002397E7009387C185A384070056
:100BD0002385070023840700238A0700A38A0700D0
:100BE00023A0070023A2070023820702138787029E
:100BF000A3820702D8C71387C7032383070298CBB2
:100C00000547238BE70023810702238DE700A38D8F
:100C1000E700056713078738239EE7002390E70264
:100C20008280B777024003D70700118B15CB03D71B
:100C3000E700136707012397E700B7770240130720
:100C4000F0042391E700A38207002393A700A38465
:100C5000070003C74700136737002382E70082803D
:100C600003D7C700136707012396E700F9B79387F7
:100C7000C18503C5A70183C6470203C6670105688E
:100C80009D8A0908A6060D8A1A06B3E60601D18ECA
:100C900003C6470103C857019375F50F9377F50015
:100CA000330606411387C1856357A6040356C7015F
:100CB000D145F2073356B6028565FD156D8E2606C1
:100CC000D18F0356E701930520033356B602B705CB
:100CD00000031376F6074D8EB70500FD938505F8E2
:100CE000ED8FD18F2315F7041945C1832314D70441
:100CF0002316F7043DB79387F5FF8A07BA9703D603
:100D00008702A947370500033356F602F20513762A
:100D1000F63F9317A600498ED18FCD8FE1B7797139
:100D20004ECE854922D426D24AD052CC56CA5AC871
:100D30005EC606D60144B70A00201309800C4E8B0C
:100D4000C13983D5418203D52A00D93E83D7218179
:100D50008507C207C1836364F9022399F180EFF02C
:100D6000EFFB8D47630EF504F947E31BF5FC83C7E2
:100D7000C181E3E7F9FC8947238EF180D1B783A7CE
:100D8000C182B3D727032399018023A6018223AC14
:100D9000F18083A7018223A00182B3D7270323AA6E
:100DA000F18003C701858947E31BF7FA0504420474
:100DB000418093078002E3F487FA553D014445B72B
:100DC00083C7C18189CBFD1793F7F70FE3EAF9F6E3
:100DD000238E0180B5B7238E61819DB7797122D4AE
:100DE00026D24AD04ECE52CC56CA5AC862C4938735
:100DF000C18506D65EC666C223900702238107021C
:100E00009304F00F1384C185377C0240094B0549D8
:100E1000954937EA00E0B70A02008347240293FCB1
:100E2000F70F89E7FD1493F4F40F85E0B2502254D4
:100E30000259F249624AD24A424BB24B224C924C7E
:100E40003335900092544561828037B50300130515
:100E5000059875368357CC0041671307E7F1F98F82
:100E60002316FC008357CC00C1669386E6F193E716
:100E700007042316FC000357CC008357EC004207FD
:100E8000F58F2317FC008357EC00418393E7070499
:100E90002317FC008356EC008947858A99E29377F3
:100EA000170003578401050742074183231CE40010
:100EB0001840631E2703639E27072305040003478A
:100EC000940005071377F70FA304E4000347940089
:100ED00063FFE900A3040400094718C03776024005
:100EE00003570600C166ED16758F2310E600184003
:100EF0006374E902ADEF83478400850793F7F70F2A
:100F00002304F4008347840063F8F90023040400F9
:100F10002320040023225A19832B04001C40254758
:100F2000636FF7040D678A0713070786BA979C4318
:100F30008287A3040400639967030347A40005079D
:100F40001377F70F2305E4000347A400E3F1E9FA60
:100F5000230504001CC0B776024003D706001367C0
:100F600047002390E60061B72305040049B7230436
:100F700004005DB723225A19813123202401232242
:100F8000740161BD58401C40E30BF7FE93077007E6
:100F90002311FC0083474C0093F7C70F93E727000A
:100FA0002302FC00A3080A4223225A11C9BF834727
:100FB0005402F1D7A3020402B7E700E037070200AA
:100FC0000328C400144823A2E718A30A0400B708A2
:100FD00000F0370300C0294E93052003194613057E
:100FE00040068347440163EBFC00B7E700E03707A6
:100FF000020023A2E71091471CC051B713972C00A1
:10100000B307E400FC57B3FE170163926E06034773
:10101000540193DE170193FEFE0F3307C702B38E10
:10102000AE0236972311D7010347540193DE8700A0
:1010300093FEFE0F3307C70293F7F707B38EAE0296
:1010400036972310D70103475401B387B7023307FC
:10105000C70236972312F70083475401850793F799
:10106000F70FA30AF400850C93FCFC0F9DBF93FEC1
:10107000F73FA98393F7F73FB38ECE034297B38729
:10108000B7022310D7012311F700F1BF58401C40CD
:101090006303F700E93E83476402E38207EE23031C
:1010A000040223203401E1BD83475402E38907ECA5
:1010B000A3020402A5471CC0231C0400C9B52301D8
:1010C00024030347A4018347B4016318F7000357BF
:1010D000C40183570402E304F7EA8347A4010945E6
:1010E00093F7F70FA30DF4008357C401C207C18320
:1010F0002310F402230104028347440203476401DE
:101100009D8BA6070D8B1A0793E77700D98F2314C1
:10111000F404013EA947CDB5411122C406C613848B
:10112000C185230DA400231EB400A93C231FA400E5
:101130002244B24041015DB19387C18503C7470195
:1011400003C6570183A8070103A8C700118FAA850A
:101150001377F70F81479386C185194303C646016C
:1011600063E4C700014582801385170063FBE70035
:101170008A07C29783D727006391B7021375F50FCB
:1011800061BF998FB3876702C69703D6070063E6EE
:10119000C50083D72700E3F3B7FE9377F50F7DBF34
:1011A0001386C1858346460183475601034656018F
:1011B00093F6F60F93F7F70F1387C18511CE9D8E27
:1011C0000328070193F6F60FB68799481303100317
:1011D0000346470163E4C700014582803386D74058
:1011E0003306160385074296035E06006365C50352
:1011F000035E26006361AE0203564600636DB600CF
:10120000637BB30093F7F70F230DF700231EA700AE
:10121000231FB700E1B693F7F70F5DBF056779713C
:101220001307B7B022D44AD052CC56CA5AC85EC6A9
:10123000239CE18406D626D24ECE62C466C2938732
:1012400081852D47416A238401802381E70005447D
:101250007D1A1387C1858347470183A9C18363F53D
:10126000870A856793878738639BF91483A68183F0
:10127000C167FD176395F61483C7818063910714D6
:10128000B70700202391370185679387079623923C
:10129000F1822388018423990180B7090020238EDD
:1012A0000180238801822380090023A6018223A0D4
:1012B0000182EFF0EFF583C7090005472388E1823B
:1012C00063950716B71701409387078093060002BE
:1012D00094CB2388E18203A7C182B25023ACE18082
:1012E00003A7018223A00182225423A6018223AAFC
:1012F000E18092540259F249624AD24A424BB24BBF
:10130000224C924C45618280834747010347570135
:101310002285998F93F7F70F63E98702EFF00FFFAC
:101320006317350983A7818363934709B7070020B3
:101330002391A7002285EFF0FF842392A1822384CA
:10134000818005472388E1849DA0EFF02FFD63E0B5
:10135000A9062285EFF0CFFF636B35052285EFF0FC
:101360007F8283A4818363769500C167FD176390B4
:10137000F40483CC818063930C02B707002023918F
:101380003701C167FD176398F4022285EFF08FFFE4
:101390002392A1822384818009476DB72285EFF0D3
:1013A0006FFE2A8C6685EFF0EFFDE36885FD05048E
:1013B0001374F40F79BD139504014181D1BF83C724
:1013C000018509476382E7046365F702E38507EC5B
:1013D000B707002083D5270003C58180353BE31C78
:1013E00005EAEFF04F893165130505B8EFF02FE1FD
:1013F000CDBF0D47E381E7EAEFF0EF8731651305D5
:1014000005B8EFF0CFDFCDBF83D54182B70700200D
:1014100003D527007133E31005E8EFF0CF85316580
:10142000130505B8EFF0AFDDCDBFEFF0CF84316528
:10143000130505B8EFF0AFDCCDBF37160140130739
:1014400006801C43B70610FFFD165D71F58FB706C9
:10145000300086C6A6C2A2C4CAC04EDE52DC56DA2E
:101460005AD85ED662D466D26AD06ECED58F1CC3EF
:101470001C437D751305F50FE98F93E707301CC3F7
:101480001C4345787D188D68B3F70701B3E7170152
:101490001CC35C4EB7050200930606C093F7F7F035
:1014A00093E707085CCE0CD2DC422163B3F7070157
:1014B000B3E76700DCC28567938707809CCA1C423C
:1014C000B3F70701B3E717011CC29C42370800308D
:1014D00092079183B3E707019CC2DC4293F7F7F0D0
:1014E00093E70703DCC21C42C19B93E737001CC291
:1014F0001C43370640FE7D1693F7F7F093E707038A
:101500001CC31C43C19B93E737001CC3DC42C19B37
:1015100093E73700DCC2DC42E98F93E70730DCC297
:10152000930700025CCB37076745B7670240130794
:101530003712D8C73797EFCD1307B79AD8C7D84314
:10154000718FD8C3D84337068001518FD8C3D84391
:1015500037062000518FD8C3D8433706E8FF7D16E1
:10156000718FD8C3D8434166D8C3D843D8C3D843B2
:10157000518FD8C3D84337060080518FD8C337174F
:1015800002401C4F2D4693E717201CCFB727014080
:1015900093870740B0CB37B66D1B1306B66DD0C727
:1015A00090CB37060E00050690C73D46B0CB3706F8
:1015B00000407D16D0C790CB1C4F93E717011CCF7E
:1015C0005C4BCD8F5CCBDC4237070044A207A18384
:1015D000D98FDCC2370701401C4F93E707301CCF7F
:1015E0009387C18593878704C20737770240C183F9
:1015F0002318F700F977A1072310F700F157A30488
:10160000F700EFF0AFFD9384C18505C183C7540196
:1016100081C705472389E18403C7440183C7540177
:101620006305F7000547A388E184371401401304DC
:1016300004C01C40B709F1FFFD1937070400B3F7D8
:101640003701D98F1CC01C40370900F17D19B3F751
:101650002701370B0004B3E767011CC01C40C57AA3
:10166000FD1AB3F75701916BB3E777011CC0B717A9
:1016700001409C471397E7006350070CEFE0DFFA47
:10168000EFF08F8411C983C70185F51793F7D70F42
:1016900081C791472388F184EFE07FFC01E58D4706
:1016A0002388F184B7170140938707C09843B70692
:1016B000F1FFFD16758FB7060300558F98C3984349
:1016C000B70600F1FD16758FB7060003558F98C356
:1016D0009843C576FD16758F8D66558F98C38567BF
:1016E0009387476123990180854A01440D4C231457
:1016F000F100EFE05FD83165130505B8EFF02FB0CA
:1017000083CC01850D6B33878C03A38D01849307F4
:101710008B97130B8B97BA97A29783CB07009D47A4
:1017200063E6770F0D671307878893972B00BA97A7
:1017300098439387818502871C400D673165B3F715
:101740005701D98F1CC0A1475CC8130505B8EFF03D
:101750000FAB1C4413974701E35207F21C403707B5
:1017600000033165B3F75701B3E777011CC01C4094
:10177000130505B8B3F72701D98F1CC093070004E0
:101780005CC8EFF0CFA71C44139747011C40B3F788
:101790002701B3E767011CC01C40B3F73701634A58
:1017A000070237070300D98F1CC041493165232A3E
:1017B0002401130505B8EFF08FA41C4413974701CB
:1017C0008D4763550700232A240195472388F18418
:1017D00045BD37070300D98F1CC03165C1475CC8C0
:1017E000130505B8EFF0AFA11C4413974701E34779
:1017F00007E883C71185E38307E88547C1BF13075F
:10180000A050239CE18429472381E700EFE01FD10A
:10181000630A850D6364AC088547630FF508894743
:10182000630FF50A9147E396FCECE3840AEC83D757
:1018300021811307007D8507C207C1832399F180A9
:10184000E379F7EA23990180EFF05F9DEFF02FCD68
:1018500005671307C7D0239CE184394775B705672F
:101860001307F7F0239CE184154779BF0567130739
:101870000711239CE184494741BF03578100239C02
:10188000E1845D4751B7056713078731DDB7056709
:1018900013079731239CE1845947BDB79147E31360
:1018A000F5F89D47E3E077F90D6793972B00130751
:1018B000878ABA979C438287814AE36585F6B38716
:1018C0008C033E9B229B03471B009307F00F63147E
:1018D000F700814A81BF05041374F40FA1B739D012
:1018E0007D14DDBFE3908CF5814A21B5856737070C
:1018F0000020938787382311F70085679387079621
:101900002392F182B707002023800700238E0180F5
:10191000238801822399018023A6018223A00182CA
:10192000EFF00F8FB707002083C707000546238815
:10193000C182E39907EEB7170140938707809305AB
:1019400000028CCB83A7C1822388C18223ACF180A3
:1019500083A7018223A6018223AAF18023A001820A
:10196000EFF00F8BB707002083C70700E39C07EA5F
:10197000856505659385059613058538EFE05FFA63
:1019800083D721811307800C8507C207C183636E4B
:10199000F7022399F180EFE07FB89147630BF506DA
:1019A000F947630CF5048D47E31CF5FA83C70183FF
:1019B000C5DB83C7C181054695CFFD1793F7F70FA8
:1019C000E360F6FA238E018061BF83A7C18213070B
:1019D000800CB3D7E7022399018023A6018223ACB0
:1019E000F18083A7018223A00182B3D7E70223AA53
:1019F000F18055B7238EC180A5B783C70183ADD3CE
:101A000003C6C1818547E3EDC7F48947238EF18082
:101A100081BFB71701409387078013070002D8CB17
:101A2000238801822147D8CB1147D8CBE5BB854716
:101A300085692384F1805E849389893883C7440152
:101A400003C75401998F93F7F70F63EA8700228544
:101A5000EFF0CF8B6312350B23848180A28B5E85E0
:101A6000EFF0CF8AB70700202391A7002A845E8574
:101A7000EFF04F912392A182AA89228523990180B8
:101A8000238E018023880182EFF00FEB13451500B0
:101A9000370C002005892300AC00930C800C854B8B
:101AA000EFE01FF7CE852285EFE09FE783D7218106
:101AB0008507C207C18363E5FC042399F180EFE049
:101AC000FFA58D476300F50E63EFA704630E75074E
:101AD0008947E317F5FC83C70183B5EB03C74401CE
:101AE00083C6540183C78180158F1377F70FE3F9FD
:101AF000E7FA93891700A5A805041374F40F3DBFF6
:101B000083A7C18223990180B3D7970323A60182BB
:101B100023ACF18083A7018223A00182B3D797036E
:101B200023AAF18069BF9147630DF508F947E319CE
:101B3000F5F683C70183ADD783C7C181E3E2FBF626
:101B40008947238EF180A9BF83C7018399CBB7173B
:101B50000140238801829387078013070002D8CBB6
:101B600081B783C78180E3FDFBF29389F7FF93F987
:101B7000F90F4E8523843181EFE05FF9B70700202C
:101B80002391A7002A844E85EFE0DFFF2392A182F4
:101B9000AA892285EFF04FDA134515000589230045
:101BA000AC00FDBD83C7C181638A770109476387A4
:101BB000E700E39707EE238E7181DDB5238E018068
:101BC000C5B583470C00E39D07EC83C7018393C72A
:101BD00017002388F182E9B583C7440103C7540184
:101BE000998F93F7F70F63F587042285EFE05FF68F
:101BF0006370AC0485673707002093878738228598
:101C00002311F700EFE09FF12398A1802285EFE0F8
:101C10003FF42396A1802285EFE0DFF62395A18093
:101C20002392A1821307401F2397E18023848180A0
:101C300005041374F40F83C7440103DCC180E3FD82
:101C400087F8B717014093870780114798CB214742
:101C5000D8CB85456285EFE02FF98D44EFE01F8CEE
:101C60002A847D142399A18042043165130505B8A7
:101C70004180EFE0DFD8EFE01F80E3E184FE03DD89
:101C8000018185458D446A85EFE00FF6EFE01F89FD
:101C90002A847D142399A18042043165130505B877
:101CA0004180EFE0DFD5EFE00FFDE3E184FEB71701
:101CB0000140938707801147D8CB214798CB83DD1C
:101CC000A18085458D446E85EFE00FF2EFE01F8522
:101CD0002A847D142399A18042043165130505B837
:101CE0004180EFE0DFD1EFE00FF9E3E184FE370A56
:101CF000002003542A0083D44182A685228523999B
:101D00000180238E018023880182EFF06FC9134583
:101D10001500B70A002005892380AA00814B02C460
:101D2000854CEFE0FFCEA6852285EFE07FBF83D70D
:101D300021811307800C8507C207C1836364F70202
:101D40002399F180EFE08FFDD94763E0A7068D6707
:101D50009387878C0A053E951C4182870544E1BD27
:101D6000814BC1B7A2479306800C8507C207C18388
:101D70003EC483A7C18223A60182B3D7D702239989
:101D8000018013078002854B23ACF18083A7018279
:101D900023A00182B3D7D70223AAF180A247E3731D
:101DA000F7FAEFE0DFEC02C471BFF947E31BF5F689
:101DB00083C70183BDD783C7C181E3E4FCF68947AC
:101DC000238EF180B9BF83C7C18195E303542A00F4
:101DD0001304C4F9420441806364A401A28719A0DA
:101DE000EA876A8483D541822311FA0011A2E39A1B
:101DF00097F383D4418283D7E1809384C4F9C204EA
:101E0000C1802392918263F5F4002392F182BE8413
:101E100003552A00A685EFF0AFB8134515000589D4
:101E20002380AA00FDBD83C7C181B9EBE38B0BEE14
:101E300083572A001307703E818F635EF70083D5B6
:101E40004182228523118A00EFF08FB513451500DA
:101E500005892380AA00130444ED42044180814B8C
:101E6000E371A4ED83D541826A852311AA01EFF0C5
:101E70002FB31345150005892380AA006A8455B540
:101E8000E39197EBE38F0BE883D741821307301F71
:101E9000858F635EF70003552A00A6852392918201
:101EA000EFF00FB01345150005892380AA00938435
:101EB000C4F983D5E180C204C180814BE3F3B4E669
:101EC00003552A002392B1822EC6EFF06FADB245C2
:101ED0001345150005892380AA00AE8499B583C7F0
:101EE000C181E3E0FCE423118A0023929182A6855C
:101EF000228515B783C7C18181EF03542A001304DB
:101F0000440642044180E37B8CECE2876284D9BDC5
:101F1000E39997E183D4418293844406C204C1804B
:101F2000A68763F49D00EE87EE842392F182CDB5FF
:101F300083C7C181A1EFE3860BDE83572A00130715
:101F4000703EB307F440635EF70083D5418222857B
:101F500023118A00EFF0CFA41345150005892380D3
:101F6000AA001304C41242044180814BE37B8CDA43
:101F700083D54182628523118A01EFF06FA2134558
:101F8000150005892380AA00628461BBE39B97D971
:101F9000E3890BD883D741821307301FB387F440FE
:101FA000635EF70003552A00A68523929182EFF025
:101FB0002F9F1345150005892380AA0093844406AA
:101FC000C204C180814BE3FE9DD403552A00EE85F7
:101FD0002392B183EFF0CF9C134515000589238030
:101FE000AA00EE843DBB83C7C181638A970109477C
:101FF0006387E700E39707D2238E91811DB3238E79
:10200000018005B383C70A00E39D07D083C701831E
:1020100093C717002388F18229B30565814513050D
:102020008538EFE06FBCB7170140938707801147F1
:1020300098CB2147D8CB1307000298CB8D44EFE013
:10204000EFCD2A847D1431654204130505B8418023
:10205000EFE0FF9AEFE02FC2E3E384FE3724014074
:102060001309800C814913040440A1443165130510
:1020700005B844D8EFE0BF98EFE08F867D19AA99A4
:10208000E31609FE93074006B389F9021165930729
:10209000800C814513050565B3D9F902EFE0CFB493
:1020A000B717014093870780114798CBC4CB13071C
:1020B000000298CB8D44EFE06FC62A847D14316511
:1020C0004204130505B84180EFE07F93EFE0AFBA1B
:1020D000E3E384FE372401409304800C130404409E
:1020E000214B3165130505B8232A6403EFE03F91C6
:1020F000EFD01FFFFD142A99EDF41304800C33591F
:10210000890293074006371A014081450145914AEB
:102110003309F90293070002232AFA80EFE0CFACDB
:10212000232A5A8123286A81372A0140130A0A4048
:102130003165130505B8232A5A03EFE05F8CEFD011
:102140003FFA7D14AA946DF493074006B384F40219
:1021500005659307800C8145130585BBB3D4F40254
:10216000EFE08FA8B71701409387078023AA570194
:10217000214798CB1307000298CB8D4AEFE00FBAA6
:102180002A8A7D1A3165420A130505B8135A0A01D5
:10219000EFE0FF86EFE02FAEE3E24AFF372B01408E
:1021A000930A800C130B0B40114A3165130505B8D7
:1021B000232A4B03EFE0BF84EFD09FF2FD1A2A944D
:1021C000E3950AFE37757C4DB3093941130505D0F7
:1021D0003355350313074006B71A01409307000231
:1021E00023AAFA8081453309A90223A6A184B7B79F
:1021F0001201938707883359E902B387274123A443
:10220000F1849307800CB357F40237A9E111130945
:102210000930B387E702858F3359F90223A221855C
:10222000B38724038D44B3D7E702B307F04023A05C
:10223000F184EFE06F9BA14723A84A8123AAFA808B
:10224000EFE0CFAD2A847D1431654204130505B853
:102250004180EFE0CFFAEFE00FA2E3E384FE814597
:102260004A85EFE06F98B7170140938707802147B1
:1022700098CB1147D8CB8D44EFE04FAA2A847D1428
:1022800031654204130505B84180EFE04FF7EFE0F8
:102290008F9EE3E384FEEFE0AFC80DC13755070022
:1022A00013050530EFE0AFF5EFE06FBB01C9B707ED
:1022B000EFBE37E700E0938707083CC705671307C1
:1022C000A730239CE1849387818529472381E700F8
:1022D000A38D0184EFE02F9A3165130505B8EFE077
:1022E0000FF2CDBF856793875730239CF184514708
:1022F000938781852381E7008D44EFE02FA22A8414
:102300007D142399A18042043165130505B84180ED
:10231000EFE0EFEEEFE02F96E3E184FE2388018209
:10232000C16D8567FD1D9387873823990180238EB2
:10233000018023AEF18223ACB183814A054D0D6B40
:102340006E8A3165130505B8EFE06FEB83A4C18396
:1023500003A481831395040193150401C181418174
:10236000EFE00FDC83D721811307800C8507C207BC
:10237000C1836374F7008147854A2399F180EFE0B8
:10238000EF99D147E3EFA7FA93074B920A053E95E1
:102390001C41828783C7C1818DE385679384C4F91B
:1023A000938737CE63F5970023AE918259BF856737
:1023B000938747CE23AEF18269B7E394A7F9630B05
:1023C00044011304C4F99307301F63F9870023AC59
:1023D000818285BF0564130484BBD5BF9307401F6A
:1023E00023ACF182B9BF83C7C18185E763810A024B
:1023F0008567938444ED938737CE63F5970023AECA
:10240000918231A08567938747CE23AEF182814ABE
:102410000DBFE39EA7FFE38C0AFE630B4401130488
:10242000C4F99307301F63F9870023AC8182C5B7D5
:102430000564130484BBD5BF9307401F23ACF1820E
:10244000F9B783C7C18189EB956793844406938765
:102450008720E3E197F689BFE395A7EF856713042B
:102460004406938787BBE3F487F623ACB183D1BDE1
:1024700083C7C18199EBE38C0AF895679384C412F2
:1024800093878720E3E397F89DBFE392A7F9E38062
:102490000AF8856713044406938787BBE3F787F838
:1024A000C167FD1761BF83C7C18191C7E39BA7E9DE
:1024B000238E018079B5238EA18161B5FD77938745
:1024C000C731BE94916793874752E3EC97E68567DF
:1024D0001306C4E09387479C63F4C700E31344E703
:1024E000EFE00FA40DC13755070013050530EFE0ED
:1024F0000FD1EFE06F9D01C9B707EFBE37E700E0EE
:10250000938707083CC785679387A730239CF1848E
:10251000A38D0184EFD03FF63165130505B8EFE0D8
:102520000FCECDBFEFE04F9A630E05AE23AE018212
:1025300023AC0182EFE0CF9E0DC137550700130594
:102540000530EFE0CFCBEFE02F9801E9B707EFBE02
:1025500037E700E0938707083CC705671307A730F4
:10256000239CE1849387818529472381E700EFD06D
:102570009FF03165130505B8EFE06FC8CDBF639AD2
:102580000AB4814513054038EFD01FE60D4BEFD05C
:10259000FFF8AA8AFD1A2399A180C20A31651305A2
:1025A00005B893DA0A01EFE08FC5EFD0DFECE36006
:1025B0005BFF6FF00FB25D713AD2377702403ED0C9
:1025C0008347970086C696C49AC29EC022DE26DC48
:1025D0002ADA2ED832D636D442CE46CC72CA76C843
:1025E0007AC67EC493F70702BDC783479700854626
:1025F0008D8B639AD7048356A70015476375D7045C
:102600009386C18583D486041384C18513970401FE
:1026100041876345070E13D6C4001D8A13F7F401E2
:10262000631706100D466309C70C1946630FC70EE2
:102630006316F70C2383E60283C74602850793F7E8
:10264000F70F2382F602377702408347970093E71C
:102650000702A304F700B777024003C79700620799
:1026600061876357070403D7C700C166BD16758F1E
:102670002396E70003D7E700C166BD16758F239741
:10268000E700130770072391E70003C7470085465B
:102690001377C70F136727002382E7001387C185CD
:1026A000A302D70203C7970013670708A384E700B4
:1026B000B777024003C797001377070409CB03C716
:1026C000970013670704A384E700EFE0EFCE72548E
:1026D000B640A64216438643E2545255C25532567E
:1026E000A256125782577248E248524EC24E324F9B
:1026F000A24F6161730020309D471CC01305005A32
:10270000EFE0EFAF8567A3020402938707E0FD8C3B
:102710008347640193E4140009458D8B9A07DD8C8F
:1027200023149404EFE0EFCF39BFA147F9B7E317C3
:10273000F7FC8D471CC093D7C4009D8B230AF4007F
:1027400093D764008D8B230BF40013078404814717
:102750001305C406F146834527003306F5008507B7
:102760002300B6000507E398D7FE49BF8567938726
:10277000A74397E1FF1F9381E10817310020130160
:1027800061887D45731005BC1305800873200530F2
:102790008D4573904580130540004D8D7310553065
:1027A000739017340D67B70700201307C7989387F6
:1027B00007009386818063E8D7029387818013871F
:1027C000418E63E7E702B7270240094798C3B7176E
:1027D000024023A2070037F700E0954614C3714773
:1027E00098CF730020301443110794C39107D1B7D9
:1027F00023A007009107E1B71C010000440100007D
:102800006E0100008E010000AE010000D00100004A
:10281000F2010000FE0100002C020000380200005E
:10282000480200006802000088020000A6020000C2
:10283000B2020000BE020000DC020000FA0200004A
:102840001803000042030000600300004201000082
:102850007E0300008C030000AA030000CA030000EE
:10286000740F00007E0F0000840F0000AE0F000008
:102870008C1000007E0F00007E0F00007E0F000015
:10288000A8100000BE100000FE1700005018000045
:102890005E1800006C1800007A1800007A1800001A
:1028A000861800008E180000EC1800002E1A000098
:1028B0005C1D00001A20000048180000E4220000FF
:1028C000242500007E250000601D0000C61D0000BC
:1028D000F41E0000E61F000004200000221D00007E
:1028E000221D0000221D0000221D0000221D0000EC
:1028F000261E0000DE1E0000221D0000221D00001A
:10290000221D0000221D0000221D0000221D0000CB
:10291000221D0000221D0000301F0000221D0000AB
:10292000DE1E00000E24000094230000422400005C
:10293000A6240000BC240000422300004223000023
:10294000422300004223000042230000E62300004F
:1029500042230000422300004223000042230000E3
:1029600042230000422300004223000042230000D3
:1029700042230000702400000005FF0105FF020152
:0C298000050703FF0406FF05FFFF000031
:08298C00010088132400000083
:00000001FF
