:040000006F20A06469
:1000040000000000000000000C0B00000C0B0000BE
:10001400000000000C0B00000000000000000000C5
:100024000C0B00000C0B000000000000000000009E
:100034000C0B0000000000000C0B0000000000008E
:100044000C0B00000C0B00000C0B00000000000067
:100054000C0B00000C0B00000C0B00000C0B000040
:100064000C0B00000C0B00000C0B00000C0B000030
:100074000C0B00000C0B00000C0B00000C0B000020
:100084000C0B00000C0B00000C0B00000C0B000010
:100094000C0B00000C0B00000C0B00000C0B000000
:1000A4000C0B00000C0B00000C0B00000C0B0000F0
:1000B4000C0B00000C0B00000C0B00000C0B0000E0
:1000C4000C0B0000942400000C0B00000C0B00002F
:0C00D4000C0B00000C0B00000C0B0000DB
:1000E000E14763EDA70C89679387876D0A053E9505
:1000F0001441371701409307078082868D4694CBC1
:10010000B7170140B7060005938707C09386862D71
:1001100094CBA5475DA0B706030094CBB717014069
:10012000B7060005938707C09386862D94CBB70743
:10013000090061A0C166890694CBB7170140B706D4
:100140000006938707C09386861DD9B7B7060300BC
:1001500094CBB7170140B7060004938707C0938676
:10016000863D7DB7B7060200850694CBB7170140E0
:10017000B7060004938707C09386863D45BFB70640
:100180000200850694CBB7170140B7068004938719
:1001900007C093868635ADBF8D46EDB7B706020022
:1001A000850694CBB7170140B7060005938707C0B3
:1001B0009386862D94CBC167A1071CCB82808D4688
:1001C00041BFB7060200850661B7B706030094CBAE
:1001D000B7170140B7068007938707C09386860547
:1001E000B1B7B706030094CBB7170140B706800636
:1001F000938707C09386861515BF8D4694CBB71796
:100200000140B7068006938707C0938686155DB7C1
:100210008D4675BF8D4691BF8D4694CBB717014073
:10022000B7060006938707C09386861D61B78D4683
:1002300094CBB7170140B7068007938707C0938612
:100240008605F9B58D4694CBB7170140B706000473
:10025000938707C09386863DB1BF8D4694CBB71771
:100260000140B7068007938707C09386860594CB25
:10027000B7070800850791B78D4694CBB7170140A3
:10028000B7068006938707C09386861551B58D46BD
:1002900094CBB7170140B7068006938707C09386B3
:1002A0008615F1B7C16689063DBF8D4694CBB71759
:1002B0000140B7068005938707C09386862589BDD0
:1002C000C166890694CBB7170140B706000493872F
:1002D00007C09386863D61BF8D4694CBB71701401A
:1002E000B7060006938707C09386861D81B5896788
:1002F0009387F77063E1A704A9473355F5024205D8
:100300004181B9ED8547A38FF184A9463357D502C2
:1003100093074006B357F5023377D70293F7F70FE9
:100320003375D502238EF1849387C185A380E700BE
:100330002381A7008280E1679387F76963EAA700BA
:10034000930740063355F50289474205418165BF51
:100350009307803E3355F50281474205418165B7D9
:10036000130740063357E5020946A38FC18433556E
:10037000F5021377F70F3375F5026DB7411122C4FB
:1003800083C7418006C6130740026383E70413074F
:1003900060026384E706130730026393E70203C534
:1003A000C1853D3BB71701404147938707C0D8CB74
:1003B00083C6F18505476395E6001307004098CB97
:1003C00093074002B2402382F1802244410182809F
:1003D00003C5D1853133B717014013070004938754
:1003E00007C0D8CB83C6F18509476395E60013079C
:1003F000004098CB93076002F1B703C5E185CD318A
:10040000B71701402147938707C0D8CB83C6F18532
:100410000D476395E6001307004098CB9307300221
:1004200055B737160140930706C094479395460188
:1004300063CE050283C64180130640026380C60274
:10044000130660026380C60213063002638EC60084
:1004500083D661858506239BD1843DA89146238C54
:10046000D184FDB78D46E5BF8946D5BF1446939527
:10047000E6008546E3C505FE83C6818591CE91459C
:10048000639DB60283C5418013064002E392C5FC1A
:10049000238C0184238AD18403C7818521CB83D611
:1004A00061859307A00F1305F00F63F1D708A947E3
:1004B0003307F7021375F70F82808D456397B600F7
:1004C00083C5418013066002D1B789456397B600A2
:1004D00083C541801306300255BF8545E39AB6F6C1
:1004E00010469315E600E3C505F65DB703C54185E3
:1004F0000DC983D661851306A00F637CD600239BAC
:100500000184AD473305F502238A01841375F50F85
:1005100082800D466377D600239B0184238A018461
:100520008280239B0184238A018401458280B7272E
:100530000140938707409847B706400013671700AC
:1005400098C79847558F98C79843098B75DFE84738
:1005500042054181828003C60183411106C6AE87F0
:10056000854683C5C1812DC66382D5028947638EC6
:10057000F5028DE903A581819D3BB7170140938763
:100580000780114798CB2147D8CB29A803A54181E3
:100590008145B13BB7170140938707801147D8CBFE
:1005A000214798CBB2404101D1BB03A7418183A72A
:1005B00081811305803E8145B387E70233D5A702C9
:1005C0003D33B717014093870780114798CBC9BFC8
:1005D0006388D50089476381F504E9F5854569BFDE
:1005E0003717014013070780914654CBA14614CB1F
:1005F00041677D17639FE70005671307A7B0239E38
:10060000E1849387C18529472381E700A38F018473
:1006100051BF3E85E93979B7238E0180C1B7B7272D
:100620000240D84793761700EDFE9376070289E6DD
:1006300023A8070001458280D8C705458280411163
:1006400006C622C426C24AC0D93FB7C7000883A441
:1006500007F023A89184E137B7C7000803A947F042
:10066000FD1423A62185653FB7C7000803A487F0C2
:1006700023A481846D37B7C7000883A7C7F001455D
:1006800023A2F1847557636B9700FD566308D90068
:1006900036946365870085073335F000B240224405
:1006A0009244024941018280411106C622C4853F1D
:1006B000B7C7000803A407F123A081848D37B7C70B
:1006C000000883A747F1014523AEF1827D77130728
:1006D000C7313A94116713074752636F8700056764
:1006E0009386C7E01307479C05456377D70041779A
:1006F0002A97BA9713B51700B2402244410182806D
:100700005D714EDE83A90185A6C283A48184CAC01F
:1007100003A9C184B3E7990086C6A2C452DC56DAA5
:100720005AD85ED662D466D2B3E7270185E3814406
:10073000B64026440649F259625AD25A425BB25B2D
:10074000225C925C2685964461618280C93DB7C770
:10075000000803A487F1FD57E31BF4FCC935B7C7B4
:10076000000883A7C7EFE39487FCB7270240984BA4
:1007700013770708631B070EB7270240984B9316A1
:10078000070163C40610613D37240240B707020029
:100790001CC8B7C70008938707F05CC81C4893E7DC
:1007A00007041CC8AD3D41D52328040003A741849C
:1007B0004EC04AC23AC603A7018426C43AC803A75A
:1007C000C1833ACA7D573ACC3ACE1C4893F7070802
:1007D000E9EFB7270240984B9316070163C7060E4F
:1007E0003D3D37240240C1671CC80149370A080053
:1007F000854A7D5BB70B04001C48B3E747011CC862
:10080000393DE30605F2B7C4000837CC0008931C55
:1008100049008A89938404F0130C0CF16317090CC6
:1008200083A709009CC01C4891049109B3E7770194
:100830001CC8F533E39484FFB7C70008938707F01B
:100840005CC81C4893E707041CC8D13BAA84E3009A
:1008500005EE0509C147E311F9FA23280400C13365
:10086000A167938707081CC8E1B5370767451307D9
:100870003712D8C33797EFCD1307B79AD8C39C4B1D
:1008800093F70708E38A07EE5DB537076745130757
:100890003712D8D33797EFCD1307B79AD8D39C4BDD
:1008A00013970701E35107EE59B5B70767459387DB
:1008B00037125CC0B797EFCD9387B79A5CC01C48DE
:1008C00093F70708E38707F09DB5370767451307D8
:1008D0003712D8D33797EFCD1307B79AD8D39C4B9D
:1008E00013970701E35E07EE99B56316590183A7D5
:1008F00009019CC80DBFB387940123A0670125B7E8
:1009000037F700E01C473E951C47898FE3CE07FE72
:100910008280411106C622C426C24AC00D3311E9A5
:100920008D47B2402244238CF18292440249410116
:10093000828037140140130404C01C40B704F1FF47
:10094000FD1437070400E58FD98F1CC01C40457784
:100950007D17F98F1167D98F1CC01C40370900F132
:100960007D1937070003B3F72701D98F1CC0316504
:10097000930700045CC8130505B85937184481472C
:100980009316470163CA06021C403707000431650D
:10099000B3F72701D98F1CC01C403707030013058C
:1009A00005B8E58FD98F1CC0C1475CC8913F1C4476
:1009B000AD83858B93C7170037170140130707C016
:1009C00014433706F1FF7D16F18E37060300D18EF2
:1009D00014C31443370600F17D16F18E3706000369
:1009E000D18E14C3144345767D16F18E0D66D18EDB
:1009F00014C39DF7553991470DF51387018683463A
:100A00005701894799FE8347470103475701998F4B
:100A1000B337F00039B74111B7270140938707403A
:100A2000214706C6D8DB213683A701851307803E00
:100A30003305F50283A7C1843355E502B3C7E70246
:100A40003E95B707002083D7270023AAA18293876A
:100A5000773E63D1A70A03C7018319CF2388018298
:100A6000B71701409387078013070002D8CBB70759
:100A7000002005472380E70083A7C182AA9731653C
:100A8000130505B823A6F182A53DB727014093873A
:100A900007401147D8DB613C83A781841307803E60
:100AA0003305F50283A741843355E502B3C7E70256
:100AB0003E9583D7418223A4A1829387471F63D1A8
:100AC000A70403C7018319CF23880182B717014008
:100AD0009387078013070002D8CBB707002005478C
:100AE0002380E70083A70182B240AA9723A0F18266
:100AF00041018280E35205F823AA01820145ADBF7E
:100B0000E35205FE23A401820145E9BF01A09387BA
:100B10000186DC470A05AA9703D5E7FF8280938701
:100B2000018603C7470183C65701158F1377F70F57
:100B30006368A700DC470A05AA9703D5E7FF828010
:100B4000198D19473305E5029C4BAA9703D5A7FFDA
:100B500082809387018603C7470183C65701158F9B
:100B60001377F70F6368A700DC470A05AA9703D538
:100B7000E7FF8280198D19473305E5029C4BAA9740
:100B800003D5C7FF82809387018603C7470183C6C9
:100B90005701158F1377F70F6368A700DC470A0525
:100BA000AA9703D5C7FF8280198D19473305E5023F
:100BB0009C4BAA9703D5E7FF8280B77702401307C3
:100BC000200A2396E7002397E70093870186A384F2
:100BD00007002385070023840700238A0700A38AD0
:100BE000070023A0070023A2070023820702138720
:100BF0008702A3820702D8C71387C703238307028C
:100C000098CB0547238BE70023810702238DE7005C
:100C1000A38DE700056713078738239EE70023901D
:100C2000E7028280B777024003D70700118B15CB0C
:100C300003D7E700136707012397E700B777024060
:100C40001307F0042391E700A38207002393A70072
:100C5000A384070003C74700136737002382E70018
:100C6000828003D7C700136707012396E700F9B70F
:100C70009387018603C5A70183C6470203C66701A0
:100C800005689D8A0908A6060D8A1A06B3E60601BC
:100C9000D18E03C6470103C857019375F50F9377AB
:100CA000F50033060641138701866357A6040356F1
:100CB000C701D145F2073356B6028565FD156D8E25
:100CC0002606D18F0356E701930520033356B6025B
:100CD000B70500031376F6074D8EB70500FD938523
:100CE00005F8ED8FD18F2315F7041945C18323141F
:100CF000D7042316F7043DB79387F5FF8A07BA9701
:100D000003D68702A947370500033356F602F205DA
:100D10001376F63F9317A600498ED18FCD8FE1B79A
:100D2000797122D426D24AD04ECE52CC56CA5AC855
:100D300062C49387018606D65EC666C22390070208
:100D4000238107029304F00F13840186377C02404D
:100D5000094B0549954937EA00E0B70A0200834785
:100D6000240293FCF70F89E7FD1493F4F40F85E058
:100D7000B25022540259F249624AD24A424BB24B13
:100D8000224C924C3335900092544561828037B5A5
:100D9000030013050598AD368357CC004167130750
:100DA000E7F1F98F2316FC008357CC00C1669386C8
:100DB000E6F193E707042316FC000357CC008357A2
:100DC000EC004207F58F2317FC008357EC004183AA
:100DD00093E707042317FC008356EC008947858AB4
:100DE00099E293771700035784010507420741836F
:100DF000231CE4001840631E2703639E2707230576
:100E000004000347940005071377F70FA304E400D9
:100E10000347940063FFE900A3040400094718C0D6
:100E20003776024003570600C166ED16758F231012
:100E3000E60018406374E902ADEF8347840085073C
:100E400093F7F70F2304F4008347840063F8F90055
:100E5000230404002320040023225A19832B0400B6
:100E60001C402547636FF70409678A071307C77398
:100E7000BA979C438287A3040400639967030347DE
:100E8000A40005071377F70F2305E4000347A40028
:100E9000E3F1E9FA230504001CC0B776024003D74A
:100EA0000600136747002390E60061B7230504009E
:100EB00049B7230404005DB723225A19FD392320C2
:100EC00024012322740161BD58401C40E30BF7FE4E
:100ED000930770072311FC0083474C0093F7C70F5B
:100EE00093E727002302FC00A3080A4223225A1199
:100EF000C9BF83475402F1D7A3020402B7E700E059
:100F0000370702000328C400144823A2E718A30AE5
:100F10000400B70800F0370300C0294E93052003F2
:100F20001946130540068347440163EBFC00B7E70D
:100F300000E03707020023A2E71091471CC051B719
:100F400013972C00B307E400FC57B3FE170163921C
:100F50006E060347540193DE170193FEFE0F33071D
:100F6000C702B38EAE0236972311D701034754014F
:100F700093DE870093FEFE0F3307C70293F7F70750
:100F8000B38EAE0236972310D70103475401B387BF
:100F9000B7023307C70236972312F700834754017D
:100FA000850793F7F70FA30AF400850C93FCFC0F59
:100FB0009DBF93FEF73FA98393F7F73FB38ECE0310
:100FC0004297B387B7022310D7012311F700F1BF6F
:100FD00058401C406303F700613983476402E38291
:100FE00007EE2303040223203401E1BD83475402AA
:100FF000E38907ECA3020402A5471CC0231C0400DC
:10100000C9B5230124030347A4018347B40163182E
:10101000F7000357C40183570402E304F7EA834748
:10102000A401094593F7F70FA30DF4008357C401FA
:10103000C207C1832310F402230104028347440240
:10104000034764019D8BA6070D8B1A0793E7770072
:10105000D98F2314F404F936A947CDB5411122C420
:1010600006C613840186230DA400231EB400213E6E
:10107000231FA4002244B24041015DB19387018641
:1010800003C7470103C6570183A8070103A8C70088
:10109000118FAA851377F70F81479386018619432D
:1010A00003C6460163E4C70001458280138517002B
:1010B00063FBE7008A07C29783D727006391B702D3
:1010C0001375F50F61BF998FB3876702C69703D673
:1010D000070063E6C50083D72700E3F3B7FE9377E5
:1010E000F50F7DBF1386018683464601834756016F
:1010F0000346560193F6F60F93F7F70F1387018611
:1011000011CE9D8E0328070193F6F60FB6879948F6
:10111000130310030346470163E4C70001458280BF
:101120003386D7403306160385074296035E0600D2
:101130006365C503035E26006361AE020356460085
:10114000636DB600637BB30093F7F70F230DF700D1
:10115000231EA700231FB700E1B693F7F70F5DBF6B
:1011600003C781838947631FF70AB7170140938735
:1011700007809847411122C4B706002006C626C240
:101180001377070203D426003DE703C7018325C771
:10119000B704002003C7040039EF1307000298CBFF
:1011A00083D5418222853D3F134515000589238063
:1011B000A4009387018603D7C7016318E40083D78F
:1011C000E70103D741826303F70283C7018399CF05
:1011D000B704002083C7040091EB83D541822285A8
:1011E00011371345150005892380A400B24022441D
:1011F0009244410182809847137707025DDB03C761
:10120000018345FB13070002D8CB83D5418203D568
:10121000E181C93D134515000589B70700202380EA
:10122000A70041BF03C70183B71701409387078019
:1012300011CB370700200347070009E71307000217
:1012400098CB828013070002D8CB828079714ECE72
:10125000854922D426D24AD052CC56CA5AC85EC634
:1012600006D60144B70A00201309800C4E8BCD3DF1
:1012700083D5418203D52A00EFF0EFADEFF0AFF94F
:1012800083D701818507C207C1836364F90223986C
:10129000F180EFF00F998D47630FF504F947E318DC
:1012A000F5FC83C7C181E3E4F9FC8947238EF18013
:1012B0007DBF83A7C182B3D727032398018023A6CC
:1012C000018223ACF18083A7018223A00182B3D7DE
:1012D000270323AAF18003C781838947E31BF7FA19
:1012E00005044204418093078002E3F487FAEFF09B
:1012F0003F98014479BF83C7C18189CBFD1793F71C
:10130000F70FE3E6F9F6238E018095B7238E61810E
:10131000B9BF056779711307B7B022D44AD052CC50
:1013200056CA5AC85EC6239EE18406D69387C185F5
:1013300026D24ECE62C466C22D472381E700416AA1
:1013400023840180A38F018405447D1A13870186BD
:101350008347470183A9018463FC870885679387D6
:1013600087386397F91483A6C183C167FD1763911A
:10137000F61483C78180639D0712B707002023916D
:1013800037018567938707962392F182238C018228
:1013900023980180B7090020238E018023880182D1
:1013A0002380090023A6018223A00182EFF0AFE68B
:1013B00083C709006392071603A7C1828547238864
:1013C000F18223ACE18003A70182B25023A0018205
:1013D000225423A6018223AAE18092540259F249A1
:1013E000624AD24A424BB24B224C924C45618280B7
:1013F00083474701034757012285998F93F7F70FDA
:1014000063E98702EFF0AFF0631C350983A7C1835E
:1014100063984709B70700202391A7002285EFF0C2
:101420008FF62392A182238481800547238CE18259
:1014300085A8EFF0CFEE63E5A9062285EFF06FF106
:10144000636035072285EFF00FF483A4C1836376D0
:101450009500C167FD176395F40483CC8180639880
:101460000C02B7070020228523913701EFF02FEB04
:10147000239FA180C167FD176398F4022285EFF0D6
:101480008FF02392A18223848180094745B722856A
:10149000EFF06FEF2A8C6685EFF0EFEEE36385FDEA
:1014A00005041374F40F5DB5139504014181D1BF98
:1014B00083C7818309476382E7046365F702E38991
:1014C00007ECB707002083D5270003C58180793654
:1014D000E31005ECEFE09FEA3165130505B8EFF086
:1014E0002FC2CDBF0D47E385E7EAEFE03FE9316565
:1014F000130505B8EFF0CFC0CDBF83D5418203D52A
:10150000E181CD36E31605E8EFE05FE731651305CD
:1015100005B8EFF0EFBECDBFEFE05FE63165130534
:1015200005B8EFF0EFBDCDBF5D718567A2C49387AD
:101530004751A6C2CAC04EDE52DC56DA86C65AD819
:101540005ED662D466D26AD06ECE23980180854979
:1015500081448D4A2317F100EFE05FE23165130506
:1015600005B8EFF0EFB903CB81838D6B93874B8583
:1015700033075B03938B4B85BA97A69703CC070081
:101580009D4763E5870309671307477693172C0088
:10159000BA9794431387C18582869306A050239EF1
:1015A000D184A9462301D700A38F0184EFE07FE710
:1015B0006306550D63E2AA088547630DF508894760
:1015C000630BF50A9147E319FBF8E38709F883D722
:1015D00001811307007D8507C207C1832398F1802D
:1015E000E37CF7F6239801802D338D318566938651
:1015F000C6D0239ED184B94675B785669386F6F02A
:10160000239ED184954679BF856693860611239ED5
:10161000D184C94641BF8356E100239ED184D94677
:1016200051B7856693867631DDB7856693868631B8
:10163000239ED184D546BDB79147E315F5F89D4764
:10164000E3E287F9096793172C0013074778BA97E5
:101650009C4382878149E36795F6B3075B03BE9B92
:10166000A69B03C71B009307F00FE306F74685040C
:1016700093F4F40F81BFB9D4FD14DDBF9307DBFFF2
:10168000B337F000B3F9F90035BF8567370600209E
:10169000938787382311F600856793870796B70BE2
:1016A00000202392F182238E0180238801822398D7
:1016B000018023800B0023A6018223A00182EFF08A
:1016C0008FB583C70B0085452388B182E39C07EE65
:1016D000B7170140938707801305000288CB83A7C3
:1016E000C1822388B18223ACF18083A7018223A623
:1016F000018223AAF18023A00182EFF07FA68565F5
:1017000005659385059613058538EFE0DFE4EFF076
:101710008FB083C70B00E39707EA83D70181930853
:10172000800C8507C207C18363EEF8022398F1801D
:10173000EFE03FCF91476309F506F947630AF504E7
:101740008D47E31CF5FA83C70183C5DB83C7C181DD
:10175000854585CFFD1793F7F70FE3E0F5FA238E64
:10176000018061BF83A7C18223980180B3D717038B
:1017700023A6018223ACF18083A7018223A00182EA
:10178000B3D7170323AAF18065B7238EB180B5B70D
:1017900083C70183BDD383C5C1818547E3EFB7F418
:1017A0008947238EF18091BFB71701409387078047
:1017B00093060002D4CB238801822147D8CB11475E
:1017C000D8CB09B585470569238CF1822384F18044
:1017D000E284130989381387018683474701034749
:1017E0005701998F93F7F70F63EA97002685EFF07B
:1017F0000FB26318250B23849180268C6285EFF04D
:101800000FB1B70700202391A700AA846285EFF0EB
:101810008FB72392A1822A89268523980180238E5F
:10182000018023880182EFF07F8513451500B70BF7
:10183000002005892380AB00930C800C054BEFF052
:101840003F92CA852685EFE01FD1EFF0CF9C83D76A
:1018500001818507C207C18363E9FC042398F180F5
:10186000EFE03FBC8D476304F50E63E3A706630218
:1018700065098947E315F5FC83C70183B5EF138735
:101880000186938701860347470183C6570183C7B3
:101890008180158F1377F70FE3F3E7FA13891700A9
:1018A000A5A8850493F4F40F3DB783A7C1822398BC
:1018B0000180B3D7970323A6018223ACF18083A7CD
:1018C000018223A00182B3D7970323AAF18049BFE5
:1018D0009147630DF508F947E313F5F683C70183D4
:1018E000B9DF83C7C181E36CFBF48947238EF180A4
:1018F000B9B783C7018399CBB71701402388018209
:101900009387078013070002D8CB15BF83C7818058
:10191000E377FBF21389F7FF1379F90F4A852384E4
:101920002181EFF0CF9EB70700202391A700AA8462
:101930004A85EFF04FA52392A1822A892685EFF0F0
:10194000EFF31345150005892380AB00CDBD83C798
:10195000C181638A670109476387E700E39107EE66
:10196000238E6181E9BD238E0180D1BD83C70B0029
:10197000E39707EC83C7018393C717002388F1829D
:101980007DBD8347470103475701998F93F7F70FB1
:1019900063F597042685EFF0CF9B6370A9048567F4
:1019A000370700209387873826852311F700EFF04B
:1019B0000F97239FA1802685EFF0AF992396A180F2
:1019C0002685EFF04F9C2395A1802392A1821307D7
:1019D000401F2397E18023849180850493F4F40FC2
:1019E000138701868347470103D9C180E3FB97F83A
:1019F000B717014093870780114798CB2147D8CB71
:101A000085454A85EFE0BF8E8D49EFE09FA1AA840E
:101A1000FD142398A180C2043165130505B8C18067
:101A2000EFE01FEEEFE09F95E3E199FE83D4E181C3
:101A300085450D4A2685EFE09F8BEFE09F9EAA89A2
:101A4000FD192398A180C2093165130505B893D902
:101A50000901EFE0FFEAEFE07F92E3603AFFB7179A
:101A60000140938707801147D8CB214798CB83D972
:101A7000A18085458D4A4E85EFE07F87EFE07F9A14
:101A80002A8A7D1A2398A180420A3165130505B878
:101A9000135A0A01EFE0DFE6EFE05F8EE3E04AFF72
:101AA00003DD4182EA85268523880182239801800F
:101AB000238E0180370C0020EFF0CFE21345150094
:101AC000835C2C000589B70700202380A700014B09
:101AD000814D054AEFF0CFE86685EA85EFE0BFA7C4
:101AE000EFE07FF303D501819307800C05054205E4
:101AF000418163E4A7022398A180EFE09F92594EB1
:101B00006360AE06096E0A05130E4E7A729508419F
:101B100002858544F1B5014B75BF03A5C18213074A
:101B2000800C3355E50213831D00931D030123A68A
:101B300001822398018093DD0D0193078002054BFC
:101B400023ACA18003A5018223A001823355E502C5
:101B500023AAA180E3F3B7FBEFF08F91814D71BF12
:101B6000794EE319C5F703C501832DD503C5C1819E
:101B7000E362AAF60945238EA180A9BF03C5C181EE
:101B800015E183572C009387C7F9939C070193DCD9
:101B90000C0163E49C00668519A02685A68C2311A0
:101BA000AC000DBFE31845F383D5418203D5E18036
:101BB0009385C5F9139D0501135D0D012392A18342
:101BC000E37AADF02392A1822A8D29B703C5C181A2
:101BD00015E9E3010BF003552C001308703E3305A3
:101BE00095416354A80023119C0193874CED939C6D
:101BF000070193DC0C01014BE3FE9CEC23119C00DC
:101C0000A68CC9BDE31845EDE3060BEC03D5418274
:101C10001308301F3305A5416354A8002392A18304
:101C20009305CDF9139D050103D5E180135D0D01E9
:101C3000014B79B703C5C18111ED83572C00938700
:101C40004706939C070193DC0C01E37699F54A85DE
:101C5000CA8CB1B7E31045E983D541829385450627
:101C6000139D0501135D0D016A8563F4A9014E857D
:101C70004E8D2392A182B9BD03C5C18115E9E30B45
:101C80000BE403552C001308703E3385AC406354BD
:101C9000A80023119C019387CC12939C070193DC2D
:101CA0000C01014BE37899E323112C01CA8C1DB57B
:101CB000E31245E3E3000BE203D541821308301F32
:101CC0003305AD406354A8002392A18393054D06CC
:101CD000139D0501135D0D01014BE3FDA9DF239267
:101CE00031834E8DC5BB03C5C181E365AADE2311D7
:101CF0009C012392A183F9BB03C5C181630A4501FD
:101D0000094E6307C501E31705DC238E4181D9B372
:101D1000238E0180C1B3B707002003C50700E31B72
:101D200005DA03C50183134515002388A1825DB33D
:101D30000565814513058538EFE06FDBB717014076
:101D400093870780114798CB2147D8CB1307000210
:101D500098CB8D44EFE0EFEC2A847D14316542048A
:101D6000130505B84180EFE0BFB9EFE02FE1E3E3F1
:101D700084FE372401409309800C814413040440FD
:101D800021493165130505B8232A2403EFE05FB725
:101D9000EFE0EFF9FD19AA94E39509FE93074006D9
:101DA000B384F40211659307800C81451305056522
:101DB000B3D4F402EFE0AFD3B717014093870780A5
:101DC000114798CB23AA27011307000298CB0D498E
:101DD000EFE02FE52A847D1431654204130505B830
:101DE0004180EFE0FFB1EFE06FD9E36389FE372474
:101DF00001401309800C13040440214B3165130585
:101E000005B8232A6403EFE0BFAFEFE04FF27D197E
:101E1000AA99E31509FE1304800CB3D9890293072C
:101E20004006371A014081450145914AB389F902BC
:101E300093070002232AFA80EFE06FCB232A5A810E
:101E400023286A81372A0140130A0A4031651305A5
:101E500005B8232A5A03EFE0BFAAEFE04FED7D1447
:101E60002A996DF4930740063309F9020565930733
:101E7000800C8145130585BB3359F902EFE02FC76C
:101E8000B71701409387078023AA5701214798CBB2
:101E90001307000298CB8D4AEFE0AFD82A8A7D1A4B
:101EA0003165420A130505B8135A0A01EFE05FA530
:101EB000EFE0CFCCE3E24AFF372B0140930A800CDE
:101EC000130B0B40114A3165130505B8232A4B0348
:101ED000EFE01FA3EFE0AFE5FD1A2A94E3950AFEB9
:101EE00037757C4DB3849940130505D03355950261
:101EF00013074006B71A0140938A0A80930700022D
:101F000023AAFA00B7A4E111938404308145B38970
:101F1000A90223A8A184B7B7120193870788B3D970
:101F2000E902B387374123A6F1849307800CB357A6
:101F3000F402B387E702B3872741B3D4F40223A4A2
:101F40009184B30799020D49B3D7E702B307F04074
:101F500023A2F184EFE0AFB9A14723A84A0123AA45
:101F6000FA00EFE00FCC2A847D143165420413059A
:101F700005B84180EFE0DF98EFE04FC0E36389FEF2
:101F800026858145EFE0AFB6B717014093870780FC
:101F9000214798CB1147D8CB8D44EFE08FC82A84D6
:101FA0007D1431654204130505B84180EFE05F956B
:101FB000EFE0CFBCE3E384FEEFE08FF411CD3755C3
:101FC000070013050530EFE0BF93EFE04FE709C5C9
:101FD000EFE03F94EFF04FD505671307A730239E3E
:101FE000E1849387C18529472381E700A38F01847A
:101FF000EFE0CFB83165130505B8EFE07F90CDBFB6
:102000009547238CF182856793875730239EF1840F
:1020100051479387C1852381E700A38F01840D4930
:10202000EFE02FC0AA84FD142398A180C20431657B
:10203000130505B8C180EFE0BF8CEFE02FB4E3617A
:1020400099FE23880182C1668567938BF6FF93878B
:10205000873823980180238E018023A0F18423AE4A
:102060007183014B054CDE8A3165130505B8EFE03D
:102070003F8903A9018483A4C183131509019395A2
:102080000401C1814181EFE00FCD83D701811307A6
:10209000800C8507C207C1836374F7008147054B35
:1020A0002398F180EFE0EFB7D147E3EFA7FA8D6710
:1020B000938707800A053E951C41828783C7C181AB
:1020C0008DE385671309C9F9938737CE63F5270137
:1020D00023A0218551BF8567938747CE23A0F18434
:1020E00061B7E39387F9638B54019384C4F9930731
:1020F000301F63F9970023AE9182BDB78564938446
:1021000084BBD5BF9307401F23AEF182B1BF83C705
:10211000C18185E763010B028567130949ED938748
:1021200037CE63F5270123A0218531A085679387EA
:1021300047CE23A0F184014B05BFE39E87FFE30C4C
:102140000BFE638B54019384C4F99307301F63F92A
:10215000970023AE9182C5B78564938484BBD5BFB5
:102160009307401F23AEF182F9B783C7C18189EB82
:1021700095671309490693878720E3E127F789BF0D
:10218000E39487EF856793844406938787BBE3F4E2
:1021900097F623AE7183C9BD83C7C18199EBE30C68
:1021A0000BF895671309C91293878720E3E327F992
:1021B0009DBFE39287F9E3000BF88567938444069B
:1021C000938787BBE3F797F8C167FD1761BF83C7A4
:1021D000C18191C7E39A87E9238E018071B5238E6F
:1021E000818159B5FD779387C7313E999167938770
:1021F0004752E3EB27E785679385C4E09387479CC5
:1022000063F4B700E39254E7EFE08FCF19C9374585
:102210004900130505E0EFE0AFEEEFE0EFC8E3198A
:1022200005DA85679387A730239EF1841387C185DC
:10223000A9472301F700A38F0184EFE02F943165B4
:10224000130505B8EFE0CFEBCDBF9947238CF182A2
:10225000EFE08FC5630205B023A0018423AE0182A5
:10226000EFE00FCA19C937454900130505E0EFE053
:102270002FE9EFE06FC3E30D05D405671307A7301F
:10228000239EE1849387C18529472381E700A38F9B
:102290000184EFE0AF8E3165130505B8EFE04FE63E
:1022A000CDBF639A0902814513058039EFE02F8481
:1022B0008D4BEFE00F97AA89FD192398A180C209E1
:1022C0003165130505B893D90901EFE06FE3EFE03D
:1022D000EF8AE3E03BFF81496FF0CFAEB7160140D4
:1022E000938706809843370610FF7D164111718F42
:1022F0003706300006C6518F98C398437D75130585
:10230000F50F698F1367073098C3984345787D1898
:102310008D68337707013367170198C3D84EB70527
:10232000020021631377F7F013670708D8CE8CD229
:10233000138706C05043337606013366660050C3E8
:1023400005661306068010CB90423376060133668D
:10235000160190C21043370800301206118233660E
:10236000060110C350431376F6F01366060350C3FC
:102370009042419A1366360090C29443370640FE5D
:102380007D1693F6F6F093E6060394C39443C19A40
:1023900093E6360094C35443C19A93E6360054C37F
:1023A0005443E98E93E6063054C393060002D4CB1F
:1023B000B7066745B767024093863612D4C7B7960B
:1023C000EFCD9386B69AD4C7D443F18ED4C3D44309
:1023D00037068001D18ED4C3D44337062000D18E76
:1023E000D4C3D4433706E8FF7D16F18ED4C3D4435B
:1023F0004166D4C3D443D4C3D443D18ED4C3D443CD
:1024000037060080D18ED4C3B71602409C4E2D46AD
:1024100093E717209CCEB727014093870740B0CBA6
:1024200037B66D1B1306B66DD0C790CB37060E00BE
:10243000050690C73D46B0CB370600407D16D0C795
:1024400090CB9C4E93E717019CCEDC4ACD8FDCCA23
:102450005C43B7060044A207A183D58F5CC337074E
:1024600001401C4F93E707301CCF9387818AC20736
:1024700037770240C1832318F700F977A1072310AB
:10248000F700F157A304F700EFE09F89EFE06FC872
:10249000EFF08F895D713AD2377702403ED08347A3
:1024A000970086C696C49AC29EC022DE26DC2ADA2F
:1024B0002ED832D636D442CE46CC72CA76C87AC628
:1024C0007EC493F70702BDC78347970085468D8B6F
:1024D000639AD7048356A70015476375D70493867C
:1024E000018683D4860413840186139704014187EF
:1024F0006345070E13D6C4001D8A13F7F401631752
:1025000006100D466309C70C1946630FC70E631604
:10251000F70C2383E60283C74602850793F7F70F7C
:102520002382F602377702408347970093E707023A
:10253000A304F700B777024003C7970062076187DB
:102540006357070403D7C700C166BD16758F23966E
:10255000E70003D7E700C166BD16758F2397E70034
:10256000130770072391E70003C7470085461377D9
:10257000C70F136727002382E70013870186A30292
:10258000D70203C7970013670708A384E700B7774C
:10259000024003C797001377070409CB03C79700CE
:1025A00013670704A384E700EFE02FE17254B640FD
:1025B000A64216438643E2545255C2553256A2569D
:1025C000125782577248E248524EC24E324FA24FC3
:1025D0006161730020309D471CC01305005AEFE075
:1025E0002FB28567A3020402938707E0FD8C83471F
:1025F000640193E4140009458D8B9A07DD8C231444
:102600009404EFE02FE239BFA147F9B7E317F7FCD5
:102610008D471CC093D7C4009D8B230AF40093D729
:1026200064008D8B230BF40013078404814713058A
:10263000C406F146834527003306F50085072300CD
:10264000B6000507E398D7FE49BF89679387C72D72
:1026500097E1FF1F9381011B173100201301819A1D
:102660007D45731005BC13058008732005308D452A
:1026700073904580130540004D8D73105530739055
:1026800017340D67B7070020130787869387070065
:102690009386818063E8D702938781801387818E38
:1026A00063E7E702B7270240094798C3B71702401C
:1026B00023A2070037F700E0954614C3714798CF6F
:1026C000730020301443110794C39107D1B723A09E
:1026D00007009107E1B70000FC00000016010000B0
:1026E000340100004C010000640100007E01000084
:1026F000980100009C010000BE010000C201000022
:10270000CA010000E2010000FA010000100200000E
:1027100014020000180200002E0200004402000013
:102720005A020000780200008E020000A40200009D
:10273000AA020000C0020000D8020000B80E00008B
:10274000C20E0000C80E0000F20E0000D00F000004
:10275000C20E0000C20E0000C20E0000EC0F00000E
:10276000021000009A150000EC150000FA15000098
:1027700008160000161600001616000022160000AB
:102780002A1600008A160000C4170000121B000061
:10279000301D0000E8150000002000004A22000063
:1027A000A2220000161B00007C1B0000341C00004D
:1027B000F81C0000161D0000D41A0000D41A0000F6
:1027C000D41A0000D41A0000D41A0000CC1B000058
:1027D000E61C0000D41A0000D41A0000D41A00002D
:1027E000D41A0000D41A0000D41A0000D41A000031
:1027F000D41A0000781C0000D41A0000E61C000067
:1028000036210000BC2000006A210000CE2100001B
:10281000E42100006820000068200000682000001B
:1028200068200000682000000E21000068200000E1
:102830006820000068200000682000006820000078
:102840006820000068200000682000006820000068
:10285000982100000005FF0105FF0201050703FFA5
:082860000406FF05FFFF000064
:082868000100881324000000A8
:00000001FF
