:040000006F20806F7E
:100004000000000000000000480B0000480B000046
:1000140000000000480B0000000000000000000089
:10002400480B0000480B0000000000000000000026
:10003400480B000000000000480B00000000000016
:10004400480B0000480B0000480B000000000000B3
:10005400480B0000480B0000480B0000480B000050
:10006400480B0000480B0000480B0000480B000040
:10007400480B0000480B0000480B0000480B000030
:10008400480B0000480B0000480B0000480B000020
:10009400480B0000480B0000480B0000480B000010
:1000A400480B0000480B0000480B0000480B000000
:1000B400480B0000480B0000480B0000480B0000F0
:1000C400480B000042250000480B0000480B0000CC
:0C00D400480B0000480B0000480B000027
:1000E000E14763ECA7028967938747780A053E9545
:1000F0001841B71701409387078002870D4798CBB7
:10010000B717014037070005938707C01307872DEE
:1001100098CBB7170140254798CB8280370703005B
:1001200098CBB717014037070005938707C013071F
:10013000872D98CBB717014037070900F1BF4167FA
:10014000090798CBB717014037070006938707C008
:100150001307871D75BF3707030098CBB7170140FA
:1001600037070004938707C01307873D55B7370744
:100170000200050798CBB7170140370700049387A3
:1001800007C01307873D75B737070200050798CBEF
:10019000B717014037078004938707C013078735D7
:1001A00085BF0D47EDB737070200050798CBB71796
:1001B000014037070005938707C01307872D98CBA9
:1001C000C167A107371701401CCB82800D4771B76B
:1001D00037070200050751B73707030098CBB71759
:1001E000014037078007938707C01307870591B73A
:1001F0003707030098CBB71701403707800693876E
:1002000007C01307871535B70D4798CBB7170140BF
:1002100037078006938707C0130787154DB70D472B
:1002200075BF0D4781BF0D4798CBB7170140370702
:100230000006938707C01307871D51B70D4798CB5A
:10024000B717014037078007938707C01307870553
:10025000C1B50D4798CBB717014037070004938706
:1002600007C01307873DA1BF0D4798CBB7170140C3
:1002700037078007938707C01307870598CBB70711
:100280000800850781B70D4798CBB717014037079E
:100290008006938707C0130787159DBD0D4798CB30
:1002A000B717014037078006938707C013078715E4
:1002B000F1B7416709073DBF0D4798CBB71701401C
:1002C00037078005938707C01307872591B54167D6
:1002D000090798CBB717014037070004938707C079
:1002E0001307873D61BF0D4798CBB717014037070C
:1002F0000006938707C01307871D25BD896793876D
:10030000F77063E8A70229473355E50285474205A0
:10031000418185CD93074006B357F5023355E50279
:1003200093F7F70F3375E5020947A38FE184294757
:1003300025A8E1679387F76963E1A704930740065F
:100340003355F502894742054181A38FF184A946BF
:10035000B357D502130740063357E502B3F7D70268
:100360001377F70F3375D502238EE1841387C18588
:10037000A300F7002301A70082809307803E335536
:10038000F502814742054181C9B7411122C483C7A3
:10039000418006C6130740026383E7041307600227
:1003A0006384E706130730026393E70203C5C18540
:1003B000053BB71701404147938707C0D8CB83C699
:1003C000F18505476395E6001307004098CB930736
:1003D0004002B2402382F18022444101828003C561
:1003E000D185FD39B717014013070004938707C073
:1003F000D8CB83C6F18509476395E6001307004013
:1004000098CB93076002F1B703C5E185D139B717DF
:1004100001402147938707C0D8CB83C6F1850D479C
:100420006395E6001307004098CB9307300255B759
:10043000B7170140938707C094473716014093953B
:10044000460163CE050283C64180130640026380E5
:10045000C602130660026380C60213063002638E72
:10046000C60083D661858506239BD1843DA891462D
:10047000238CD184FDB78D46E5BF8946D5BF144690
:100480009395E6008546E3C505FE83C6818591CE3A
:100490009145639DB60283C5418013064002E392F5
:1004A000C5FC238C0184238AD18403C7818521CB99
:1004B00083D661859307A00F1305F00F63F1D7086A
:1004C000A9473307F7021375F70F82808D456397AD
:1004D000B60083C5418013066002D1B78945639792
:1004E000B60083C541801306300255BF8545E39AA7
:1004F000B6F610469315E600E3C505F65DB703C5ED
:1005000041850DC983D661851306A00F637CD60093
:10051000239B0184AD473305F502238A01841375BB
:10052000F50F82800D466377D600239B0184238AD2
:1005300001848280239B0184238A01840145828077
:10054000B7270140938707409847B70640001367D5
:10055000170098C79847558F98C79843098B75DF40
:10056000E84742054181828003C60183411106C6E6
:1005700083C7C1813DC605476383E7020947638F8F
:10058000E70295EB03A5818181458D3BB7170140BB
:1005900093870780114798CB2147D8CB29A803A57B
:1005A00041818145A13BB7170140938707801147DF
:1005B000D8CB214798CBB2404101C1BB03A74181B1
:1005C00083A781811305803E8145B387E70233D538
:1005D000A7022D33B717014093870780114798CBA7
:1005E000C9BF05466388C70009476383E704E1F78D
:1005F000854561BFB7170140938707809146D4CBEB
:10060000A14694CBC167FD172E87639FF500056750
:100610001307A7B0239EE1849387C18529472381CF
:10062000E700A38F018441BF85453A85C13961B791
:10063000238E018075BFB7270240D84793761700F5
:10064000EDFE9376070289E623A807000145828024
:10065000D8C705458280411106C622C426C24AC0B9
:10066000D93FB7C70008938707F0844323A8918434
:10067000D937B7C70008938747F003A90700FD14CF
:1006800023A621854D3FB7C70008938787F0804395
:1006900023A481844D37B7C700089387C7F09C43D4
:1006A000014523A2F1847557636B9700FD566308DB
:1006B000D9007D146365870085073335F000B240AB
:1006C00022449244024941018280411106C622C45B
:1006D0009D37B7C70008938707F1804323A0818423
:1006E000993FB7C70008938747F19C43014523AE64
:1006F000F1827D771307C7313A9411671307475288
:10070000636F870005679386C7E01307479C05451D
:100710006377D70041770507BA9713B51700B24042
:100720002244410182805D714EDE83A90185A6C20B
:1007300083A48184CAC003A9C184B3E7990086C693
:10074000A2C452DC56DA5AD85ED662D466D26AD0D7
:10075000B3E727018DE38144B64026440649F259A8
:10076000625AD25A425BB25B225C925C025D268581
:10077000964461618280C135B7C70008938787F1CD
:100780008043FD57E319F4FC7D35B7C70008938714
:10079000C7EF9C43E39187FCB7270240984B137740
:1007A0000708631E070EB7270240984B93160701F0
:1007B00063C70610493537240240B70702001CC83A
:1007C000B7C70008938707F05CC81C4893E7070485
:1007D0001CC8953549D12328040083A741844EC005
:1007E0004AC23EC683A7018426C43EC883A7C183EC
:1007F0003ECAFD573ECC3ECE1C4893F70708E5E3C2
:10080000B7270240984B9316070163CA060E253599
:10081000B7270240416737CA0008B7CA000898CB1B
:10082000014937240240370B0800854B7D5C130AD1
:100830000AF1938A0AF01C48B3E767011CC8E53B3C
:10084000E30B05F0B7C40008131D49008A8993849F
:1008500004F0B70C04006314090C83A709009CC0C2
:100860001C4891049109B3E797011CC8E933E3944C
:1008700044FF232A54011C4893E707041CC8653B26
:10088000AA84E30A05EC0509C147E316F9FA23280F
:1008900004005533A167938707081CC875BD370747
:1008A000674513073712D8C33797EFCD1307B79AA9
:1008B000D8C39C4B93F70708E38707EE69BD37075A
:1008C000674513073712D8D33797EFCD1307B79A79
:1008D000D8D39C4B13970701E35E07ECADBDB70778
:1008E0006745938737125CC0B797EFCD9387B79A68
:1008F0005CC01C4893F70708E38407F0A9BD3707DD
:10090000674513073712D8D33797EFCD1307B79A38
:10091000D8D39C4B13970701E35B07EE2DBD6316FD
:10092000790183A709019CC825BFB3079D0023A0B7
:1009300087013DB7B7F700E09C4737F700E03E95E9
:100940001C47898FE3CE07FE8280411106C622C470
:1009500026C24AC0093311E98D47B2402244238C94
:10096000F18292440249410182803714014013040C
:1009700004C01C40B704F1FFFD1437070400E58FE5
:10098000D98F1CC01C4045777D17F98F1167D98F0F
:100990001CC01C40370900F17D1937070003B3F76D
:1009A0002701D98F1CC03165930700045CC813056B
:1009B00005B84937184481479316470163CA0602B0
:1009C0001C40370700043165B3F72701D98F1CC0DD
:1009D0001C4037070300130505B8E58FD98F1CC0ED
:1009E000C1475CC8813F1C44AD8393C71700858B0A
:1009F00037170140130707C014433706F1FF7D1670
:100A0000F18E37060300D18E14C31443370600F16C
:100A10007D16F18E37060003D18E14C3144345763C
:100A20007D16F18E0D66D18E14C39DF779399147ED
:100A30000DF51387018683465701894799FE834741
:100A4000470103475701998FB337F00039B7411178
:100A5000B727014093870740214706C6D8DBCD342E
:100A600083A701851307803E3305F50283A7C18460
:100A70003355E502B3C7E7023E95B707002083D799
:100A8000270023AAA1829387773E63D5A70A83C64E
:100A9000018399CE23880182B7170140938707808D
:100AA00093060002D4CBB707002085462380D700E9
:100AB00083A7C18203A741833165130505B8BA979F
:100AC00023A6F182853DB727014093870740114750
:100AD000D8DBBD3483A781841307803E3305F5023C
:100AE00083A741843355E502B3C7E7023E9583D718
:100AF000418223A4A1829387471F63D2A70483C6A0
:100B0000018399CE23880182B7170140938707801C
:100B100093060002D4CBB707002085462380D70078
:100B200083A7018203A78182B240BA9723A0F182F2
:100B300041018280E35E05F623AA018295BFE3515D
:100B400005FE23A40182E9BF01A093870186DC474B
:100B50000A05AA9703D5E7FF82809387018603C71A
:100B6000470183C65701158F1377F70F6368A700F6
:100B7000DC470A05AA9703D5E7FF8280198D19473C
:100B80003305E5029C4BAA9703D5A7FF8280938784
:100B9000018603C7470183C65701158F1377F70FE7
:100BA0006368A700DC470A05AA9703D5E7FF8280A0
:100BB000198D19473305E5029C4BAA9703D5C7FF4A
:100BC00082809387018603C7470183C65701158F2B
:100BD0001377F70F6368A700DC470A05AA9703D5C8
:100BE000C7FF8280198D19473305E5029C4BAA97F0
:100BF00003D5E7FF8280B77702401307200A2396C8
:100C0000E7002397E70093870186A38407002385E5
:100C1000070023840700238A0700A38A070023A074
:100C2000070023A207002382070213878702A382FB
:100C30000702D8C71387C7032383070298CB05474A
:100C4000238BE70023810702238DE700A38DE700B4
:100C5000056713078738239EE7002390E702828009
:100C6000B777024003D70700118B15CB03D7E700F6
:100C7000136707012397E700B77702401307F004D3
:100C80002391E700A38207002393A700A384070012
:100C900003C74700136737002382E700828003D72A
:100CA000C700136707012396E700F9B7938701860A
:100CB00003C5A70183C6470283C5670105689D8AEE
:100CC000A60609088D899A05B3E60601CD8E83C56F
:100CD000470183C757011376F50F138701869D8D52
:100CE0009317C50163D6A5040356C701D1453356F2
:100CF000B6028565FD156D8E2606D18F0356E70178
:100D0000930520033356B602B70500031376F607A2
:100D10004D8EB70500FD938505F8ED8FD18F231516
:100D2000F7041945C1832314D7042316F7040DBF14
:100D30007D160A063A9603568602A9453705000332
:100D40003356B6021376F63F9315A600498E4D8EA4
:100D5000F1B7797122D426D24AD04ECE52CC56CA9F
:100D60005AC85EC666C29387018606D662C46AC048
:100D70002390070237BA0300896A056B23810702B3
:100D80009304F00F13840186130A0A98B77C02407B
:100D9000894B05499549938A8A7E130BFBE183476A
:100DA000240213FDF70F89E7FD1493F4F40F8DE08F
:100DB000B25022540259F249624AD24A424BB24BD3
:100DC000224C924C024D3335900092544561828002
:100DD00052858D3683D7CC0041671307E7F1F98F31
:100DE0002396FC0083D7CC00C1669386E6F193E797
:100DF00007042396FC0003D7CC0083D7EC004207FE
:100E0000F58F2397FC0083D7EC00418393E7070419
:100E10002397FC0083D6EC008947858A99E2937773
:100E2000170003578401050742074183231CE40090
:100E30001840631E2703639F270723050400034709
:100E4000940005071377F70FA304E4000347940009
:100E500063FFE900A3040400094718C03776024085
:100E600003570600C166ED16758F2310E600184083
:100E70006378E902B5EF83478400850793F7F70F9E
:100E80002304F4008347840063FCF9002304040076
:100E900023200400B7E700E03707020023A2E71889
:100EA000032C04001C4025476360F7068A07D69789
:100EB0009C438287A3040400639977030347A4003B
:100EC00005071377F70F2305E4000347A400E3F0B9
:100ED000E9FA230504001CC0B776024003D70600D8
:100EE000136747002390E60059B72305040041B774
:100EF0002304040075B7B7E700E03707020023A218
:100F0000E718D539232024012322840149BD584004
:100F10001C40E30BF7FE930770072391FC0083C787
:100F20004C003707020093F7C70F93E7270023828F
:100F3000FC00B7E700E0A388074223A2E710E9B767
:100F400083475402F1D3A3020402B7E700E0370756
:100F500002000328C400144823A2E718A30A0400CF
:100F6000B70800F0370300C0294E93052003194647
:100F70001305400683474401636BFD00B7E700E0BB
:100F80003707020023A2E71091471CC0B5BF131713
:100F90002D00B307E400FC57B3FE170163926E0601
:100FA0000347540193DE170193FEFE0F3307C70278
:100FB000B38EAE0236972311D7010347540193DE57
:100FC000870093FEFE0F3307C70293F7F707B38E30
:100FD000AE0236972310D70103475401B387B702F7
:100FE0003307C70236972312F7008347540185075A
:100FF00093F7F70FA30AF400050D137DFD0F9DBFB6
:1010000093FEF73FA98393F7F73FB38ECE03429742
:10101000B387B7022310D7012311F700F1BF58405F
:101020001C406303F700593183476402E38E07ECE9
:101030002303040223203401C1BD83475402E38506
:1010400007ECA3020402A5471CC0231C04006DBDCD
:10105000230124030347A4018347B4016318F70065
:101060000357C40183570402E300F7EA8347A4014E
:10107000094593F7F70FA30DF4008357C401C20786
:10108000C1832310F402230104028347440203476F
:1010900064019D8BA60793E777000D8B1A07B3F7C2
:1010A0006701D98F2314F404653EA947F9BD4111A6
:1010B00022C406C613840186230DA400231EB40097
:1010C0000936231FA4002244B240410159B193873D
:1010D000018603C7470103C6570183A8070103A878
:1010E000C700118FAA851377F70F81479386018672
:1010F000194303C6460163E4C70001458280138596
:10110000170063FBE7008A07C29783D72700639124
:10111000B7021375F50F61BF998FB3876702C69742
:1011200003D6070063E6C50083D72700E3F3B7FEC5
:101130009377F50F7DBF138601868346460183476B
:1011400056010346560193F6F60F93F7F70F1387F0
:10115000018611CE9D8E0328070193F6F60FB68700
:101160009948130310030346470163E4C700014590
:1011700082803386D7403306160385074296035E86
:1011800006006365C503035E26006361AE02035675
:101190004600636DB600637BB30093F7F70F230D32
:1011A000F700231EA700231FB70065B693F7F70FBC
:1011B0005DBF03C781838947631CF70AB7170140E6
:1011C000938707809847411122C4B706002006C6BE
:1011D00026C21377070203D426002DE703C7018335
:1011E00035C3B704002003C7040029EF130700022A
:1011F00098CB83D5418222853D3F1335150023804E
:10120000A4009387018603D7C7016318870083D79B
:10121000E70103D741826302F70283C7018391CFBD
:10122000B704002083C7040089EB83D5418222855F
:101230001937133515002380A400B240224492448C
:101240004101828098471377070245DF03C7018376
:101250004DFB13070002D8CB83D5418203D5E18132
:10126000D93D13351500B70700202380A70051BFD3
:1012700003C70183B71701409387078011CB370756
:1012800000200347070009E71307000298CB82807C
:1012900013070002D8CB8280797122D426D24AD09B
:1012A0004ECE52CC56CA5AC85EC662C406D6014457
:1012B000B70A00208549854BED3D83D5418203D592
:1012C0002A00EFF06FAAEFF08FF883D701811307A0
:1012D000800C8507C207C1836364F7022398F180FD
:1012E000EFF00F958D47630FF504F947E316F5FC12
:1012F00083C7C181E3E2F9FC8947238EF1806DBF8A
:1013000083A7C18223980180B3D7E70223A6018275
:1013100023ACF18083A7018223A00182B3D7E70227
:1013200023AAF18003C781838947E31BF7FA0504E9
:101330004204418093078002E3F487FAEFF01F979D
:10134000014479BF83C7C18189CBFD1793F7F70F9C
:10135000E3E4F9F6238E018085B7238E7181A9BF5E
:10136000056779711307B7B022D44AD052CC56CA58
:101370005AC85EC6239EE18406D69387C18526D2CD
:101380004ECE62C466C22D472381E700C16A238422
:101390000180A38F01840544138A0186FD1A8347C7
:1013A0004A0183A9018463F9870685679387873893
:1013B0006394F91283A6C183C167FD17639EF6107B
:1013C00083C78180639A0710B707002023913701F4
:1013D0008567938707962392F182238C0182239855
:1013E0000180B7090020238E018023880182238099
:1013F000090023A6018223A00182EFF04FE583C7F5
:101400000900638207143164130404B8EFE0FFF7A6
:101410002285EFF02FD2DDBF83474A0103475A01EF
:101420002285998F93F7F70F63E98702EFF0EFF1C9
:10143000631C350983A7C18363985709B707002048
:101440002391A7002285EFF0CFF72392A182238476
:1014500081800547238CE18285A8EFF00FF063E5DA
:10146000A9062285EFF0AFF2636035072285EFF021
:101470004FF583A4C18363769500C167FD1763951B
:10148000F40483CC818063980C02B7070020228586
:1014900023913701EFF06FEC239FA180C167FD1707
:1014A0006398F4022285EFF0CFF12392A182238486
:1014B0008180094745B72285EFF0AFF02A8C668519
:1014C000EFF02FF0E36385FD05041374F40FC1BD45
:1014D000139504014181D1BF83C781830947638488
:1014E000E7046366F702E38C07EEB707002083D5B5
:1014F000270003C58180653EE31305EE31641304C4
:1015000004B8EFE09FE82285EFF0CFC2DDBF0D47C2
:10151000E387E7EC3164130404B8EFE01FE72285AA
:10152000EFF04FC1DDBF83D5418203D5E181213189
:10153000E31705EA3164130404B8EFE01FE52285E0
:10154000EFF04FBFDDBF03A7C18285472388F1823B
:1015500023ACE18003A70182B25023A00182225470
:1015600023A6018223AAE18092540259F249624AD9
:10157000D24A424BB24B224C924C456182805D7103
:1015800056DA8D6A93870A903EC28D6793870781EA
:101590003EC48567A2C493874751A6C2CAC04EDE27
:1015A00052DC86C65AD85ED662D466D26AD06ECE77
:1015B00023980180854981442316F100EFE0FFDC88
:1015C0003165130505B8EFF0EFB683CB81838D4706
:1015D0001247B387FB02BA97A69703CB07009D4734
:1015E00063E36703224793172B00BA97944313874B
:1015F000C18582869306A050239ED184A9462301EB
:10160000D700A38F0184EFE0BFE28D476309F50C9B
:1016100063E4A7080547630FE5088947630EF50AE9
:1016200003C781839147E31BF7F8E38909F883D760
:1016300001811307007D8507C207C1832398F180CC
:10164000E37EF7F623980180213BB93185669386C6
:10165000C6D0239ED184B9465DB785669386F6F0E1
:10166000239ED184954661BF856693860611239E8D
:10167000D184C94669B78356C100239ED184D94617
:10168000BDBF856693867631DDB7856693868631E4
:10169000239ED184D546A5B79147E313F5F89D471E
:1016A000E3E067F90D6793172B0013070783BA97D9
:1016B0009C4382878149E36595F6B387FB02124715
:1016C000BA97A69703C717009307F00FE30AF7F43A
:1016D000850493F4F40FA9B7A1D4FD14DDBFE39101
:1016E000ABF4814935BF056BB7070020130B8B386E
:1016F000856B23916701370C0020938B0B96239207
:101700007183238E01802388018223980180230026
:101710000C0023A6018223A00182EFF04FB3834780
:101720000C0085452388B182E39C07EEB717014082
:10173000938707801305000288CB83A7C182238883
:10174000B18223ACF18083A7018223A6018223AA60
:10175000F18023A00182EFF0DFA5DE855A85EFE05E
:10176000BFE0EFF0CFAE83470C00E39B07EA83D7DF
:1017700001819308800C8507C207C18363EEF802DC
:101780002398F180EFE0DFCA91476308F506F94737
:10179000630BF5048D47E310F5FC83C70183C5DFB8
:1017A00083C7C1818DCFFD1793F7F70F8545E3E41C
:1017B000F5FA238E018045B783A7C1822398018063
:1017C000B3D7170323A6018223ACF18083A701823C
:1017D00023A00182B3D7170323AAF18065B78547F9
:1017E000238EF1808DBF83C70183B5D783C5C181A7
:1017F0008547E3E2B7F68947E5B7B7170140938716
:10180000078093060002D4CB238801822147D8CBDE
:101810001147D8CB31B585478564238CF182238469
:10182000F180938901869384843883C7490103C773
:101830005901998F93F7F70F63E967015A85EFF024
:10184000CFB06318950A2384618183C48180370BEC
:1018500000202685EFF06FAFAA8A2311AB00268502
:10186000EFF02FB62392A182568523980180238E14
:10187000018023880182EFF09F85370C002013350B
:101880001500B71C01402300AC00854A938C0C80E6
:10189000EFF03F9283D5418203552B00EFE0DFCC80
:1018A000EFF0EF9A83D701811307800C8507C207F9
:1018B000C1836364F7042398F180EFE07FB78D471D
:1018C000630CF50C63E0A706630F55078947E31126
:1018D000F5FC83C70183BDEB03C7490183C65901EA
:1018E00083C78180158F1377F70FE3F3E7FA850736
:1018F00095A8050B137BFB0F0DBF83A7C1821307B0
:10190000800CB3D7E7022398018023A6018223AC81
:10191000F18083A7018223A00182B3D7E70223AA23
:10192000F18061BF91476307F508F947E312F5F6C7
:1019300083C70183B1DF83C7C181E3EBFAF4894731
:10194000238EF180B1B783C7018381CB23880182C5
:101950009307000223AAFC0025BF83C78180E3F917
:10196000FAF2FD1793F7F70F3E852384F1803EC40A
:10197000EFF0AF9DA2472311AB002AC23E85EFF0E6
:101980004FA412472392A1823A85EFF04FF413350A
:1019900015002300AC00EDBD83C7C18189CBFD17C5
:1019A00093F7F70FE3E6FAEE238E0180D5B5238E89
:1019B0005181F9BD83470C00E39C07EC83C7018389
:1019C00093C717002388F182E1B583C7490103C794
:1019D0005901998F93F7F70F63F597042685EFF078
:1019E0000F9B6370A90485673707002093878738AA
:1019F00026852311F700EFF04F96239FA1802685BF
:101A0000EFF0EF982396A1802685EFF08F9B23952A
:101A1000A1802392A1821307401F2397E180238492
:101A20009180850493F4F40F83C7490103D9C180E1
:101A3000E3FD97F8B717014093870780114798CBCC
:101A40002147D8CB85454A85B169EFE03F8B938923
:101A500009B80D4AEFE0DF9DAA84FD14C204239863
:101A6000A180C1804E85EFE0FFECEFE01F92E363C1
:101A70009AFE83D4E1818545316A2685EFE01F888F
:101A8000130A0AB88D4AEFE0BF9AAA89FD19C20964
:101A90002398A18093D909015285EFE0BFE9EFE0D7
:101AA000DF8EE3E23AFFB7170140938707801147C3
:101AB000D8CB214798CB83D9A1808545B16A4E8583
:101AC000EFE0DF83938A0AB80D4BEFE07F962A8A16
:101AD0007D1A420A2398A180135A0A015685EFE025
:101AE0007FE5EFE09F8AE3624BFF83DD4182EE8575
:101AF000268523980180238E018023880182EFF0C0
:101B00008FE3B707002013351500370B0020238023
:101B1000A700835B2B008D6793870785814A014D62
:101B20003EC2EFF00FE95E85EE85EFE0FFA3EFE048
:101B30001FF203D501819307800C05054205418101
:101B400063E4A7022398A180EFE09F8E594363606E
:101B5000A30692470A053E9508410285854493896C
:101B60000186D9B5814A75BF03A5C1821307800CD0
:101B70003355E50293081D00139D08012398018049
:101B8000135D0D0123A60182854A23ACA18003A524
:101B9000018223A001823355E50223AAA180130507
:101BA0008002E373A5FBEFF06F90014D71BF7943A5
:101BB000E31965F603C501832DD503C3C18105452E
:101BC000E36165F60945238EA180A1BF03C5C181EC
:101BD00015E103552B001305C5F9AA87420541817C
:101BE00063739500A687939B07012311FB0093DB8A
:101BF0000B0105BF0543E31665F283D5418203D58A
:101C0000E1809385C5F9C205C1812392B18263F455
:101C1000A5002392A18283DD418221B703C5C18142
:101C200015E9E3800AF003552B001308703E3305D5
:101C300075416354A80023117B0193874BED939B5F
:101C4000070193DB0B01814AE3FD9BEC23119B0011
:101C5000A68BC1BD0543E31665ECE3840AEC03D50E
:101C600041821308301F3305B5416354A800239205
:101C7000B1839385CDF903D5E180939D050193DD73
:101C80000D01814AE3FFADE82392A182AA8D51BDE7
:101C900003C5C18101ED03552B0013054506AA8735
:101CA00042054181E371A9F4CA8735BF0543E31AB0
:101CB00065E603D5418213054506AA8542054181A3
:101CC00063F3A900CE85939D05012392B18293DD34
:101CD0000D0181BD03C5C18115E9E3840AE4035503
:101CE0002B001308703E3385AB406354A8002311CA
:101CF0007B019387CB12939B070193DB0B01814AF6
:101D0000E37179E323112B01CA8B21BD0543E31A4B
:101D100065E0E3880AE003D541821308301F33856C
:101D2000AD406354A8002392B18393854D06939DE3
:101D3000050193DD0D01814AE3F5B9DF239231837B
:101D4000CE8DC5B303C3C1810545E36C65DC2311AA
:101D50007B012392B183F1B303C5C1810543630ABB
:101D60006500094E6307C501E31D05DA238E618016
:101D70004DBB238E018075B3B707002003C5070054
:101D8000E31105DA03C50183134515002388A182F9
:101D900049BB0565814513058538EFE02FD6B71798
:101DA000014093870780114798CB2147D8CBB16476
:101DB0001307000298CB938404B80D49EFE04FE776
:101DC0002A847D14420426854180EFE0BFB6EFE00F
:101DD000CFDBE36589FE37290140B1641304800C31
:101DE000814913090940214A938404B82685232A8E
:101DF0004903EFE03FB47D14EFE08FF41374F40F68
:101E0000AA996DF493074006B389F9021165930707
:101E1000800C814513050565B164938404B80D49B0
:101E2000B3D9F902EFE08FCDB71701409387078050
:101E3000114798CB2147D8CB1307000298CBEFE08E
:101E40002FDF2A847D14420426854180EFE09FAE77
:101E5000EFE0AFD3E36589FE372A0140B164130494
:101E6000800C0149130A0A40A14A938404B82685CC
:101E7000232A5A03EFE01FAC7D14EFE06FEC1374DC
:101E8000F40F2A996DF4930740063309F9023714C9
:101E900001409307800C1304048081450145B72A53
:101EA0000140316A8144938A0A403359F902930709
:101EB00000025CC8EFE08FC491475CC8A1471CC812
:101EC000114B1304800C130A0AB8528523AA6A0323
:101ED000EFE05FA67D14EFE0AFE61374F40FAA9471
:101EE0006DF493074006B384F40205659307800CF4
:101EF0008145130585BB316A130A0AB88D4AB3D4EC
:101F0000F402EFE0AFBFB717014093870780114796
:101F1000D8CB214798CB1307000298CBEFE04FD1E5
:101F20002A847D14420452854180EFE0BFA0EFE097
:101F3000CFC5E3E58AFE372B0140B16A130A800C56
:101F40000144130B0B40914B938A0AB85685232A00
:101F50007B03EFE03F9E7D1AEFE08FDE137AFA0FEE
:101F60002A94E3150AFE37757C4DB30939411305F0
:101F700005D033553503371A0140130A0A809307F9
:101F80000002232AFA009306400637B7120113070E
:101F9000078881458D4923A8A184B307A90237A9E1
:101FA000E11113090930B3D7D7021D8F23A6E184AD
:101FB0009307800C3354F4023304D402058C335954
:101FC0008902B384240323A42185B3D4D402B304A7
:101FD000904023A29184EFE06FB291472328FA004A
:101FE000B164A147232AFA00938404B8EFE04FC4F8
:101FF0002A847D14420426854180EFE0BF93EFE000
:10200000CFB8E3E589FE4A858145EFE02FAFB717EA
:10201000014093870780214798CBB1641147D8CB03
:10202000938404B80D49EFE0AFC02A847D144204C4
:1020300026854180EFE01F90EFE02FB5E36589FE34
:10204000EFE06FEE11CD3755070013050530EFE0D7
:102050007F8EEFE04FE009C5EFE03F8FEFF02FD22A
:1020600005671307A730239EE1849387C18529471D
:102070002381E7003164A38F0184130404B8EFE0E7
:10208000CFB02285EFE01F8BDDBF9547238CF18217
:10209000856793875730239EF18451479387C18585
:1020A0002381E7003169A38F0184130909B80D4B1F
:1020B000EFE00FB8AA84FD14C2042398A180C18068
:1020C0004A85EFE03F87EFE04FACE3639BFE238858
:1020D00001828567938787380D6B416D7D1D23A035
:1020E000F1849307CB8A11667D7B0568856D239803
:1020F0000180238E018023AEA183014A3EC2130BCF
:10210000CB31130646521308489CEA8A938D8DBB47
:102110003165130505B842C632C4EFE0BF8103A99B
:10212000018483A4C1831315090193950401C1811E
:102130004181EFE06FC383D701819305800C224674
:102140008507C207C183324863F4F5008147054A19
:1021500042C632C42398F180EFE08FADD1472246CA
:102160003248E3E7A7FA92470A053E951C41828769
:1021700083C7C1818DE385671309C9F9938737CE7A
:1021800063F5270123A0218561B78567938747CE33
:1021900023A0F184B5BF8545E39CB7F6638B54015A
:1021A0009384C4F99307301F63F9970023AE91829B
:1021B00085B78564938484BBD5BF9307401F23AE46
:1021C000F182B9B783C7C18185E763010A028567D8
:1021D000130949ED938737CE63F5270123A02185A5
:1021E00031A08567938747CE23A0F184014A0DB7BC
:1021F0008545E39DB7FEE30B0AFE638B5401938490
:10220000C4F99307301F63F9970023AE9182F9BF99
:102210008564938484BBD5BF9307401F23AEF182AE
:10222000F1B783C7C18189EB956713094906938785
:102230008720E3EF27F5B9B78545E39BB7EC938497
:102240004406E3F59DF623AEA183D9B583C7C181CA
:1022500099EBE30D0AF895671309C9129387872054
:10226000E3E427F9A5BF8545E392B7F8E3000AF850
:1022700093844406E3FB9DF8C167FD1745B783C708
:10228000C18199C78545E395B7E8238E018049B59B
:102290008547238EF180ADBD5A99E36B26E793877E
:1022A000C4E06374F800E39554E7EFE0CFC719C9C1
:1022B00037454900130505E0EFE0CFE7EFE0EFC059
:1022C000E31C05D885679387A730239EF184138785
:1022D000C185A9472301F7003164A38F018413044A
:1022E00004B8EFE08F8A2285EFE0CFE4DDBF9947A5
:1022F000238CF182EFE06FBD630405B223A001845B
:1023000023AE0182EFE02FC219C9374549001305FA
:1023100005E0EFE02FE2EFE04FBBE30F05D20567EA
:102320001307A730239EE1849387C1852947238122
:10233000E7003164A38F0184130404B8EFE0EF8455
:102340002285EFE02FDFDDBF639D09B881451305CE
:102350008039316BEFD09FFA130B0BB88D4BEFE048
:102360002F8DAA89FD19C2092398A18093D909014B
:102370005A85EFE02FDCEFE04F81E3E23BFF6FF0A7
:102380004FB6B7170140938707809843370610FF71
:102390007D164111718F3706300006C6518F98C3E4
:1023A00098437D751305F50F698F1367073098C340
:1023B000984345787D188D68337707013367170197
:1023C00098C3B7160140D84EB705020021631377B2
:1023D000F7F013670708D8CE371701408CD21307E0
:1023E00007C05043337606013366660050C3056666
:1023F0001306068010CB9042337606013366160131
:1024000090C210433708003012061182336606016D
:1024100010C350431376F6F01366060350C3904280
:10242000419A1366360090C29443370640FE7D16EB
:1024300093F6F6F093E6060394C39443C19A93E6A9
:10244000360094C35443C19A93E6360054C35443B0
:10245000E98E93E6063054C393060002D4CBB70648
:102460006745B767024093863612D4C7B796EFCD5B
:102470009386B69AD4C7D443F18ED4C3D4433706D7
:102480008001D18ED4C3D44337062000D18ED4C36B
:10249000D4433706E8FF7D16F18ED4C3D44341669A
:1024A000D4C3D443D4C3D443D18ED4C3D443370686
:1024B0000080D18ED4C3B71602409C4E2D4693E7C0
:1024C00017209CCEB727014093870740B0CB37B683
:1024D0006D1B1306B66DD0C790CB37060E000506F0
:1024E00090C73D46B0CB370600407D16D0C790CB95
:1024F0009C4E93E717019CCEDC4ACD8FDCCA5C432F
:10250000B7060044A207A183D58F5CC337070140FB
:102510001C4F93E707301CCF9387818AC207377718
:102520000240C1832318F700F977A1072310F700B1
:10253000F157A304F700EFE0DF81EFE00FC1EFF008
:102540000F845D713AD2377702403ED083479700BF
:1025500086C696C49AC29EC022DE26DC2ADA2ED80F
:1025600032D636D442CE46CC72CA76C87AC67EC43B
:1025700093F70702BDC78347970085468D8B639A03
:10258000D7048356A70015476375D7049386018641
:1025900083D486041384018613970401418763451D
:1025A000070E13D6C4001D8A13F7F4016317061033
:1025B0000D466309C70C1946630FC70E6316F70C67
:1025C0002383E60283C74602850793F7F70F23822A
:1025D000F602377702408347970093E70702A30488
:1025E000F700B777024003C7970062076187635718
:1025F000070403D7C700C166BD16758F2396E70091
:1026000003D7E700C166BD16758F2397E700130750
:1026100070072391E70003C7470085461377C70F6C
:10262000136727002382E70013870186A302D702DE
:1026300003C7970013670708A384E700B777024032
:1026400003C797001377070409CB03C797001367E5
:102650000704A384E700EFE00FDA7254B640A64205
:1026600016438643E2545255C2553256A25612576B
:1026700082577248E248524EC24E324FA24F6161B9
:10268000730020309D471CC01305005AEFE08FAA4D
:102690008567A3020402938707E0FD8C83476401EA
:1026A00093E4140009458D8B9A07DD8C2314940460
:1026B000EFE00FDB39BFA147F9B7E317F7FC8D4710
:1026C0001CC093D7C4009D8B230AF40093D76400E9
:1026D0008D8B230BF4001307840481471305C40674
:1026E000F146834527003306F50085072300B60031
:1026F0000507E398D7FE49BF89679387273897E195
:10270000FF1F93812110173100201301A18F7D45F8
:10271000731005BC13058008732005308D45739038
:102720004580130540004D8D73105530739017345C
:102730000D67B7070020130747919387070093861B
:10274000818063E8D702938781801387818E63E756
:10275000E702B7270240094798C3B717024023A2F0
:10276000070037F700E0954614C3714798CF730010
:1027700020301043110790C39107E1B723A0070051
:102780009107F1B7FC0000001C0100003E010000B1
:10279000560100006E01000088010000A201000047
:1027A000A6010000CC010000D0010000D80100000B
:1027B000F0010000080200001E02000022020000DA
:1027C000260200003C0200005202000068020000E5
:1027D000860200009C020000B2020000B802000065
:1027E000CE020000E6020000F60E0000080F000016
:1027F0000E0F0000400F00001E100000080F000028
:10280000080F0000080F00003A10000050100000F0
:10281000F41500004C1600005A160000681600005F
:102820007616000076160000821600008A16000058
:10283000E6160000161800005C1B0000921D000048
:10284000481600008A200000EE2200004823000005
:10285000641B0000CC1B0000901C0000581D0000F1
:10286000781D0000221B0000221B0000221B00001C
:10287000221B0000221B00001C1C0000441D000045
:10288000221B0000221B0000221B0000221B000054
:10289000221B0000221B0000221B0000221B000044
:1028A000D41C0000221B0000441D0000EC2100008D
:1028B00070210000222200007E22000098220000E9
:1028C0001021000010210000102100001021000044
:1028D00010210000C4210000102100001021000080
:1028E0001021000010210000102100001021000024
:1028F0001021000010210000102100004C220000D7
:102900000005FF0105FF0201050703FF0406FF059F
:04291000FFFF0000C5
:082914000100881324000000FB
:00000001FF
