:040000006F20B01F9E
:100004000000000000000000B80C0000B80C000064
:1000140000000000B80C0000000000000000000018
:10002400B80C0000B80C0000000000000000000044
:10003400B80C000000000000B80C00000000000034
:10004400B80C0000B80C0000B80C00000000000060
:10005400B80C0000B80C0000B80C0000B80C00008C
:10006400B80C0000B80C0000B80C0000B80C00007C
:10007400B80C0000B80C0000B80C0000B80C00006C
:10008400B80C0000B80C0000B80C0000B80C00005C
:10009400B80C0000B80C0000B80C0000B80C00004C
:1000A400B80C0000B80C0000B80C0000B80C00003C
:1000B400B80C0000B80C0000B80C0000B80C00002C
:1000C400B80C000044280000B80C0000B80C000074
:0C00D400B80C0000B80C0000B80C0000D4
:1000E000E14763EBA70E8D67938787A80A053E95C6
:1000F0001841B7170140938707800287BD4694CB0C
:10010000B7170140938707C0B716020094CB371783
:100110000140A9471CCBB7070400A5071CD3828068
:1001200037070C000D0798CBB7170140B7160140F1
:10013000938707C03717020098CBB7070A00A1A022
:100140003D4798CBB71701400567938707C009075C
:1001500098CBB7070200B7160140A1079CCAB707A2
:100160000500A1078DA8370708001D0798CBB71712
:1001700001400567938707C0090798CBB7070200BE
:10018000B7160140A1079CCAB7070400A507A1A0A4
:1001900037070C00B71601400D0798CBB717014081
:1001A0000567938707C0090798CBB7070800890739
:1001B000D9BF37070800B71601401D0798CBB717FE
:1001C00001400567938707C0090798CBA9479CCAD8
:1001D000B7070C0085079CD28280B71601403D47C7
:1001E000F1BF37070C000D0798CBB7170140B716C2
:1001F0000140938707C03717020098CBA94761B722
:10020000B71601403D4798CBB71701400567938764
:1002100007C00907DDB737070800B71601401D07FB
:10022000DDB737070C000D0798CBB7170140B7169D
:100230000140938707C03717020098CBB7070A0021
:1002400025A837070C00B71601400D0798CBB71744
:1002500001400567938707C00907C5B73707040042
:10026000B71601402D0798CBB71701400567938754
:1002700007C0090798CBA9479CCAB7070D00A1BFC3
:10028000370704002D0798CBB7170140B716014078
:10029000938707C03717020098CBB7070800890774
:1002A000E1BF37070400B71601402D07FDB537073A
:1002B00004002D0798CBB71701400567938707C047
:1002C000090798CBB7160140A94749BDBD4694CB55
:1002D000B7170140938707C0B716020094CB3717B2
:1002E0000140A9471CCBB7070D000DBD370704001F
:1002F000B71601402D0701BFBD4694CBB71701408B
:10030000938707C0B716020094CBB70708003717CA
:1003100001408907C1BFB71601403D47A9B73D4716
:1003200098CBB71701400567B7160140938707C000
:1003300009079DB737070400B71601402D0739B7E5
:10034000BD4694CBB7170140938707C0B71602008C
:1003500094CB37170140A9471CCBB7070C00850782
:1003600075BB3D4798CBB71701400567B7160140ED
:10037000938707C00907C9B3370704002D0798CB37
:10038000B71701400567938707C0090798CBB707E0
:100390000800B71601408907D1B389679387F770C2
:1003A00063E8A70229473355E502854742054181A5
:1003B00085CD93074006B357F5023355E50293F711
:1003C000F70F3375E5020947A383E186294725A87E
:1003D000E1679387F76963E1A70493074006335504
:1003E000F502894742054181A383F186A946B357A7
:1003F000D502130740063357E502B3F7D702137748
:10040000F70F3375D5022382E18613874186A30057
:10041000F7002301A70082809307803E3355F50241
:10042000814742054181C9B7411126C222C403C494
:1004300051804AC006C60549630124039307C002E0
:10044000630FF4022DC09307C002B2402244A3827E
:10045000F180024992444101828003C541864931BD
:10046000B7170140938707C00567D8CB83C771864C
:10047000E39B87FCB7170140114798D3E9B703C541
:100480005186B939B71701409387078023AA2701FE
:1004900003C7718689476316F700B71701401147F4
:1004A00098D381475DB703C561861D39B7170140F1
:1004B000938707800947D8CB03C771868D4763169A
:1004C000F700B7170140114798D38547BDBFB7174D
:1004D000014090479315E60083C6018603C751800B
:1004E00063DA050699EA11EB9146A38FD18405479B
:1004F0002380E1861305F00F828005466305C7005F
:100500002380C186C5BF83C5F18591E1A9E223801F
:10051000E18603C6018603C5E18541C203C6F185B4
:100520006313A60683D6C1858506C206C182239EB3
:10053000D1841307A00F637DD70423800186A38F86
:100540000184A9473305F5021375F50F8280A38F47
:10055000E18475BF9DC211CF8546E31DD7F803C660
:10056000F185894601C6238001868146A38FD18407
:100570004DB70D47A38FE184B5BFA38F0184854696
:10058000E309D7F885BF8545239EB184238FC184B5
:10059000A38F018423800186A9A031C183D5C185A1
:1005A0001308A00F637CB80023800186239E01847A
:1005B000A38FA184238F0184AD4769B70948637B6A
:1005C000B800239E0184A38FA184238F01842380FC
:1005D00001868280238F0184239E018455BF239E40
:1005E000018401458280B7270140938707409847DF
:1005F000B70640001367170098C79847558F98C7EC
:100600009843098B75DFE84742054181828041119B
:10061000B727014006C6938707403D47D8DBE1373F
:10062000B7074B00938707B533D5A702B240410106
:1006300042054181828003C60183411106C683C7FA
:10064000C1813DC605476382E7020947638DE70222
:1006500085EB03A5818181458933B71701409387D5
:10066000078013070008D8CB21A803A54181814545
:100670002D33B7170140938707801307000898CBE5
:10068000B240410155B303A7418183A7818113057E
:10069000803E8145B387E70233D5A702FD39B717FE
:1006A000014093870780D84713470708D8C7C9BFB9
:1006B00005466388C70009476382E704F1F385456F
:1006C00061BFB7170140938707809306000894CB5A
:1006D000C167FD172E87639FF50005671307A7B055
:1006E0002392E1869387418629472381E700A383EC
:1006F000018679B785453A854D3159B7238E0180FA
:100700007DBFB7270240D84793761700EDFE93765A
:10071000070289E623A8070001458280D8C705455E
:100720008280011106CE22CC26CA4AC84EC652C4C7
:10073000C93FB7C70008938707F003A9070023AC98
:100740002185C137B7C70008938747F003AA070080
:100750007D1923AA41857537B7C70008938787F0AD
:10076000844323A89184713FB7C700089387C7F0DB
:1007700083A9070023A631856937B7C70008938787
:1007800087F1804323A48184AD3FB7C700089387D6
:10079000C7F19C43014523A2F18475576360270389
:1007A000FD56630DDA00FD14636A97006388D90073
:1007B0007D1463658700FD1713B5E7FFF2406244BF
:1007C000D2444249B249224A05618280411106C69B
:1007D00022C4053FB7C70008938707F1804323A0D1
:1007E00081840537B7C70008938747F19C430145CB
:1007F00023AEF1827D771307C7313A94116713074F
:100800004752636F870005679386C7E01307479CCD
:1008100005456377D70041770507BA9713B51700E9
:10082000B2402244410182805D714EDE83A9818500
:10083000A6C283A40185CAC003A94185B3E7990074
:1008400086C6A2C452DC56DA5AD85ED662D466D2C4
:100850006AD0B3E727018DE38144B64026440649B8
:10086000F259625AD25A425BB25B225C925C025DE0
:1008700026859644616182806935B7C700089387F1
:1008800007F28043FD57E319F4FCA53DB7C7000804
:100890009387C7EF9C43E39187FCB7270240984BAF
:1008A0001377070863110710B7270240984B931678
:1008B000070163CA0610B13537240240B7070200AA
:1008C0001CC8B7C70008938707F05CC81C4893E7AB
:1008D00007041CC83D3549D12328040083A7C184DF
:1008E0004EC04AC23EC683A7018426C43EC883A721
:1008F000C1833ECA83A781843ECC83A741843ECE78
:100900001C4893F70708E5E3B7270240984B931676
:10091000070163CA060EF533B7270240416737CA9D
:100920000008B7CA000898CB014937240240370BAA
:100930000800854B7D5C130A0AF1938A0AF01C4873
:10094000B3E767011CC8753BE30805F0B7C40008AE
:10095000131D49008A89938404F0B70C04006314C2
:10096000090C83A709009CC01C4891049109B3E7B6
:1009700097011CC87933E39444FF232A54011C488F
:1009800093E707041CC8B53BAA84E30705EC0509F7
:10099000C147E316F9FA23280400A533A16793871A
:1009A00007081CC85DBD3707674513073712D8C352
:1009B0003797EFCD1307B79AD8C39C4B93F7070827
:1009C000E38407EE51BD3707674513073712D8D3C5
:1009D0003797EFCD1307B79AD8D39C4B13970701DE
:1009E000E35B07EC95BDB7076745938737125CC09B
:1009F000B797EFCD9387B79A5CC01C4893F7070869
:100A0000E38407F091BD3707674513073712D8D342
:100A10003797EFCD1307B79AD8D39C4B139707019D
:100A2000E35B07EE15BD6316790183A709019CC836
:100A300025BFB3079D0023A087013DB7B7F700E0AE
:100A40009C4737F700E03E951C47898FE3CE07FEB1
:100A50008280011106CE22CC26CA4AC84EC6D131A8
:100A600019E98D47F2406244238CF182D244424915
:100A7000B24905618280B7140140938404C0DC4010
:100A8000B709F1FFFD1937070400B3F73701D98F14
:100A900037140140DCC0130404801C403165130589
:100AA00005B893F7F7F093E707041CC01C4037190B
:100AB0000140C19B93E737001CC085471CC8BD3F60
:100AC0000327890081479316E70063D806021C407C
:100AD000370703003165C19B93E747001CC0DC402A
:100AE000130505B8B3F73701D98FDCC085679CC8FB
:100AF000B13783278900C583858BB716014093865C
:100B000006C0D8423706F1FF7D16718F3706030005
:100B1000518FD8C237170140130707801443C19A79
:100B200093E6360014C3144393F6F6F093E60603F7
:100B300014C385FB6139914715F513878186834678
:100B40005701894785F28347470103475701998F2A
:100B5000B337F00001BF0111B727014006CE9387DC
:100B60000740114722CC26CA4EC656C24AC852C4B4
:100B7000D8DB953C8D3C83A781851307803E3305E8
:100B8000F50283A74185B3C7E7023355E5023E95D9
:100B900023AAA182AD3CA53C2399A18283A981848B
:100BA000AA849387E9FC637AF50085472382F18064
:100BB00083A74184AA9723AAF182B707002083D78D
:100BC000270003A741839387773E63D1E70C03C7D0
:100BD000018319CF23880182B717014093870780CB
:100BE00013070002D8CBB707002005472380E70092
:100BF00083A7C18283A641833165130505B8B697E3
:100C000023A6F182B7270140938707401947D8DB15
:100C10003535D13A03AA018583A7C1841309803EE3
:100C200033C4270383C74180BDE7EFF0DF9B330563
:100C3000450333552503B307850083D6418223A49A
:100C4000F1829386461F63D4F60683C6018399CE4C
:100C500023880182B717014093870780930600021B
:100C6000D4CBB707002085462380D70083A7018215
:100C700003A78182F2406244BA9723A0F182D24452
:100C80004249B249224A924A05618280E35207F6FC
:100C900023AA0182B1BFEFF01F95B3073503B3D785
:100CA0009702B3874703B3D72703A29779B7E3DF48
:100CB00007FA23A401825DBF01A093878186DC47E8
:100CC0000A05AA9703D5E7FF82809387818603C729
:100CD000470183C65701158F1377F70F6368A70085
:100CE000DC470A05AA9703D5E7FF8280198D1947CB
:100CF0003305E5029C4BAA9703D5A7FF8280938713
:100D0000818603C7470183C65701158F1377F70FF5
:100D10006368A700DC470A05AA9703D5E7FF82802E
:100D2000198D19473305E5029C4BAA9703D5C7FFD8
:100D300082809387818603C7470183C65701158F39
:100D40001377F70F6368A700DC470A05AA9703D556
:100D5000C7FF8280198D19473305E5029C4BAA977E
:100D600003D5E7FF8280B77702401307200A239656
:100D7000E7002397E70093878186A38407002385F4
:100D8000070023840700238A0700A38A070023A003
:100D9000070023A207002382070213878702A3828A
:100DA0000702D8C71387C7032383070298CB0547D9
:100DB000238BE70023810702238DE700A38DE70043
:100DC000056713078738239EE7002390E702828098
:100DD000B777024003D70700118B15CB03D7E70085
:100DE000136707012397E700B77702401307F00462
:100DF0002391E700A38207002393A700A3840700A1
:100E000003C74700136737002382E700828003D7B8
:100E1000C700136707012396E700F9B79387818618
:100E200003C5A70183C6470283C5670105689D8A7C
:100E3000A60609088D899A05B3E60601CD8E83C5FD
:100E4000470183C757011376F50F138781869D8D60
:100E50009317C50163D6A5040356C701D145335680
:100E6000B6028565FD156D8E2606D18F0356E70106
:100E7000930520033356B602B70500031376F60731
:100E80004D8EB70500FD938505F8ED8FD18F2315A5
:100E9000F7041945C1832314D7042316F7040DBFA3
:100EA0007D160A063A9603568602A94537050003C1
:100EB0003356B6021376F63F9315A600498E4D8E33
:100EC000F1B7797122D426D24AD04ECE52CC56CA2E
:100ED0005AC85EC666C29387818606D662C46AC057
:100EE0002390070237BA03008D6A056B238107023E
:100EF0009304F00F13848186130A0A98B77C02408A
:100F0000894B05499549938ACAAE130BFBE1834788
:100F1000240213FDF70F89E7FD1493F4F40F8DE01D
:100F2000B25022540259F249624AD24A424BB24B61
:100F3000224C924C024D3335900092544561828090
:100F40005285ED3C83D7CC0041671307E7F1F98F59
:100F50002396FC0083D7CC00C1669386E6F193E725
:100F600007042396FC0003D7CC0083D7EC0042078C
:100F7000F58F2397FC0083D7EC00418393E70704A8
:100F80002397FC0083D6EC008947858A99E2937702
:100F9000170003578401050742074183231CE4001F
:100FA0001840631E2703639F270723050400034798
:100FB000940005071377F70FA304E4000347940098
:100FC00063FFE900A3040400094718C03776024014
:100FD00003570600C166ED16758F2310E600184012
:100FE0006378E902B5EF83478400850793F7F70F2D
:100FF0002304F4008347840063FCF9002304040005
:1010000023200400B7E700E03707020023A2E71817
:10101000032C04001C4025476360F7068A07D69717
:101020009C438287A3040400639977030347A400C9
:1010300005071377F70F2305E4000347A400E3F047
:10104000E9FA230504001CC0B776024003D7060066
:10105000136747002390E60059B72305040041B702
:101060002304040075B7B7E700E03707020023A2A6
:10107000E718D539232024012322840149BD584093
:101080001C40E30BF7FE930770072391FC0083C716
:101090004C003707020093F7C70F93E7270023821E
:1010A000FC00B7E700E0A388074223A2E710E9B7F6
:1010B00083475402F1D3A3020402B7E700E03707E5
:1010C00002000328C400144823A2E718A30A04005E
:1010D000B70800F0370300C0294E930520031946D6
:1010E0001305400683474401636BFD00B7E700E04A
:1010F0003707020023A2E71091471CC0B5BF1317A2
:101100002D00B307E400FC57B3FE170163926E068F
:101110000347540193DE170193FEFE0F3307C70206
:10112000B38EAE0236972311D7010347540193DEE5
:10113000870093FEFE0F3307C70293F7F707B38EBE
:10114000AE0236972310D70103475401B387B70285
:101150003307C70236972312F700834754018507E8
:1011600093F7F70FA30AF400050D137DFD0F9DBF44
:1011700093FEF73FA98393F7F73FB38ECE034297D1
:10118000B387B7022310D7012311F700F1BF5840EE
:101190001C406303F700593183476402E38E07EC78
:1011A0002303040223203401C1BD83475402E38595
:1011B00007ECA3020402A5471CC0231C04006DBD5C
:1011C000230124030347A4018347B4016318F700F4
:1011D0000357C40183570402E300F7EA8347A401DD
:1011E000094593F7F70FA30DF4008357C401C20715
:1011F000C1832310F40223010402834744020347FE
:1012000064019D8BA60793E777000D8B1A07B3F750
:101210006701D98F2314F404653EA947F9BD411134
:1012200022C406C613848186230DA400231EB400A5
:101230000936231FA4002244B240410159B19387CB
:10124000818603C7470103C6570183A8070103A886
:10125000C700118FAA851377F70F81479386818680
:10126000194303C6460163E4C70001458280138524
:10127000170063FBE7008A07C29783D727006391B3
:10128000B7021375F50F61BF998FB3876702C697D1
:1012900003D6070063E6C50083D72700E3F3B7FE54
:1012A0009377F50F7DBF138681868346460183477A
:1012B00056010346560193F6F60F93F7F70F13877F
:1012C000818611CE9D8E0328070193F6F60FB6870F
:1012D0009948130310030346470163E4C70001451F
:1012E00082803386D7403306160385074296035E15
:1012F00006006365C503035E26006361AE02035604
:101300004600636DB600637BB30093F7F70F230DC0
:10131000F700231EA700231FB70065B693F7F70F4A
:101320005DBF03C781838947631CF70AB717014074
:10133000938707809847411122C4B706002006C64C
:1013400026C21377070203D426002DE703C70183C3
:1013500035C3B704002003C7040029EF13070002B8
:1013600098CB83D5418222853D3F133515002380DC
:10137000A4009387818603D7C7016318870083D7AA
:10138000E70103D741826302F70283C7018391CF4C
:10139000B704002083C7040089EB83D541822285EE
:1013A0001937133515002380A400B240224492441B
:1013B0004101828098471377070245DF03C7018305
:1013C0004DFB13070002D8CB83D5418203D5E181C1
:1013D000D93D13351500B70700202380A70051BF62
:1013E00003C70183B71701409387078011CB3707E5
:1013F00000200347070009E71307000298CB82800B
:1014000013070002D8CB8280797122D426D24AD029
:101410004ECE52CC56CA5AC85EC662C406D60144E5
:10142000B70A00208549854BED3D83D5418203D520
:101430002A00EFF04FA0EFF00FF283D701811307DE
:10144000800C8507C207C1836364F7022398F1808B
:10145000EFF0EF878D47630FF504F947E316F5FCCE
:1014600083C7C181E3E2F9FC8947238EF1806DBF18
:1014700083A7C18223980180B3D7E70223A6018204
:1014800023ACF18083A7018223A00182B3D7E702B6
:1014900023AAF18003C781838947E31BF7FA050478
:1014A0004204418093078002E3F487FAEFF01F972C
:1014B000014479BF83C7C18189CBFD1793F7F70F2B
:1014C000E3E4F9F6238E018085B7238E7181A9BFED
:1014D000056779711307B7B022D44AD052CC56CAE7
:1014E0005AC85EC62392E18606D69387418626D2E5
:1014F0004ECE62C466C22D472381E700C16A2384B1
:101500000180A38301860544138A8186FD1A8347DF
:101510004A0183A9018463F7870885679387873821
:101520006392F91483A6C183C167FD17639CF61209
:1015300083C7818063980712B70700202391370182
:101540008567938707962392F182238C01822398E3
:10155000018037170140238E0180130707801C4349
:10156000B70600309207918323880182D58F1CC370
:10157000930700085CCBB70900202380090023A64D
:10158000018223A00182EFF00FDD83C7090063828F
:1015900007143164130404B8EFE01FE92285EFF06B
:1015A000EFC9DDBF83474A0103475A012285998F5E
:1015B00093F7F70F63E98702EFF02FF0631C35090B
:1015C00083A7C18363985709B70700202391A70019
:1015D0002285EFF00FF62392A182238481800547B4
:1015E000238CE18285A8EFF04FEE63E5A906228502
:1015F000EFF0EFF0636035072285EFF08FF383A4FF
:10160000C18363769500C167FD176395F40483CCAD
:10161000818063980C02B70700202285239137014F
:10162000EFF0AFEA239FA180C167FD176398F40232
:101630002285EFF00FF02392A18223848180094755
:1016400045B72285EFF0EFEE2A8C6685EFF06FEE5E
:10165000E36385FD05041374F40F55BD1395040170
:101660004181D1BF83C7818309476384E7046366EF
:10167000F702E38E07ECB707002083D5270003C5E8
:101680008180713EE31505EC3164130404B8EFE08A
:10169000BFD92285EFF08FBADDBF0D47E389E7EAB6
:1016A0003164130404B8EFE03FD82285EFF00FB99E
:1016B000DDBF83D5418203D5E181F536E31905E825
:1016C0003164130404B8EFE03FD62285EFF00FB782
:1016D000DDBF03A7C18285472388F18223ACE18067
:1016E00003A70182B25023A00182225423A60182C3
:1016F00023AAE18092540259F249624AD24A424BEB
:10170000B24B224C924C456182803717014013073F
:1017100007801C435D71A2C492079183B706004005
:10172000A6C2CAC04EDE52DC56DAD58F86C65AD85B
:101730005ED662D466D26AD06ECE239801808D6A5E
:101740001CC393874AC03EC28D67938747B13EC48E
:10175000856793874751854981442316F100EFE05F
:10176000BFCC3165130505B8EFF04FAD83CB818356
:101770008D471247B387FB02BA97A69703CB0700A2
:101780009D4763E36703224793172B00BA9794435F
:101790001387418682869306A0502392D186A9465C
:1017A0002301D700A3830186EFE07FD28D47630931
:1017B000F50C63E4A7080547630FE5088947630E46
:1017C000F50A03C781839147E31BF7F8E38909F81A
:1017D00083D701811307007D8507C207C183239842
:1017E000F180E37EF7F623980180DD31313985669B
:1017F0009386C6D02392D186B9465DB78566938617
:10180000F6F02392D186954661BF856693860611D0
:101810002392D186C94669B78356C1002392D186E7
:10182000D946BDBF856693867631DDB785669386DA
:1018300086312392D186D546A5B79147E313F5F8B3
:101840009D47E3E067F90D6793172B00130747B334
:10185000BA979C4382878149E36595F6B387FB027B
:101860001247BA97A69703C717009307F00FE30A2A
:10187000F7F4850493F4F40FA9B7A1D4FD14DDBFE8
:10188000E391ABF4814935BF056BB7070020130B1B
:101890008B38856B23916701370C0020938B0B9657
:1018A00023927183238E01802388018223980180F3
:1018B00023000C0023A6018223A00182EFF0AFA930
:1018C00083450C0085472388F182E39C05EEB7151C
:1018D0000140938505801305000288C92388F182A1
:1018E00083A7C18223A6018223ACF18083A7018252
:1018F00023A0018223AAF1809C4137050030920782
:101900009183C98F9CC193070008DCC9EFF07FA1C8
:10191000DE855A85EFE03FD2EFF0EFA383470C005E
:10192000E39107EA83D701819308800C8507C207FA
:10193000C18363EEF8022398F180EFE05FB991472D
:101940006308F506F947630BF5048D47E310F5FCD2
:1019500083C70183C5DF83C7C1818DCFFD1793F78F
:10196000F70F8545E3E4F5FA238E018045B783A799
:10197000C18223980180B3D7170323A6018223AC29
:10198000F18083A7018223A00182B3D7170323AA82
:10199000F18065B78547238EF1808DBF83C70183B2
:1019A000B5D783C5C1818547E3E2B7F68947E5B777
:1019B000B71601409386068093070002DCCA9C425A
:1019C000370700302388018292079183D98F9CC208
:1019D000CDBB85478564238CF1822384F180938974
:1019E00081869384843883C7490103C75901998F3D
:1019F00093F7F70F63E967015A85EFF00FAC6315B2
:101A0000950C2384618183C48180370B0020268557
:101A1000EFF0AFAAAA8A2311AB002685EFF06FB1D1
:101A2000B71C01402392A1825685938C0C80239889
:101A30000180238E018023880182EFF05F8083A7DD
:101A40000C00370C00201335150092079183B70660
:101A500000302300AC00D58F23A0FC0093070008C2
:101A600023AAFC00854AEFF0DF8B83D54182035522
:101A70002B00EFE05FBCEFF00F8E83D701811307DF
:101A8000800C8507C207C1836364F7042398F18043
:101A9000EFE0FFA38D47630CF50C63E0A706630F2F
:101AA00055078947E311F5FC83C70183BDEB83C666
:101AB000490103C6590183C78180918E93F6F60FC1
:101AC000E3F3D7FA850795A8050B137BFB0F21BF1E
:101AD00083A7C1821307800CB3D7E7022398018044
:101AE00023A6018223ACF18083A7018223A0018277
:101AF000B3D7E70223AAF18061BF91476307F508D6
:101B0000F947E312F5F683C70183B1DF83C7C181CB
:101B1000E3EBFAF48947238EF180B1B783C70183E1
:101B200081CB238801829307000223AAFC0025BFF2
:101B300083C78180E3F9FAF2FD1793F7F70F3E852B
:101B40002384F1803EC4EFF04F97A2472311AB00EE
:101B50002AC23E85EFF0EF9D92462392A182368500
:101B6000EFF0EFED133515002300AC00EDBD83C79A
:101B7000C18189CBFD1793F7F70FE3E6FAEE238EC9
:101B80000180D5B5238E5181F9BD83470C00E39CBC
:101B900007EC83C7018393C717002388F182E1B55F
:101BA00083C7490103C75901998F93F7F70F63F171
:101BB00027074A85EFF0AF9463FCA40485673707D5
:101BC0000020938787384A852311F700EFF0EF8FC5
:101BD000239FA1804A85EFF08F922396A1804A85AA
:101BE000EFF02F9505678567130777BB938787BB52
:101BF0006366A7004A85EFF0CF93AA872395F1800B
:101C00002392F1821307401F2397E18023842181CF
:101C100005091379F90F83C7490183D4C180E3F122
:101C200027F937170140130707801C43B706003018
:101C3000854592079183D58F1CC3930700085CCB21
:101C40002685B169EFE06FF5938909B80D4AEFE099
:101C50001F882A897D1942092398A18013590901F7
:101C60004E85EFE0BFDDEFE02FFCE3622AFF03D9F2
:101C7000E1818545316A4A85EFE02FF2130A0AB8FF
:101C80008D4AEFE0DF84AA89FD19C2092398A1805B
:101C900093D909015285EFE07FDAEFE0EFF8E3E254
:101CA0003AFFB7170140938707801307000898CBC6
:101CB00083D9A1808545B16A4E85EFE00FEE938A06
:101CC0000AB80D4BEFE0BF802A8A7D1A420A23989A
:101CD000A180135A0A015685EFE05FD6EFE0CFF4FA
:101CE000E3624BFF83DD4182EE854A8523980180C4
:101CF000238E018023880182EFF0EFDAB7070020FE
:101D000013351500370B00202380A700835B2B00C1
:101D10008D67938747B5814A014D3EC2EFF06FE072
:101D20005E85EE85EFE03F91EFE0FFE203D50181B4
:101D30009307800C05054205418163E4A7022398BF
:101D4000A180EFE0CFF859436360A30692470A05EC
:101D50003E95084102850549938981866DBD814A7A
:101D600075BF03A5C1821307800C3355E5029308A4
:101D70001D00139D080123980180135D0D0123A60A
:101D80000182854A23ACA18003A5018223A00182A0
:101D90003355E50223AAA18013058002E373A5FB56
:101DA000EFF0CF87014D71BF7943E31965F603C5A5
:101DB00001832DD503C3C1810545E36165F609455E
:101DC000238EA180A1BF03C5C18115E103552B005E
:101DD0001305C5F9AA874205418163732501CA87A6
:101DE000939B07012311FB0093DB0B0105BF054308
:101DF000E31665F283D5418203D5E1809385C5F969
:101E0000C205C1812392B18263F4A5002392A1820D
:101E100083DD418221B703C5C18115E9E3800AF062
:101E200003552B001308703E330575416354A80019
:101E300023117B0193874BED939B070193DB0B01F0
:101E4000814AE3FD2BED23112B01CA8BC1BD054354
:101E5000E31665ECE3840AEC03D541821308301FD6
:101E60003305B5416354A8002392B1839385CDF91E
:101E700003D5E180939D050193DD0D01814AE3FFC8
:101E8000ADE82392A182AA8D51BD03C5C18101EDA8
:101E900003552B0013054506AA8742054181E3F14E
:101EA000A4F4A68735BF0543E31A65E603D541824E
:101EB00013054506AA854205418163F3A900CE8535
:101EC000939D05012392B18293DD0D0181BD03C570
:101ED000C18115E9E3840AE403552B001308703E21
:101EE0003385AB406354A80023117B019387CB1249
:101EF000939B070193DB0B01814AE3F174E3231108
:101F00009B00A68B21BD0543E31A65E0E3880AE048
:101F100003D541821308301F3385AD406354A800B8
:101F20002392B18393854D06939D050193DD0D01A9
:101F3000814AE3F5B9DF23923183CE8DC5B303C364
:101F4000C1810545E36C65DC23117B012392B183DC
:101F5000F1B303C5C1810543630A6500094E6307F8
:101F6000C501E31D05DA238E61804DBB238E018000
:101F700075B3B707002003C50700E31105DA03C5F1
:101F80000183134515002388A18249BB1165814552
:101F900013050565EFE06FC0371701401307078091
:101FA0001C43B7060030B16492079183D58F1CC3E0
:101FB000930700085CCB930700021CCB938404B802
:101FC0000D49EFE0CFD02A847D144204268541805C
:101FD000EFE0DFA6EFE04FC5E36589FEB7290140DA
:101FE000B1641304800C014993890940114A938418
:101FF00004B8268523AA4903EFE05FA47D14EFE02F
:102000008FDE1374F40F2A996DF493074006330999
:10201000F9029307800CB1691304800C8144938901
:1020200009B83359F9024E85EFE05FA17D14EFE066
:102030000FDE1374F40FAA947DF4130A800C33DAC4
:102040004403856A23A44185B7A709009387F7CE87
:1020500063E99730938A8A38854481455685B1690A
:10206000EFE0AFB3938909B80D4BEFE04FC62A8478
:102070007D1442044E854180EFE05F9CEFE0CFBAD3
:10208000E3658BFEB72B0140316B1304800C814953
:10209000938B0B40114C130B0BB85A8523AA8B035F
:1020A000EFE0DF997D14EFE00FD41374F40FAA99D9
:1020B0006DF493074006B389F9029307800CB3D9F6
:1020C000F902B5E805658145130545CEB164EFE039
:1020D000CFAC938404B80D4BEFE06FBF2A847D141E
:1020E000420426854180EFE07F95EFE0EFB3E365A2
:1020F0008BFE372C0140B16B056B9304800C0144BF
:10210000130C0C40914C938B0BB8130B4BCE5E858C
:10211000232A9C03EFE09F92EFE06FCFFD1433057D
:10212000AB4093F4F40F2A94FDF09307800C3354E2
:10213000F40223A2818481450145B72B0140316B14
:10214000EFE0AFA51304800C8144938B0B40194C36
:10215000130B0BB85A8523AA8B03EFE03F8E7D1437
:10216000EFE06FC81374F40FAA946DF49307400660
:10217000B384F40205659307800C8145130585BB84
:10218000316B130B0BB88D4BB3D4F402EFE0EFA01F
:10219000B7170140938707801307000898CBEFE03B
:1021A0000FB32A847D1442045A854180EFE01F89D1
:1021B000EFE08FA7E3E58BFE372C0140B16B130BEB
:1021C000800C0144130C0C40994C938B0BB85E852A
:1021D000232A9C03EFE09F867D1BEFE0CFC0137B9B
:1021E000FB0F2A94E3150BFE371B0140130B0B80EA
:1021F000930700021165232AFB0013050565E167BB
:102200009387076A330555413305F502B309394110
:10221000130740068145335535038D493309A9021B
:1022200023ACA184B7B71201938707883359E90219
:10223000B387274123AAF1849307800C3354F40217
:1022400037A9E111130909303304E402058C33592D
:102250008902B384240323A82185B3D4E402B30400
:10226000904023A69184EFE04F9393070008B16458
:10227000232AFB00938404B8EFE06FA52A847D1421
:10228000420426854180EFE06FFBEFE0EF99E3E544
:1022900089FE4A858145EFE04F90B717014093874B
:1022A000078013070008B16498CB938404B80D49E4
:1022B000EFE0EFA12A847D14420426854180EFE0FF
:1022C000EFF7EFE06F96E36589FE81455285EFE019
:1022D000CF8CB71701409387078013070008B164BC
:1022E000D8CB938404B80D49EFE06F9E2A847D1407
:1022F000420426854180EFE06FF4EFE0EF92E36562
:1023000089FE83A74184294581453305F502B164DF
:10231000938404B80D49EFE04F88B71701409387C5
:10232000078013070008D8CBEFE06F9A2A847D144A
:10233000420426854180EFE06FF0EFE0EF8EE36529
:1023400089FEEFE06FCE15C1375507001305053044
:10235000EFE0CFEEEFE0EFBC09C9EFE08FEFEFF079
:10236000CFBA938A0A778144CDB905671307A7309E
:102370002392E1869387418629472381E7003164D0
:10238000A3830186130404B8EFE00F8A2285EFE0EF
:10239000EFEADDBF9547238CF1828567938757303D
:1023A0002392F1865147938741862381E700316963
:1023B000A3830186130909B80D4BEFE04F91AA845E
:1023C000FD14C2042398A180C1804A85EFE00FE785
:1023D000EFE08F85E3639BFE23880182416D856773
:1023E000938787387D1D37170140238E018023A0F6
:1023F000F18423AEA183130707801C43B706003086
:102400002398018092079183D58F1CC30D6B93078E
:1024100000085CCB116693070BBB05687D7B856D5F
:10242000014A3EC2130BCB31130646521308489C97
:10243000EA8A938D8DBB3165130505B842C632C457
:10244000EFE0CFDF03A9018483A4C1831315090141
:1024500093950401C1814181EFE0EF9D83D7018114
:102460009305800C22468507C207C183324863F476
:10247000F5008147054A42C632C42398F180EFE057
:102480000F85D14722463248E3E7A7FA92470A056B
:102490003E951C41828783C7C1818DE385671309FF
:1024A000C9F9938737CE63F5270123A0218561B74A
:1024B0008567938747CE23A0F184B5BF8545E39C0C
:1024C000B7F6638B54019384C4F99307301F63F903
:1024D000970023AE918285B78564938484BBD5BF72
:1024E0009307401F23AEF182B9B783C7C18185E747
:1024F000630B0A008567130949ED938737CE63F6AE
:10250000270123A02185014A3DB78567938747CEE0
:1025100023A0F184CDBF8545E397B7FEE3050AFE0E
:10252000638B54019384C4F99307301F63F99700B8
:1025300023AE9182C9BF8564938484BBD5BF9307C2
:10254000401F23AEF182C1B783C7C18189EB956774
:102550001309490693878720E3EF27F5B9B7854527
:10256000E39BB7EC93844406E3F59DF623AEA18389
:10257000D9B583C7C18199EBE3070AF895671309B9
:10258000C91293878720E3E527F9A5BF8545E39C1A
:10259000B7F6E30A0AF693844406E3FB9DF8C167A5
:1025A000FD1745B783C7C18199C78545E395B7E84E
:1025B000238E018049B58547238EF180ADBD5A99A0
:1025C000E36B26E79387C4E06374F800E39554E770
:1025D000EFE08FA519C937454900130505E0EFE085
:1025E000EFC5EFE0AF9EE31A05D685679387A73066
:1025F0002392F18613874186A9472301F7003164AE
:10260000A3830186130404B8EFD01FE22285EFE014
:10261000EFC2DDBF9947238CF182EFE02F9B19E1D8
:102620006FF02F9A23A0018423AE0182EFE0CF9FA9
:1026300019C937454900130505E0EFE02FC0EFE069
:10264000EF98E30C05D005671307A7302392E186C6
:102650009387418629472381E7003164A38301865C
:10266000130404B8EFD05FDC2285EFE02FBDDDBF9F
:10267000638409006FF00FA181451305203AB16B07
:10268000EFD0BFD1938B0BB80D4CEFD05FE42A8B0A
:102690007D1B420B2398A180135B0B015E85EFE04D
:1026A000EFB9EFD07FD8E3626CFF6FF08F913716F0
:1026B00002401C4E411106C693E717001CCE370896
:1026C000014083274800370790FF7D17F98F3707B0
:1026D0000004D98F2322F800B717014093870780A1
:1026E0009443B70510FFFD15ED8EB7053000CD8E74
:1026F00094C39443B7050040371701409206918276
:10270000CD8E94C3544F37030200B708F1FF93F600
:10271000F6F093E6060854CFB7160140232067026F
:10272000938606C0C842FD188D6E33751501B70833
:10273000030033651501C8C28843C578FD18419967
:102740001365350088C388437D7E130EFE0F137515
:10275000F5F01365050388C3084333751501336528
:10276000D50108C3484F337515013365D50148CFEE
:10277000484F41991365350048CF88433375C501EB
:102780001365053088C38843337515013365D5015A
:1027900088C308431375F5F01365050308C3884221
:1027A0001375F5F01365050388C2484F3375C501ED
:1027B0001365053048CF13070002D8CB1C4E2D47B8
:1027C00093E717201CCEB727014093870740B8CB6B
:1027D00037B76D1B1307B76DD8C798CB37070E00F7
:1027E000050798C73D47B8CB1387F5FFD8C798CBE7
:1027F0001C4E3707004493E717011CCE5C4AB3E731
:1028000067005CCADC42A207A183D98FDCC28327A0
:1028100088013777024093E70730232CF80093872D
:10282000018BC207C1832318F700F977A107231092
:10283000F700F157A304F700EFE0AFE8EFE06FA176
:10284000EFE0BFEC5D713AD2377702403ED083476C
:10285000970086C696C49AC29EC022DE26DC2ADA7B
:102860002ED832D636D442CE46CC72CA76C87AC674
:102870007EC493F70702BDC78347970085468D8BBB
:10288000639AD7048356A70015476375D7049386C8
:10289000818683D48604138481861397040141873B
:1028A0006345070E13D6C4001D8A13F7F40163179E
:1028B00006100D466309C70C1946630FC70E631651
:1028C000F70C2383E60283C74602850793F7F70FC9
:1028D0002382F602377702408347970093E7070287
:1028E000A304F700B777024003C797006207618728
:1028F0006357070403D7C700C166BD16758F2396BB
:10290000E70003D7E700C166BD16758F2397E70080
:10291000130770072391E70003C747008546137725
:10292000C70F136727002382E70013878186A3025E
:10293000D70203C7970013670708A384E700B77798
:10294000024003C797001377070409CB03C797001A
:1029500013670704A384E700EFE0EFC07254B640AA
:10296000A64216438643E2545255C2553256A256E9
:10297000125782577248E248524EC24E324FA24F0F
:102980006161730020309D471CC01305005AEFE0C1
:10299000EF8A8567A3020402938707E0FD8C8347D3
:1029A000640193E4140009458D8B9A07DD8C231490
:1029B0009404EFE0EFC139BFA147F9B7E317F7FC83
:1029C0008D471CC093D7C4009D8B230AF40093D776
:1029D00064008D8B230BF4001307840481471305D7
:1029E000C406F146834527003306F500850723001A
:1029F000B6000507E398D7FE49BF89679387E76A62
:102A000097E1FF1F938101E0172100201301815FEF
:102A10007D45731005BC13058008732005308D4576
:102A200073904580130540004D8D731055307390A1
:102A300017340D67B7070020130787C19387070076
:102A40009386818063E8D702938781801387018F03
:102A500063E7E702B7270240094798C3B717024068
:102A600023A2070037F700E0954614C3714798CFBB
:102A7000730020301043110790C39107E1B723A0E2
:102A800007009107F1B70000FC00000020010000E2
:102A9000400100006601000090010000B20100004A
:102AA000DA010000E201000000020000160200004E
:102AB00022020000420200005C02000080020000CE
:102AC000A2020000AE020000CC020000EC020000F6
:102AD000F8020000160300001E030000340300008B
:102AE000400300006203000078030000661000004D
:102AF000781000007E100000B01000008E11000061
:102B0000781000007810000078100000AA11000072
:102B1000C011000096170000EE170000FC1700001F
:102B20000A180000181800001818000024180000E7
:102B30002C18000088180000D2190000561D000053
:102B40008C1F0000EA1700009423000014260000E8
:102B5000702600005E1D0000C61D00008A1E0000D9
:102B6000521F0000721F00001C1D00001C1D0000F1
:102B70001C1D00001C1D00001C1D0000161E000076
:102B80003E1F00001C1D00001C1D00001C1D00003D
:102B90001C1D00001C1D00001C1D00001C1D000051
:102BA0001C1D0000CE1E00001C1D00003E1F00006A
:102BB000062500009624000048250000A4250000FA
:102BC000BE25000036240000362400003624000014
:102BD0003624000036240000EA24000036240000D9
:102BE000362400003624000036240000362400007D
:102BF000362400003624000036240000362400006D
:102C0000722500000005FF0105FF0201050703FF13
:082C10000406FF05FFFF0000B0
:082C180001008813012C0000EB
:00000001FF
