:040000006F204051DC
:100004000000000000000000C20A0000C20A000054
:1000140000000000C20A0000000000000000000010
:10002400C20A0000C20A0000000000000000000034
:10003400C20A000000000000C20A00000000000024
:10004400C20A0000C20A0000C20A00000000000048
:10005400C20A0000C20A0000C20A0000C20A00006C
:10006400C20A0000C20A0000C20A0000C20A00005C
:10007400C20A0000C20A0000C20A0000C20A00004C
:10008400C20A0000C20A0000C20A0000C20A00003C
:10009400C20A0000C20A0000C20A0000C20A00002C
:1000A400C20A0000C20A0000C20A0000C20A00001C
:1000B400C20A0000C20A0000C20A0000C20A00000C
:1000C400C20A00005E230000C20A0000C20A000047
:0C00D400C20A0000C20A0000C20A0000BC
:1000E000B7270140938707409847B706400013673A
:1000F000170098C79847558F98C79843098B75DFA5
:10010000E847420541818280E14763E0A7128967A1
:100110009387075A0A053E951C418287B71701400D
:10012000938707800D4798CBB71701403707000525
:10013000938707C01307872D98CBB7170140254732
:100140002DA0B7170140938707803707030098CB8E
:10015000B717014037070005938707C01307872D9E
:1001600098CBB71701403707090098CB8280B717A3
:100170000140416793870780090798CBB717014073
:1001800037070006938707C01307871D75B7B71792
:100190000140938707803707030098CBB7170140CA
:1001A00037070004938707C01307873D71B7B71758
:1001B00001403707020093870780050798CBB717E0
:1001C000014037070004938707C01307873D49BFE5
:1001D000B71701403707020093870780050798CBC0
:1001E000B717014037078004938707C01307873587
:1001F000A1B7B7170140938707800D47CDB7B71751
:1002000001403707020093870780050798CBB7178F
:10021000014037070005938707C01307872D98CB48
:10022000C16737170140A1071CCB8280B717014077
:10023000938707800D4795B7B7170140370702002E
:1002400093870780050791BFB71701409387078001
:100250003707030098CBB71701403707800793870C
:1002600007C013078705EDBDB717014093870780C7
:100270003707030098CBB7170140370780069387ED
:1002800007C013078715E9BDB7170140938707809B
:100290000D4798CBB717014037078006938707C0F3
:1002A00013078715ADBFB7170140938707800D4728
:1002B00055B7B7170140938707800D4701B7B717A8
:1002C0000140938707800D4798CBB7170140370748
:1002D0000006938707C01307871D91B7B717014022
:1002E000938707800D4798CBB717014037078007E2
:1002F000938707C01307870581B5B7170140938718
:1003000007800D4798CBB717014037070004938744
:1003100007C01307873D21B7B717014093870780B0
:100320000D4798CBB717014037078007938707C061
:100330001307870598CBB7070800371701408507D3
:10034000E5B5B7170140938707800D4798CBB717DE
:10035000014037078006938707C013078715E9BB5D
:10036000B7170140938707800D4798CBB717014017
:1003700037078006938707C01307871565BFB71730
:1003800001404167938707800907EDB5B717014022
:10039000938707800D4798CBB71701403707800533
:1003A000938707C01307872541BBB71701404167F3
:1003B00093870780090798CBB717014037070004D8
:1003C000938707C01307873DB5B789679387F77091
:1003D00063E1A704A9473355F50242054181B9ED10
:1003E0008547A38BF184A9463357D502930740066E
:1003F000B357F5023377D70293F7F70F3375D5026A
:10040000238AF18493874185A380E7002381A70095
:100410008280E1679387F76963EAA7009307400644
:100420003355F50289474205418165BF9307803EF8
:100430003355F50281474205418165B713074006F0
:100440003357E5020946A38BC1843355F502137770
:10045000F70F3375F5026DB7411122C483C7418090
:1004600006C6130740026383E70413076002638430
:10047000E706130730026393E70203C5418569313C
:10048000B71701404147938707C0D8CB83C6718512
:1004900005476395E6001307004098CB9307400299
:1004A000B2402382F18022444101828003C55185FC
:1004B000A139B717014013070004938707C0D8CBB1
:1004C00083C6718509476395E6001307004098CB02
:1004D00093076002F1B703C561853D31B71701404D
:1004E0002147938707C0D8CB83C671850D47639595
:1004F000E6001307004098CB9307300255B7371634
:100500000140930706C094479395460163CE0502C8
:1005100083C64180130640026380C6021306600250
:100520006380C60213063002638EC60083D601853F
:1005300085062398D1843DA891462389D184FDB7AF
:100540008D46E5BF8946D5BF14469395E60085469E
:10055000E3C505FE83C6218591CE9145639DB60214
:1005600083C5418013064002E392C5FC23890184C0
:10057000A387D18403C7218521CB83D60185930727
:10058000A00F1305F00F63F1D708A9473307F7024F
:100590001375F70F82808D456397B60083C5418040
:1005A00013066002D1B789456397B60083C54180C1
:1005B0001306300255BF8545E39AB6F610469315EB
:1005C000E600E3C505F65DB703C5F1840DC983D622
:1005D00001851306A00F637CD60023980184AD47E4
:1005E0003305F502A38701841375F50F8280094650
:1005F0006377D60023980184A3870184828023989F
:100600000184A38701840145828003C7E18483C7F5
:10061000D18401C7860793F7F70F2386F184828080
:10062000B7270240D84793761700EDFE937607026E
:1006300089E623A8070001458280D8C70545828046
:10064000411106C622C426C24AC0D93FB7C7000816
:1006500083A407F023A49184E137B7C7000803A956
:1006600047F0FD1423A22185653FB7C7000803A406
:1006700087F023A081846D37B7C7000883A7C7F030
:10068000014523AEF1827557636B9700FD566308F1
:10069000D90036946365870085073335F000B24092
:1006A00022449244024941018280411106C68D3F95
:1006B000B7C7000803A507F1B24023ACA182FD77BC
:1006C0009387C7313E959167938757523335F5002D
:1006D000410182805D714EDE83A98184A6C283A41C
:1006E0000184CAC003A94184B3E7990086C6A2C4A5
:1006F00052DC56DA5AD85ED662D466D2B3E7270106
:1007000085E38144B64026440649F259625AD25ADA
:10071000425BB25B225C925C26859644616182807A
:100720000137B7C7000803A447F1FD57E31BF4FCEA
:10073000C53DB7C7000883A7C7EFE39487FCB72779
:100740000240984B137707086318070EB72702403B
:10075000984B9316070163C10610D9353724024020
:10076000B70702001CC8B7C70008938707F05CC82A
:100770001C4893E707041CC8653541D523280400AD
:1007800003A7C1834EC04AC23AC603A7818326C4C9
:100790003AC87D573ACA3ACC3ACE1C4893F7070874
:1007A000E1EFB7270240984B9316070163C6060E88
:1007B000853D37240240C1671CC80149370A08003B
:1007C000854A7D5BB70B04001C48B3E747011CC892
:1007D000813D05D9B7C4000837CC0008931C4900F7
:1007E0008A89938404F0130C0CF16317090C83A716
:1007F00009009CC01C4891049109B3E777011CC80B
:100800000535E39484FFB7C70008938707F05CC8F9
:100810001C4893E707041CC82135AA84E30305EEAE
:100820000509C147E312F9FA23280400D53BA16763
:10083000938707081CC8F9B53707674513073712B0
:10084000D8C33797EFCD1307B79AD8C39C4B93F70C
:100850000708E38D07EE75B53707674513073712AD
:10086000D8D33797EFCD1307B79AD8D39C4B1397AC
:100870000701E35407EE71B5B70767459387371251
:100880005CC0B797EFCD9387B79A5CC01C4893F7CD
:100890000708E38807F0B5B5370767451307371230
:1008A000D8D33797EFCD1307B79AD8D39C4B13976C
:1008B0000701E35F07EEB1B56316590183A709018C
:1008C0009CC80DBFB387940123A0670125B783C7D8
:1008D0000183411106C622C42E87B5CBB70700207D
:1008E00083C70700ADE737140140930700021304E4
:1008F00004801CC883C7C18105476382E70209479A
:100900006388E70289EB03A5818181457D3C91479E
:100910001CC8A1475CC82244B240410135BE03A5B2
:10092000418181455D3491475CC8A1471CC8E5B74A
:1009300083A7818103A741811305803E8145B38749
:10094000E70233D5A702513491471CC8F9BF03C64B
:10095000C184B71701409387078093060002D4CB68
:1009600009EE1307A050239AE18493874185294714
:100970002381E700A38B018479BF83C5C18105462C
:100980006381C50289476385F502D1F58545353C0C
:10099000B717014093870780114798CB2147D8CBE1
:1009A0009DBF9146D4CBA14694CB3A85393CA5B79F
:1009B000238E0180E1BF37F700E01C473E951C47BE
:1009C000898FE3CE07FE82804111B72701409387CC
:1009D0000740214706C6D8DBEFF08FF083A781845C
:1009E0001307803E3305F50283A741843355E502A2
:1009F000B3C7E7023E95B707002083D7270023AA95
:100A0000A1829387773E63D2A70A03C7018319CFD8
:100A100023880182B71701409387078013070002DC
:100A2000D8CBB707002005472380E70083A7C18202
:100A3000AA973165130505B823A6F182AD3FB72704
:100A40000140938707401147D8DBEFF06FE983A798
:100A500001841307803E3305F50283A7C183335514
:100A6000E502B3C7E7023E9583D7418223A4A18262
:100A70009387471F63D1A70403C7018319CF238836
:100A80000182B71701409387078013070002D8CB74
:100A9000B707002005472380E70083A70182B24003
:100AA000AA9723A0F18241018280E35105F823AA8D
:100AB00001820145A5BFE35205FE23A40182014541
:100AC000E9BF01A093878185DC470A05AA9703D572
:100AD000E7FF82809387818503C7470183C657015B
:100AE000158F1377F70F6368A700DC470A05AA97ED
:100AF00003D5E7FF8280198D19473305E5029C4B2A
:100B0000AA9703D5A7FF82809387818503C74701F2
:100B100083C65701158F1377F70F6368A700DC476B
:100B20000A05AA9703D5E7FF8280198D1947330577
:100B3000E5029C4BAA9703D5C7FF828093878185E6
:100B400003C7470183C65701158F1377F70F6368F3
:100B5000A700DC470A05AA9703D5C7FF8280198D35
:100B600019473305E5029C4BAA9703D5E7FF82801E
:100B7000B77702401307200A2396E7002397E70080
:100B800093878185A38407002385070023840700BA
:100B9000238A0700A38A070023A0070023A20700D7
:100BA0002382070213878702A3820702D8C713870D
:100BB000C7032383070298CB0547238BE7002381D4
:100BC0000702238DE700A38DE70005671307873829
:100BD000239EE7002390E7028280B777024003D785
:100BE0000700118B15CB03D7E70013670701239785
:100BF000E700B77702401307F0042391E700A382D0
:100C000007002393A700A384070003C747001367C7
:100C100037002382E700828003D7C70013670701EC
:100C20002396E700F9B79387818503C5A70183C69B
:100C3000470203C6670105689D8A0908A6060D8A52
:100C40001A06B3E60601D18E03C6470103C8570151
:100C50009375F50F9377F500330606411387818569
:100C60006357A6040356C701D145F2073356B602AF
:100C70008565FD156D8E2606D18F0356E701930518
:100C800020033356B602B70500031376F6074D8EE0
:100C9000B70500FD938505F8ED8FD18F2315F70477
:100CA0001945C1832314D7042316F7043DB793874E
:100CB000F5FF8A07BA9703D68702A94737050003CD
:100CC0003356F602F2051376F63F9317A600498EC7
:100CD000D18FCD8FE1B7797122D426D24AD04ECEB2
:100CE00052CC56CA5AC862C49387818506D65EC65E
:100CF00066C223900702238107029304F00F138436
:100D00008185377C0240094B0549954937EA00E067
:100D1000B70A02008347240293FCF70F89E7FD140A
:100D200093F4F40F85E0B25022540259F249624A1A
:100D3000D24A424BB24B224C924C333590009254E3
:100D40004561828037B5030013050598AD3183579F
:100D5000CC0041671307E7F1F98F2316FC00835796
:100D6000CC00C1669386E6F193E707042316FC00E6
:100D70000357CC008357EC004207F58F2317FC0084
:100D80008357EC00418393E707042317FC00835645
:100D9000EC008947858A99E293771700035784010D
:100DA000050742074183231CE4001840631E270304
:100DB000639E270723050400034794000507137764
:100DC000F70FA304E4000347940063FFE900A304C2
:100DD0000400094718C03776024003570600C16671
:100DE000ED16758F2310E60018406374E902ADEF2D
:100DF00083478400850793F7F70F2304F4008347A4
:100E0000840063F8F9002304040023200400232253
:100E10005A19832B04001C402547636FF7040967A8
:100E20008A0713074760BA979C438287A30404008C
:100E3000639967030347A40005071377F70F23059A
:100E4000E4000347A400E3F1E9FA230504001CC011
:100E5000B776024003D70600136747002390E600E9
:100E600061B72305040049B7230404005DB72322BA
:100E70005A19FD39232024012322740161BD5840F1
:100E80001C40E30BF7FE930770072311FC00834718
:100E90004C0093F7C70F93E727002302FC00A30839
:100EA0000A4223225A11C9BF83475402F1D7A30231
:100EB0000402B7E700E0370702000328C400144823
:100EC00023A2E718A30A0400B70800F0370300C004
:100ED000294E930520031946130540068347440114
:100EE00063EBFC00B7E700E03707020023A2E7103E
:100EF00091471CC051B713972C00B307E400FC576F
:100F0000B3FE170163926E060347540193DE170187
:100F100093FEFE0F3307C702B38EAE02369723113E
:100F2000D7010347540193DE870093FEFE0F33077A
:100F3000C70293F7F707B38EAE0236972310D70197
:100F400003475401B387B7023307C702369723120A
:100F5000F70083475401850793F7F70FA30AF400BE
:100F6000850C93FCFC0F9DBF93FEF73FA98393F77D
:100F7000F73FB38ECE034297B387B7022310D70152
:100F80002311F700F1BF58401C406303F70061399B
:100F900083476402E38207EE230304022320340123
:100FA000E1BD83475402E38907ECA3020402A5478D
:100FB0001CC0231C0400C9B5230124030347A4015A
:100FC0008347B4016318F7000357C4018357040231
:100FD000E304F7EA8347A401094593F7F70FA30D4C
:100FE000F4008357C401C207C1832310F402230114
:100FF000040283474402034764019D8BA6070D8BBF
:101000001A0793E77700D98F2314F404F936A94718
:10101000CDB5411122C406C613848185230DA400D9
:10102000231EB400213E231FA4002244B2404101EC
:101030005DB19387818503C7470103C6570183A824
:10104000070103A8C700118FAA851377F70F8147FF
:1010500093868185194303C6460163E4C7000145B1
:1010600082801385170063FBE7008A07C29783D746
:1010700027006391B7021375F50F61BF998FB3878E
:101080006702C69703D6070063E6C50083D727002B
:10109000E3F3B7FE9377F50F7DBF13868185834613
:1010A0004601834756010346560193F6F60F93F720
:1010B000F70F1387818511CE9D8E0328070193F6C4
:1010C000F60FB6879948130310030346470163E4FC
:1010D000C700014582803386D74033061603850753
:1010E0004296035E06006365C503035E26006361E6
:1010F000AE0203564600636DB600637BB30093F700
:10110000F70F230DF700231EA700231FB700E1B63A
:1011100093F7F70F5DBFB71601409387068098439A
:10112000370610FF7D165D71718F3706300086C659
:10113000A2C44EDE52DCA6C2CAC056DA5AD85ED667
:1011400062D466D26AD06ECE518F98C398437D75B3
:101150001305F50F698F1367073098C398434578D7
:101160007D188D68337707013367170198C3D84E10
:10117000B705020021631377F7F013670708D8CE8D
:101180008CD2138706C0504333760601336666005F
:1011900050C305661306068010CB9042138A418522
:1011A000337606013366160190C2104337080030CB
:1011B000120611823366060110C350431376F6F00F
:1011C0001366060350C39042419A1366360090C2DC
:1011D0009443370640FE7D1693F6F6F093E6060339
:1011E00094C39443C19A93E6360094C35443C19A7E
:1011F00093E6360054C35443E98E93E6063054C355
:1012000093060002D4CB85679387B7B0239AF18405
:101210002D4593874185B70667452381A7009386AF
:101220003612B7670240D4C7B796EFCD9386B69A09
:10123000D4C7D443F18ED4C3D44337068001D18EB2
:10124000D4C3D44337062000D18ED4C3D443370649
:10125000E8FF7D16F18ED4C3D4434166D4C3D44392
:10126000D4C3D443D18ED4C3D44337060080D18EA7
:10127000D4C3B71602409C4E37B66D1B1306B66D2D
:1012800093E717209CCEB727014093870740A8CB50
:10129000D0C790CB37060E00050690C73D46B0CBB1
:1012A000370600407D16D0C790CB9C4E93E71701C0
:1012B0009CCEDC4ACD8FDCCA5C43B7060044A20753
:1012C000A183D58F5CC3370701401C4F93E70730DC
:1012D0001CCF9387818593878704C20737770240A5
:1012E000C1832318F700F977A1072310F700F157FE
:1012F000A304F700CD321384818505C183475401CF
:1013000081C705472387E18403474401834754018C
:101310006305F7000547A386E184B7140140938471
:1013200004C09C40370BF1FF7D1B37070400B3F767
:101330006701D98F9CC09C40B70A00F1FD1AB3F732
:101340005701370C0004B3E787019CC09C40C57B64
:10135000FD1BB3F77701916CB3E797019CC0B717FA
:1013600001409C471397E70063510708EFF0EFA98E
:10137000EFF0AFB309C903C7C18495476305F70010
:1013800091472386F184EFF0AFAB01E58D472386CB
:10139000F184B7170140938707C09843B706F1FF60
:1013A000FD16758FB7060300558F98C39843B7068F
:1013B00000F1FD16758FB7060003558F98C398434B
:1013C000C576FD16758F8D66558F98C303CBC18486
:1013D000954763F467016F009076096793172B00B8
:1013E0001307C762BA979C4382879C400D6731659B
:1013F000B3F77701D98F9CC0A147DCC8130505B8A6
:10140000EFF06FDB9C4413974701E35107F69C40D4
:10141000370700033165B3F77701B3E797019CC045
:101420009C40130505B8B3F75701D98F9CC09307AB
:101430000004DCC8EFF02FD89C44139747019C4070
:10144000B3F75701B3E787019CC09C40B3F767012E
:10145000634A070237070300D98F9CC0C14A316530
:1014600023AA5401130505B8EFF0EFD49C44139759
:1014700047018D476355070023AA540195472386EA
:10148000F184FDB537070300D98F9CC03165C14792
:10149000DCC8130505B8EFF00FD29C441397470141
:1014A000E34607EC83C7D184E38207EC8547C1BFDD
:1014B000856737070020938787382311F7008567F2
:1014C00093870796B7040020238E0180238801822A
:1014D000239901802392F18223800400130B800C56
:1014E000EFF08FCE856505659385059613058538E4
:1014F000EFF0EFBD83D721818507C207C183636EFB
:10150000FB022399F180EFE09FFF91476309F50605
:10151000F947630AF5048D47E314F5FC83C701839B
:10152000E1D383C7C181054785CFFD1793F7F70F37
:10153000E368F7FA238E018065B783A7C1822399F8
:10154000018023A60182B3D7670323ACF18083A770
:10155000018223A00182B3D7670323AAF18065B774
:10156000238EE180B5BF83C70183BDDB03C7C18183
:101570008547E3E7E7F68947238EF18095B783C770
:101580000400B9FF83C7018393C717002388F18242
:1015900081BF854705692388F180DA84130989387A
:1015A0008347440103475401998F93F7F70F63EA88
:1015B00097002685EFF00FD1631D250D23889180BC
:1015C000268B5A85EFF00FD0B70700202391A70094
:1015D000AA845A85EFF08FD62392A18285679387DC
:1015E000C7D0239AF184B9472301FA002A890D4A0A
:1015F000EFE0FFF0AA89FD192399A180C2093165A6
:10160000130505B893D90901EFF0EFBAEFE0DFE475
:10161000E3603AFF268523990180238E0180238889
:101620000182EFF01FA113451500370C002005893A
:101630002300AC00930C800C854BEFF0EFB8CA850B
:101640002685EFF0CFA883D721818507C207C18304
:1016500063E5FC042399F180EFE07FEA8D476300A6
:10166000F50E63EFA704630E75078947E317F5FCD2
:1016700083C70183B5EB034744018346540183C705
:101680000181158F1377F70FE3F9E7FA1389170034
:10169000A5A8850493F4F40F21B783A7C1822399E9
:1016A0000180B3D7970323A6018223ACF18083A7DF
:1016B000018223A00182B3D7970323AAF18069BFD7
:1016C0009147630DF508F947E319F5F683C70183E0
:1016D000ADD783C7C181E3E2FBF68947238EF18052
:1016E000A9BF83C7018399CBB71701402388018223
:1016F0009387078013070002D8CB81B783C7018186
:10170000E3FDFBF21389F7FF1379F90F4A8523886C
:101710002181EFF02FBBB70700202391A700AA84F7
:101720004A85EFF0AFC12392A1822A892685EFF086
:101730005F901345150005892300AC00FDBD83C7EC
:10174000C181638A770109476387E700E39707EE62
:10175000238E7181DDB5238E0180C5B583470C00D2
:10176000E39D07EC83C7018393C717002388F182A9
:10177000E9B58347440103475401998F93F7F70F65
:1017800063F597042685EFF02FB863F0AB04856707
:10179000370700209387873826852311F700EFF05D
:1017A0006FB32397A1802685EFF00FB62395A18014
:1017B0002685EFF0AFB82394A1802392A18213076E
:1017C000401F2396E18023889180850493F4F40FD1
:1017D0008347440183DBA180E3FD97F88567938706
:1017E000F7F0239AF18495472301FA008D44EFE046
:1017F0001FD12A847D142399A180420431651305E9
:1018000005B84180EFF02F9BEFE01FC5E3E184FEB8
:10181000B717014093870780114798CB2147D8CB52
:1018200085455E85EFE07FBA8D44EFE05FCD2A8489
:101830007D142399A18042043165130505B84180C8
:10184000EFF06F97EFE05FC1E3E184FE83DCE180BE
:1018500085458D446685EFE05FB7EFE05FCA2A8477
:101860007D142399A18042043165130505B8418098
:10187000EFF06F94EFE05FBEE3E184FEB717014045
:10188000938707801147D8CB214798CB03DD818010
:1018900085458D446A85EFE05FB3EFE05FC62A843B
:1018A0007D142399A18042043165130505B8418058
:1018B000EFF06F90EFE05FBAE3E184FEB70900203C
:1018C00003D4290083D44182A685228523990180EF
:1018D000238E018023880182EFF02FFC1345150031
:1018E000370A002005892300AA00014B02C4054CD9
:1018F000EFF08F8DA6852285EFE07FFD83D72181D4
:101900001307800C8507C207C1836364F70223991C
:10191000F180EFE0DFBED94763E0A70689679387D0
:1019200047640A053E951C418287854455B5014BA5
:10193000C1B7A2479306800C8507C207C1833EC486
:1019400083A7C18223A60182B3D7D702239901803E
:1019500013078002054B23ACF18083A7018223A0EB
:101960000182B3D7D70223AAF180A247E373F7FA23
:10197000EFF06FAB02C471BFF947E31BF5F683C705
:101980000183BDD783C7C181E364FCF68947238EF9
:10199000F180B9BF83C7C18195E303D42900130443
:1019A000C4F94204418063649401A28719A0E687C8
:1019B000668483D541822391F90011A2E39A87F3CB
:1019C00083D4418283D7C1809384C4F9C204C18087
:1019D0002392918263F5F4002392F182BE8403D5B1
:1019E0002900A685EFF06FEB13451500058923004C
:1019F000AA00FDBD83C7C181B9EBE30B0BEE83D712
:101A000029001307703E818F635EF70083D5418202
:101A1000228523918900EFF04FE8134515000589D1
:101A20002300AA00130444ED42044180014BE371FA
:101A300094ED83D54182668523919901EFF0EFE51E
:101A40001345150005892300AA00668455B5E39166
:101A500087EBE30F0BE883D741821307301F858F95
:101A6000635EF70003D52900A68523929182EFF0EB
:101A7000CFE21345150005892300AA009384C4F919
:101A800083D5C180C204C180014BE3F3B4E603D522
:101A900029002392B1822EC6EFF02FE0B245134504
:101AA000150005892300AA00AE8499B583C7C181BA
:101AB000E360FCE42391890023929182A68522852C
:101AC00015B783C7C18181EF03D4290013044406ED
:101AD00042044180E3FB8BECDE875E84D9BDE39951
:101AE00087E183D4418293844406C204C180A687DF
:101AF00063749D00EA87EA842392F182CDB583C79F
:101B0000C181A1EFE3060BDE83D729001307703EE6
:101B1000B307F440635EF70083D5418222852391A9
:101B20008900EFF08FD71345150005892300AA001F
:101B30001304C41242044180014BE3FB8BDA83D5CA
:101B400041825E8523917901EFF02FD51345150071
:101B500005892300AA005E8461BBE39B87D9E30962
:101B60000BD883D741821307301FB387F440635EDD
:101B7000F70003D52900A68523929182EFF0EFD1DB
:101B80001345150005892300AA0093844406C20466
:101B9000C180014BE37E9DD403D52900EA852392C1
:101BA000A183EFF08FCF1345150005892300AA000C
:101BB000EA843DBB83C7C181638A87010947638784
:101BC000E700E39707D2238E81811DB3238E018026
:101BD00005B383470A00E39D07D083C7018393C7FA
:101BE00017002388F18229B3856793870711239A09
:101BF000F184C9472301FA008D44EFE05F902A8405
:101C00007D1431654204130505B84180EFE0BFDA69
:101C1000EFE09F84E3E384FE056581451305853885
:101C2000EFE0AFFAB717014093870780114798CBD1
:101C30002147D8CB1307000298CB8D44EFE03F8CAF
:101C40002A847D1431654204130505B84180EFE014
:101C50009FD6EFE07F80E3E384FE37240140130941
:101C6000800C014B13040440A1443165130505B8F1
:101C700044D8EFE05FD4EFE0AFC67D192A9BE316AE
:101C800009FE93074006330BFB0211659307800C96
:101C9000814513050565335BFB02EFE00FF3B717D2
:101CA000014093870780114798CBC4CB13070002EC
:101CB00098CB8D44EFE0BF842A847D1431654204C3
:101CC000130505B84180EFE01FCFEFE0EFF8E3E345
:101CD00084FE372401409304800C13040440214CFB
:101CE0003165130505B8232A8403EFE0DFCCEFE06C
:101CF0002FBFFD142A99EDF41304800C3359890287
:101D000093074006B71A014081450145914B3309BD
:101D1000F9029307000223AAFA80EFE00FEB23AA4F
:101D20007A8123A88A81B72A0140938A0A403165C3
:101D3000130505B823AA7A03EFE0FFC7EFE04FBA17
:101D40007D14AA946DF493074006B384F4020565EC
:101D50009307800C8145130585BBB3D4F402EFE0F3
:101D6000CFE6B71701409387078023AA7701214761
:101D700098CB1307000298CB8D4BEFE04FF8AA8A5F
:101D8000FD1A3165C20A130505B893DA0A01EFE0BE
:101D90009FC2EFE06FECE3E25BFF372C0140930B57
:101DA000800C130C0C40914A3165130505B8232AA9
:101DB0005C03EFE05FC0EFE0AFB2FD1B2A94E39558
:101DC0000BFE37757C4D330B6941130505D0335538
:101DD000650313074006B71B01409307000223AABF
:101DE000FB8081453309A90223A4A184B7B712015E
:101DF000938707883359E902B387274123A2F184E7
:101E00009307800C3354F402B7A7E111938707308E
:101E10000D493304E402058C33D4870223A0818466
:101E2000B3878402B3D7E702B307F04023AEF18251
:101E3000EFE0AFD9A14723A85B8123AAFB80EFE0A5
:101E40000FECAA84FD143165C204130505B8C180E6
:101E5000EFE07FB6EFE04FE0E36399FE8145228536
:101E6000EFE0AFD6B717014093870780214798CBA3
:101E70001147D8CB8D44EFE08FE82A847D1431657B
:101E80004204130505B84180EFE0FFB2EFE0CFDC7C
:101E9000E3E384FEEFE01F841DE185679387A730AD
:101EA000239AF184A9472301FA00A38B0184EFE070
:101EB000AFDA3165130505B8EFE0FFAFCDBFEFE056
:101EC0002FF861DDB707EFBE37E700E0938707081B
:101ED0003CC701A02388018085448347440183A92E
:101EE000818363F1970E8567938787386390F90242
:101EF00083C7018181EFB7070020239137018567F0
:101F0000938707962392F1822386018483C4C18438
:101F100089476389F41663EB971263940414B70A34
:101F2000002023990180238E018023880182238051
:101F30000A0023A6018223A00182EFE0FFA883C745
:101F40000A0085492388318363920716B717014039
:101F5000938707801307000298CB83A7C18223AC25
:101F6000F18083A701822388318323A6018223AADB
:101F7000F18023A00182814C130A800C894A4E8C87
:101F8000EFE09FA483D54182B707002003D5270047
:101F9000EFE0FF9303D72181050742074183636F79
:101FA000EA102399E180EFE08FD58D47630AF5149D
:101FB0007947E317E5FC03C7C181E363ECFC238E9B
:101FC00051817DBF83474401034754012685998F82
:101FD00093F7F70F63E89702EFE0DFAE6390A90293
:101FE000B7070020268523913701EFE03FB5239204
:101FF000A1822388918085472386F184850493F408
:10200000F40FE1BDEFE01FADE3EAA9FE2685EFE0A6
:10201000BFAFE36535FF03CB0181631F0B00B7073B
:102020000020268523913701EFE05FB12392A18242
:10203000238891808947C9B72685EFE03FB0AA8AF7
:102040005A85EFE0BFAFE36C55FD4DBF8D47E38888
:10205000F4ECEFE06FC03165130505B8EFE0BF9514
:10206000CDBF03C5018193950901C181EFE07FFADE
:10207000E31705EAEFE04FBE3165130505B8EFE061
:102080009F93CDBF03C50181EFE05FABAA85139598
:1020900009014181EFF06F80E31305E8EFE0CFBB6A
:1020A0003165130505B8EFE01F91CDBFEFE0CFBA62
:1020B0003165130505B8EFE01F90CDBF03A7C182BE
:1020C0002399018023A601823357470323ACE18083
:1020D00003A7018223A001823357470323AAE1808B
:1020E000E39354ED93871C00939C070193DC0C0150
:1020F00093078002E3F997EBEFE0FFB2814C65B5FF
:1021000003C7C18109CB7D171377F70FE36AECE6AC
:10211000238E0180B5B5238E31819DB58567938768
:102120004761239AF184DD472301FA000D49EFE06E
:102130000FBD2A847D142399A180420431651305C3
:1021400005B84180EFE03F87EFE00FB1E36189FE22
:1021500003A78183FD779387C7313E979167938764
:10216000475263EBE706856793878731239AF184AB
:10217000C9472301FA008D4AEFE06FB82A897D191B
:102180002399A18042093165130505B81359090146
:10219000EFE07F82EFE04FACE3E02AFF23AC018267
:1021A000EFE04FD305E1A947238AF1842301FA0028
:1021B000A38B0184EFE04FAA3165130505B8EFE06A
:1021C0008FFFCDBFEFE06FCE79FDB707EFBE37E7EA
:1021D00000E0938707083CC7856793875730239AA9
:1021E000F184D1472301FA008D4AEFE04FB12A89EB
:1021F0007D192399A18042093165130505B813594A
:102200000901EFE04FFBEFE02FA5E3E02AFF856730
:102210009387873815692399018023ACF182814A1D
:10222000130B800CA94B514C13098920896C316523
:10223000130505B8EFE02FF8EFE00FA283D7218157
:102240008507C207C183636EFB002399F180EFE02D
:102250000FAB63E1AB0293870C6A0A053E951C4104
:10226000828703A58183854523990180854AEFE014
:10227000CF95F1BFE31D85FB638D0A0283A78183A0
:102280009387C7126372F90423AC21831DA083A72F
:1022900081830567130737CE9387C7F96375F70006
:1022A00023ACF18269B78567938747CED5BF639426
:1022B0000A00814AADBF83A781830567130737CE24
:1022C000938747ED6375F70023ACF182DDB785672F
:1022D000938747CED5BF83A7818393874706E37152
:1022E000F9FC23AC2183A1B703A78183FD779387F2
:1022F000C7313E97916793874752E3EAE7F2EFE0F1
:102300006FBD1DE185679387A730239AF184A947A4
:102310002301FA00A38B0184EFE00F9431651305CC
:1023200005B8EFE04FE9CDBFEFE02FB861DDB707AB
:10233000EFBE37E700E0938707083CC7CDBDB64046
:10234000264496440649F259625AD25A425BB25B1D
:10235000225C925C025DF24D0145616182805D719B
:102360003AD2377702403ED08347970086C696C45C
:102370009AC29EC022DE26DC2ADA2ED832D636D485
:1023800042CE46CC72CA76C87AC67EC493F707029C
:10239000BDC78347970085468D8B639AD7048356C4
:1023A000A70015476375D7049386818583D4860477
:1023B000138481851397040141876345070E13D663
:1023C000C4001D8A13F7F401631706100D46630954
:1023D000C70C1946630FC70E6316F70C2383E6027A
:1023E00083C74602850793F7F70F2382F6023777F4
:1023F00002408347970093E70702A304F700B777EB
:10240000024003C79700620761876357070403D739
:10241000C700C166BD16758F2396E70003D7E70096
:10242000C166BD16758F2397E700130770072391C8
:10243000E70003C7470085461377C70F13672700D8
:102440002382E70013878185A302D70203C7970081
:1024500013670708A384E700B777024003C7970014
:102460001377070409CB03C7970013670704A384F6
:10247000E700EFE0EFEF7254B640A6421643864302
:10248000E2545255C2553256A256125782577248DC
:10249000E248524EC24E324FA24F6161730020306B
:1024A0009D471CC01305005AEFE0EFD08567A302DB
:1024B0000402938707E0FD8C8347640193E41400D2
:1024C00009458D8B9A07DD8C23149404EFE0EFF01F
:1024D00039BFA147F9B7E317F7FC8D471CC093D765
:1024E000C4009D8B230AF40093D764008D8B230BCB
:1024F000F4001307840481471305C406F14683459D
:1025000027003306F50085072300B6000507E3988A
:10251000D7FE49BF85679387671197E1FF1F9381B6
:10252000612E173100201301E1AD7D45731005BC0C
:1025300013058008732005308D4573904580130581
:1025400040004D8D73105530739017340967B707ED
:1025500000201307C76C938707009386818063E888
:10256000D702938781801387018E63E7E702B7273D
:102570000240094798C3B717024023A2070037F764
:1025800000E0954614C3714798CF73002030144380
:10259000110794C39107D1B723A007009107E1B7B2
:1025A0001C010000420100006E0100008E010000CD
:1025B000AE010000D0010000F2010000FE010000A9
:1025C0002C020000380200004802000068020000EF
:1025D00088020000A6020000B2020000BE02000055
:1025E000DC020000FA0200001803000042030000B1
:1025F000600300002A0200007E0300008C0300003C
:10260000AA0300006E0E0000780E00007E0E00008F
:10261000A80E0000860F0000780E0000780E000063
:10262000780E0000A20F0000B80F0000B0140000E8
:10263000921500002A190000E81B0000D41E0000BB
:102640001C2100002E19000094190000C21A00007D
:10265000B41B0000D21B0000F0180000F0180000AE
:10266000F0180000F0180000F0180000F419000045
:10267000AC1A0000F0180000F0180000F01800007C
:10268000F0180000F0180000F0180000F01800002A
:10269000F0180000FE1A0000F0180000AC1A00004C
:1026A000B22200008E220000D62200002E2200005E
:1026B000E82200002E2200002E2200002E22000020
:0C26C0002E2200002E220000AE2200009E
:0826CC00010088132400000046
:00000001FF
