:040000006F20C06944
:1000040000000000000000000E0B00000E0B0000BA
:10001400000000000E0B00000000000000000000C3
:100024000E0B00000E0B000000000000000000009A
:100034000E0B0000000000000E0B0000000000008A
:100044000E0B00000E0B00000E0B00000000000061
:100054000E0B00000E0B00000E0B00000E0B000038
:100064000E0B00000E0B00000E0B00000E0B000028
:100074000E0B00000E0B00000E0B00000E0B000018
:100084000E0B00000E0B00000E0B00000E0B000008
:100094000E0B00000E0B00000E0B00000E0B0000F8
:1000A4000E0B00000E0B00000E0B00000E0B0000E8
:1000B4000E0B00000E0B00000E0B00000E0B0000D8
:1000C4000E0B0000E62400000E0B00000E0B0000D7
:0C00D4000E0B00000E0B00000E0B0000D5
:1000E000E14763EFA7188967938787720A053E95F2
:1000F0001441B7170140138707808286BD4614CB91
:1001000037170140130707C0B716020014CB294761
:10011000B1A8B7060C008D0614CB371701401307A2
:1001200007C0B716020014CB37070A0081A0BD46EE
:1001300014CB371701408566130707C0890614CB17
:1001400037070200210798CB37070500210705AACA
:10015000B70608009D0614CB3717014085661307C4
:1001600007C0890614CB37070200210798CB370751
:100170000400250729A2B7060C008D0614CB3717FB
:1001800001408566130707C0890614CB37070800AE
:100190000907E9BFB70608009D0614CB37170140D1
:1001A0008566130707C0890614CB294798CB370704
:1001B0000C000507E9A0BD46CDB7B7060C008D06BB
:1001C0003DBFBD4614CB371701408566130707C0F6
:1001D00089062DBFB70608009D06EDB7B7060C00CF
:1001E0008D0614CB37170140130707C0B71602005E
:1001F00014CB37070A0049A0B7060C008D0614CBB4
:10020000371701408566130707C08906D5B7B706BB
:100210000400AD0614CB371701408566130707C0ED
:10022000890689A8B7060400AD0614CB371701402C
:10023000130707C0B716020014CB370708000907D9
:1002400025A8B7060400AD0615BFB7060400AD0625
:1002500014CB371701408566130707C0890614CBF6
:100260002947D5B5BD4614CB37170140130707C042
:10027000B716020014CB294798CB37070D0098D347
:100280008280B7060400AD0635BFBD4679BFBD46C6
:1002900051B7BD4614CB371701408566130707C019
:1002A000890659BFB7060400AD0691BFBD4614CB01
:1002B00037170140130707C0B7160200F5B5BD4652
:1002C00014CB371701408566130707C08906A1BD07
:1002D000B7060400AD0614CB371701408566130737
:1002E00007C0890614CB370708000907A9BD89672D
:1002F0009387F77063E1A704A9473355F5024205D8
:100300004181B9ED8547A38FF184A9463357D502C2
:1003100093074006B357F5023377D70293F7F70FE9
:100320003375D502238EF1849387C185A380E700BE
:100330002381A7008280E1679387F76963EAA700BA
:10034000930740063355F50289474205418165BF51
:100350009307803E3355F50281474205418165B7D9
:10036000130740063357E5020946A38FC18433556E
:10037000F5021377F70F3375F5026DB7411126C2F9
:1003800022C403C441804AC006C605496301240350
:100390009307C002630FF4022DC09307C002B2405E
:1003A00022442382F180024992444101828003C5A4
:1003B000C1853D33B7170140938707C00567D8CB88
:1003C00083C7F185E39B87FCB7170140114798D39A
:1003D000E9B703C5D1852933B71701409387078053
:1003E00023AA270103C7F18589476316F700B717CA
:1003F0000140114798D381475DB703C5E185CD31F1
:10040000B7170140938707800947D8CB03C7F18509
:100410008D476316F700B7170140114798D38547FA
:10042000BDBFB717014090479315E60083C681858D
:1004300003C7418063DA050699EA11EB9146A38B65
:10044000D1840547238CE1841305F00F8280054693
:100450006305C700238CC184C5BF83C5718591E145
:10046000A9E2238CE18403C6818503C5618541C26D
:1004700003C671856313A60683D641858506C20629
:10048000C182239AD1841307A00F637DD704238CE4
:100490000184A38B0184A9473305F5021375F50F79
:1004A0008280A38BE18475BF9DC211CF8546E31D79
:1004B000D7F803C67185894601C6238C018481461D
:1004C000A38BD1844DB70D47A38BE184B5BFA38B1C
:1004D00001848546E309D7F885BF8545239AB18411
:1004E000238BC184A38B0184238C0184A9A031C1F7
:1004F00083D541851308A00F637CB800238C018449
:10050000239A0184A38BA184238B0184AD4769B70F
:100510000948637BB800239A0184A38BA184238BB1
:100520000184238C01848280238B0184239A01849B
:1005300055BF239A018401458280B72701409387E4
:1005400007409847B70640001367170098C79847B9
:10055000558F98C79843098B75DFE847420541815D
:10056000828003C60183411106C6AE87854683C5D6
:10057000C1812DC66381D5028947638CF5029DE553
:1005800003A58181AD33B717014093870780130717
:100590000008D8CB21A803A541818145893BB71725
:1005A0000140938707801307000898CBB2404101B0
:1005B000F1B303A7418183A781811305803E814563
:1005C000B387E70233D5A7021D33B71701409387DE
:1005D0000780D84713470708D8C7C9BF6388D50025
:1005E00089476380F504F9F1854569BF37170140F4
:1005F000130707809306000814CB41677D17639F9C
:10060000E70005671307A7B0239EE1849387C185A0
:1006100029472381E700A38F018449BF3E85C13963
:1006200071B7238E0180C9B7B7270240D8479376A8
:100630001700EDFE9376070289E623A8070001451F
:100640008280D8C705458280411106C622C426C2D1
:100650004AC0D93FB7C7000883A407F023A89184F4
:10066000E137B7C7000803A947F0FD1423A6218589
:10067000653FB7C7000803A487F023A481846D37C2
:10068000B7C7000883A7C7F0014523A2F1847557B7
:10069000636B9700FD566308D90036946365870045
:1006A00085073335F000B2402244924402494101AB
:1006B0008280411106C622C4853FB7C7000803A443
:1006C00007F123A081848D37B7C7000883A747F1BE
:1006D000014523AEF1827D771307C7313A94116744
:1006E00013074752636F870005679386C7E01307B8
:1006F000479C05456377D70041772A97BA9713B58A
:100700001700B2402244410182805D714EDE83A910
:100710000185A6C283A48184CAC003A9C184B3E7AA
:10072000990086C6A2C452DC56DA5AD85ED662D484
:1007300066D2B3E7270185E38144B64026440649E3
:10074000F259625AD25A425BB25B225C925C2685B5
:10075000964461618280C93DB7C7000803A487F150
:10076000FD57E31BF4FCC935B7C7000883A7C7EFE3
:10077000E39487FCB7270240984B13770708631B65
:10078000070EB7270240984B9316070163C4061063
:10079000613D37240240B70702001CC8B7C70008F4
:1007A000938707F05CC81C4893E707041CC8AD3D5D
:1007B00041D52328040003A741844EC04AC23AC64B
:1007C00003A7018426C43AC803A7C1833ACA7D5748
:1007D0003ACC3ACE1C4893F70708E9EFB727024016
:1007E000984B9316070163C7060E3D3D3724024020
:1007F000C1671CC80149370A0800854A7D5BB70BF1
:1008000004001C48B3E747011CC8393DE30605F264
:10081000B7C4000837CC0008931C49008A89938428
:1008200004F0130C0CF16317090C83A709009CC09A
:100830001C4891049109B3E777011CC8F533E39490
:1008400084FFB7C70008938707F05CC81C4893E78C
:1008500007041CC8D13BAA84E30005EE0509C14783
:10086000E311F9FA23280400C133A167938707082D
:100870001CC8E1B53707674513073712D8C3379748
:10088000EFCD1307B79AD8C39C4B93F70708E38AB9
:1008900007EE5DB53707674513073712D8D337978B
:1008A000EFCD1307B79AD8D39C4B13970701E351A9
:1008B00007EE59B5B7076745938737125CC0B797FE
:1008C000EFCD9387B79A5CC01C4893F70708E3877E
:1008D00007F09DB53707674513073712D8D3379709
:1008E000EFCD1307B79AD8D39C4B13970701E35E5C
:1008F00007EE99B56316590183A709019CC80DBF7E
:10090000B387940123A0670125B737F700E01C47A0
:100910003E951C47898FE3CE07FE8280011106CEEB
:1009200022CC26CA4AC84EC6053319E98D47F24083
:100930006244238CF182D2444249B24905618280EB
:1009400037190140930409C0DC40B709F1FFFD19D4
:1009500037070400B3F73701D98FDCC013040980CF
:100960001C403165130505B893F7F7F093E70704CA
:100970001CC01C40C19B93E737001CC085471CC8A6
:1009800069370327890081479316E70063D8060279
:100990001C40370703003165C19B93E747001CC02B
:1009A000DC40130505B8B3F73701D98FDCC0856784
:1009B0009CC8A13F83278900C583858BB71601405A
:1009C000938606C0D8423706F1FF7D16718F370631
:1009D0000300518FD8C23717014013070780144313
:1009E000C19A93E6360014C3144393F6F6F093E6E7
:1009F000060314C385FF7539914715F913870186DE
:100A000083465701894785F68347470103475701C6
:100A1000998FB337F00021BF4111B7270140938769
:100A20000740114706C6D8DB093E83A70185130797
:100A3000803E3305F50283A7C1843355E502B3C771
:100A4000E7023E95B707002083D7270023AAA1829B
:100A50009387773E63D1A70A03C7018319CF238801
:100A60000182B71701409387078013070002D8CB94
:100A7000B707002005472380E70083A7C182AA9714
:100A80003165130505B823A6F1824135B72701402A
:100A9000938707401947D8DB4D3483A78184130718
:100AA000803E3305F50283A741843355E502B3C781
:100AB000E7023E9583D7418223A4A1829387471FF3
:100AC00063D1A70403C7018319CF23880182B71715
:100AD00001409387078013070002D8CBB707002097
:100AE00005472380E70083A70182B240AA9723A08D
:100AF000F18241018280E35205F823AA0182014577
:100B0000ADBFE35205FE23A401820145E9BF01A068
:100B100093870186DC470A05AA9703D5E7FF828001
:100B20009387018603C7470183C65701158F137743
:100B3000F70F6368A700DC470A05AA9703D5E7FF0C
:100B40008280198D19473305E5029C4BAA9703D57E
:100B5000A7FF82809387018603C7470183C6570199
:100B6000158F1377F70F6368A700DC470A05AA976C
:100B700003D5E7FF8280198D19473305E5029C4BA9
:100B8000AA9703D5C7FF82809387018603C74701D1
:100B900083C65701158F1377F70F6368A700DC47EB
:100BA0000A05AA9703D5C7FF8280198D1947330517
:100BB000E5029C4BAA9703D5E7FF8280B7770240F6
:100BC0001307200A2396E7002397E70093870186FF
:100BD000A38407002385070023840700238A0700D6
:100BE000A38A070023A0070023A20700238207028D
:100BF00013878702A3820702D8C71387C7032383FB
:100C0000070298CB0547238BE70023810702238D3A
:100C1000E700A38DE700056713078738239EE700E9
:100C20002390E7028280B777024003D70700118B39
:100C300015CB03D7E700136707012397E700B777C2
:100C400002401307F0042391E700A38207002393D7
:100C5000A700A384070003C7470013673700238258
:100C6000E700828003D7C700136707012396E700D8
:100C7000F9B79387018603C5A70183C6470203C658
:100C8000670105689D8A0908A6060D8A1A06B3E65B
:100C90000601D18E03C6470103C857019375F50FAE
:100CA0009377F50033060641138701866357A60440
:100CB0000356C701D145F2073356B6028565FD15C7
:100CC0006D8E2606D18F0356E70193052003335618
:100CD000B602B70500031376F6074D8EB70500FD83
:100CE000938505F8ED8FD18F2315F7041945C1833E
:100CF0002314D7042316F7043DB79387F5FF8A071B
:100D0000BA9703D68702A947370500033356F60280
:100D1000F2051376F63F9317A600498ED18FCD8F3B
:100D2000E1B7797122D426D24AD04ECE52CC56CADF
:100D30005AC862C49387018606D65EC666C22390EF
:100D40000702238107029304F00F13840186377C86
:100D50000240094B0549954937EA00E0B70A02000D
:100D60008347240293FCF70F89E7FD1493F4F40FF3
:100D700085E0B25022540259F249624AD24A424BAB
:100D8000B24B224C924C3335900092544561828094
:100D900037B50300130505988D3E8357CC00416796
:100DA0001307E7F1F98F2316FC008357CC00C166C7
:100DB0009386E6F193E707042316FC000357CC0063
:100DC0008357EC004207F58F2317FC008357EC0094
:100DD000418393E707042317FC008356EC008947FF
:100DE000858A99E293771700035784010507420724
:100DF0004183231CE4001840631E2703639E2707DA
:100E0000230504000347940005071377F70FA30495
:100E1000E4000347940063FFE900A30404000947CA
:100E200018C03776024003570600C166ED16758F6D
:100E30002310E60018406374E902ADEF8347840095
:100E4000850793F7F70F2304F4008347840063F8C2
:100E5000F900230404002320040023225A19832BC1
:100E600004001C402547636FF70409678A071307CE
:100E7000C778BA979C438287A304040063996703E9
:100E80000347A40005071377F70F2305E400034782
:100E9000A400E3F1E9FA230504001CC0B776024080
:100EA00003D70600136747002390E60061B72305C8
:100EB000040049B7230404005DB723225A19FD3901
:100EC000232024012322740161BD58401C40E30B00
:100ED000F7FE930770072311FC0083474C0093F73C
:100EE000C70F93E727002302FC00A3080A4223222E
:100EF0005A11C9BF83475402F1D7A3020402B7E7CE
:100F000000E0370702000328C400144823A2E718B2
:100F1000A30A0400B70800F0370300C0294E930568
:100F200020031946130540068347440163EBFC0088
:100F3000B7E700E03707020023A2E71091471CC083
:100F400051B713972C00B307E400FC57B3FE170109
:100F500063926E060347540193DE170193FEFE0F62
:100F60003307C702B38EAE0236972311D70103476A
:100F7000540193DE870093FEFE0F3307C70293F7F9
:100F8000F707B38EAE0236972310D70103475401FB
:100F9000B387B7023307C70236972312F700834798
:100FA0005401850793F7F70FA30AF400850C93FC0F
:100FB000FC0F9DBF93FEF73FA98393F7F73FB38ED6
:100FC000CE034297B387B7022310D7012311F7004E
:100FD000F1BF58401C406303F70061398347640246
:100FE000E38207EE2303040223203401E1BD83479B
:100FF0005402E38907ECA3020402A5471CC0231C8A
:101000000400C9B5230124030347A4018347B401A5
:101010006318F7000357C40183570402E304F7EA97
:101020008347A401094593F7F70FA30DF4008357F5
:10103000C401C207C1832310F402230104028347C1
:101040004402034764019D8BA6070D8B1A0793E7A3
:101050007700D98F2314F404F936A947CDB541118F
:1010600022C406C613840186230DA400231EB400E7
:10107000213E231FA4002244B24041015DB1938769
:10108000018603C7470103C6570183A8070103A8C8
:10109000C700118FAA851377F70F814793860186C2
:1010A000194303C6460163E4C700014582801385E6
:1010B000170063FBE7008A07C29783D72700639175
:1010C000B7021375F50F61BF998FB3876702C69793
:1010D00003D6070063E6C50083D72700E3F3B7FE16
:1010E0009377F50F7DBF13860186834646018347BC
:1010F00056010346560193F6F60F93F7F70F138741
:10110000018611CE9D8E0328070193F6F60FB68750
:101110009948130310030346470163E4C7000145E0
:1011200082803386D7403306160385074296035ED6
:1011300006006365C503035E26006361AE020356C5
:101140004600636DB600637BB30093F7F70F230D82
:10115000F700231EA700231FB700E1B693F7F70F90
:101160005DBF03C781838947631FF70AB717014033
:10117000938707809847411122C4B706002006C60E
:1011800026C21377070203D426003DE703C7018375
:1011900025C7B704002003C7040039EF1307000276
:1011A00098CB83D5418222853D3F134515000589A3
:1011B0002380A4009387018603D7C7016318E40046
:1011C00083D7E70103D741826303F70283C7018313
:1011D00099CFB704002083C7040091EB83D54182E7
:1011E000228511371345150005892380A400B240DC
:1011F00022449244410182809847137707025DDBC5
:1012000003C7018345FB13070002D8CB83D5418276
:1012100003D5E181C93D134515000589B7070020B5
:101220002380A70041BF03C70183B71701409387FD
:10123000078011CB370700200347070009E7130792
:10124000000298CB828013070002D8CB828079718C
:101250004ECE854922D426D24AD052CC56CA5AC83C
:101260005EC606D60144B70A00201309800C4E8BD7
:10127000CD3D83D5418203D52A00EFF08FAEEFF04C
:10128000AFF983D701818507C207C1836364F9027F
:101290002398F180EFF0EF988D47630FF504F9473D
:1012A000E318F5FC83C7C181E3E4F9FC8947238E89
:1012B000F1807DBF83A7C182B3D727032398018024
:1012C00023A6018223ACF18083A7018223A001829F
:1012D000B3D7270323AAF18003C781838947E31B80
:1012E000F7FA05044204418093078002E3F487FA89
:1012F000EFF03F98014479BF83C7C18189CBFD17C7
:1013000093F7F70FE3E6F9F6238E018095B7238E66
:101310006181B9BF056779711307B7B022D44AD08C
:1013200052CC56CA5AC85EC6239EE18406D693871D
:10133000C18526D24ECE62C466C22D472381E70006
:10134000416A23840180A38F018405447D1A138799
:1013500001868347470183A9018463FA870A856769
:10136000938787386395F91683A6C183C167FD17F4
:10137000639FF61483C78180639B0714B70700201F
:10138000239137018567938707962392F182238CF7
:1013900001822398018037170140238E01801307B3
:1013A00007801C43B706003092079183238801828F
:1013B000D58F1CC3930700085CCBB709002023809E
:1013C000090023A6018223A00182EFF0EFE483C786
:1013D00009006392071603A7C18285472388F1821B
:1013E00023ACE18003A70182B25023A001822254E2
:1013F00023A6018223AAE18092540259F249624A4B
:10140000D24A424BB24B224C924C45618280834778
:101410004701034757012285998F93F7F70F63E937
:101420008702EFF0EFEE631C350983A7C183639851
:101430004709B70700202391A7002285EFF0CFF4DA
:101440002392A182238481800547238CE18285A891
:10145000EFF00FED63E5A9062285EFF0AFEF6360D3
:1014600035072285EFF04FF283A4C18363769500A0
:10147000C167FD176395F40483CC818063980C02E7
:10148000B7070020228523913701EFF06FE9239FF2
:10149000A180C167FD176398F4022285EFF0CFEEBB
:1014A0002392A18223848180094745B72285EFF0EA
:1014B000AFED2A8C6685EFF02FEDE36385FD050423
:1014C0001374F40F69B5139504014181D1BF83C72B
:1014D000818309476382E7046365F702E38B07EAC8
:1014E000B707002083D5270003C581808D3EE31216
:1014F00005EAEFE0BFE83165130505B8EFF0EFC08E
:10150000CDBF0D47E387E7E8EFE05FE731651305FF
:1015100005B8EFF08FBFCDBF83D5418203D5E18100
:10152000D936E31805E6EFE07FE53165130505B828
:10153000EFF0AFBDCDBFEFE07FE43165130505B837
:10154000EFF0AFBCCDBF37170140130707801C4336
:101550005D71A2C492079183B7060040A6C2CAC0BB
:101560004EDE52DC56DAD58F86C65AD85ED662D4A5
:1015700066D26AD06ECE239801801CC3856793879C
:101580004751854981448D4A2317F100EFE01FDF61
:101590003165130505B8EFF04FB703CB81838D6B31
:1015A00093874B8A33075B03938B4B8ABA97A69733
:1015B00003CC07009D4763E5870309671307477B53
:1015C00093172C00BA9794431387C185828693069C
:1015D000A050239ED184A9462301D700A38F018464
:1015E000EFE03FE46306550D63E2AA088547630D0B
:1015F000F5088947630BF50A9147E319FBF8E38780
:1016000009F883D701811307007D8507C207C183CD
:101610002398F180E37CF7F623980180E5390539BA
:1016200085669386C6D0239ED184B94675B78566F4
:101630009386F6F0239ED184954679BF856693867E
:101640000611239ED184C94641BF8356E100239EE3
:10165000D184D94651B7856693867631DDB78566E4
:1016600093868631239ED184D546BDB79147E31535
:10167000F5F89D47E3E287F9096793172C001307F4
:10168000477DBA979C438287E365954CB3075B031C
:101690008149BE9BA69B03C71B009307F00FE30D78
:1016A000F7F4850493F4F40F81BFB9D4FD14DDBFC2
:1016B0009307DBFFB337F000B3F9F90035BF856757
:1016C00037060020938787382311F60085679387B4
:1016D0000796B70B00202392F182238E0180238886
:1016E00001822398018023800B0023A6018223A07E
:1016F0000182EFF06FB283C50B0085472388F1822A
:10170000E39C05EEB71501409385058013050002A3
:1017100088C92388F18283A7C18223A6018223ACD2
:10172000F18083A7018223A0018223AAF1809C413A
:101730003705003092079183C98F9CC19307000839
:10174000DCC9EFF01FA28565056593850596130535
:101750008538EFE01FE1EFF02FAC83C70B00E39D6E
:1017600007E883D701819308800C8507C207C183EE
:1017700063EEF8022398F180EFE0BFCA9147630956
:10178000F506F947630AF5048D47E31CF5FA83C7AC
:101790000183C5DB83C7C181854585CFFD1793F7DD
:1017A000F70FE3E0F5FA238E018061BF83A7C182C2
:1017B00023980180B3D7170323A6018223ACF180BD
:1017C00083A7018223A00182B3D7170323AAF18044
:1017D00065B7238EB180B5B783C70183BDD383C5F9
:1017E000C1818547E3EFB7F48947238EF18091BF2C
:1017F000B71601409386068093070002DCCA9C421C
:10180000370700302388018292079183D98F9CC2C9
:10181000E5B385470569238CF1822384F180E28456
:101820001309893813870186834747010347570106
:10183000998F93F7F70F63EA97002685EFF04FAD86
:101840006316250D23849180268C6285EFF04FACC2
:10185000B70700202391A700AA846285EFF0CFB2DA
:101860002392A1822A89268523980180238E0180D4
:1018700023880182EFF0BF803717014013070780EC
:101880001C4313451500B70B00209207058991836F
:10189000B70600302380AB00D58F1CC39307000828
:1018A0005CCB930C800C054BEFF0BF8BCA85268573
:1018B000EFE03FCBEFF04F9683D701818507C2075A
:1018C000C18363E9FC042398F180EFE09FB58D4765
:1018D0006304F50E63E3A706630265098947E31510
:1018E000F5FC83C70183B5EF1387018693870186D3
:1018F0000347470183C6570183C78180158F13773C
:10190000F70FE3F3E7FA13891700A5A8850493F40A
:10191000F40F09BF83A7C18223980180B3D797032F
:1019200023A6018223ACF18083A7018223A0018238
:10193000B3D7970323AAF18049BF9147630DF508F8
:10194000F947E313F5F683C70183B9DF83C7C18184
:10195000E36CFBF48947238EF180B9B783C7018319
:1019600099CBB7170140238801829387078013071B
:101970000002D8CB15BF83C78180E377FBF21389C0
:10198000F7FF1379F90F4A8523842181EFF04F98EF
:10199000B70700202391A700AA844A85EFF0CF9EC5
:1019A0002392A1822A892685EFF06FED1345150059
:1019B00005892380AB00CDBD83C7C181638A6701E0
:1019C00009476387E700E39107EE238E6181E9BD54
:1019D000238E0180D1BD83C70B00E39707EC83C73B
:1019E000018393C717002388F1827DBD8347470198
:1019F00003475701998F93F7F70F63F197062685F1
:101A0000EFF04F95637CA904856737070020938723
:101A1000873826852311F700EFF08F90239FA18050
:101A20002685EFF02F932396A1802685EFF0CF95A2
:101A300005678567130777BB938787BB6366A70036
:101A40002685EFF06F94AA872395F1802392F18287
:101A50001307401F2397E18023849180850493F42A
:101A6000F40F138701868347470103D9C180E3FF41
:101A700097F637170140130707801C43B70600305D
:101A8000854592079183D58F1CC3930700085CCBD3
:101A90004A85EFE0DF858D49EFE0BF98AA84FD1409
:101AA0002398A180C2043165130505B8C180EFE019
:101AB000DFE5EFE0BF8CE3E199FE83D4E18185456A
:101AC0000D4A2685EFE0BF82EFE0BF95AA89FD1998
:101AD0002398A180C2093165130505B893D909017E
:101AE000EFE0BFE2EFE09F89E3603AFFB717014004
:101AF000938707801307000898CB83D9A180854579
:101B00008D4A4E85EFE0AFFEEFE0BF912A8A7D1A45
:101B10002398A180420A3165130505B8135A0A01BA
:101B2000EFE0BFDEEFE09F85E3E04AFF03DD4182A7
:101B3000EA8526852388018223980180238E0180EF
:101B4000370C0020EFF02FDA13451500835C2C00D2
:101B50000589B70700202380A700014B814D054A66
:101B6000EFF02FE06685EA85EFE0BF9FEFE0DFEA68
:101B700003D501819307800C05054205418163E48B
:101B8000A7022398A180EFE0DF89594E6360AE067B
:101B9000096E0A05130E4E7F729508410285854431
:101BA000C9B5014B75BF03A5C1821307800C33551E
:101BB000E50213831D00931D030123A601822398D0
:101BC000018093DD0D0193078002054B23ACA180BA
:101BD00003A5018223A001823355E50223AAA18037
:101BE000E3F3B7FBEFF0EF88814D71BF794EE31956
:101BF000C5F703C501832DD503C5C181E362AAF6EC
:101C00000945238EA180A9BF03C5C18115E1835772
:101C10002C009387C7F9939C070193DC0C0163E4C4
:101C20009C00668519A02685A68C2311AC000DBFEB
:101C3000E31845F383D5418203D5E1809385C5F947
:101C4000139D0501135D0D012392A183E37AADF08D
:101C50002392A1822A8D29B703C5C18115E9E30129
:101C60000BF003552C001308703E33059541635467
:101C7000A80023119C0193874CED939C070193DCF2
:101C80000C01014BE3FE9CEC23119C00A68CC9BD0A
:101C9000E31845EDE3060BEC03D541821308301F32
:101CA0003305A5416354A8002392A1839305CDF980
:101CB000139D050103D5E180135D0D01014B79B73B
:101CC00003C5C18111ED83572C0093874706939C70
:101CD000070193DC0C01E37699F54A85CA8CB1B70C
:101CE000E31045E983D5418293854506139D05019F
:101CF000135D0D016A8563F4A9014E854E8D239213
:101D0000A182B9BD03C5C18115E9E30B0BE40355FD
:101D10002C001308703E3385AC406354A800231197
:101D20009C019387CC12939C070193DC0C01014B1F
:101D3000E37899E323112C01CA8C1DB5E31245E326
:101D4000E3000BE203D541821308301F3305AD4099
:101D50006354A8002392A18393054D06139D0501AA
:101D6000135D0D01014BE3FDA9DF239231834E8DFD
:101D7000C5BB03C5C181E365AADE23119C01239283
:101D8000A183F9BB03C5C181630A4501094E6307FD
:101D9000C501E31705DC238E4181D9B3238E018071
:101DA000C1B3B707002003C50700E31B05DA03C56D
:101DB0000183134515002388A1825DB30565814524
:101DC00013058538EFE0AFD23717014013070780BE
:101DD0001C43B70600308D4492079183D58F1CC3F6
:101DE000930700085CCB930700021CCBEFE06FE386
:101DF0002A847D1431654204130505B84180EFE063
:101E0000DFB0EFE0AFD7E3E384FE3724014093096E
:101E1000800C81441304044011493165130505B851
:101E2000232A2403EFE07FAEEFE02FF1FD19AA94FF
:101E3000E39509FE93074006B384F4021165930706
:101E4000800C8145130505650D49B3D4F402EFE01C
:101E50000FCAB71701409387078013070008D8CB34
:101E60001307000298CBEFE0CFDB2A847D143165A5
:101E70004204130505B84180EFE03FA9EFE00FD021
:101E8000E36389FE372401401309800C13040440E6
:101E9000114A3165130505B8232A4403EFE0FFA674
:101EA000EFE0AFE97D19AA99E31509FE1304800C50
:101EB000B3D9890293074006371A0140814501458D
:101EC000994AB389F90293070002232AFA80EFE0C6
:101ED0000FC2930700082328FA80372A0140130A0B
:101EE0000A403165130505B8232A5A03EFE0FFA124
:101EF000EFE0AFE47D142A996DF4930740063309AF
:101F0000F90205659307800C8145130585BB8D4A51
:101F10003359F902EFE0AFBDB7170140938707804F
:101F20001307000898CB1307000298CBEFE06FCFA0
:101F30002A8A7D1A3165420A130505B8135A0A0127
:101F4000EFE0BF9CEFE08FC3E3E24AFFB72A014016
:101F5000130A800C938A0A40194B3165130505B8A2
:101F600023AA6A03EFE07F9AEFE02FDD7D1A2A941F
:101F7000E3150AFE37757C4DB3849940130505D0EF
:101F80003355950213074006371A0140130A0A8099
:101F900093070002232AFA008145B389A90223A8E6
:101FA000A184B7B7120193870788B3D9E902B38731
:101FB000374123A6F1849307800CB357F40237A46A
:101FC000E11113040430B387E702B3872741335488
:101FD000F40223A48184B30789020D49B3D7E70231
:101FE000B307F04023A2F184EFE06FB0930700083D
:101FF000232AFA00EFE0EFC2AA84FD143165C2047F
:10200000130505B8C180EFE05F90EFE02FB7E36301
:1020100099FE81452285EFE08FADB7170140938788
:1020200007801307000898CB8D44EFE08FBF2A8408
:102030007D1431654204130505B84180EFE0FF8C43
:10204000EFE0CFB3E3E384FEEFE02FEC11CD3755A3
:10205000070013050530EFE05F8BEFE0EFDE09C509
:10206000EFE0DF8BEFF02FCE05671307A730239E3D
:10207000E1849387C18529472381E700A38F0184E9
:10208000EFE0CFAF3165130505B8EFE01F88CDBF96
:102090009547238CF182856793875730239EF1847F
:1020A00051479387C1852381E700A38F01840D49A0
:1020B000EFE02FB7AA84FD142398A180C2043165F4
:1020C000130505B8C180EFE05F84EFE02FABE3615B
:1020D00099FE238801824167856793878738930C2F
:1020E000F7FFB7160140238E018023A0F18423AEB1
:1020F0009183938606809C423706003023980180A6
:1021000092079183D18F9CC293070008DCCA014CCF
:10211000054DE68B3165130505B8EFE00FFF03A908
:10212000018483A4C1831315090193950401C1811E
:102130004181EFE00FC383D701811307800C85072E
:10214000C207C1836374F7008147054C2398F1806F
:10215000EFE02FADD147E3EFA7FA8D6793870785AF
:102160000A053E951C41828783C7C1818DE385673F
:102170001309C9F9938737CE63F5270123A0218579
:1021800051BF8567938747CE23A0F18461B7E3935E
:10219000A7F9638B74019384C4F99307301F63F923
:1021A000970023AE9182BDB78564938484BBD5BF6D
:1021B0009307401F23AEF182B1BF83C7C18185E77A
:1021C000630B0C008567130949ED938737CE63F6DF
:1021D000270123A02185014C35BF8567938747CE12
:1021E00023A0F184CDBFE398A7FFE3060CFE638B29
:1021F00074019384C4F99307301F63F9970023AEE9
:102200009182D1BF8564938484BBD5BF9307401F5F
:1022100023AEF182C9B783C7C18189EB95671309E2
:10222000490693878720E3E127F789BFE394A7EF67
:10223000856793844406938787BBE3F497F623AEC0
:102240009183C9BD83C7C18199EBE3060CF89567FB
:102250001309C91293878720E3E427F99DBFE39C04
:10226000A7F7E30A0CF6856793844406938787BB38
:10227000E3F797F8C167FD1761BF83C7C18191C7B5
:10228000E39AA7E9238E018071B5238EA18159B508
:10229000FD779387C7313E99916793874752E3EB68
:1022A00027E785679385C4E09387479C63F4B7006D
:1022B000E39274E7EFE06FC519C93745490013058C
:1022C00005E0EFE08FE4EFE0CFBEE31B05D88567C4
:1022D0009387A730239EF1841387C185A9472301E3
:1022E000F700A38F0184EFE06F893165130505B80E
:1022F000EFE0AFE1CDBF9947238CF182EFE06FBBF8
:10230000630605A823A0018423AE0182EFE0EFBF9E
:1023100019C937454900130505E0EFE00FDFEFE08D
:102320004FB9E30F05D205671307A730239EE18459
:102330009387C18529472381E700A38F0184EFE0BC
:10234000EF833165130505B8EFE02FDCCDBF638562
:10235000090081496FF04FAA814513058039EFD0FC
:102360001FF98D4BEFE0EF8BAA89FD192398A1800F
:10237000C2093165130505B893D90901EFE0EFD81B
:10238000EFD0DFFFE3E03BFFE9B7B71602409C4E1A
:10239000411106C693E717009CCE370801408327FA
:1023A0004800370790FF7D17F98F37070004D98F52
:1023B0002322F800B7170140138707801043B705A1
:1023C00010FFFD156D8EB70530004D8E10C3104304
:1023D000B7050040B7080200120611824D8E10C3E7
:1023E000D04F45757D151376F6F013660608D0CFED
:1023F00023A0170390430D6E7D73698E3366C6016B
:1024000090C3D04F1303F30F698E3366C601D0CF4C
:10241000D04F419A13663600D0CF10433376660012
:102420001366063010C31043698E3366C60110C3AD
:1024300090431376F6F01366060390C3138607C025
:1024400008421375F5F01365050308C2C84F3375CC
:10245000650013650530C8CF930700025CCB9C4E26
:102460002D4793E717209CCEB7270140938707405D
:10247000B8CB37B76D1B1307B76DD8C798CB3707E5
:102480000E00050798C73D47B8CB1387F5FFD8C79F
:1024900098CB9C4E3707004493E717019CCEDC4A4B
:1024A000B3E71701DCCA5C42A207A183D98F5CC2E3
:1024B000832788013777024093E70730232CF80001
:1024C0009387818AC207C1832318F700F977A10790
:1024D0002310F700F157A304F700EFE09F84EFE02B
:1024E000EFC3EFF04F865D713AD2377702403ED0AE
:1024F0008347970086C696C49AC29EC022DE26DC19
:102500002ADA2ED832D636D442CE46CC72CA76C813
:102510007AC67EC493F70702BDC7834797008546F6
:102520008D8B639AD7048356A70015476375D7042C
:102530009386018683D4860413840186139704014D
:1025400041876345070E13D6C4001D8A13F7F401B3
:10255000631706100D466309C70C1946630FC70EB3
:102560006316F70C2383E60283C74602850793F7B9
:10257000F70F2382F602377702408347970093E7ED
:102580000702A304F700B777024003C7970062076A
:1025900061876357070403D7C700C166BD16758FEF
:1025A0002396E70003D7E700C166BD16758F239712
:1025B000E700130770072391E70003C7470085462C
:1025C0001377C70F136727002382E700138701865D
:1025D000A302D70203C7970013670708A384E70085
:1025E000B777024003C797001377070409CB03C7E7
:1025F000970013670704A384E700EFE02FDC725411
:10260000B640A64216438643E2545255C25532564E
:10261000A256125782577248E248524EC24E324F6B
:10262000A24F6161730020309D471CC01305005A02
:10263000EFE0AFAD8567A3020402938707E0FD8C4E
:102640008347640193E4140009458D8B9A07DD8C60
:1026500023149404EFE02FDD39BFA147F9B7E31746
:10266000F7FC8D471CC093D7C4009D8B230AF40050
:1026700093D764008D8B230BF400130784048147E8
:102680001305C406F146834527003306F500850788
:102690002300B6000507E398D7FE49BF89679387F3
:1026A000A73897E1FF1F9381E1151731002013012F
:1026B00061957D45731005BC1305800873200530B6
:1026C0008D4573904580130540004D8D7310553036
:1026D000739017340D67B70700201307878B938714
:1026E00007009386818063E8D702938781801387F0
:1026F000818E63E7E702B7270240094798C3B717FF
:10270000024023A2070037F700E0954614C3714743
:1027100098CF730020301443110794C39107D1B7A9
:1027200023A007009107E1B7FC00000012010000A0
:102730002E0100005001000076010000940100000D
:10274000B6010000BA010000C2010000D40100007F
:10275000DC010000F80100000E020000240200006D
:10276000420200004A0200006402000082020000EF
:102770008A0200008E02000092020000A402000003
:10278000AC020000BE020000D0020000BA0E000041
:10279000C40E0000CA0E0000F40E0000D20F0000AC
:1027A000C40E0000C40E0000C40E0000EE0F0000B6
:1027B00004100000CE150000201600002E160000A8
:1027C0003C1600004A1600004A160000561600008B
:1027D0005E160000BE160000121800009E1B0000CE
:1027E000BC1D00001C16000090200000F622000016
:1027F0004E230000A21B0000081C0000C01C0000AB
:10280000841D0000A21D0000601B0000601B000072
:10281000601B0000601B0000601B0000581C0000D3
:10282000721D0000601B0000601B0000601B0000A8
:10283000601B0000601B0000601B0000601B0000AC
:10284000601B0000041D0000601B0000721D0000E2
:10285000D621000068210000162200007A22000024
:102860009022000014210000142100001421000017
:102870001421000014210000BA21000014210000DE
:102880001421000014210000142100001421000074
:102890001421000014210000142100001421000064
:1028A000442200000005FF0105FF0201050703FFA8
:0828B0000406FF05FFFF000014
:0828B800010088132C00000050
:00000001FF
