:040000006F20F00479
:100004000000000000000000140C0000140C0000AC
:1000140000000000140C00000000000000000000BC
:10002400140C0000140C000000000000000000008C
:10003400140C000000000000140C0000000000007C
:10004400140C0000140C0000140C0000000000004C
:10005400140C0000140C0000140C0000140C00001C
:10006400140C0000140C0000140C0000140C00000C
:10007400140C0000140C0000140C0000140C0000FC
:10008400140C0000140C0000140C0000140C0000EC
:10009400140C0000140C0000140C0000140C0000DC
:1000A400140C0000140C0000140C0000140C0000CC
:1000B400140C0000140C0000140C0000140C0000BC
:1000C400140C000098260000140C0000140C00000E
:0C00D400140C0000140C0000140C0000C0
:1000E000E14763EBA70E8D679387C78D0A053E95A1
:1000F0001841B7170140938707800287BD4694CB0C
:10010000B7170140938707C0B716020094CB371783
:100110000140A9471CCBB7070400A5071CD3828068
:1001200037070C000D0798CBB7170140B7160140F1
:10013000938707C03717020098CBB7070A00A1A022
:100140003D4798CBB71701400567938707C009075C
:1001500098CBB7070200B7160140A1079CCAB707A2
:100160000500A1078DA8370708001D0798CBB71712
:1001700001400567938707C0090798CBB7070200BE
:10018000B7160140A1079CCAB7070400A507A1A0A4
:1001900037070C00B71601400D0798CBB717014081
:1001A0000567938707C0090798CBB7070800890739
:1001B000D9BF37070800B71601401D0798CBB717FE
:1001C00001400567938707C0090798CBA9479CCAD8
:1001D000B7070C0085079CD28280B71601403D47C7
:1001E000F1BF37070C000D0798CBB7170140B716C2
:1001F0000140938707C03717020098CBA94761B722
:10020000B71601403D4798CBB71701400567938764
:1002100007C00907DDB737070800B71601401D07FB
:10022000DDB737070C000D0798CBB7170140B7169D
:100230000140938707C03717020098CBB7070A0021
:1002400025A837070C00B71601400D0798CBB71744
:1002500001400567938707C00907C5B73707040042
:10026000B71601402D0798CBB71701400567938754
:1002700007C0090798CBA9479CCAB7070D00A1BFC3
:10028000370704002D0798CBB7170140B716014078
:10029000938707C03717020098CBB7070800890774
:1002A000E1BF37070400B71601402D07FDB537073A
:1002B00004002D0798CBB71701400567938707C047
:1002C000090798CBB7160140A94749BDBD4694CB55
:1002D000B7170140938707C0B716020094CB3717B2
:1002E0000140A9471CCBB7070D000DBD370704001F
:1002F000B71601402D0701BFBD4694CBB71701408B
:10030000938707C0B716020094CBB70708003717CA
:1003100001408907C1BFB71601403D47A9B73D4716
:1003200098CBB71701400567B7160140938707C000
:1003300009079DB737070400B71601402D0739B7E5
:10034000BD4694CBB7170140938707C0B71602008C
:1003500094CB37170140A9471CCBB7070C00850782
:1003600075BB3D4798CBB71701400567B7160140ED
:10037000938707C00907C9B3370704002D0798CB37
:10038000B71701400567938707C0090798CBB707E0
:100390000800B71601408907D1B389679387F770C2
:1003A00063E8A70229473355E502854742054181A5
:1003B00085CD93074006B357F5023355E50293F711
:1003C000F70F3375E5020947A38FE184294725A874
:1003D000E1679387F76963E1A70493074006335504
:1003E000F502894742054181A38FF184A946B3579D
:1003F000D502130740063357E502B3F7D702137748
:10040000F70F3375D502238EE1841387C185A300CE
:10041000F7002301A70082809307803E3355F50241
:10042000814742054181C9B7411126C222C403C494
:1004300041804AC006C60549630124039307C002F0
:10044000630FF4022DC09307C002B24022442382FE
:10045000F180024992444101828003C5C18549313E
:10046000B7170140938707C00567D8CB83C7F185CD
:10047000E39B87FCB7170140114798D3E9B703C541
:10048000D185B939B71701409387078023AA27017F
:1004900003C7F18589476316F700B7170140114775
:1004A00098D381475DB703C5E1851D39B717014072
:1004B000938707800947D8CB03C7F1858D4763161B
:1004C000F700B7170140114798D38547BDBF03C553
:1004D00041808547630AF5029307C0026306F50071
:1004E00001CD1305F00F8280B71701409C47C583EB
:1004F000858B238CF184F5B7B71701409C47C583E2
:10050000858BA38CF184F1BFB71701409047B707E3
:10051000020083C881857D8E93868185B337C000B4
:100520002381F60003C816006385080263030804EC
:1005300011E2094503C621858547238AA184A38941
:10054000F1846300C5043DE22398F1842389A184EA
:1005500085A06303080259EE9307F00F03C52185B8
:10056000238AF184A389018429E923980184014520
:1005700082807DD20D457DBFB307F04093F7F70F22
:10058000F1BF83D701858507C207C1832398F18412
:100590001307A00F637EF700238A0184A3890184D7
:1005A000A9473305F5021375F50F8280E300F5FACC
:1005B000238A0184A38901845DBF03D601851308C2
:1005C000A00F637AC80023980184238AA184238919
:1005D0000184AD47F9B709486379C80023980184BD
:1005E000238AA1842389018482802389018423981A
:1005F00001847DBF11453DBFB72701409387074068
:100600009847B70640001367170098C79847558F5B
:1006100098C79843098B75DFE8474205418182807E
:1006200003C7418311CB238A0182B7170140938707
:10063000078013070002D8CB828003C64183411193
:1006400006C683C7C1813DC605476382E7020947E5
:10065000638DE70285EB03A5818181453D3BB7179B
:1006600001409387078013070008D8CB21A803A572
:10067000418181451D33B7170140938707801307D8
:10068000000898CBB240410145B303A7418183A73D
:1006900081811305803E8145B387E70233D5A702E8
:1006A000ED39B717014093870780D84713470708EC
:1006B000D8C7C9BF05466388C70009476382E704F6
:1006C000F1F3854561BFB717014093870780930613
:1006D000000894CBC167FD172E87639FF50005675F
:1006E0001307A7B0239EE1849387C18529472381FF
:1006F000E700A38F018479B785453A85793959B7E1
:10070000238E01807DBFB7270240D847937617001C
:10071000EDFE9376070289E623A807000145828053
:10072000D8C705458280411106C622C426C24AC0E8
:10073000D93FB7C70008938707F0844323A6918465
:10074000D937B7C70008938747F003A90700FD14FE
:1007500023A421854D3FB7C70008938787F08043C6
:1007600023A281844D37B7C700089387C7F09C4305
:10077000014523A0F1847557636B9700FD5663080C
:10078000D9007D146365870085073335F000B240DA
:1007900022449244024941018280411106C622C48A
:1007A0009D37B7C70008938707F1804323AE818246
:1007B000993FB7C70008938747F19C43014523AC95
:1007C000F1827D771307C7313A94116713074752B7
:1007D000636E87001387C7E09306C05D054563F726
:1007E000E60041770507BA9713B51700B2402244D7
:1007F000410182805D714EDE83A9C184A6C283A4BB
:100800004184CAC003A98184B3E7990086C6A2C403
:1008100052DC56DA5AD85ED662D466D26AD0B3E7D2
:1008200027018DE38144B64026440649F259625AB5
:10083000D25A425BB25B225C925C025D2685964492
:1008400061618280C935B7C70008938787F180430B
:10085000FD57E319F4FC453DB7C700089387C7EF80
:100860009C43E39187FCB7270240984B1377070816
:10087000631E070EB7270240984B9316070163C704
:100880000610513537240240B70702001CC8B7C70D
:100890000008938707F05CC81C4893E707041CC84E
:1008A0009D3549D12328040083A701844EC04AC244
:1008B0003EC683A7C18326C43EC883A781833ECAA0
:1008C000FD573ECC3ECE1C4893F70708E5E3B7271B
:1008D0000240984B9316070163CA060E2D35B727C1
:1008E0000240416737CA0008B7CA000898CB0149DF
:1008F00037240240370B0800854B7D5C130A0AF150
:10090000938A0AF01C48B3E767011CC8ED3BE30B70
:1009100005F0B7C40008131D49008A89938404F0C8
:10092000B70C04006314090C83A709009CC01C4881
:1009300091049109B3E797011CC8F133E39444FF94
:10094000232A54011C4893E707041CC86D3BAA8462
:10095000E30A05EC0509C147E316F9FA2328040068
:100960005D33A167938707081CC875BD37076745C6
:1009700013073712D8C33797EFCD1307B79AD8C3E9
:100980009C4B93F70708E38707EE69BD3707674578
:1009900013073712D8D33797EFCD1307B79AD8D3A9
:1009A0009C4B13970701E35E07ECADBDB7076745A6
:1009B000938737125CC0B797EFCD9387B79A5CC027
:1009C0001C4893F70708E38407F0A9BD370767457C
:1009D00013073712D8D33797EFCD1307B79AD8D369
:1009E0009C4B13970701E35B07EE2DBD631679015E
:1009F00083A709019CC825BFB3079D0023A08701D9
:100A00003DB7B7F700E09C4737F700E03E951C473D
:100A1000898FE3CE07FE8280011106CE22CC26CA42
:100A20004AC84EC6093319E98D47F2406244A38A89
:100A3000F182D2444249B24905618280B714014033
:100A4000938404C0DC40B709F1FFFD1937070400A7
:100A5000B3F73701D98F37140140DCC01304048089
:100A60001C403165130505B893F7F7F093E70704C9
:100A70001CC01C4037190140C19B93E737001CC0C4
:100A800085471CC8BD3F0327890081479316E700AF
:100A900063D806021C40370703003165C19B93E70A
:100AA00047001CC0DC40130505B8B3F73701D98FE8
:100AB000DCC085679CC8B13783278900C583858BD7
:100AC000B7160140938606C0D8423706F1FF7D165F
:100AD000718F37060300518FD8C2371701401307B3
:100AE00007801443C19A93E6360014C3144393F667
:100AF000F6F093E6060314C385FB4531914715F5DF
:100B00001387018683465701894785F2834747014A
:100B100003475701998FB337F00001BF4111B72741
:100B2000014093870740114706C622C4D8DBE93449
:100B3000E13483A7C1841307803E3305F50283A700
:100B400081843355E502B3C7E7023E95B70700201D
:100B500083D7270023A8A1829387873E63DCA7065B
:100B6000C13483A6018383A7C1823165130505B80B
:100B7000B69723A6F182B72701409387074019470C
:100B8000D8DB4135953C8D3C83A741841307803EDB
:100B90003305F50283A701843355E502B3C7E702A5
:100BA0003E95896723A4A1829387077163D9A70221
:100BB000853C83A7018283A681822244B240B697F6
:100BC00023A0F182B7270140938707401147D8DB64
:100BD00041011DB4E35705F823A8018259B783D713
:100BE00061829387471F63D0A70203C75183894758
:100BF000E300F7FC83C74182A546E3EBF6FA8507DD
:100C00002382F1827DB723820182E35405FA23A473
:100C1000018245B701A093870186DC470A05AA97A0
:100C200003D5E7FF82809387018603C7470183C608
:100C30005701158F1377F70F6368A700DC470A0584
:100C4000AA9703D5E7FF8280198D19473305E5027E
:100C50009C4BAA9703D5A7FF82809387018603C781
:100C6000470183C65701158F1377F70F6368A700F5
:100C7000DC470A05AA9703D5E7FF8280198D19473B
:100C80003305E5029C4BAA9703D5C7FF8280938763
:100C9000018603C7470183C65701158F1377F70FE6
:100CA0006368A700DC470A05AA9703D5C7FF8280BF
:100CB000198D19473305E5029C4BAA9703D5E7FF29
:100CC0008280B77702401307200A2396E700239714
:100CD000E70093870186A384070023850700238408
:100CE0000700238A0700A38A070023A0070023A286
:100CF00007002382070213878702A3820702D8C74F
:100D00001387C7032383070298CB0547238BE7008C
:100D100023810702238DE700A38DE70005671307F2
:100D20008738239EE7002390E7028280B77702404E
:100D300003D70700118B15CB03D7E7001367070113
:100D40002397E700B77702401307F0042391E700E9
:100D5000A38207002393A700A384070003C74700CB
:100D6000136737002382E700828003D7C700136729
:100D700007012396E700F9B79387018603C5A7010A
:100D800083C6470283C5670105689D8AA6060908D0
:100D90008D899A05B3E60601CD8E83C5470183C7C9
:100DA00057011376F50F138701869D8D9317C501A3
:100DB00063D6A5040356C701D1453356B6028565EF
:100DC000FD156D8E2606D18F0356E701930520038E
:100DD0003356B602B70500031376F6074D8EB705F6
:100DE00000FD938505F8ED8FD18F2315F704194584
:100DF000C1832314D7042316F7040DBF7D160A06FA
:100E00003A9603568602A945370500033356B602C3
:100E10001376F63F9315A600498E4D8EF1B7797182
:100E200022D426D24AD04ECE52CC56CA5AC85EC61A
:100E300066C29387018606D662C46AC02390070201
:100E400037BA03008D6A056B238107029304F00F04
:100E500013840186130A0A98B77C0240894B05491E
:100E60009549938A0A94130BFBE18347240213FDEF
:100E7000F70F89E7FD1493F4F40F8DE0B25022547C
:100E80000259F249624AD24A424BB24B224C924C2E
:100E9000024D3335900092544561828052859536DB
:100EA00083D7CC0041671307E7F1F98F2396FC0045
:100EB00083D7CC00C1669386E6F193E707042396B7
:100EC000FC0003D7CC0083D7EC004207F58F2397B3
:100ED000FC0083D7EC00418393E707042397FC00D1
:100EE00083D6EC008947858A99E2937717000357E8
:100EF0008401050742074183231CE4001840631E58
:100F00002703639F27072305040003479400050771
:100F10001377F70FA304E4000347940063FFE9008D
:100F2000A3040400094718C037760240035706009F
:100F3000C166ED16758F2310E60018406378E9024C
:100F4000B5EF83478400850793F7F70F2304F40078
:100F50008347840063FCF900230404002320040079
:100F6000B7E700E03707020023A2E718032C0400CC
:100F70001C4025476360F7068A07D6979C43828703
:100F8000A3040400639977030347A40005071377BC
:100F9000F70F2305E4000347A400E3F0E9FA230573
:100FA00004001CC0B776024003D706001367470051
:100FB0002390E60059B72305040041B72304040039
:100FC00075B7B7E700E03707020023A2E718D53965
:100FD000232024012322840149BD58401C40E30BF7
:100FE000F7FE930770072391FC0083C74C00370777
:100FF000020093F7C70F93E727002382FC00B7E7AF
:1010000000E0A388074223A2E710E9B78347540210
:10101000F1D3A3020402B7E700E037070200032878
:10102000C400144823A2E718A30A0400B70800F07C
:10103000370300C0294E93052003194613054006C7
:1010400083474401636BFD00B7E700E03707020008
:1010500023A2E71091471CC0B5BF13172D00B3079B
:10106000E400FC57B3FE170163926E060347540178
:1010700093DE170193FEFE0F3307C702B38EAE0255
:1010800036972311D7010347540193DE870093FE5F
:10109000FE0F3307C70293F7F707B38EAE023697FA
:1010A0002310D70103475401B387B7023307C702A0
:1010B00036972312F70083475401850793F7F70FFC
:1010C000A30AF400050D137DFD0F9DBF93FEF73FAE
:1010D000A98393F7F73FB38ECE034297B387B70246
:1010E0002310D7012311F700F1BF58401C406303C0
:1010F000F700593183476402E38E07EC23030402AF
:1011000023203401C1BD83475402E38507ECA302C9
:101110000402A5471CC0231C04006DBD2301240349
:101120000347A4018347B4016318F7000357C401C0
:1011300083570402E300F7EA8347A401094593F7C4
:10114000F70FA30DF4008357C401C207C183231016
:10115000F4022301040283474402034764019D8B88
:10116000A60793E777000D8B1A07B3F76701D98FAE
:101170002314F404653EA947F9BD411122C406C6F3
:1011800013840186230DA400231EB4000936231FF7
:10119000A4002244B240410159B19387018603C79C
:1011A000470103C6570183A8070103A8C700118F91
:1011B000AA851377F70F814793860186194303C6E3
:1011C000460163E4C700014582801385170063FB75
:1011D000E7008A07C29783D727006391B702137588
:1011E000F50F61BF998FB3876702C69703D60700D3
:1011F00063E6C50083D72700E3F3B7FE9377F50FC7
:101200007DBF138601868346460183475601034608
:10121000560193F6F60F93F7F70F1387018611CE59
:101220009D8E0328070193F6F60FB687994813039E
:1012300010030346470163E4C700014582803386FB
:10124000D7403306160385074296035E06006365A2
:10125000C503035E26006361AE0203564600636D5C
:10126000B600637BB30093F7F70F230DF700231E3F
:10127000A700231FB70065B693F7F70F5DBF03C73D
:1012800051838947631CF70AB7170140938707808A
:101290009847411122C4B706002006C626C213771C
:1012A000070203D426002DE703C7418335C3B704E3
:1012B000002003C7040029EF1307000298CB83D551
:1012C000618222853D3F133515002380A40093875A
:1012D000018603D7C7016318870083D7E70103D7C7
:1012E00061826302F70283C7418391CFB704002074
:1012F00083C7040089EB83D56182228519371335B2
:1013000015002380A400B24022449244410182800F
:1013100098471377070245DF03C741834DFB130747
:101320000002D8CB83D5618203D5E181D93D133545
:101330001500B70700202380A70051BF03C74183D2
:10134000B71701409387078011CB37070020034769
:10135000070009E71307000298CB828013070002F9
:10136000D8CB8280797122D426D24AD04ECE52CCAC
:1013700056CA5AC85EC662C406D60144B70A0020DF
:101380008549854BED3D83D5618203D52A00EFF079
:10139000CFAAEFF0AFF883D701811307700C850750
:1013A000C207C1836364F7022398F180EFF02F92A4
:1013B0008D476301F506F947E316F5FC83C7C18144
:1013C000E3E2F9FC8947238EF1806DBF83A7C182D8
:1013D0009306800CB3D7D7022398018023A60182FD
:1013E00023ACF18083A7018223A00182B3D7D70267
:1013F00023AAF18003C751838947E319F7FA05044B
:101400004204418093078002E3F287FAEFF0DF960F
:10141000014469BF83C7C18189CBFD1793F7F70FDB
:10142000E3E2F9F6238E0180B1BF238E718199BF6B
:10143000056779711307B7B022D44AD052CC56CA87
:101440005AC85EC6239EE18406D69387C18526D2FC
:101450004ECE62C466C22D472381E700C16A238451
:101460000180A38F01840544138A0186FD1A8347F6
:101470004A0183A9C18363F1870885679387873809
:10148000639CF91283A68183C167FD176396F612E8
:1014900083C7818063920712B70700202391370129
:1014A0009306007D2393D182A38A0182238E01803B
:1014B000371701402398018013070780B7070020E2
:1014C000238007001C43B7060030B2509207918377
:1014D000D58F1CC32254930700085CCB0547238A91
:1014E000E18292540259F249624AD24A424BB24BCB
:1014F000224C924C4561828083474A0103475A013E
:101500002285998F93F7F70F63E98702EFF0AFF029
:10151000631C350983A7818363985709B7070020A7
:101520002391A7002285EFF08FF62393A1822384D5
:1015300081800547A38AE18285A8EFF0CFEE63E5BD
:10154000A9062285EFF06FF1636035072285EFF081
:101550000FF483A4818363769500C167FD176395BB
:10156000F40483CC818063980C02B70700202285A5
:1015700023913701EFF02FEB239FA180C167FD1767
:101580006398F4022285EFF08FF02393A1822384E5
:101590008180094745B72285EFF06FEF2A8C668579
:1015A000EFF0EFEEE36385FD05041374F40FC1B5AE
:1015B000139504014181D1BF83C7518309476384D7
:1015C000E7046366F702E38307EEB707002083D5DD
:1015D000270003C581805536E31A05EC31641304F6
:1015E00004B8EFE07FE42285EFF0AFC1DDBF0D4727
:1015F000E38EE7EA3164130404B8EFE0FFE22285EA
:10160000EFF02FC0DDBF83D5618203D5E181D53EE8
:10161000E31E05E83164130404B8EFE0FFE022851F
:10162000EFF02FBEDDBF37170140130707801C43C3
:101630005D71A2C492079183B7060040A6C2CAC0DA
:101640004EDE52DC56DAD58F86C65AD85ED662D4C4
:1016500066D26AD06ECE239801801CC38D679387B3
:1016600087963EC285678D6A938747518549814435
:10167000938A8AA52314F100EFE01FDB316513057F
:1016800005B8EFF00FB883CB51838D47B387FB02CA
:10169000D697A69703CB07009D4763E367031247DE
:1016A00093172B00BA9794431387C18582869306BC
:1016B000A050239ED184A9462301D700A38F018483
:1016C000EFE0FFE08D476308F50C63E4A7080547EA
:1016D000630FE5088947630DF50A03C751839147F6
:1016E000E31CF7F8E38A09F883D701811307007D2B
:1016F0008507C207C1832398F180E37FF7F623981B
:1017000001803D33853185669386C6D0239ED18482
:10171000B9465DB785669386F6F0239ED1849546DB
:1017200061BF856693860611239ED184C94669B739
:1017300083568100239ED184D946BDBF856693869A
:101740007631DDB7856693868631239ED184D54672
:10175000A5B79147E313F5F89D47E3E067F90D67F7
:1017600093172B0013078798BA979C438287814968
:10177000E36595F6B387FB02D697A69703C71700D4
:101780009307F00FE30BF7F4850493F4F40FB1B76C
:10179000A9D4FD14DDBFE392ABF481493DBF056BD5
:1017A000B7070020130B8B38239167019306007D48
:1017B0002393D182B7160140238E01809386068041
:1017C000B7070020238007009C423706003023988B
:1017D000018092079183D18F9CC293070008DCCAD5
:1017E0008547238AF182130C800CEFF05FA99305E3
:1017F000007D5A85EFE07FE4EFF04FB2B70700209D
:1018000083C70700E39B07EC83D701811307700CA4
:101810008507C207C1836366F7022398F18083C7F7
:101820004183B9E33717014013070780930700028C
:101830005CCB1C43B706004092079183D58F1CC335
:1018400069BD83A7C18223980180B3D7870323A6EC
:10185000018223ACF18083A7018223A00182B3D748
:10186000870323AAF18065BFEFE07FC69147630F2E
:10187000F502F9476305F5028D47E318F5F683C7CE
:10188000C18191CBFD1793F7F70F8545E3EFF5F491
:10189000238E018099BF8547238EF180B9B783C518
:1018A000C1818547E3E3B7F48947FDB737170140A6
:1018B00013070780930700025CCB238A018295BF40
:1018C0008547A38AF1822384F18093870186856905
:1018D0007D7A956A3EC293898938130A4A3E938A73
:1018E000CADB9247124783C7470103475701998FC5
:1018F00093F7F70F63EA67015A85EFF0CFB12A89B2
:10190000631835112384618103C98180370B00205E
:101910004A85EFF04FB02311AB00AA894A85EFF05A
:101920000FB79307007D63E6A7004A85EFF02FB657
:10193000AA874E85B7190140938909802393F182C4
:1019400023980180238E0180238A0182EFF0FF8497
:1019500083A70900370C00201335150092079183E7
:10196000370700302300AC00D98F23A0F900FD7C9D
:1019700093070008156D23AAF900938C4C3E130DB4
:10198000CDDBEFF0DF8F83D5618203552B00EFE0D5
:10199000DFCAEFF0AF9883D701811307700C85077A
:1019A000C207C1836368F7082398F180EFE03FB274
:1019B0008D476301F51463E4A70A85476302F50CBC
:1019C0008947E310F5FC83C74183D5EF124792475F
:1019D00083C747018346570103C78180958F93F7DB
:1019E000F70FE370F7FA930A170093FAFA0F568588
:1019F0003AC423845181EFF00FA2B3079501C207C7
:101A0000C1832247AA8D637DFD0A2384E18095BFAF
:101A1000B3074501C207C18363EAFA0003C58180A9
:101A2000EFF06F9F6374A90023846181050B137B22
:101A3000FB0F45BD83A7C1821307800CB3D7E70214
:101A40002398018023A6018223ACF18083A7018221
:101A500023A00182B3D7E70223AAF18081BF914777
:101A6000630AF50AF947E31EF5F083C74183E38A69
:101A700007F003C7C1818547E3E5E7F0894741A83F
:101A800083C7418381CB238A01829307000223AA63
:101A9000F900C5BD83C78180E375F5EE938AF7FF32
:101AA00093FAFA0F56853EC423845181EFF0AF9626
:101AB0003307950142074183A247AA8D6369ED026E
:101AC00056852311BB01EFF08F9C9307007D63E6E1
:101AD000A7005685EFF0AF9BAA876E852393F1820E
:101AE000EFF0AFEB133515002300AC0059BD238494
:101AF000F18041BD83C7C18191CBFD1793F7F70FEB
:101B00000547E360F7E8238E0180A5BD8547238E56
:101B1000F18085BD83470C00E39507E683C74183C9
:101B200093C71700238AF182A9BD83C7490103C760
:101B30005901998F93F7F70F63F297082685EFF015
:101B4000CF91637DA9062685EFF06F941309007D80
:101B50006366A9002685EFF08F932A892685239551
:101B60002181EFF04F8C056785671307B7C1938715
:101B7000C7C16376A7002685EFF0EF8AAA8726857E
:101B8000239FF180EFF06F8D99679387879D63E6C0
:101B9000A7002685EFF06F8CAA872396F1808567D2
:101BA00093878738370700202311F7002393218379
:101BB0001307401F2397E18023849180850493F4C9
:101BC000F40F83C7490103D9C180E3F097F63717B3
:101BD0000140130707801C43B70600308545920774
:101BE0009183D58F1CC3930700085CCB4A85B169EC
:101BF000EFE0AFFA938909B80D4AEFE05F8DAA8450
:101C0000FD14C2042398A180C1804E85EFE07FDFE0
:101C1000EFE09F81E3639AFE83D4E1818545316AD9
:101C20002685EFE08FF7130A0AB88D4AEFE03F8A66
:101C3000AA89FD19C2092398A18093D90901528567
:101C4000EFE03FDCEFE04FFEE3E23AFFB717014081
:101C5000938707801307000898CB83D9A180854517
:101C6000B16A4E85EFE06FF3938A0AB80D4BEFE04F
:101C70001F862A8A7D1A420A2398A180135A0A01D4
:101C80005685EFE01FD8EFE02FFAE3624BFF238A7F
:101C9000018203DAE1802685D28523980180238E94
:101CA0000180EFF00FD6B707002013351500370B72
:101CB00000202380A700835B2B008D6783DD61827A
:101CC0009387879A014C814C3EC2EFF04FDB5E85D3
:101CD000EE85EFE09F96EFE07FE403D50181930767
:101CE000700C05054205418163E4A7022398A18099
:101CF000EFE0EFFD59436360A30692470A053E9566
:101D00000841028585449389018665BD014C75BFF4
:101D100003A5C1821307800C3355E50293881C008C
:101D2000939C08012398018093DC0C0123A6018277
:101D3000054C23ACA18003A5018223A00182335569
:101D4000E50223AAA18013058002E37395FBEFF05F
:101D5000AF82814C71BF7943E31965F603C54183B6
:101D60002DD503C3C1810545E36165F60945238E81
:101D7000A180A1BF03C5C18115E103552B00130547
:101D8000C5F9AA874205418163739500A687939B95
:101D900007012311FB0093DB0B0105BF0543E3168D
:101DA00065F203D561821305C5F9AA854205418113
:101DB00063734501D285939D05012393B18293DD21
:101DC0000D0121B703C5C18115E9E3000CF00355EE
:101DD0002B001308703E330575416354A80023118E
:101DE0007B0193874BED939B070193DB0B01014C28
:101DF000E3FD9BEC23119B00A68BC1BD0543E316BD
:101E000065ECE3040CEC03D561821308301F330545
:101E1000B5416354A8002393B1839385CDF9939D75
:101E2000050193DD0D01014CE3F14DEB239341835B
:101E3000D28D61BD03C5C18101ED03552B00130592
:101E40004506AA8742054181E373A9F4CA8781B791
:101E50000543E31C65E603D5618213054506AA85A3
:101E600042054181E3F9A9F4CE85B1B703C5C1812B
:101E700015E9E30C0CE403552B001308703E338581
:101E8000AB406354A80023117B019387CB12939B33
:101E9000070193DB0B01014CE37979E323112B015B
:101EA000CA8B25B50543E31265E2E3000CE203D5D6
:101EB00061821308301F3385AD406354A80023931B
:101EC000B18393854D06939D050193DD0D01014C72
:101ED000E3FDB9DF23933183CE8DC5BB03C3C1813D
:101EE0000545E36465DE23117B012393B183F1BBD8
:101EF00003C5C1810543630A6500094E6307C50137
:101F0000E31505DC238E6180C9B3238E018075BB88
:101F1000B707002003C50700E31905DA03C54183AD
:101F200013451500238AA1824DB30565814513052C
:101F30008538EFE08FC637170140130707801C4331
:101F4000B7060030B16492079183D58F1CC3930705
:101F500000085CCB930700021CCB938404B80D49A6
:101F6000EFE0EFD62A847D14420426854180EFE01D
:101F70005FA9EFE06FCBE36589FE37290140B164CB
:101F80001304800C814913090940114A938404B851
:101F90002685232A4903EFE0DFA67D14EFE0CFE595
:101FA0001374F40FAA996DF493074006B389F902EC
:101FB00011659307800C814513050565B164938411
:101FC00004B80D49B3D9F902EFE02FBDEFE02FD0EF
:101FD0002A847D14420426854180EFE09FA2EFE031
:101FE000AFC4E36589FE372A0140B1641304800C55
:101FF0000149130A0A40914A938404B82685232A8A
:102000005A03EFE01FA07D14EFE00FDF1374F40F0D
:102010002A996DF4930740063309F9028145930725
:10202000800C0145B72A0140316A1304800C8144B9
:10203000938A0A40194B3359F902130A0AB8EFE0A0
:10204000CFB5528523AA6A03EFE0BF9B7D14EFE072
:10205000AFDA1374F40FAA946DF493074006B384B7
:10206000F40281459307800C1305007D316A130A41
:102070000AB88D4AB3D4F402EFE02FB2B71701408B
:10208000938707801307000898CBEFE04FC42A849A
:102090007D14420452854180EFE0BF96EFE0CFB857
:1020A000E3E58AFE372B0140B16A130A800C014434
:1020B000130B0B40994B938A0AB85685232A7B034E
:1020C000EFE03F947D1AEFE02FD3137AFA0F2A94B2
:1020D000E3150AFE37757C4DB3093941130505D068
:1020E0003355350313074006371A0140130A0A8097
:1020F00093070002232AFA0081458D493309A9027A
:1021000023A6A184B7B71201938707883359E90240
:10211000B387274123A4F1849307800C3354F4023E
:10212000B7C7EB0B938707203169130909B833044C
:10213000E402058C33D48702B384840223A2818411
:10214000B3D4E402B304904023A09184EFE0EFA461
:1021500093070008232AFA00EFE06FB7AA84FD1462
:10216000C2044A85C180EFE0DF89EFE0EFABE3E531
:1021700099FE81452285EFE04FA2B7170140938772
:10218000078013070008B16498CB938404B80D4905
:10219000EFE0EFB32A847D14420426854180EFE00E
:1021A0005F86EFE06FA8E36589FEEFE0AFE411CD55
:1021B0003755070013050530EFE0BF84EFE0AFD6D9
:1021C00009C5EFE07F85EFF00FC605671307A7305D
:1021D000239EE1849387C18529472381E7003164E9
:1021E000A38F0184130404B8EFE00FA42285EFE06D
:1021F0005F81DDBF9547A38AF1828567938757305A
:10220000239EF18451479387C1852381E70031697B
:10221000A38F0184130909B80D4BEFE04FABAA84DB
:10222000FD14C2042398A180C1804A85EFE06FFDB0
:10223000EFE08F9FE3639BFE238A018241678567FE
:1022400093878738130AF7FFB716014093860680F5
:10225000238E018023AEF18223AC41839C4237065A
:1022600000302398018092079183D18F9CC20D6B1F
:1022700093070008DCCA916893074BA0156C7D7B1F
:102280008566814B3EC2130BCB3193884852D28A6C
:10229000130C8C20938636CE3165130505B836C6EF
:1022A00046C4EFE00FF603A9C18383A4818313150D
:1022B000090193950401C1814181EFE00FB883D7F3
:1022C00001819305800CA2488507C207C183B246ED
:1022D00063F4F5008147854B36C646C42398F180E8
:1022E000EFE0EF9ED147A248B246E3E7A7FA924754
:1022F0000A053E951C41828783C7C18191EF13096E
:10230000C9F963F5260123AE218379B785679387E1
:1023100047CE23AEF18249B78545E39FB7F6638B7D
:1023200054019384C4F99307301F63F8970023ACDA
:1023300091829DB79304007DDDBF9307401F23ACBE
:10234000F18299BF83C7C1818DE3638E0B001309AE
:1023500049ED63F5260123AE218331A0856793877C
:1023600047CE23AEF182814B05BF8545E39DB7FE85
:10237000E38B0BFE638B54019384C4F99307301FE6
:1023800063F8970023AC9182F9BF9304007DDDBF11
:102390009307401F23ACF182F9B783C7C18181EB5A
:1023A00013094906E3712CF723AE8183F5B5854502
:1023B000E394B7EE938444069307007DE3F997F620
:1023C00023AC4183D1BD83C7C18191EBE38D0BF871
:1023D0001309C912E3712CF923AE818369B78545CE
:1023E000E393B7F8E3810BF8938444069307007DE9
:1023F000E3FA97F8C167FD1771BF83C7C18199C719
:102400008545E39BB7E8238E018079B58547238E08
:10241000F18059B55A99E3E128E99387C4E093051F
:10242000C05D63F4F500E39954E7EFE0AFBC19C970
:1024300037454900130505E0EFE0AFDCEFE0EFB50D
:10244000E31105D885679387A730239EF18413870E
:10245000C185A9472301F7003164A38F01841304C8
:1024600004B8EFD07FFC2285EFE0AFD9DDBF9947FC
:10247000A38AF182EFE06FB2630105A623AE018269
:1024800023AC0182EFE00FB719C9374549001305A6
:1024900005E0EFE00FD7EFE04FB0E30405D20567AA
:1024A0001307A730239EE1849387C18529472381A1
:1024B000E7003164A38F0184130404B8EFD0DFF682
:1024C0002285EFE00FD4DDBF639909AC8145130588
:1024D000203AB16BEFD07FEC938B0BB80D4CEFD063
:1024E0001FFF2A8B7D1B420B2398A180135B0B01DE
:1024F0005E85EFE00FD1EFD03FF3E3626CFF6FF04A
:10250000CF9D371602401C4E411106C693E71700B7
:102510001CCE3708014083274800370790FF7D17FE
:10252000F98F37070004D98F2322F800B71701402D
:10253000938707809443B70510FFFD15ED8EB7050F
:102540003000CD8E94C39443B70500403717014047
:1025500092069182CD8E94C3544F37030200B70880
:10256000F1FF93F6F6F093E6060854CFB716014054
:1025700023206702938606C0C842FD188D6E33750E
:102580001501B708030033651501C8C28843C57833
:10259000FD1841991365350088C388437D7E130E6D
:1025A000FE0F1375F5F01365050388C308433375F3
:1025B00015013365D50108C3484F337515013365DF
:1025C000D50148CF484F41991365350048CF88431E
:1025D0003375C5011365053088C38843337515010C
:1025E0003365D50188C308431375F5F013650503FA
:1025F00008C388421375F5F01365050388C2484F78
:102600003375C5011365053048CF13070002D8CBD9
:102610001C4E2D4793E717201CCEB7270140938708
:102620000740B8CB37B76D1B1307B76DD8C798CB2A
:1026300037070E00050798C73D47B8CB1387F5FF4E
:10264000D8C798CB1C4E3707004493E717011CCE20
:102650005C4AB3E767005CCADC42A207A183D98F5A
:10266000DCC2832788013777024093E70730232CA9
:10267000F8009387818AC207C1832318F700F9778E
:10268000A1072310F700F157A304F700EFE02FF99B
:10269000EFE08FB8EFE03FF95D713AD23777024053
:1026A0003ED08347970086C696C49AC29EC022DE5B
:1026B00026DC2ADA2ED832D636D442CE46CC72CA9E
:1026C00076C87AC67EC493F70702BDC783479700D2
:1026D00085468D8B639AD7048356A700154763758B
:1026E000D7049386018683D48604138401861397C6
:1026F000040141876345070E13D6C4001D8A13F7F2
:10270000F401631706100D466309C70C1946630FE1
:10271000C70E6316F70C2383E60283C746028507BC
:1027200093F7F70F2382F60237770240834797002B
:1027300093E70702A304F700B777024003C79700A7
:10274000620761876357070403D7C700C166BD16D8
:10275000758F2396E70003D7E700C166BD16758F16
:102760002397E700130770072391E70003C747008B
:1027700085461377C70F136727002382E700138767
:102780000186A302D70203C7970013670708A38433
:10279000E700B777024003C797001377070409CB18
:1027A00003C7970013670704A384E700EFE06FD126
:1027B0007254B640A64216438643E2545255C2555F
:1027C0003256A256125782577248E248524EC24EB3
:1027D000324FA24F6161730020309D471CC013052A
:1027E000005AEFE00FA28567A3020402938707E077
:1027F000FD8C8347640193E4140009458D8B9A078F
:10280000DD8C23149404EFE06FD239BFA147F9B7F0
:10281000E317F7FC8D471CC093D7C4009D8B230A98
:10282000F40093D764008D8B230BF400130784040A
:1028300081471305C406F146834527003306F5009A
:1028400085072300B6000507E398D7FE49BF8967CF
:102850009387275097E1FF1F9381C1FA172100202A
:102860001301417A7D45731005BC13058008732060
:1028700005308D4573904580130540004D8D7310D4
:102880005530739017340D67B70700201307C7A69C
:10289000938707009386818063E8D70293878180BE
:1028A0001387818E63E7E702B7270240094798C381
:1028B000B717024023A2070037F700E0954614C37C
:1028C000714798CF730020301043110790C39107D0
:1028D000E1B723A007009107F1B70000FC0000005A
:1028E000200100004001000066010000900100008E
:1028F000B2010000DA010000E20100000002000065
:102900001602000022020000420200005C020000E9
:1029100080020000A2020000AE020000CC02000013
:10292000EC020000F8020000160300001E03000085
:10293000340300004003000062030000780300003D
:10294000C20F0000D40F0000DA0F00000C100000CE
:10295000EA100000D40F0000D40F0000D40F0000D4
:10296000061100001C110000AE1600000617000042
:102970001417000022170000301700003017000065
:102980003C170000441700009E170000C01800000C
:10299000041D00002A1F000002170000F42100009F
:1029A0006E240000C82400000C1D0000741D0000EF
:1029B000341E0000F01E0000101F0000CA1C0000A2
:1029C000CA1C0000CA1C0000CA1C0000CA1C00006F
:1029D000C41D0000DC1E0000CA1C0000CA1C000050
:1029E000CA1C0000CA1C0000CA1C0000CA1C00004F
:1029F000CA1C0000CA1C00006C1E0000CA1C00009B
:102A0000DC1E000066230000F82200009A2300006C
:102A1000FA230000142400009822000098220000ED
:102A20009822000098220000982200004423000011
:102A300098220000982200009822000098220000AE
:102A4000982200009822000098220000982200009E
:102A500098220000C62300000005FF0105FF0201C7
:0C2A6000050703FF0406FF05FFFF000050
:082A6C00010088132C0000009A
:00000001FF
