:040000006F20A05F6E
:100004000000000000000000C40A0000C40A000050
:1000140000000000C40A000000000000000000000E
:10002400C40A0000C40A0000000000000000000030
:10003400C40A000000000000C40A00000000000020
:10004400C40A0000C40A0000C40A00000000000042
:10005400C40A0000C40A0000C40A0000C40A000064
:10006400C40A0000C40A0000C40A0000C40A000054
:10007400C40A0000C40A0000C40A0000C40A000044
:10008400C40A0000C40A0000C40A0000C40A000034
:10009400C40A0000C40A0000C40A0000C40A000024
:1000A400C40A0000C40A0000C40A0000C40A000014
:1000B400C40A0000C40A0000C40A0000C40A000004
:1000C400C40A000044240000C40A0000C40A00005A
:0C00D400C40A0000C40A0000C40A0000B6
:1000E000E14763EFA7188967938787680A053E95FC
:1000F0001441B7170140138707808286BD4614CB91
:1001000037170140130707C0B716020014CB294761
:10011000B1A8B7060C008D0614CB371701401307A2
:1001200007C0B716020014CB37070A0081A0BD46EE
:1001300014CB371701408566130707C0890614CB17
:1001400037070200210798CB37070500210705AACA
:10015000B70608009D0614CB3717014085661307C4
:1001600007C0890614CB37070200210798CB370751
:100170000400250729A2B7060C008D0614CB3717FB
:1001800001408566130707C0890614CB37070800AE
:100190000907E9BFB70608009D0614CB37170140D1
:1001A0008566130707C0890614CB294798CB370704
:1001B0000C000507E9A0BD46CDB7B7060C008D06BB
:1001C0003DBFBD4614CB371701408566130707C0F6
:1001D00089062DBFB70608009D06EDB7B7060C00CF
:1001E0008D0614CB37170140130707C0B71602005E
:1001F00014CB37070A0049A0B7060C008D0614CBB4
:10020000371701408566130707C08906D5B7B706BB
:100210000400AD0614CB371701408566130707C0ED
:10022000890689A8B7060400AD0614CB371701402C
:10023000130707C0B716020014CB370708000907D9
:1002400025A8B7060400AD0615BFB7060400AD0625
:1002500014CB371701408566130707C0890614CBF6
:100260002947D5B5BD4614CB37170140130707C042
:10027000B716020014CB294798CB37070D0098D347
:100280008280B7060400AD0635BFBD4679BFBD46C6
:1002900051B7BD4614CB371701408566130707C019
:1002A000890659BFB7060400AD0691BFBD4614CB01
:1002B00037170140130707C0B7160200F5B5BD4652
:1002C00014CB371701408566130707C08906A1BD07
:1002D000B7060400AD0614CB371701408566130737
:1002E00007C0890614CB370708000907A9BD89672D
:1002F0009387F77063E1A704A9473355F5024205D8
:100300004181B9ED8547A38DF184A9463357D502C4
:1003100093074006B357F5023377D70293F7F70FE9
:100320003375D502238CF18493878185A380E70000
:100330002381A7008280E1679387F76963EAA700BA
:10034000930740063355F50289474205418165BF51
:100350009307803E3355F50281474205418165B7D9
:10036000130740063357E5020946A38DC184335570
:10037000F5021377F70F3375F5026DB7411126C2F9
:1003800022C403C431804AC006C605496301240360
:100390009307C002630FF4022DC09307C002B2405E
:1003A0002244A381F180024992444101828003C525
:1003B00081853D33B7170140938707C00567D8CBC8
:1003C00083C7B185E39B87FCB7170140114798D3DA
:1003D000E9B703C591852933B71701409387078093
:1003E00023AA270103C7B18589476316F700B7170A
:1003F0000140114798D381475DB703C5A185CD3131
:10040000B7170140938707800947D8CB03C7B18549
:100410008D476316F700B7170140114798D38547FA
:10042000BDBFB717014090479315E60083C64185CD
:1004300003C7318063DA050699EA11EB9146A38977
:10044000D1840547238AE1841305F00F8280054695
:100450006305C700238AC184C5BF83C5318591E187
:10046000A9E2238AE18403C6418503C5218541C2EF
:1004700003C631856313A60683D601858506C206A9
:10048000C1822398D1841307A00F637DD704238AE8
:100490000184A3890184A9473305F5021375F50F7B
:1004A0008280A389E18475BF9DC211CF8546E31D7B
:1004B000D7F803C63185894601C6238A018481465F
:1004C000A389D1844DB70D47A389E184B5BFA38922
:1004D00001848546E309D7F885BF85452398B18413
:1004E0002389C184A3890184238A0184A9A031C1FD
:1004F00083D501851308A00F637CB800238A01848B
:1005000023980184A389A18423890184AD4769B715
:100510000948637BB80023980184A389A1842389B7
:100520000184238A018482802389018423980184A1
:1005300055BF2398018401458280B72701409387E6
:1005400007409847B70640001367170098C79847B9
:10055000558F98C79843098B75DFE847420541815D
:10056000828003C62182411106C6AE87854683C5B7
:10057000C1812DC66381D5028947638CF5029DE553
:1005800003A58181AD33B717014093870780130717
:100590000008D8CB21A803A541818145893BB71725
:1005A0000140938707801307000898CBB2404101B0
:1005B000F1B303A7418183A781811305803E814563
:1005C000B387E70233D5A7021D33B71701409387DE
:1005D0000780D84713470708D8C7C9BF6388D50025
:1005E00089476380F504F9F1854569BF37170140F4
:1005F000130707809306000814CB41677D17639F9C
:10060000E70005671307A7B0239CE18493878185E2
:1006100029472381E700A38D018449BF3E85C13965
:1006200071B7238E0180C9B7B7270240D8479376A8
:100630001700EDFE9376070289E623A8070001451F
:100640008280D8C705458280411106C622C426C2D1
:100650004AC0D93FB7C7000883A407F023A69184F6
:10066000E137B7C7000803A947F0FD1423A421858B
:10067000653FB7C7000803A487F023A281846D37C4
:10068000B7C7000883A7C7F0014523A0F1847557B9
:10069000636B9700FD566308D90036946365870045
:1006A00085073335F000B2402244924402494101AB
:1006B0008280411106C622C4853FB7C7000803A443
:1006C00007F123AE81828D37B7C7000883A747F1B2
:1006D000014523ACF1827D771307C7313A94116746
:1006E00013074752636F870005679386C7E01307B8
:1006F000479C05456377D70041772A97BA9713B58A
:100700001700B2402244410182805D714EDE83A910
:10071000C184A6C283A44184CAC003A98184B3E76B
:10072000990086C6A2C452DC56DA5AD85ED662D484
:1007300066D2B3E7270185E38144B64026440649E3
:10074000F259625AD25A425BB25B225C925C2685B5
:10075000964461618280C93DB7C7000803A487F150
:10076000FD57E31BF4FCC935B7C7000883A7C7EFE3
:10077000E39487FCB7270240984B13770708631B65
:10078000070EB7270240984B9316070163C4061063
:10079000613D37240240B70702001CC8B7C70008F4
:1007A000938707F05CC81C4893E707041CC8AD3D5D
:1007B00041D52328040003A701844EC04AC23AC68B
:1007C00003A7C18326C43AC803A781833ACA7D57C9
:1007D0003ACC3ACE1C4893F70708E9EFB727024016
:1007E000984B9316070163C7060E3D3D3724024020
:1007F000C1671CC80149370A0800854A7D5BB70BF1
:1008000004001C48B3E747011CC8393DE30605F264
:10081000B7C4000837CC0008931C49008A89938428
:1008200004F0130C0CF16317090C83A709009CC09A
:100830001C4891049109B3E777011CC8F533E39490
:1008400084FFB7C70008938707F05CC81C4893E78C
:1008500007041CC8D13BAA84E30005EE0509C14783
:10086000E311F9FA23280400C133A167938707082D
:100870001CC8E1B53707674513073712D8C3379748
:10088000EFCD1307B79AD8C39C4B93F70708E38AB9
:1008900007EE5DB53707674513073712D8D337978B
:1008A000EFCD1307B79AD8D39C4B13970701E351A9
:1008B00007EE59B5B7076745938737125CC0B797FE
:1008C000EFCD9387B79A5CC01C4893F70708E3877E
:1008D00007F09DB53707674513073712D8D3379709
:1008E000EFCD1307B79AD8D39C4B13970701E35E5C
:1008F00007EE99B56316590183A709019CC80DBF7E
:10090000B387940123A0670125B737F700E01C47A0
:100910003E951C47898FE3CE07FE8280011106CEEB
:1009200022CC26CA4AC84EC6053319ED896793877B
:10093000179C23A6F18423A401848967938767CA3F
:1009400023A2F18423A0018437190140930409C034
:10095000DC40B709F1FFFD1937070400B3F7370191
:10096000D98FDCC0130409801C403165130505B81C
:1009700093F7F7F093E707041CC01C40C19B93E773
:1009800037001CC085471CC84937832789000147A9
:100990009396E70063D806021C40370703003165D1
:1009A000C19B93E747001CC0DC40130505B8B3F7B3
:1009B0003701D98FDCC085679CC8813F0327890038
:1009C0004583058BB7160140938606C0DC42370687
:1009D000F1FF7D16F18F37060300D18FDCC2B71708
:1009E0000140938707809443C19A93E6360094C3ED
:1009F000944393F6F6F093E6060394C38D470DE314
:100A00004D39914711ED1387C185834657018947B9
:100A100081EA8347470103475701998FB337F000B5
:100A2000F2406244238AF182D2444249B2490561CC
:100A300082804111B727014093870740114706C6BE
:100A4000D8DBE53C83A7C1841307803E3305F5025C
:100A500083A781843355E502B3C7E7023E95AA8791
:100A6000635405008147014523A8F18283A7C18211
:100A7000AA973165130505B823A6F1827935B72702
:100A80000140938707401947D8DB453C83A7418441
:100A90001307803E3305F50283A701843355E50231
:100AA000B3C7E7023E95AA87635405008147014515
:100AB00023A4F18283A74182B240AA9723A2F182A4
:100AC0004101828001A09387C185DC470A05AA976E
:100AD00003D5E7FF82809387C18503C7470183C69B
:100AE0005701158F1377F70F6368A700DC470A05D6
:100AF000AA9703D5E7FF8280198D19473305E502D0
:100B00009C4BAA9703D5A7FF82809387C18503C713
:100B1000470183C65701158F1377F70F6368A70046
:100B2000DC470A05AA9703D5E7FF8280198D19478C
:100B30003305E5029C4BAA9703D5C7FF82809387B4
:100B4000C18503C7470183C65701158F1377F70F78
:100B50006368A700DC470A05AA9703D5C7FF828010
:100B6000198D19473305E5029C4BAA9703D5E7FF7A
:100B70008280B77702401307200A2396E700239765
:100B8000E7009387C185A38407002385070023849A
:100B90000700238A0700A38A070023A0070023A2D7
:100BA00007002382070213878702A3820702D8C7A0
:100BB0001387C7032383070298CB0547238BE700DE
:100BC00023810702238DE700A38DE7000567130744
:100BD0008738239EE7002390E7028280B7770240A0
:100BE00003D70700118B15CB03D7E7001367070165
:100BF0002397E700B77702401307F0042391E7003B
:100C0000A38207002393A700A384070003C747001C
:100C1000136737002382E700828003D7C70013677A
:100C200007012396E700F9B79387C18503C5A7019C
:100C300083C6470203C6670105689D8A0908A606A0
:100C40000D8A1A06B3E60601D18E03C6470103C812
:100C500057019375F50F9377F50033060641138717
:100C6000C1856357A6040356C701D145F207335621
:100C7000B6028565FD156D8E2606D18F0356E701F8
:100C8000930520033356B602B70500031376F60723
:100C90004D8EB70500FD938505F8ED8FD18F231597
:100CA000F7041945C1832314D7042316F7043DB76D
:100CB0009387F5FF8A07BA9703D68702A9473705B6
:100CC00000033356F602F2051376F63F9317A6009B
:100CD000498ED18FCD8FE1B7797122D426D24AD0F7
:100CE0004ECE52CC56CA5AC862C49387C18506D626
:100CF0005EC666C223900702238107029304F00FA9
:100D00001384C185377C0240094B0549954937EA70
:100D100000E0B70A02008347240293FCF70F89E73B
:100D2000FD1493F4F40F85E0B25022540259F249B5
:100D3000624AD24A424BB24B224C924C333590001D
:100D400092544561828037B5030013050598753EBE
:100D50008357CC0041671307E7F1F98F2316FC0096
:100D60008357CC00C1669386E6F193E70704231608
:100D7000FC000357CC008357EC004207F58F231784
:100D8000FC008357EC00418393E707042317FC0022
:100D90008356EC008947858A99E2937717000357B9
:100DA0008401050742074183231CE4001840631EA9
:100DB0002703639E270723050400034794000507C4
:100DC0001377F70FA304E4000347940063FFE900DF
:100DD000A3040400094718C03776024003570600F1
:100DE000C166ED16758F2310E60018406374E902A2
:100DF000ADEF83478400850793F7F70F2304F400D2
:100E00008347840063F8F9002304040023200400CE
:100E100023225A19832B04001C402547636FF704D3
:100E200009678A071307C76EBA979C438287A30492
:100E30000400639967030347A40005071377F70FBE
:100E40002305E4000347A400E3F1E9FA23050400C5
:100E50001CC0B776024003D70600136747002390F3
:100E6000E60061B72305040049B7230404005DB719
:100E700023225A19FD39232024012322740161BD44
:100E800058401C40E30BF7FE930770072311FC004A
:100E900083474C0093F7C70F93E727002302FC001A
:100EA000A3080A4223225A11C9BF83475402F1D72B
:100EB000A3020402B7E700E0370702000328C400DA
:100EC000144823A2E718A30A0400B70800F0370368
:100ED00000C0294E93052003194613054006834799
:100EE000440163EBFC00B7E700E03707020023A2F0
:100EF000E71091471CC051B713972C00B307E400CB
:100F0000FC57B3FE170163926E060347540193DE4C
:100F1000170193FEFE0F3307C702B38EAE0236975A
:100F20002311D7010347540193DE870093FEFE0F80
:100F30003307C70293F7F707B38EAE023697231035
:100F4000D70103475401B387B7023307C702369767
:100F50002312F70083475401850793F7F70FA30A7D
:100F6000F400850C93FCFC0F9DBF93FEF73FA98313
:100F700093F7F73FB38ECE034297B387B7022310A0
:100F8000D7012311F700F1BF58401C406303F7005D
:100F9000613983476402E38207EE230304022320BE
:100FA0003401E1BD83475402E38907ECA302040244
:100FB000A5471CC0231C0400C9B523012403034713
:100FC000A4018347B4016318F7000357C401835792
:100FD0000402E304F7EA8347A401094593F7F70FF6
:100FE000A30DF4008357C401C207C1832310F40288
:100FF0002301040283474402034764019D8BA60733
:101000000D8B1A0793E77700D98F2314F404F93670
:10101000A947CDB5411122C406C61384C185230D4D
:10102000A400231EB400213E231FA4002244B2408A
:1010300041015DB19387C18503C7470103C65701CD
:1010400083A8070103A8C700118FAA851377F70F9C
:1010500081479386C185194303C6460163E4C700EF
:10106000014582801385170063FBE7008A07C2975A
:1010700083D727006391B7021375F50F61BF998F6E
:10108000B3876702C69703D6070063E6C50083D718
:101090002700E3F3B7FE9377F50F7DBF1386C18575
:1010A00083464601834756010346560193F6F60FE1
:1010B00093F7F70F1387C18511CE9D8E0328070183
:1010C00093F6F60FB68799481303100303464701BA
:1010D00063E4C700014582803386D7403306160398
:1010E00085074296035E06006365C503035E26001E
:1010F0006361AE0203564600636DB600637BB300C6
:1011000093F7F70F230DF700231EA700231FB70047
:10111000E1B693F7F70F5DBF03C741838947631FAC
:10112000F70AB7170140938707809847411122C4F7
:10113000B706002006C626C21377070203D40600AE
:101140003DE703C7218225C7B704002003C7240059
:1011500039EF1307000298CB83D5018222853D3FEA
:101160001345150005892381A4009387C18503D702
:10117000C7016318E40083D7E70103D70182630343
:10118000F70283C7218299CFB704002083C72400C8
:1011900091EB83D50182228511371345150005890E
:1011A0002381A400B24022449244410182809847A6
:1011B000137707025DDB03C7218245FB130700029B
:1011C000D8CB83D5018203D5E181C93D13451500F4
:1011D0000589B70700202381A70041BF03C72182EB
:1011E000B71701409387078011CB370700200347CB
:1011F000270009E71307000298CB8280130700023B
:10120000D8CB828079714ECE854922D426D24AD05D
:1012100052CC56CA5AC85EC606D60144B70A002048
:101220001309800C4E8BCD3D83D5018203D50A0076
:10123000EFF02FB3EFF0EFFF83D701818507C207EF
:10124000C1836364F9022398F180EFF08F9D8D478D
:10125000630FF504F947E318F5FC83C7C181E3E4A4
:10126000F9FC8947238EF1807DBF83A7C182B3D764
:1012700027032398018023A6018223ACF18083A752
:10128000418223A20182B3D7270323AAF18003C797
:1012900041838947E31BF7FA050442044180930721
:1012A0008002E3F487FAEFF03F98014479BF83C7E7
:1012B000C18189CBFD1793F7F70FE3E6F9F6238E8B
:1012C000018095B7238E6181B9BF056779711307D6
:1012D000B7B022D44AD052CC56CA5AC85EC6239C54
:1012E000E18406D69387818526D24ECE62C466C23B
:1012F0002D472381E700416A23840180A38D018467
:1013000005447D1A1387C1858347470183A9C1839B
:1013100063F4870A856793878738639FF91483A6E8
:101320008183C167FD176399F61483C78180639534
:101330000714B70700202390370185679387079626
:101340002390F182238A018223980180371701407C
:1013500013070780238E01801C43B70600309207D5
:101360009183D58F1CC3930700085CCBB70700207F
:101370002381070023A6018223A20182EFF06FEBF5
:1013800005472381E18203A7C182B25023ACE180EB
:1013900003A7418223A20182225423A6018223AA09
:1013A000E18092540259F249624AD24A424BB24B0E
:1013B000224C924C45618280834747010347570185
:1013C0002285998F93F7F70F63E98702EFF0AFEF6C
:1013D000631C350983A7818363984709B7070020F9
:1013E0002390A7002285EFF08FF52390A18223841C
:1013F00081800547238AE18285A8EFF0CFED63E580
:10140000A9062285EFF06FF0636035072285EFF0C3
:101410000FF383A4818363769500C167FD176395FD
:10142000F40483CC818063980C02B70700202285E6
:1014300023903701EFF02FEA239FA180C167FD17AA
:101440006398F4022285EFF08FEF2390A18223842A
:101450008180094745B72285EFF06FEE2A8C6685BB
:10146000EFF0EFEDE36385FD05041374F40F59BD50
:10147000139504014181D1BF83C74183094763822A
:10148000E7046365F702E38107ECB707002083D523
:10149000070003C58180BD3EE31805EAEFE01FEEBB
:1014A0003165130505B8EFF04FC6CDBF0D47E38D8D
:1014B000E7E8EFE0BFEC3165130505B8EFF0EFC4E6
:1014C000CDBF83D5018203D5E181C93EE31E05E688
:1014D000EFE0DFEA3165130505B8EFF00FC3CDBFCC
:1014E00037170140130707801C435D71A2C49207A0
:1014F0009183B7060040A6C2CAC04EDE52DC56DA5F
:10150000D58F86C65AD85ED662D466D26AD06ECEE1
:10151000239801801CC3856793874751854981447F
:101520008D4A2317F100EFE07FE53165130505B81B
:10153000EFF0AFBD03CB41838D6B93874B803307B7
:101540005B03938B4B80BA97A69703CC07009D470C
:1015500063E5870309671307477193172C00BA9750
:1015600094431387818582869306A050239CD1845F
:10157000A9462301D700A38D0184EFE09FEA63060B
:10158000550D63E2AA088547630DF5088947630B8B
:10159000F50A9147E319FBF8E38709F883D701813E
:1015A0001307007D8507C207C1832398F180E37C80
:1015B000F7F623980180113BB13185669386C6D03A
:1015C000239CD184B94675B785669386F6F0239C33
:1015D000D184954679BF856693860611239CD18474
:1015E000C94641BF8356E100239CD184D94651B7F7
:1015F000856693867631DDB7856693868631239C32
:10160000D184D546BDB79147E315F5F89D47E3E290
:1016100087F9096793172C0013074773BA979C4300
:1016200082878149E36795F6B3075B03BE9BA69B60
:1016300003C71B009307F00FE30DF7F4850493F441
:10164000F40F81BFB9D4FD14DDBF9307DBFFB337BF
:10165000F000B3F9F90035BF8567B706002093871E
:1016600087382390F6008567938707962390F18249
:10167000B707002023810700238E01802398018073
:1016800023A6018223A20182EFF0AFBAB715014071
:1016900093850580930700029CC985472381F182C9
:1016A00083A7C18223ACF18083A7418223A6018254
:1016B00023A2018223AAF1809C4137050030930CBC
:1016C000800C92079183C98F9CC193070008DCC9E5
:1016D000EFF09FA48565056593850596130585380C
:1016E000EFE03FE8EFF0EFB4B707002083C7270033
:1016F000E39107EA83D701818507C207C18363EBC2
:10170000FC022398F180EFE0DFD191476303F506F7
:10171000F9476307F5048D47E31CF5FA83C7C181D8
:10172000854585CFFD1793F7F70FE3E3F5FA238E91
:10173000018079BF83A7C18223980180B3D7970323
:1017400023A6018223ACF18083A7418223A20182D8
:10175000B3D7970323AAF1807DB7238EB1808DBFC5
:1017600083C5C1818547E3E5B7F68947238EF180BC
:1017700085B73717014013070780930700025CCB3A
:10178000238101821C43B706003092079183D58FD5
:101790001CC301B58547238AF18205692384F18042
:1017A000E284130989381387C185834747010347BA
:1017B0005701998F93F7F70F63EA97002685EFF0AB
:1017C0008FB06316250D23849180268C6285EFF0FF
:1017D0008FAFB70700202390A700AA846285EFF09F
:1017E0000FB62390A1822A89268523980180238E13
:1017F000018023810182EFF0FF8337170140130737
:1018000007801C4313451500B70B0020920705897C
:101810009183B70600302381AB00D58F1CC393079B
:1018200000085CCB930C800C054BEFF0FF8ECA8553
:101830002685EFE01FD3EFF0CF9F83D70181850787
:10184000C207C18363E9FC042398F180EFE07FBD08
:101850000D4783C72182630EE50C6361A706630E03
:1018600065070947E313E5FCB5EB1387C18593874B
:10187000C1850347470183C6570183C78180158F00
:101880001377F70FE3F3E7FA1389170085A88504A8
:1018900093F4F40F09BF83A7C18223980180B3D7C3
:1018A000970323A6018223ACF18083A7418223A260
:1018B0000182B3D7970323AAF18049BF1147630977
:1018C000E5087947E313E5F6ADD383C7C181E36E3D
:1018D000FBF48947238EF18089BF99CBB71701406C
:1018E000238101829387078013070002D8CB35BF7D
:1018F00083C78180E37BFBF21389F7FF1379F90F2C
:101900004A8523842181EFF00F9CB70700202390A4
:10191000A700AA844A85EFF08FA22390A1822A898A
:101920002685EFF02FF11345150005892381AB00C3
:10193000EDBD83C7C181638A670109476387E700FB
:10194000E39507EE238E6181CDB5238E0180F1BD35
:1019500003C72B00E31B07EC93C717002381F18219
:10196000E9B58347470103475701998F93F7F70F6D
:1019700063F597042685EFF04F996370A904856796
:10198000370700209387873826852310F700EFF06C
:101990008F94239FA1802685EFF02F972396A18017
:1019A0002685EFF0CF992395A1802390A18213077C
:1019B000401F2397E18023849180850493F4F40FE2
:1019C0001387C1858347470103D9C180E3FB97F89B
:1019D00037170140130707801C43B70600308545C1
:1019E00092079183D58F1CC3930700085CCB4A856F
:1019F000EFE0FF8F8D49EFE0DFA2AA84FD1423986A
:101A0000A180C2043165130505B8C180EFE0FFEF86
:101A1000EFE0DF96E3E199FE83D4E18185450D4A4D
:101A20002685EFE0DF8CEFE0DF9FAA89FD19239880
:101A3000A180C2093165130505B893D90901EFE00A
:101A4000DFECEFE0BF93E3603AFFB7170140938705
:101A500007801307000898CB83D9A18085458D4A5C
:101A60004E85EFE0DF88EFE0DF9B2A8A7D1A23981E
:101A7000A180420A3165130505B8135A0A01EFE047
:101A8000DFE8EFE0BF8FE3E04AFF03DD0182EA8594
:101A900026852381018223980180238E0180370CC3
:101AA0000020EFF0AFDF13451500835C0C000589C3
:101AB000B70700202381A700014B814D054AEFF0B5
:101AC000AFE56685EA85EFE0DFA9EFE09FF603D595
:101AD00001819307800C05054205418163E4A7025B
:101AE0002398A180EFE0FF93594E6360AE06096E24
:101AF0000A05130E4E757295084102858544C9B5D5
:101B0000014B75BF03A5C1821307800C3355E50255
:101B100013831D00931D030123A6018223980180D6
:101B200093DD0D0193078002054B23ACA18003A533
:101B3000418223A201823355E50223AAA180E3F367
:101B4000B7FBEFF06F8E814D71BF794EE319C5F78A
:101B500003C521822DD503C5C181E362AAF60945DB
:101B6000238EA180A9BF03C5C18115E183570C0055
:101B70009387C7F9939C070193DC0C0163E49C00F5
:101B8000668519A02685A68C2310AC000DBFE3182E
:101B900045F383D5018203D5E1809385C5F9139D73
:101BA0000501135D0D012390A183E37AADF023902D
:101BB000A1822A8D29B703C5C18115E9E3010BF084
:101BC00003550C001308703E330595416354A8007B
:101BD00023109C0193874CED939C070193DC0C012F
:101BE000014BE3FE9CEC23109C00A68CC9BDE318BE
:101BF00045EDE3060BEC03D501821308301F3305D6
:101C0000A5416354A8002390A1839305CDF9139DAA
:101C1000050103D5E180135D0D01014B79B703C5C3
:101C2000C18111ED83570C0093874706939C0701F0
:101C300093DC0C01E37699F54A85CA8CB1B7E310C1
:101C400045E983D5018293854506139D0501135D02
:101C50000D016A8563F4A9014E854E8D2390A18202
:101C6000B9BD03C5C18115E9E30B0BE403550C00B5
:101C70001308703E3385AC406354A80023109C01C8
:101C80009387CC12939C070193DC0C01014BE37802
:101C900099E323102C01CA8C1DB5E31245E3E30040
:101CA0000BE203D501821308301F3305AD406354A6
:101CB000A8002390A18393054D06139D0501135D94
:101CC0000D01014BE3FDA9DF239031834E8DC5BB90
:101CD00003C5C181E365AADE23109C012390A18383
:101CE000F9BB03C5C181630A4501094E6307C501FC
:101CF000E31705DC238E4181D9B3238E0180C1B364
:101D0000B707002003C52700E31B05DA03C52182BE
:101D1000134515002381A1825DB305658145130537
:101D20008538EFE0CFDC37170140130707801C43ED
:101D3000B70600308D4492079183D58F1CC393075B
:101D400000085CCB930700021CCBEFE08FED2A84E8
:101D50007D1431654204130505B84180EFE0FFBAF8
:101D6000EFE0CFE1E3E384FE372401409309800CE8
:101D700081441304044011493165130505B8232A31
:101D80002403EFE09FB8EFE04FFBFD19AA94E39521
:101D900009FE93074006B384F40211659307800C93
:101DA0008145130505650D49B3D4F402EFE02FD446
:101DB000B71701409387078013070008D8CB130794
:101DC000000298CBEFE0EFE52A847D1431654204F0
:101DD000130505B84180EFE05FB3EFE02FDAE3636E
:101DE00089FE372401401309800C13040440114A72
:101DF0003165130505B8232A4403EFE01FB1EFE076
:101E0000CFF37D19AA99E31509FE1304800CB3D909
:101E1000890293074006371A014081450145994AD6
:101E2000B389F90293070002232AFA80EFE02FCC4E
:101E3000930700082328FA80372A0140130A0A4032
:101E40003165130505B8232A5A03EFE01FACEFE014
:101E5000CFEE7D142A996DF4930740063309F902F9
:101E600005659307800C8145130585BB8D4A335961
:101E7000F902EFE0CFC7B717014093870780130738
:101E8000000898CB1307000298CBEFE08FD92A8A7D
:101E90007D1A3165420A130505B8135A0A01EFE0AD
:101EA000DFA6EFE0AFCDE3E24AFFB72A0140130A15
:101EB000800C938A0A40194B3165130505B823AA93
:101EC0006A03EFE09FA4EFE04FE77D1A2A94E31541
:101ED0000AFE37757C4DB3849940130505D0335500
:101EE000950213074006371A0140130A0A80930728
:101EF0000002232AFA008145B389A90223A6A184FE
:101F0000B7B7120193870788B3D9E902B38737417E
:101F100023A4F1849307800CB357F40237A4E11192
:101F200013040430B387E702B38727413354F40224
:101F300023A28184B30789020D49B3D7E702B3070F
:101F4000F04023A0F184EFE08FBA93070008232A22
:101F5000FA00EFE00FCDAA84FD143165C204130529
:101F600005B8C180EFE07F9AEFE04FC1E36399FECF
:101F700081452285EFE0AFB7B7170140938707800F
:101F80001307000898CB8D44EFE0AFC92A847D1475
:101F900031654204130505B84180EFE01F97EFE07B
:101FA000EFBDE3E384FEEFE04FF611CD37550700B8
:101FB00013050530EFE07F95EFE00FE909C5EFE08D
:101FC000FF95EFF0EFD105671307A730239CE1845D
:101FD0009387818529472381E700A38D0184EFE062
:101FE000EFB93165130505B8EFE03F92CDBF9547D6
:101FF000238AF182856793875730239CF184514768
:10200000938781852381E700A38D01840D49EFE04B
:102010004FC1AA84FD142398A180C2043165130521
:1020200005B8C180EFE07F8EEFE04FB5E36199FE28
:10203000238101824167856793878738930CF7FF77
:10204000B7160140238E018023AEF18223AC918329
:10205000938606809C4237060030239801809207C1
:102060009183D18F9CC293070008DCCA014C054DB7
:10207000E68B3165130505B8EFE03F8903A9C183FD
:1020800083A481831315090193950401C1814181C2
:10209000EFE02FCD83D701811307800C8507C2079E
:1020A000C1836374F7008147054C2398F180EFE00A
:1020B0004FB7D147E3EFA7FA89679387077B0A05F4
:1020C0003E951C41828783C7C1818DE385671309D3
:1020D000C9F9938737CE63F5270123AE218351BF1A
:1020E0008567938747CE23AEF18261B7E393A7F963
:1020F000638B74019384C4F99307301F63F99700CD
:1021000023AC9182BDB78564938484BBD5BF93070C
:10211000401F23ACF182B1BF83C7C18185E7630152
:102120000C028567130949ED938737CE63F52701C4
:1021300023AE218331A08567938747CE23AEF182FA
:10214000014C05BFE39EA7FFE30C0CFE638B7401FB
:102150009384C4F99307301F63F9970023AC9182ED
:10216000C5B78564938484BBD5BF9307401F23AC58
:10217000F182F9B783C7C18189EB956713094906D5
:1021800093878720E3E127F789BFE394A7EF85676B
:1021900093844406938787BBE3F497F623AC91833B
:1021A000C9BD83C7C18199EBE30C0CF8956713098E
:1021B000C91293878720E3E327F99DBFE392A7F92C
:1021C000E3000CF8856793844406938787BBE3F7A5
:1021D00097F8C167FD1761BF83C7C18191C7E39AB3
:1021E000A7E9238E018071B5238EA18159B5FD77B2
:1021F0009387C7313E99916793874752E3EB27E76F
:1022000085679385C4E09387479C63F4B700E392A6
:1022100074E7EFE08FCF19C937454900130505E092
:10222000EFE0AFEEEFE0EFC8E31B05D885679387DB
:10223000A730239CF18413878185A9472301F700E8
:10224000A38D0184EFE08F933165130505B8EFE0AE
:10225000CFEBCDBF9947238AF182EFE08FC56304AE
:1022600005AC23AE018223AC0182EFE00FCA19C98D
:1022700037454900130505E0EFE02FE9EFE06FC3B4
:10228000E30F05D205671307A730239CE1849387EA
:10229000818529472381E700A38D0184EFE00F8E1C
:1022A0003165130505B8EFE04FE6CDBF6385090042
:1022B00081496FF00FAE814513058039EFE02F8320
:1022C0008D4BEFE00F96AA89FD192398A180C209D2
:1022D0003165130505B893D90901EFE00FE3EFE08D
:1022E000EF89E3E03BFFE9B7B71602409C4E41118E
:1022F00006C693E717009CCE3708014083274800A5
:10230000370790FF7D17F98F37070004D98F2322F5
:10231000F800B7170140138707801043B70510FF77
:10232000FD156D8EB70530004D8E10C31043B705F7
:102330000040B7080200120611824D8E10C3D04F24
:1023400045757D151376F6F013660608D0CF23A0E9
:10235000170390430D6E7D73698E3366C60190C37B
:10236000D04F1303F30F698E3366C601D0CFD04F21
:10237000419A13663600D0CF104333766600136659
:10238000063010C31043698E3366C60110C39043F4
:102390001376F6F01366060390C3138607C008424F
:1023A0001375F5F01365050308C2C84F3375650052
:1023B00013650530C8CF930700025CCB9C4E2D47B8
:1023C00093E717209CCEB727014093870740B8CBEF
:1023D00037B76D1B1307B76DD8C798CB37070E00FB
:1023E000050798C73D47B8CB1387F5FFD8C798CBEB
:1023F0009C4E3707004493E717019CCEDC4AB3E7B5
:102400001701DCCA5C42A207A183D98F5CC2832773
:1024100088013777024093E70730232CF800938731
:10242000418AC207C1832318F700F977A107231057
:10243000F700F157A304F700EFE01F8AEFE00FCE9B
:10244000EFF00F8A5D713AD2377702403ED0834772
:10245000970086C696C49AC29EC022DE26DC2ADA7F
:102460002ED832D636D442CE46CC72CA76C87AC678
:102470007EC493F70702BDC78347970085468D8BBF
:10248000639AD7048356A70015476375D7049386CC
:10249000C18583D486041384C185139704014187C1
:1024A0006345070E13D6C4001D8A13F7F4016317A2
:1024B00006100D466309C70C1946630FC70E631655
:1024C000F70C2383E60283C74602850793F7F70FCD
:1024D0002382F602377702408347970093E707028B
:1024E000A304F700B777024003C79700620761872C
:1024F0006357070403D7C700C166BD16758F2396BF
:10250000E70003D7E700C166BD16758F2397E70084
:10251000130770072391E70003C747008546137729
:10252000C70F136727002382E7001387C185A30223
:10253000D70203C7970013670708A384E700B7779C
:10254000024003C797001377070409CB03C797001E
:1025500013670704A384E700EFE0AFE17254B640CD
:10256000A64216438643E2545255C2553256A256ED
:10257000125782577248E248524EC24E324FA24F13
:102580006161730020309D471CC01305005AEFE0C5
:10259000CFB78567A3020402938707E0FD8C8347CA
:1025A000640193E4140009458D8B9A07DD8C231494
:1025B0009404EFE0AFE239BFA147F9B7E317F7FCA6
:1025C0008D471CC093D7C4009D8B230AF40093D77A
:1025D00064008D8B230BF4001307840481471305DB
:1025E000C406F146834527003306F500850723001E
:1025F000B6000507E398D7FE49BF89679387872E02
:1026000097E1FF1F93810120173100201301819F63
:102610007D45731005BC13058008732005308D457A
:1026200073904580130540004D8D731055307390A5
:1026300017340D67B70700201307878193870700BA
:102640009386818063E8D702938781801387418EC8
:1026500063E7E702B7270240094798C3B71702406C
:1026600023A2070037F700E0954614C3714798CFBF
:10267000730020301443110794C39107D1B723A0EE
:1026800007009107E1B70000FC0000001201000004
:102690002E010000500100007601000094010000AE
:1026A000B6010000BA010000C2010000D401000020
:1026B000DC010000F80100000E020000240200000E
:1026C000420200004A020000640200008202000090
:1026D0008A0200008E02000092020000A4020000A4
:1026E000AC020000BE020000D0020000700E00002C
:1026F0007A0E0000800E0000AA0E0000880F000075
:102700007A0E00007A0E00007A0E0000A40F00007E
:10271000BA0F000068150000BA150000C8150000C7
:10272000D6150000E4150000E4150000F0150000C7
:10273000F81500005816000094170000FC1A00005D
:102740001A1D0000B6150000EE1F00005422000004
:10275000AC220000001B0000661B00001E1C0000D5
:10276000E21C0000001D0000BE1A0000BE1A00009E
:10277000BE1A0000BE1A0000BE1A0000B61B000000
:10278000D01C0000BE1A0000BE1A0000BE1A0000D5
:10279000BE1A0000BE1A0000BE1A0000BE1A0000D9
:1027A000BE1A0000621C0000BE1A0000D01C00000F
:1027B00040210000C620000074210000D821000044
:1027C000EE21000072200000722000007220000044
:1027D000722000007220000018210000722000000A
:1027E00072200000722000007220000072200000A1
:1027F0007220000072200000722000007220000091
:10280000A22100000005FF0105FF0201050703FFEB
:082810000406FF05FFFF0000B4
:082818008813012C00000000F0
:00000001FF
