:040000006F2050001D
:100004000000000000000000EC0B0000EC0B0000FE
:1000140000000000EC0B00000000000000000000E5
:10002400EC0B0000EC0B00000000000000000000DE
:10003400EC0B000000000000EC0B000000000000CE
:10004400EC0B0000EC0B0000EC0B000000000000C7
:10005400EC0B0000EC0B0000EC0B0000EC0B0000C0
:10006400EC0B0000EC0B0000EC0B0000EC0B0000B0
:10007400EC0B0000EC0B0000EC0B0000EC0B0000A0
:10008400EC0B0000EC0B0000EC0B0000EC0B000090
:10009400EC0B0000EC0B0000EC0B0000EC0B000080
:1000A400EC0B0000EC0B0000EC0B0000EC0B000070
:1000B400EC0B0000EC0B0000EC0B0000EC0B000060
:1000C400EC0B00004E260000EC0B0000EC0B0000D3
:0C00D400EC0B0000EC0B0000EC0B00003B
:1000E000E14763EBA70E8D67938707890A053E9565
:1000F0001841B7170140938707800287BD4694CB0C
:10010000B7170140938707C0B716020094CB371783
:100110000140A9471CCBB7070400A5071CD3828068
:1001200037070C000D0798CBB7170140B7160140F1
:10013000938707C03717020098CBB7070A00A1A022
:100140003D4798CBB71701400567938707C009075C
:1001500098CBB7070200B7160140A1079CCAB707A2
:100160000500A1078DA8370708001D0798CBB71712
:1001700001400567938707C0090798CBB7070200BE
:10018000B7160140A1079CCAB7070400A507A1A0A4
:1001900037070C00B71601400D0798CBB717014081
:1001A0000567938707C0090798CBB7070800890739
:1001B000D9BF37070800B71601401D0798CBB717FE
:1001C00001400567938707C0090798CBA9479CCAD8
:1001D000B7070C0085079CD28280B71601403D47C7
:1001E000F1BF37070C000D0798CBB7170140B716C2
:1001F0000140938707C03717020098CBA94761B722
:10020000B71601403D4798CBB71701400567938764
:1002100007C00907DDB737070800B71601401D07FB
:10022000DDB737070C000D0798CBB7170140B7169D
:100230000140938707C03717020098CBB7070A0021
:1002400025A837070C00B71601400D0798CBB71744
:1002500001400567938707C00907C5B73707040042
:10026000B71601402D0798CBB71701400567938754
:1002700007C0090798CBA9479CCAB7070D00A1BFC3
:10028000370704002D0798CBB7170140B716014078
:10029000938707C03717020098CBB7070800890774
:1002A000E1BF37070400B71601402D07FDB537073A
:1002B00004002D0798CBB71701400567938707C047
:1002C000090798CBB7160140A94749BDBD4694CB55
:1002D000B7170140938707C0B716020094CB3717B2
:1002E0000140A9471CCBB7070D000DBD370704001F
:1002F000B71601402D0701BFBD4694CBB71701408B
:10030000938707C0B716020094CBB70708003717CA
:1003100001408907C1BFB71601403D47A9B73D4716
:1003200098CBB71701400567B7160140938707C000
:1003300009079DB737070400B71601402D0739B7E5
:10034000BD4694CBB7170140938707C0B71602008C
:1003500094CB37170140A9471CCBB7070C00850782
:1003600075BB3D4798CBB71701400567B7160140ED
:10037000938707C00907C9B3370704002D0798CB37
:10038000B71701400567938707C0090798CBB707E0
:100390000800B71601408907D1B389679387F770C2
:1003A00063E8A70229473355E502854742054181A5
:1003B00085CD93074006B357F5023355E50293F711
:1003C000F70F3375E5020947A38FE184294725A874
:1003D000E1679387F76963E1A70493074006335504
:1003E000F502894742054181A38FF184A946B3579D
:1003F000D502130740063357E502B3F7D702137748
:10040000F70F3375D502238EE1841387C185A300CE
:10041000F7002301A70082809307803E3355F50241
:10042000814742054181C9B7411126C222C403C494
:1004300041804AC006C60549630124039307C002F0
:10044000630FF4022DC09307C002B24022442382FE
:10045000F180024992444101828003C5C18549313E
:10046000B7170140938707C00567D8CB83C7F185CD
:10047000E39B87FCB7170140114798D3E9B703C541
:10048000D185B939B71701409387078023AA27017F
:1004900003C7F18589476316F700B7170140114775
:1004A00098D381475DB703C5E1851D39B717014072
:1004B000938707800947D8CB03C7F1858D4763161B
:1004C000F700B7170140114798D38547BDBFB7174D
:1004D000014090479315E60083C6818503C741809C
:1004E00063DA050699EA11EB9146A38BD18405479F
:1004F000238CE1841305F00F828005466305C70055
:10050000238CC184C5BF83C5718591E1A9E2238C89
:10051000E18403C6818503C5618541C203C6718537
:100520006313A60683D641858506C206C182239A37
:10053000D1841307A00F637DD704238C0184A38B80
:100540000184A9473305F5021375F50F8280A38B4B
:10055000E18475BF9DC211CF8546E31DD7F803C660
:100560007185894601C6238C01848146A38BD18481
:100570004DB70D47A38BE184B5BFA38B018485469E
:10058000E309D7F885BF8545239AB184238BC184BD
:10059000A38B0184238C0184A9A031C183D541851B
:1005A0001308A00F637CB800238C0184239A018474
:1005B000A38BA184238B0184AD4769B70948637B72
:1005C000B800239A0184A38BA184238B0184238CFC
:1005D00001848280238B0184239A018455BF239A4E
:1005E000018401458280B7270140938707409847DF
:1005F000B70640001367170098C79847558F98C7EC
:100600009843098B75DFE84742054181828003C624
:100610000183411106C683C7C1813DC60547638278
:10062000E7020947638DE70285EB03A581818145D8
:10063000AD33B71701409387078013070008D8CB65
:1006400021A803A541818145893BB71701409387C4
:1006500007801307000898CBB2404101F1B303A70C
:10066000418183A781811305803E8145B387E702DD
:1006700033D5A7021D33B717014093870780D847AA
:1006800013470708D8C7C9BF05466388C70009478D
:100690006382E704F1F3854561BFB7170140938793
:1006A00007809306000894CBC167FD172E87639FD0
:1006B000F50005671307A7B0239EE1849387C185E2
:1006C00029472381E700A38F018479B785453A85BF
:1006D000E93159B7238E01807DBFB7270240D84743
:1006E00093761700EDFE9376070289E623A80700AC
:1006F00001458280D8C705458280411106C622C4C3
:1007000026C24AC0D93FB7C70008938707F0844381
:1007100023A89184D937B7C70008938747F003A966
:100720000700FD1423A621854D3FB7C70008938716
:1007300087F0804323A481844D37B7C7000893878F
:10074000C7F09C43014523A2F1847557636B970062
:10075000FD566308D9007D1463658700850733352E
:10076000F000B2402244924402494101828041118A
:1007700006C622C49D37B7C70008938707F1804398
:1007800023A08184993FB7C70008938747F19C4312
:10079000014523AEF1827D771307C7313A94116783
:1007A00013074752636F870005679386C7E01307F7
:1007B000479C05456377D70041770507BA9713B57E
:1007C0001700B2402244410182805D714EDE83A950
:1007D0000185A6C283A48184CAC003A9C184B3E7EA
:1007E000990086C6A2C452DC56DA5AD85ED662D4C4
:1007F00066D26AD0B3E727018DE38144B640264430
:100800000649F259625AD25A425BB25B225C925C50
:10081000025D2685964461618280C135B7C70008B4
:10082000938787F18043FD57E319F4FC7D35B7C703
:1008300000089387C7EF9C43E39187FCB7270240EA
:10084000984B13770708631E070EB7270240984B93
:100850009316070163C70610493537240240B707CE
:1008600002001CC8B7C70008938707F05CC81C4883
:1008700093E707041CC8953549D12328040083A7B2
:1008800041844EC04AC23EC683A7018426C43EC8E6
:1008900083A7C1833ECAFD573ECC3ECE1C4893F78A
:1008A0000708E5E3B7270240984B9316070163CA90
:1008B000060E2535B7270240416737CA0008B7CA78
:1008C000000898CB014937240240370B0800854BBC
:1008D0007D5C130A0AF1938A0AF01C48B3E76701AA
:1008E0001CC8E53BE30B05F0B7C40008131D490025
:1008F0008A89938404F0B70C04006314090C83A75D
:1009000009009CC01C4891049109B3E797011CC8D9
:10091000E933E39444FF232A54011C4893E7070476
:100920001CC8653BAA84E30A05EC0509C147E31628
:10093000F9FA232804005533A167938707081CC8D8
:1009400075BD3707674513073712D8C33797EFCD03
:100950001307B79AD8C39C4B93F70708E38707EEB2
:1009600069BD3707674513073712D8D33797EFCDDF
:100970001307B79AD8D39C4B13970701E35E07EC94
:10098000ADBDB7076745938737125CC0B797EFCD0A
:100990009387B79A5CC01C4893F70708E38407F075
:1009A000A9BD3707674513073712D8D33797EFCD5F
:1009B0001307B79AD8D39C4B13970701E35B07EE55
:1009C0002DBD6316790183A709019CC825BFB30714
:1009D0009D0023A087013DB7B7F700E09C4737F79C
:1009E00000E03E951C47898FE3CE07FE828001110F
:1009F00006CE22CC26CA4AC84EC6013319E98D4715
:100A0000F2406244238CF182D2444249B2490561EA
:100A10008280B7140140938404C0DC40B709F1FF21
:100A2000FD1937070400B3F73701D98F3714014098
:100A3000DCC0130404801C403165130505B893F72E
:100A4000F7F093E707041CC01C4037190140C19B15
:100A500093E737001CC085471CC8BD3F03278900AA
:100A600081479316E70063D806021C40370703004E
:100A70003165C19B93E747001CC0DC40130505B8F6
:100A8000B3F73701D98FDCC085679CC8B13783279E
:100A90008900C583858BB7160140938606C0D8426E
:100AA0003706F1FF7D16718F37060300518FD8C2CC
:100AB00037170140130707801443C19A93E63600A5
:100AC00014C3144393F6F6F093E6060314C385FBB0
:100AD0007939914715F51387018683465701894770
:100AE00085F28347470103475701998FB337F000D9
:100AF00001BF4111B727014093870740114706C640
:100B0000D8DBD53483A701851307803E3305F50272
:100B100083A7C1843355E502B3C7E7023E95B70703
:100B2000002083D7270023AAA1829387773E63D52D
:100B3000A70A83C6018399CE23880182B717014093
:100B40009387078093060002D4CBB7070020854621
:100B50002380D70083A7C18203A741833165130592
:100B600005B8BA9723A6F182853DB7270140938740
:100B700007401947D8DB853C83A781841307803E53
:100B80003305F50283A741843355E502B3C7E70275
:100B90003E9583D7418223A4A1829387471F63D2C6
:100BA000A70483C6018399CE23880182B717014029
:100BB0009387078093060002D4CBB70700208546B1
:100BC0002380D70083A7018203A78182B240BA970E
:100BD00023A0F18241018280E35E05F623AA01820F
:100BE00095BFE35105FE23A40182E9BF01A09387CD
:100BF0000186DC470A05AA9703D5E7FF8280938721
:100C0000018603C7470183C65701158F1377F70F76
:100C10006368A700DC470A05AA9703D5E7FF82802F
:100C2000198D19473305E5029C4BAA9703D5A7FFF9
:100C300082809387018603C7470183C65701158FBA
:100C40001377F70F6368A700DC470A05AA9703D557
:100C5000E7FF8280198D19473305E5029C4BAA975F
:100C600003D5C7FF82809387018603C7470183C6E8
:100C70005701158F1377F70F6368A700DC470A0544
:100C8000AA9703D5C7FF8280198D19473305E5025E
:100C90009C4BAA9703D5E7FF8280B77702401307E2
:100CA000200A2396E7002397E70093870186A38411
:100CB00007002385070023840700238A0700A38AEF
:100CC000070023A0070023A207002382070213873F
:100CD0008702A3820702D8C71387C70323830702AB
:100CE00098CB0547238BE70023810702238DE7007C
:100CF000A38DE700056713078738239EE70023903D
:100D0000E7028280B777024003D70700118B15CB2B
:100D100003D7E700136707012397E700B77702407F
:100D20001307F0042391E700A38207002393A70091
:100D3000A384070003C74700136737002382E70037
:100D4000828003D7C700136707012396E700F9B72E
:100D50009387018603C5A70183C6470283C5670140
:100D600005689D8AA60609088D899A05B3E60601DD
:100D7000CD8E83C5470183C757011376F50F1387BF
:100D800001869D8D9317C50163D6A5040356C7013F
:100D9000D1453356B6028565FD156D8E2606D18F79
:100DA0000356E701930520033356B602B705000347
:100DB0001376F6074D8EB70500FD938505F8ED8F88
:100DC000D18F2315F7041945C1832314D7042316A3
:100DD000F7040DBF7D160A063A9603568602A9450A
:100DE000370500033356B6021376F63F9315A60077
:100DF000498E4D8EF1B7797122D426D24AD04ECE8B
:100E000052CC56CA5AC85EC666C29387018606D6B9
:100E100062C46AC02390070237BA03008D6A056B6B
:100E2000238107029304F00F13840186130A0A98A2
:100E3000B77C0240894B05499549938A4A8F130B29
:100E4000FBE18347240213FDF70F89E7FD1493F4B8
:100E5000F40F8DE0B25022540259F249624AD24A4C
:100E6000424BB24B224C924C024D3335900092547F
:100E70004561828052858D3683D7CC004167130748
:100E8000E7F1F98F2396FC0083D7CC00C1669386E7
:100E9000E6F193E707042396FC0003D7CC0083D741
:100EA000EC004207F58F2397FC0083D7EC004183C9
:100EB00093E707042397FC0083D6EC008947858AD3
:100EC00099E293771700035784010507420741838E
:100ED000231CE4001840631E2703639F2707230594
:100EE00004000347940005071377F70FA304E400F9
:100EF0000347940063FFE900A3040400094718C0F6
:100F00003776024003570600C166ED16758F231031
:100F1000E60018406378E902B5EF8347840085074F
:100F200093F7F70F2304F4008347840063FCF90070
:100F30002304040023200400B7E700E03707020081
:100F400023A2E718032C04001C4025476360F70622
:100F50008A07D6979C438287A3040400639977038A
:100F60000347A40005071377F70F2305E4000347A1
:100F7000A400E3F0E9FA230504001CC0B7760240A0
:100F800003D70600136747002390E60059B72305EF
:100F9000040041B72304040075B7B7E700E0370742
:100FA000020023A2E718D53923202401232284013B
:100FB00049BD58401C40E30BF7FE9307700723918F
:100FC000FC0083C74C003707020093F7C70F93E775
:100FD00027002382FC00B7E700E0A388074223A292
:100FE000E710E9B783475402F1D3A3020402B7E73D
:100FF00000E0370702000328C400144823A2E718C2
:10100000A30A0400B70800F0370300C0294E930577
:10101000200319461305400683474401636BFD0016
:10102000B7E700E03707020023A2E71091471CC092
:10103000B5BF13172D00B307E400FC57B3FE17012B
:1010400063926E060347540193DE170193FEFE0F71
:101050003307C702B38EAE0236972311D701034779
:10106000540193DE870093FEFE0F3307C70293F708
:10107000F707B38EAE0236972310D701034754010A
:10108000B387B7023307C70236972312F7008347A7
:101090005401850793F7F70FA30AF400050D137D9C
:1010A000FD0F9DBF93FEF73FA98393F7F73FB38EE4
:1010B000CE034297B387B7022310D7012311F7005D
:1010C000F1BF58401C406303F70059318347640265
:1010D000E38E07EC2303040223203401C1BD8347C0
:1010E0005402E38507ECA3020402A5471CC0231C9D
:1010F00004006DBD230124030347A4018347B40109
:101100006318F7000357C40183570402E300F7EAAA
:101110008347A401094593F7F70FA30DF400835704
:10112000C401C207C1832310F402230104028347D0
:101130004402034764019D8BA60793E777000D8B5C
:101140001A07B3F76701D98F2314F404653EA94742
:10115000F9BD411122C406C613840186230DA400E3
:10116000231EB4000936231FA4002244B2404101CB
:1011700059B19387018603C7470103C6570183A866
:10118000070103A8C700118FAA851377F70F8147BE
:1011900093860186194303C6460163E4C7000145EF
:1011A00082801385170063FBE7008A07C29783D705
:1011B00027006391B7021375F50F61BF998FB3874D
:1011C0006702C69703D6070063E6C50083D72700EA
:1011D000E3F3B7FE9377F50F7DBF13860186834651
:1011E0004601834756010346560193F6F60F93F7DF
:1011F000F70F1387018611CE9D8E0328070193F602
:10120000F60FB6879948130310030346470163E4BA
:10121000C700014582803386D74033061603850711
:101220004296035E06006365C503035E26006361A4
:10123000AE0203564600636DB600637BB30093F7BE
:10124000F70F230DF700231EA700231FB70065B675
:1012500093F7F70F5DBF03C781838947631CF70AC4
:10126000B7170140938707809847411122C4B706FA
:10127000002006C626C21377070203D426002DE7F6
:1012800003C7018335C3B704002003C7040029EF57
:101290001307000298CB83D5418222853D3F133549
:1012A00015002380A4009387018603D7C701631824
:1012B000870083D7E70103D741826302F70283C720
:1012C000018391CFB704002083C7040089EB83D545
:1012D000418222851937133515002380A400B240BE
:1012E000224492444101828098471377070245DFE8
:1012F00003C701834DFB13070002D8CB83D541827E
:1013000003D5E181D93D13351500B70700202380AF
:10131000A70051BF03C70183B71701409387078018
:1013200011CB370700200347070009E71307000226
:1013300098CB828013070002D8CB8280797122D4A7
:1013400026D24AD04ECE52CC56CA5AC85EC662C4C5
:1013500006D60144B70A00208549854BED3D83D56B
:10136000418203D52A00EFF08FAAEFF08FF883D7E0
:1013700001811307800C8507C207C1836364F702EC
:101380002398F180EFF0AF948D47630FF504F94790
:10139000E316F5FC83C7C181E3E2F9FC8947238E9C
:1013A000F1806DBF83A7C18223980180B3D7E70284
:1013B00023A6018223ACF18083A7018223A00182AE
:1013C000B3D7E70223AAF18003C781838947E31BD0
:1013D000F7FA05044204418093078002E3F487FA98
:1013E000EFF01F97014479BF83C7C18189CBFD17F7
:1013F00093F7F70FE3E4F9F6238E018085B7238E88
:101400007181A9BF056779711307B7B022D44AD09B
:1014100052CC56CA5AC85EC6239EE18406D693872C
:10142000C18526D24ECE62C466C22D472381E70015
:10143000C16A23840180A38F01840544138A018635
:10144000FD1A83474A0183A9018463F787088567EA
:10145000938787386392F91483A6C183C167FD1708
:10146000639CF61283C7818063980712B707002038
:10147000239137018567938707962392F182238C06
:1014800001822398018037170140238E01801307C2
:1014900007801C43B706003092079183238801829E
:1014A000D58F1CC3930700085CCBB70900202380AD
:1014B000090023A6018223A00182EFF08FE383C7F6
:1014C0000900638207143164130404B8EFE0DFF508
:1014D0002285EFF06FD0DDBF83474A0103475A01F1
:1014E0002285998F93F7F70F63E98702EFF02FF0CA
:1014F000631C350983A7C18363985709B707002088
:101500002391A7002285EFF00FF62392A182238476
:1015100081800547238CE18285A8EFF04FEE63E5DB
:10152000A9062285EFF0EFF0636035072285EFF022
:101530008FF383A4C18363769500C167FD1763951C
:10154000F40483CC818063980C02B70700202285C5
:1015500023913701EFF0AFEA239FA180C167FD1708
:101560006398F4022285EFF00FF02392A182238486
:101570008180094745B72285EFF0EFEE2A8C66851A
:10158000EFF06FEEE36385FD05041374F40F55BDB2
:10159000139504014181D1BF83C7818309476384C7
:1015A000E7046366F702E38E07ECB707002083D5F4
:1015B000270003C58180713EE31505EC31641304F7
:1015C00004B8EFE07FE62285EFF00FC1DDBF0D47E5
:1015D000E389E7EA3164130404B8EFE0FFE422850D
:1015E000EFF08FBFDDBF83D5418203D5E181F536B2
:1015F000E31905E83164130404B8EFE0FFE2228543
:10160000EFF08FBDDDBF03A7C18285472388F1823C
:1016100023ACE18003A70182B25023A001822254AF
:1016200023A6018223AAE18092540259F249624A18
:10163000D24A424BB24B224C924C456182803717C2
:101640000140130707801C435D71A2C49207918378
:10165000B7060040A6C2CAC04EDE52DC56DAD58FAD
:1016600086C65AD85ED662D466D26AD06ECE239829
:1016700001808D6A1CC39387CAA03EC28D67938781
:10168000C7913EC485679387475185498144231696
:10169000F100EFE07FD93165130505B8EFF0CFB366
:1016A00083CB81838D471247B387FB02BA97A697F6
:1016B00003CB07009D4763E36703224793172B0083
:1016C000BA9794431387C18582869306A050239EC0
:1016D000D184A9462301D700A38F0184EFE03FDF27
:1016E0008D476309F50C63E4A7080547630FE50818
:1016F0008947630EF50A03C781839147E31BF7F817
:10170000E38909F883D701811307007D8507C207A4
:10171000C1832398F180E37EF7F623980180DD31C1
:10172000313985669386C6D0239ED184B9465DB78C
:1017300085669386F6F0239ED184954661BF8566C3
:1017400093860611239ED184C94669B78356C1008A
:10175000239ED184D946BDBF856693867631DDB799
:10176000856693868631239ED184D546A5B7914759
:10177000E313F5F89D47E3E067F90D6793172B0036
:101780001307C793BA979C4382878149E36595F60F
:10179000B387FB021247BA97A69703C717009307B0
:1017A000F00FE30AF7F4850493F4F40FA9B7A1D47A
:1017B000FD14DDBFE391ABF4814935BF056BB7077D
:1017C0000020130B8B38856B23916701370C0020A9
:1017D000938B0B9623927183238E01802388018241
:1017E0002398018023000C0023A6018223A00182FC
:1017F000EFF02FB083450C0085472388F182E39CEE
:1018000005EEB7150140938505801305000288C9D0
:101810002388F18283A7C18223A6018223ACF180B1
:1018200083A7018223A0018223AAF1809C4137056E
:10183000003092079183C98F9CC193070008DCC9CF
:10184000EFF07FA1DE855A85EFE07FDCEFF06FAA35
:1018500083470C00E39107EA83D701819308800C4A
:101860008507C207C18363EEF8022398F180EFE099
:101870001FC691476308F506F947630BF5048D47CA
:10188000E310F5FC83C70183C5DF83C7C1818DCF1A
:10189000FD1793F7F70F8545E3E4F5FA238E0180F2
:1018A00045B783A7C18223980180B3D7170323A626
:1018B000018223ACF18083A7018223A00182B3D7E8
:1018C000170323AAF18065B78547238EF1808DBF6A
:1018D00083C70183B5D783C5C1818547E3E2B7F6E6
:1018E0008947E5B7B7160140938606809307000243
:1018F000DCCA9C423707003023880182920791831B
:10190000D98F9CC2CDBB85478564238CF18223840B
:10191000F180938901869384843883C7490103C782
:101920005901998F93F7F70F63E967015A85EFF033
:101930000FAC6315950C2384618183C48180370BC0
:1019400000202685EFF0AFAAAA8A2311AB002685D6
:10195000EFF06FB1B71C01402392A1825685938CA2
:101960000C8023980180238E018023880182EFF070
:101970005F8083A70C00370C0020133515009207F9
:101980009183B70600302300AC00D58F23A0FC0064
:101990009307000823AAFC00854AEFF0DF8B83D56C
:1019A000418203552B00EFE09FC6EFF08F9483D761
:1019B00001811307800C8507C207C1836364F704A4
:1019C0002398F180EFE0BFB08D47630CF50C63E026
:1019D000A706630F55078947E311F5FC83C7018309
:1019E000BDEB83C6490103C6590183C78180918E2F
:1019F00093F6F60FE3F3D7FA850795A8050B137B4B
:101A0000FB0F21BF83A7C1821307800CB3D7E70266
:101A10002398018023A6018223ACF18083A7018251
:101A200023A00182B3D7E70223AAF18061BF9147C7
:101A30006307F508F947E312F5F683C70183B1DFC1
:101A400083C7C181E3EBFAF48947238EF180B1B7F4
:101A500083C7018381CB238801829307000223AAD5
:101A6000FC0025BF83C78180E3F9FAF2FD1793F7E5
:101A7000F70F3E852384F1803EC4EFF04F97A247D5
:101A80002311AB002AC23E85EFF0EF9D92462392D0
:101A9000A1823685EFF0EFED133515002300AC0081
:101AA000EDBD83C7C18189CBFD1793F7F70FE3E63F
:101AB000FAEE238E0180D5B5238E5181F9BD83477F
:101AC0000C00E39C07EC83C7018393C717002388AE
:101AD000F182E1B583C7490103C75901998F93F793
:101AE000F70F63F197062685EFF0AF94637CA904A6
:101AF0008567370700209387873826852311F700ED
:101B0000EFF0EF8F239FA1802685EFF08F92239631
:101B1000A1802685EFF02F9505678567130777BBB2
:101B2000938787BB6366A7002685EFF0CF93AA87CC
:101B30002395F1802392F1821307401F2397E180C0
:101B400023849180850493F4F40F83C7490103D95A
:101B5000C180E3F197F837170140130707801C4352
:101B6000B7060030854592079183D58F1CC3930734
:101B700000085CCB4A85B169EFE03F82938909B8E0
:101B80000D4AEFE0DF94AA84FD14C2042398A180DB
:101B9000C1804E85EFE05FE4EFE01F89E3639AFECA
:101BA00083D4E1818545316A2685EFE00FFF130A72
:101BB0000AB88D4AEFE0BF91AA89FD19C20923989E
:101BC000A18093D909015285EFE01FE1EFE0DF85A5
:101BD000E3E23AFFB7170140938707801307000835
:101BE00098CB83D9A1808545B16A4E85EFE0EFFAA5
:101BF000938A0AB80D4BEFE09F8D2A8A7D1A420A1C
:101C00002398A180135A0A015685EFE0FFDCEFE02C
:101C1000BF81E3624BFF83DD4182EE8526852398F9
:101C20000180238E018023880182EFF00FDBB7074C
:101C3000002013351500370B00202380A700835B9D
:101C40002B008D679387C795814A014D3EC2EFF007
:101C50008FE05E85EE85EFE09F9BEFE09FE903D587
:101C600001819307800C05054205418163E4A702C9
:101C70002398A180EFE0BF8559436360A306924794
:101C80000A053E950841028585449389018675BD04
:101C9000814A75BF03A5C1821307800C3355E50245
:101CA00093081D00139D080123980180135D0D0109
:101CB00023A60182854A23ACA18003A5018223A02B
:101CC00001823355E50223AAA18013058002E37344
:101CD000A5FBEFF0EF87014D71BF7943E31965F67E
:101CE00003C501832DD503C3C1810545E36165F6B5
:101CF0000945238EA180A1BF03C5C18115E103550C
:101D00002B001305C5F9AA8742054181637395002D
:101D1000A687939B07012311FB0093DB0B0105BFF3
:101D20000543E31665F283D5418203D5E1809385AF
:101D3000C5F9C205C1812392B18263F4A500239243
:101D4000A18283DD418221B703C5C18115E9E3800A
:101D50000AF003552B001308703E33057541635498
:101D6000A80023117B0193874BED939B070193DB25
:101D70000B01814AE3FD9BEC23119B00A68BC1BDA7
:101D80000543E31665ECE3840AEC03D541821308AE
:101D9000301F3305B5416354A8002392B183938566
:101DA000CDF903D5E180939D050193DD0D01814AB5
:101DB000E3FFADE82392A182AA8D51BD03C5C18185
:101DC00001ED03552B0013054506AA874205418105
:101DD000E371A9F4CA8735BF0543E31A65E603D565
:101DE000418213054506AA854205418163F3A90096
:101DF000CE85939D05012392B18293DD0D0181BDB6
:101E000003C5C18115E9E3840AE403552B001308D7
:101E1000703E3385AB406354A80023117B01938748
:101E2000CB12939B070193DB0B01814AE37179E3AA
:101E300023112B01CA8B21BD0543E31A65E0E3881A
:101E40000AE003D541821308301F3385AD40635447
:101E5000A8002392B18393854D06939D050193DDE0
:101E60000D01814AE3F5B9DF23923183CE8DC5B3ED
:101E700003C3C1810545E36C65DC23117B0123921B
:101E8000B183F1B303C5C1810543630A6500094EFF
:101E90006307C501E31D05DA238E61804DBB238EE8
:101EA000018075B3B707002003C50700E31105DA09
:101EB00003C50183134515002388A18249BB05652D
:101EC000814513058538EFE04FCD371701401307E3
:101ED00007801C43B7060030B16492079183D58F09
:101EE0001CC3930700085CCB930700021CCB9384B0
:101EF00004B80D49EFE0AFDD2A847D144204268545
:101F00004180EFE07FADEFE02FD2E36589FE372916
:101F1000014031649304800C814913090940114A3E
:101F2000130404B82285232A4903EFE0FFAAEFE057
:101F30008FEBFD14AA99FDF493074006B389F902CB
:101F400011659307800C81451305056531691309F7
:101F500009B80D4AB3D9F902EFE02FC4B717014011
:101F60009387078013070008D8CB1307000298CB8C
:101F7000EFE0EFD52A847D1442044A854180EFE0EA
:101F8000BFA5EFE06FCAE3658AFEB72A0140316A58
:101F900001441309800C938A0A40114B130A0AB8B2
:101FA000528523AA6A03EFE03FA37D19EFE0AFE378
:101FB0001379F90F2A94E31509FE930740063307B6
:101FC000F4029307800C3714014013040480814508
:101FD0000145B72A01401309800C938A0A40194B26
:101FE000335AF702930700025CC8EFE00FBB930778
:101FF00000081CC83164130404B8228523AA6A03AC
:10200000EFE09F9DEFE02FDE7D19AA94E31709FE14
:1020100093074006B387F40205651307800C8145DA
:10202000130585BBB16A938A0AB80D4BB3D4E70296
:10203000EFE0AFB6B717014093870780130700089A
:1020400098CB1307000298CBEFE06FC82A847D1469
:10205000420456854180EFE03F98EFE0EFBCE36536
:102060008BFE372B0140B16A1304800C130B0B401D
:10207000994B938A0AB85685232A7B03EFE0DF95B4
:10208000EFE06FD67D142A997DF437757C4DB30946
:102090003A41130505D033553503930640063714EE
:1020A000014013040480930700025CC881458D49F8
:1020B0003307AA0223A8A184B7B712019387078820
:1020C0003357D702998F23A6F1849307800CB35717
:1020D000F90237A9E11113090930B387D702858FB7
:1020E0003359F90223A42185B3872403B16493846F
:1020F00004B8B3D7D702B307F04023A2F184EFE0CE
:10210000CFA9930700085CC8EFE06FBC2A847D1458
:10211000420426854180EFE03F8CEFE0EFB0E3E53D
:1021200089FE4A858145EFE04FA7B71701409387A5
:10213000078013070008B16498CB938404B80D4955
:10214000EFE0EFB82A847D14420426854180EFE059
:10215000BF88EFE06FADE36589FEEFE00FE711CDDB
:102160003755070013050530EFE01F87EFE0EFD884
:1021700009C5EFE0DF87EFF08FCC05671307A730C5
:10218000239EE1849387C18529472381E700316439
:10219000A38F0184130404B8EFE00FA92285EFE0B8
:1021A000BF83DDBF9547238CF182856793875730C6
:1021B000239EF18451479387C1852381E7003169CC
:1021C000A38F0184130909B80D4BEFE04FB0AA8427
:1021D000FD14C2042398A180C1804A85EFE0CFFF9F
:1021E000EFE08FA4E3639BFE23880182416D856746
:1021F000938787387D1D37170140238E018023A0E8
:10220000F18423AEA183130707801C43B706003077
:102210002398018092079183D58F1CC30D6B930780
:1022200000085CCB116693078B9B05687D7B856DF1
:10223000014A3EC2130BCB31130646521308489C89
:10224000EA8A938D8DBB3165130505B842C632C449
:10225000EFE08FF803A9018483A4C183131509015A
:1022600093950401C1814181EFE06FBA83D7018169
:102270009305800C22468507C207C183324863F468
:10228000F5008147054A42C632C42398F180EFE049
:102290000FA4D14722463248E3E7A7FA92470A053E
:1022A0003E951C41828783C7C1818DE385671309F1
:1022B000C9F9938737CE63F5270123A0218561B73C
:1022C0008567938747CE23A0F184B5BF8545E39CFE
:1022D000B7F6638B54019384C4F99307301F63F9F5
:1022E000970023AE918285B78564938484BBD5BF64
:1022F0009307401F23AEF182B9B783C7C18185E739
:10230000630B0A008567130949ED938737CE63F69F
:10231000270123A02185014A3DB78567938747CED2
:1023200023A0F184CDBF8545E397B7FEE3050AFE00
:10233000638B54019384C4F99307301F63F99700AA
:1023400023AE9182C9BF8564938484BBD5BF9307B4
:10235000401F23AEF182C1B783C7C18189EB956766
:102360001309490693878720E3EF27F5B9B7854519
:10237000E39BB7EC93844406E3F59DF623AEA1837B
:10238000D9B583C7C18199EBE3070AF895671309AB
:10239000C91293878720E3E527F9A5BF8545E39C0C
:1023A000B7F6E30A0AF693844406E3FB9DF8C16797
:1023B000FD1745B783C7C18199C78545E395B7E840
:1023C000238E018049B58547238EF180ADBD5A9992
:1023D000E36B26E79387C4E06374F800E39554E762
:1023E000EFE0AFBE19C937454900130505E0EFE03E
:1023F000AFDEEFE0CFB7E31E05D685679387A73042
:10240000239EF1841387C185A9472301F700316416
:10241000A38F0184130404B8EFE00F812285EFE05D
:10242000AFDBDDBF9947238CF182EFE04FB463044B
:1024300005AC23A0018423AE0182EFE00FB919C9D6
:1024400037454900130505E0EFE00FD9EFE02FB263
:10245000E30105D205671307A730239EE184938724
:10246000C18529472381E7003164A38F01841304C8
:1024700004B8EFD07FFB2285EFE00FD6DDBF639D70
:1024800009B2814513058039B16BEFD01FF1938BF1
:102490000BB80D4CEFE0AF832A8B7D1B420B2398CA
:1024A000A180135B0B015E85EFE00FD3EFD0DFF768
:1024B000E3626CFF6FF02FA4371602401C4E4111EF
:1024C00006C693E717001CCE370801408327480053
:1024D000370790FF7D17F98F37070004D98F232224
:1024E000F800B7170140938707809443B70510FFA2
:1024F000FD15ED8EB7053000CD8E94C39443B7051E
:1025000000403717014092069182CD8E94C3544FFC
:1025100037030200B708F1FF93F6F6F093E60608DA
:1025200054CFB716014023206702938606C0C842E5
:10253000FD188D6E33751501B7080300336515015D
:10254000C8C28843C578FD1841991365350088C312
:1025500088437D7E130EFE0F1375F5F0136505039A
:1025600088C30843337515013365D50108C3484F47
:10257000337515013365D50148CF484F419913652F
:10258000350048CF88433375C5011365053088C3CE
:102590008843337515013365D50188C30843137526
:1025A000F5F01365050308C388421375F5F013654C
:1025B000050388C2484F3375C5011365053048CF00
:1025C00013070002D8CB1C4E2D4793E717201CCED3
:1025D000B727014093870740B8CB37B76D1B130768
:1025E000B76DD8C798CB37070E00050798C73D478A
:1025F000B8CB1387F5FFD8C798CB1C4E37070044DC
:1026000093E717011CCE5C4AB3E767005CCADC4263
:10261000A207A183D98FDCC28327880137770240C4
:1026200093E70730232CF8009387818AC207C18380
:102630002318F700F977A1072310F700F157A30437
:10264000F700EFE04FFBEFE08FBAEFE05FFF5D7167
:102650003AD2377702403ED08347970086C696C469
:102660009AC29EC022DE26DC2ADA2ED832D636D492
:1026700042CE46CC72CA76C87AC67EC493F70702A9
:10268000BDC78347970085468D8B639AD7048356D1
:10269000A70015476375D7049386018683D4860403
:1026A000138401861397040141876345070E13D6EF
:1026B000C4001D8A13F7F401631706100D46630961
:1026C000C70C1946630FC70E6316F70C2383E60287
:1026D00083C74602850793F7F70F2382F602377701
:1026E00002408347970093E70702A304F700B777F8
:1026F000024003C79700620761876357070403D747
:10270000C700C166BD16758F2396E70003D7E700A3
:10271000C166BD16758F2397E700130770072391D5
:10272000E70003C7470085461377C70F13672700E5
:102730002382E70013870186A302D70203C797000D
:1027400013670708A384E700B777024003C7970021
:102750001377070409CB03C7970013670704A38403
:10276000E700EFE08FD37254B640A642164386438B
:10277000E2545255C2553256A256125782577248E9
:10278000E248524EC24E324FA24F61617300203078
:102790009D471CC01305005AEFE00FA48567A302F4
:1027A0000402938707E0FD8C8347640193E41400DF
:1027B00009458D8B9A07DD8C23149404EFE08FD4A8
:1027C00039BFA147F9B7E317F7FC8D471CC093D772
:1027D000C4009D8B230AF40093D764008D8B230BD8
:1027E000F4001307840481471305C406F1468345AA
:1027F00027003306F50085072300B6000507E39898
:10280000D7FE49BF89679387874B97E1FF1F938165
:1028100061FF172100201301E17E7D45731005BC87
:1028200013058008732005308D457390458013058E
:1028300040004D8D73105530739017340D67B707F6
:102840000020130707A2938707009386818063E81F
:10285000D702938781801387818E63E7E702B727CA
:102860000240094798C3B717024023A2070037F771
:1028700000E0954614C3714798CF73002030104391
:10288000110790C39107E1B723A007009107F1B7A3
:10289000FC00000020010000400100006601000073
:1028A00090010000B2010000DA010000E201000026
:1028B0000002000016020000220200004202000096
:1028C0005C02000080020000A2020000AE020000D4
:1028D000CC020000EC020000F80200001603000029
:1028E0001E030000340300004003000062030000E8
:1028F000780300009A0F0000AC0F0000B20F000038
:10290000E40F0000C2100000AC0F0000AC0F00008C
:10291000AC0F0000DE100000F4100000CA1600002A
:1029200022170000301700003E1700004C1700006F
:102930004C1700005817000060170000BC1700007B
:1029400006190000881C0000BE1E00001E170000B3
:10295000A4210000242400007E240000901C00001C
:10296000F81C0000BC1D0000841E0000A41E000016
:102970004E1C00004E1C00004E1C00004E1C0000AF
:102980004E1C0000481D0000701E00004E1C000080
:102990004E1C00004E1C00004E1C00004E1C00008F
:1029A0004E1C00004E1C00004E1C0000001E0000CB
:1029B0004E1C0000701E000016230000A62200001E
:1029C00058230000B4230000CE230000462200005C
:1029D0004622000046220000462200004622000057
:1029E000FA22000046220000462200004622000093
:1029F0004622000046220000462200004622000037
:102A00004622000046220000822300000005FF014C
:102A100005FF0201050703FF0406FF05FFFF000095
:082A2000010088132C000000E6
:00000001FF
