:040000006F20C0624B
:100004000000000000000000B40A0000B40A000070
:1000140000000000B40A000000000000000000001E
:10002400B40A0000B40A0000000000000000000050
:10003400B40A000000000000B40A00000000000040
:10004400B40A0000B40A0000B40A00000000000072
:10005400B40A0000B40A0000B40A0000B40A0000A4
:10006400B40A0000B40A0000B40A0000B40A000094
:10007400B40A0000B40A0000B40A0000B40A000084
:10008400B40A0000B40A0000B40A0000B40A000074
:10009400B40A0000B40A0000B40A0000B40A000064
:1000A400B40A0000B40A0000B40A0000B40A000054
:1000B400B40A0000B40A0000B40A0000B40A000044
:1000C400B40A000076240000B40A0000B40A000058
:0C00D400B40A0000B40A0000B40A0000E6
:1000E000B7270140938707409847B706400013673A
:1000F000170098C79847558F98C79843098B75DFA5
:10010000E847420541818280E54763ECA7028967A1
:100110009387876B0A053E951C418287B71701407C
:10012000938707800D4798CBB71701403707000525
:10013000938707C01307872D98CBB7170140254732
:1001400098CB8280B7170140938707803707030059
:1001500098CBB717014037070005938707C01307EF
:10016000872D98CBB717014037070900D1BFB717C4
:100170000140416793870780090798CBB717014073
:1001800037070006938707C01307871D75B7B71792
:100190000140938707803707030098CBB7170140CA
:1001A00037070004938707C01307873D71B7B71758
:1001B00001403707020093870780050798CBB717E0
:1001C000014037070004938707C01307873D51BFDD
:1001D000B71701403707020093870780050798CBC0
:1001E000B717014037078004938707C01307873587
:1001F000A1B7B7170140938707800D47CDB7B71751
:1002000001403707020093870780050798CBB7178F
:10021000014037070005938707C01307872D98CB48
:10022000C16737170140A1071CCB8280B717014077
:10023000938707800D4795B7B7170140370702002E
:1002400093870780050791BFB71701409387078001
:100250003707030098CBB71701403707800793870C
:1002600007C013078705F5BDB717014093870780BF
:100270003707030098CBB7170140370780069387ED
:1002800007C013078715F1BDB71701409387078093
:100290000D4798CBB717014037078006938707C0F3
:1002A00013078715ADBFB7170140938707800D4728
:1002B00055B7B7170140938707800D4701B7B717A8
:1002C0000140938707800D4798CBB7170140370748
:1002D0000006938707C01307871D91B7B717014022
:1002E000938707800D4798CBB717014037078007E2
:1002F000938707C01307870581B5B7170140938718
:1003000007800D4798CBB717014037070004938744
:1003100007C01307873D21B7B717014093870780B0
:100320000D4798CBB717014037078007938707C061
:100330001307870598CBB7070800371701408507D3
:10034000E5B5B7170140938707800D4798CBB717DE
:10035000014037078006938707C013078715E9BB5D
:10036000B7170140938707800D4798CBB717014017
:1003700037078006938707C01307871565BFB71730
:1003800001404167938707800907EDB5B717014022
:10039000938707800D4798CBB71701403707800533
:1003A000938707C01307872541BBB71701404167F3
:1003B00093870780090798CBB717014037070004D8
:1003C000938707C01307873DB5B7B71701409387D9
:1003D00007800D4798CBB717014037070006938772
:1003E00007C01307871DB5BB89679387F77063E163
:1003F000A704A9473355F50242054181B9ED854768
:10040000A38BF184A9463357D50293074006B3570F
:10041000F5023377D70293F7F70F3375D502238AA6
:10042000F18493874185A380E7002381A700828020
:10043000E1679387F76963EAA7009307400633559E
:10044000F50289474205418165BF9307803E3355D8
:10045000F50281474205418165B7130740063357CE
:10046000E5020946A38BC1843355F5021377F70FD4
:100470003375F5026DB7411122C483C7418006C6AA
:10048000130740026383E704130760026384E706EF
:10049000130730026393E70203C54185B531B717EF
:1004A00001404147938707C0D8CB83C67185054774
:1004B0006395E6001307004098CB93074002B240D3
:1004C0002382F18022444101828003C551852D3968
:1004D000B717014013070004938707C0D8CB83C622
:1004E000718509476395E6001307004098CB930791
:1004F0006002F1B703C561850139B7170140214793
:10050000938707C0D8CB83C671850D476395E600F6
:100510001307004098CB9307300255B737160140B8
:10052000930706C094479395460163CE050283C6A0
:100530004180130640026380C60213066002638096
:10054000C60213063002638EC60083D60185850677
:100550002398D1843DA891462389D184FDB78D4647
:10056000E5BF8946D5BF14469395E6008546E3C5A9
:1005700005FE83C6218591CE9145639DB60283C554
:10058000418013064002E392C5FC23890184A387BE
:10059000D18403C7218521CB83D601859307A00F82
:1005A0001305F00F63F1D708A9473307F702137556
:1005B000F70F82808D456397B60083C5418013068F
:1005C0006002D1B789456397B60083C541801306A1
:1005D000300255BF8545E39AB6F610469315E600FE
:1005E000E3C505F65DB703C5F1840DC983D6018562
:1005F0001306A00F637CD60023980184AD47330512
:10060000F502A38701841375F50F8280094663778D
:10061000D60023980184A3870184828023980184D3
:10062000A38701840145828003C7E18483C7D18405
:1006300001C7860793F7F70F2386F1848280B727D7
:100640000240D84793761700EDFE9376070289E6BD
:1006500023A8070001458280D8C705458280411143
:1006600006C622C426C24AC0D93FB7C7000883A421
:1006700007F023A49184E137B7C7000803A947F026
:10068000FD1423A22185653FB7C7000803A487F0A6
:1006900023A081846D37B7C7000883A7C7F0014541
:1006A00023AEF1827557636B9700FD566308D9003E
:1006B00036946365870085073335F000B2402244E5
:1006C0009244024941018280411106C68D3FB7C75D
:1006D000000803A507F1B24023ACA182FD77938700
:1006E000C7313E959167938757523335F5004101E5
:1006F00082805D714EDE83A98184A6C283A40184B9
:10070000CAC003A94184B3E7990086C6A2C452DCDB
:1007100056DA5AD85ED662D466D2B3E7270185E3AB
:100720008144B64026440649F259625AD25A425B85
:10073000B25B225C925C26859644616182800137BF
:10074000B7C7000803A447F1FD57E31BF4FCC53D00
:10075000B7C7000883A7C7EFE39487FCB727024019
:10076000984B137707086318070EB7270240984B7A
:100770009316070163C10610D93537240240B70725
:1007800002001CC8B7C70008938707F05CC81C4864
:1007900093E707041CC8653541D52328040003A747
:1007A000C1834EC04AC23AC603A7818326C43AC851
:1007B0007D573ACA3ACC3ACE1C4893F70708E1EF86
:1007C000B7270240984B9316070163C6060E853D76
:1007D00037240240C1671CC80149370A0800854A0E
:1007E0007D5BB70B04001C48B3E747011CC8813D83
:1007F00005D9B7C4000837CC0008931C49008A8982
:10080000938404F0130C0CF16317090C83A70900FF
:100810009CC01C4891049109B3E777011CC80535B9
:10082000E39484FFB7C70008938707F05CC81C48AF
:1008300093E707041CC82135AA84E30305EE0509E4
:10084000C147E312F9FA23280400D53BA167938737
:1008500007081CC8F9B53707674513073712D8C30F
:100860003797EFCD1307B79AD8C39C4B93F7070878
:10087000E38D07EE75B53707674513073712D8D3F1
:100880003797EFCD1307B79AD8D39C4B139707012F
:10089000E35407EE71B5B7076745938737125CC01D
:1008A000B797EFCD9387B79A5CC01C4893F70708BA
:1008B000E38807F0B5B53707674513073712D8D374
:1008C0003797EFCD1307B79AD8D39C4B13970701EF
:1008D000E35F07EEB1B56316590183A709019CC810
:1008E0000DBFB387940123A0670125B783C6018399
:1008F000411122C43714014006C6AE871304048098
:1009000083C5C181BDC2B706002083C60600B1EE13
:10091000930700021CC885476381F50289476387F6
:10092000F50281E903A58181C13491471CC8A14723
:100930005CC82244B24041013DBE03A541818145CE
:10094000653491475CC8A1471CC8E5B783A781817E
:1009500003A741811305803E8145B387E70233D564
:10096000A702593491471CC8F9BF9306000254C826
:1009700085466381D50289476385F502DDF98545A2
:10098000A534B717014093870780114798CB2147BB
:10099000D8CB45B7114758C8214718C83E85A93458
:1009A00049BF238E0180E1BF37F700E01C473E9529
:1009B0001C47898FE3CE07FE82804111B727014093
:1009C00093870740214706C6D8DBEFF06FF183A776
:1009D00081841307803E3305F50283A74184335594
:1009E000E502B3C7E7023E95B707002083D727008B
:1009F00023AAA1829387773E63D2A70A03C7018304
:100A000019CF23880182B717014093870780130706
:100A10000002D8CBB707002005472380E70083A753
:100A2000C182AA973165130505B823A6F182AD3FAF
:100A3000B7270140938707401147D8DBEFF04FEA13
:100A400083A701841307803E3305F50283A7C18382
:100A50003355E502B3C7E7023E9583D7418223A40D
:100A6000A1829387471F63D1A70403C7018319CFCE
:100A700023880182B717014093870780130700027C
:100A8000D8CBB707002005472380E70083A7018262
:100A9000B240AA9723A0F18241018280E35105F878
:100AA00023AA01820145A5BFE35205FE23A40182CA
:100AB0000145E9BF01A093878185DC470A05AA9714
:100AC00003D5E7FF82809387818503C7470183C6EB
:100AD0005701158F1377F70F6368A700DC470A05E6
:100AE000AA9703D5E7FF8280198D19473305E502E0
:100AF0009C4BAA9703D5A7FF82809387818503C764
:100B0000470183C65701158F1377F70F6368A70056
:100B1000DC470A05AA9703D5E7FF8280198D19479C
:100B20003305E5029C4BAA9703D5C7FF82809387C4
:100B3000818503C7470183C65701158F1377F70FC8
:100B40006368A700DC470A05AA9703D5C7FF828020
:100B5000198D19473305E5029C4BAA9703D5E7FF8A
:100B60008280B77702401307200A2396E700239775
:100B7000E70093878185A3840700238507002384EA
:100B80000700238A0700A38A070023A0070023A2E7
:100B900007002382070213878702A3820702D8C7B0
:100BA0001387C7032383070298CB0547238BE700EE
:100BB00023810702238DE700A38DE7000567130754
:100BC0008738239EE7002390E7028280B7770240B0
:100BD00003D70700118B15CB03D7E7001367070175
:100BE0002397E700B77702401307F0042391E7004B
:100BF000A38207002393A700A384070003C747002D
:100C0000136737002382E700828003D7C70013678A
:100C100007012396E700F9B79387818503C5A701EC
:100C200083C6470203C6670105689D8A0908A606B0
:100C30000D8A1A06B3E60601D18E03C6470103C822
:100C400057019375F50F9377F50033060641138727
:100C500081856357A6040356C701D145F207335671
:100C6000B6028565FD156D8E2606D18F0356E70108
:100C7000930520033356B602B70500031376F60733
:100C80004D8EB70500FD938505F8ED8FD18F2315A7
:100C9000F7041945C1832314D7042316F7043DB77D
:100CA0009387F5FF8A07BA9703D68702A9473705C6
:100CB00000033356F602F2051376F63F9317A600AB
:100CC000498ED18FCD8FE1B779714ECE854922D42F
:100CD00026D24AD052CC56CA5AC85EC606D601445D
:100CE000B70A00201309800C4E8BC13983D541828D
:100CF00003D52A00E53E83D721818507C207C1833A
:100D00006364F9022399F180EFF05F818D47630EF0
:100D1000F504F947E31BF5FC83C7C181E3E7F9FC60
:100D20008947238EF180D1B783A7C182B3D7270328
:100D30002399018023A6018223ACF18083A701823D
:100D400023A00182B3D7270323AAF18003C7C1845C
:100D50008947E31BF7FA05044204418093078002A8
:100D6000E3F487FA553D014445B783C7C18189CB78
:100D7000FD1793F7F70FE3EAF9F6238E0180B5B775
:100D8000238E61819DB7797122D426D24AD04ECE6E
:100D900052CC56CA5AC862C49387818506D65EC6AD
:100DA00066C223900702238107029304F00F138485
:100DB0008185377C0240094B0549954937EA00E0B7
:100DC000B70A02008347240293FCF70F89E7FD145A
:100DD00093F4F40F85E0B25022540259F249624A6A
:100DE000D24A424BB24B224C924C33359000925433
:100DF0004561828037B50300130505987536835722
:100E0000CC0041671307E7F1F98F2316FC008357E5
:100E1000CC00C1669386E6F193E707042316FC0035
:100E20000357CC008357EC004207F58F2317FC00D3
:100E30008357EC00418393E707042317FC00835694
:100E4000EC008947858A99E293771700035784015C
:100E5000050742074183231CE4001840631E270353
:100E6000639E2707230504000347940005071377B3
:100E7000F70FA304E4000347940063FFE900A30411
:100E80000400094718C03776024003570600C166C0
:100E9000ED16758F2310E60018406374E902ADEF7C
:100EA00083478400850793F7F70F2304F4008347F3
:100EB000840063F8F90023040400232004002322A3
:100EC0005A19832B04001C402547636FF7040967F8
:100ED0008A0713070772BA979C438287A30404000A
:100EE000639967030347A40005071377F70F2305EA
:100EF000E4000347A400E3F1E9FA230504001CC061
:100F0000B776024003D70600136747002390E60038
:100F100061B72305040049B7230404005DB7232209
:100F20005A198131232024012322740161BD5840C4
:100F30001C40E30BF7FE930770072311FC00834767
:100F40004C0093F7C70F93E727002302FC00A30888
:100F50000A4223225A11C9BF83475402F1D7A30280
:100F60000402B7E700E0370702000328C400144872
:100F700023A2E718A30A0400B70800F0370300C053
:100F8000294E930520031946130540068347440163
:100F900063EBFC00B7E700E03707020023A2E7108D
:100FA00091471CC051B713972C00B307E400FC57BE
:100FB000B3FE170163926E060347540193DE1701D7
:100FC00093FEFE0F3307C702B38EAE02369723118E
:100FD000D7010347540193DE870093FEFE0F3307CA
:100FE000C70293F7F707B38EAE0236972310D701E7
:100FF00003475401B387B7023307C702369723125A
:10100000F70083475401850793F7F70FA30AF4000D
:10101000850C93FCFC0F9DBF93FEF73FA98393F7CC
:10102000F73FB38ECE034297B387B7022310D701A1
:101030002311F700F1BF58401C406303F700E93E5D
:1010400083476402E38207EE230304022320340172
:10105000E1BD83475402E38907ECA3020402A547DC
:101060001CC0231C0400C9B5230124030347A401A9
:101070008347B4016318F7000357C4018357040280
:10108000E304F7EA8347A401094593F7F70FA30D9B
:10109000F4008357C401C207C1832310F402230163
:1010A000040283474402034764019D8BA6070D8B0E
:1010B0001A0793E77700D98F2314F404013EA94758
:1010C000CDB5411122C406C613848185230DA40029
:1010D000231EB400A93C231FA4002244B2404101B6
:1010E0005DB19387818503C7470103C6570183A874
:1010F000070103A8C700118FAA851377F70F81474F
:1011000093868185194303C6460163E4C700014500
:1011100082801385170063FBE7008A07C29783D795
:1011200027006391B7021375F50F61BF998FB387DD
:101130006702C69703D6070063E6C50083D727007A
:10114000E3F3B7FE9377F50F7DBF13868185834662
:101150004601834756010346560193F6F60F93F76F
:10116000F70F1387818511CE9D8E0328070193F613
:10117000F60FB6879948130310030346470163E44B
:10118000C700014582803386D740330616038507A2
:101190004296035E06006365C503035E2600636135
:1011A000AE0203564600636DB600637BB30093F74F
:1011B000F70F230DF700231EA700231FB700E1B68A
:1011C00093F7F70F5DBF056701111307B7B022CC86
:1011D0004AC852C456C2239AE18406CE26CA4EC6D5
:1011E0005AC0938741852D47238401802381E700DE
:1011F0000544138781858347470183A4818363FC6A
:101200008708856793878738639BF41083C781803D
:1012100063970710B707002023919700856793878E
:1012200007962392F1822386018423990180B709CE
:101230000020238E0180238801822380090023A6B9
:10124000018223A00182EFF04FF783C70900054711
:101250002388E182639C0712B717014093870780B8
:101260009306000294CB2388E18203A7C182F24057
:1012700023ACE18003A7018223A00182624423A65C
:10128000018223AAE180D2444249B249224A924AC9
:10129000024B05618280834747010347570122853E
:1012A000998F93F7F70F63E88702EFF0DF80631001
:1012B0009502B70700202391A7002285EFF03F8712
:1012C0002392A1822384818005472386E18405043B
:1012D0001374F40F39BFEFF00FFFE3EAA4FE228589
:1012E000EFF0BF81E36595FE03CB8180631F0B00A8
:1012F000B7070020228523919700EFF05F832392A8
:10130000A182238481800947C9B72285EFF03F82FB
:10131000AA895A85EFF0BF81E36C35FD4DBF83C7C5
:10132000C18409476381E7046364F702E38F07EE32
:1013300003C5818093950401C1816133E31705EEF4
:10134000EFF06F933165130505B8EFF0EFE5CDBF12
:101350000D47E38CE7ECEFF00F923165130505B80C
:10136000EFF08FE4CDBF03C58180EFF04FFCAA857D
:10137000139504014181D13BE31905EAEFF0AF8FEA
:101380003165130505B8EFF02FE2CDBFEFF0AF8E5A
:101390003165130505B8EFF02FE1CDBF37160140D9
:1013A000930706809843B70610FFFD165D71758F91
:1013B000B706300086C6A6C2A2C4CAC04EDE52DC42
:1013C00056DA5AD85ED662D466D26AD06ECE558FBF
:1013D00098C398437D751305F50F698F1367073020
:1013E00098C3984345787D188D6833770701336734
:1013F000170198C3584EB705020021631377F7F021
:101400001367070858CE0CD2130706C05443B3F62F
:101410000601B3E6660054C385669386068014CB46
:101420001442B3F60601B3E6160114C2144337089A
:10143000003092069182B3E6060114C3544393F63A
:10144000F6F093E6060354C31442C19A93E63600BD
:1014500014C29443370640FE7D1693F6F6F093E6E9
:10146000060394C39443C19A93E6360094C354434D
:10147000C19A93E6360054C35443E98E93E606308E
:1014800054C393060002D4CBB7066745B767024042
:1014900093863612D4C7B796EFCD9386B69AD4C743
:1014A000D443F18ED4C3D44337068001D18ED4C344
:1014B000D44337062000D18ED4C3D4433706E8FF87
:1014C0007D16F18ED4C3D4434166D4C3D443D4C370
:1014D000D443D18ED4C3D44337060080D18ED4C335
:1014E000B71602409C4E2D4693E717209CCEB72797
:1014F000014093870740B0CB37B66D1B1306B66D1E
:10150000D0C790CB37060E00050690C73D46B0CB3E
:10151000370600407D16D0C790CB9C4E93E717014D
:101520009CCEDC4ACD8FDCCA5C43B7060044A207E0
:10153000A183D58F5CC3370701401C4F93E7073069
:101540001CCF9387818593878704C2073777024032
:10155000C1832318F700F977A1072310F700F1578B
:10156000A304F700EFF03F829384818505C183C710
:10157000540181C705472387E18403C7440183C71A
:1015800054016305F7000547A386E1843714014041
:10159000130404C01C40B709F1FFFD19370704000C
:1015A000B3F73701D98F1CC01C40370900F17D19F2
:1015B000B3F72701370B0004B3E767011CC01C40D9
:1015C000C57AFD1AB3F75701916BB3E777011CC0D9
:1015D000B71701409C471397E7006350070CEFF0E3
:1015E000AF84EFF06F8E11C983C7C184F51793F7ED
:1015F000D70F81C791472386F184EFF04F8601E52D
:101600008D472386F184B7170140938707C098431D
:10161000B706F1FFFD16758FB7060300558F98C307
:101620009843B70600F1FD16758FB7060003558F76
:1016300098C39843C576FD16758F8D66558F98C3F0
:1016400085679387476123990180854A01440D4C42
:101650002315F100EFE03FE23165130505B8EFF027
:10166000AFB483CCC1840D6B33878C03A38B01840F
:1016700093070B81130B0B81BA97A29783CB0700BB
:101680009D4763E6770F09671307877493972B00CD
:10169000BA9798439387418502871C400D6731654F
:1016A000B3F75701D98F1CC0A1475CC8130505B813
:1016B000EFF08FAF1C4413974701E35207F21C4031
:1016C000370700033165B3F75701B3E777011CC053
:1016D0001C40130505B8B3F72701D98F1CC0930729
:1016E00000045CC8EFF04FAC1C44139747011C404A
:1016F000B3F72701B3E767011CC01C40B3F73701FC
:10170000634A070237070300D98F1CC0414931657E
:10171000232A2401130505B8EFF00FA91C441397E1
:1017200047018D4763550700232A240195472386E7
:10173000F18445BD37070300D98F1CC03165C1470F
:101740005CC8130505B8EFF02FA61C44139747019A
:10175000E34707E883C7D184E38307E88547C1BF30
:101760001307A050239AE18429472381E700EFE083
:10177000FFDA630A850D6364AC088547630FF508DB
:101780008947630FF50A9147E396FCECE3840AEC82
:1017900083D721811307007D8507C207C183239961
:1017A000F180E379F7EA23990180EFF0DFA1EFF010
:1017B000AFD105671307C7D0239AE184394775B7BE
:1017C00005671307F7F0239AE184154779BF05678A
:1017D00013070711239AE184494741BF0357A1002A
:1017E000239AE1845D4751B7056713078731DDB759
:1017F000056713079731239AE1845947BDB791478D
:10180000E313F5F89D47E3E077F9096793972B0019
:1018100013078776BA979C43828763748500814A51
:101820009DB7B3878C03814A3E9B229B03471B00D5
:101830009307F00FE309F7F405041374F40FA1B74D
:1018400039D07D14DDBFE3908CF5814A21B58567E1
:1018500037070020938787382311F7008567938720
:1018600007962392F182B707002023800700238E7A
:101870000180238801822399018023A6018223A06D
:101880000182EFF08F93B707002083C7070005465A
:101890002388C182E39907EEB71701409387078039
:1018A000930500028CCB83A7C1822388C18223AC1D
:1018B000F18083A7018223A6018223AAF18023A0BD
:1018C0000182EFF08F8FB707002083C70700E39CEA
:1018D00007EA856505659385059613058538EFF05C
:1018E000EF8083D721811307800C8507C207C1834E
:1018F000636EF7022399F180EFE05FC29147630BBB
:10190000F506F947630CF5048D47E31CF5FA83C728
:101910000183C5DB83C7C181054695CFFD1793F7CA
:10192000F70FE360F6FA238E018061BF83A7C182BF
:101930001307800CB3D7E7022399018023A6018205
:1019400023ACF18083A7018223A00182B3D7E702F1
:1019500023AAF18055B7238EC180A5B783C7018321
:10196000ADD303C6C1818547E3EDC7F48947238E14
:10197000F18081BFB71701409387078013070002EA
:10198000D8CB238801822147D8CB1147D8CBE5BBE0
:10199000854785692384F1805E849389893883C76C
:1019A000440103C75401998F93F7F70F63EA870047
:1019B0002285EFF04F906312350B23848180A28B38
:1019C0005E85EFF04F8FB70700202391A7002A8490
:1019D0005E85EFF0CF952392A182AA892285239973
:1019E0000180238E018023880182EFF08FEF134561
:1019F0001500370C002005892300AC00930C800CE7
:101A0000854BEFE09FFBCE852285EFE03FEE83D74D
:101A100021818507C207C18363E5FC042399F18016
:101A2000EFE0DFAF8D476300F50E63EFA704630EB1
:101A300075078947E317F5FC83C70183B5EB03C737
:101A4000440183C6540183C78180158F1377F70F34
:101A5000E3F9E7FA93891700A5A805041374F40FB6
:101A60003DBF83A7C18223990180B3D7970323A6E3
:101A7000018223ACF18083A7018223A00182B3D726
:101A8000970323AAF18069BF9147630DF508F947D1
:101A9000E319F5F683C70183ADD783C7C181E3E2BC
:101AA000FBF68947238EF180A9BF83C7018399CBB9
:101AB000B71701402388018293870780130700022C
:101AC000D8CB81B783C78180E3FDFBF29389F7FF11
:101AD00093F9F90F4E8523843181EFE0DFFDB707DD
:101AE00000202391A7002A844E85EFF04F84239293
:101AF000A182AA892285EFF0CFDE13451500058962
:101B00002300AC00FDBD83C7C181638A770109470B
:101B10006387E700E39707EE238E7181DDB5238E9F
:101B20000180C5B583470C00E39D07EC83C70183A3
:101B300093C717002388F182E9B583C7440103C71F
:101B40005401998F93F7F70F63F587042285EFE02F
:101B5000DFFA6370AC048567370700209387873806
:101B600022852311F700EFE01FF62398A18022853C
:101B7000EFE0BFF82396A1802285EFE05FFB23957D
:101B8000A1802392A1821307401F2397E180238421
:101B9000818005041374F40F83C7440103DCC18002
:101BA000E3FD87F8B717014093870780114798CB6B
:101BB0002147D8CB85456285EFE01F838D44EFE058
:101BC000FF952A847D142399A18042043165130571
:101BD00005B84180EFE05FDDEFE0FF89E3E184FEDF
:101BE00003DD018185458D446A85EFE0EFFFEFE07D
:101BF000FF922A847D142399A18042043165130544
:101C000005B84180EFE05FDAEFE0FF86E3E184FEB4
:101C1000B7170140938707801147D8CB214798CB4E
:101C200083DDA18085458D446E85EFE0EFFBEFE01D
:101C3000FF8E2A847D142399A18042043165130507
:101C400005B84180EFE05FD6EFE0FF82E3E184FE7C
:101C5000370A002003542A0083D44182A6852285B6
:101C600023990180238E018023880182EFF0EFCD3C
:101C700013451500B70A002005892380AA00814B6F
:101C800002C0854CEFE07FD3A6852285EFE01FC61A
:101C900083D721811307800C8507C207C183636442
:101CA000F7022399F180EFE07F87D94763E0A70629
:101CB0008967938787780A053E951C41828705448A
:101CC000E1BD814BC1B782479306800C8507C207EF
:101CD000C1833EC083A7C18223A60182B3D7D702A6
:101CE0002399018013078002854B23ACF18083A7E1
:101CF000018223A00182B3D7D70223AAF1808247B1
:101D0000E373F7FAEFE05FF102C071BFF947E31B3D
:101D1000F5F683C70183BDD783C7C181E3E4FCF631
:101D20008947238EF180B9BF83C7C18195E30354EE
:101D30002A001304C4F9420441806364A401A28709
:101D400019A0EA876A8483D541822311FA0011A27F
:101D5000E39A97F383D4418283D7E1809384C4F9D3
:101D6000C204C1802392918263F5F4002392F18230
:101D7000BE8403552A00A685EFF02FBD134515003C
:101D800005892380AA00FDBD83C7C181B9EBE38B20
:101D90000BEE83572A001307703E818F635EF700B6
:101DA00083D54182228523118A00EFF00FBA1345B3
:101DB000150005892380AA00130444ED42044180E4
:101DC000814BE371A4ED83D541826A852311AA0179
:101DD000EFF0AFB71345150005892380AA006A8488
:101DE00055B5E39197EBE38F0BE883D74182130757
:101DF000301F858F635EF70003552A00A685239266
:101E00009182EFF08FB41345150005892380AA0055
:101E10009384C4F983D5E180C204C180814BE3F38C
:101E2000B4E603552A002392B1822EC2EFF0EFB13F
:101E300092451345150005892380AA00AE8499B503
:101E400083C7C181E3E0FCE423118A0023929182DD
:101E5000A685228515B783C7C18181EF03542A0067
:101E60001304440642044180E37B8CECE2876284E5
:101E7000D9BDE39997E183D4418293844406C20497
:101E8000C180A68763F49D00EE87EE842392F182E1
:101E9000CDB583C7C181A1EFE3860BDE83572A004E
:101EA0001307703EB307F440635EF70083D54182A9
:101EB000228523118A00EFF04FA9134515000589EB
:101EC0002380AA001304C41242044180814BE37BA7
:101ED0008CDA83D54182628523118A01EFF0EFA667
:101EE0001345150005892380AA00628461BBE39B2A
:101EF00097D9E3890BD883D741821307301FB38763
:101F0000F440635EF70003552A00A6852392918270
:101F1000EFF0AFA31345150005892380AA00938431
:101F20004406C204C180814BE3FE9DD403552A00C0
:101F3000EE852392B183EFF04FA11345150005897B
:101F40002380AA00EE843DBB83C7C181638A9701C9
:101F500009476387E700E39707D2238E91811DB37A
:101F6000238E018005B383C70A00E39D07D083C792
:101F7000018393C717002388F18229B30565814542
:101F800013058538EFE04FC6B717014093870780E8
:101F9000114798CB2147D8CB1307000298CB8D4B24
:101FA000EFE0CFD72A8B7D1B3165420B130505B8B7
:101FB000135B0B01EFE05F9FEFE0EFCBE3E26BFF22
:101FC000B72D0140130D800C814B938D0D40214B9B
:101FD0003165130505B823AA6D03EFE0FF9CEFE020
:101FE0002F907D1DAA9BE3150DFE93074006B38B32
:101FF000FB029307800C1165814513050565B3D776
:10200000FB028D4B3EC2EFE02FBEB7170140938716
:102010000780114798CB23AA67011307000298CBCA
:10202000EFE0CFCF2A8B7D1B3165420B130505B83E
:10203000135B0B01EFE05F97EFE0EFC3E3E26BFFB1
:10204000B72B0140130B800C938B0B40A14D3165D6
:10205000130505B823AABB03EFE01F95EFE04F88F7
:102060007D1B2A9DE3150BFE9306800C335DDD027C
:102070009307400681450145B307FD02114D3EC05F
:10208000B7170140938B07809307000223AAFB0038
:10209000EFE08FB523AAAB0123A8BB019306800C08
:1020A000B72D0140B68B938D0D403165130505B8F2
:1020B00023AAAD03EFE05F8FEFE08F82FD1B2A9B29
:1020C000E3950BFE93074006330BFB020565930770
:1020D000800C8145130585BB335BFB02EFE0CFB07D
:1020E000B71701409387078023AAA701214798CB00
:1020F0001307000298CBEFE06FC2AA8D316513057C
:1021000005B8FD1DEFE05F8AC20DEFE0CFB693DDAD
:102110000D018D47E3E1B7FF372701409307800C9E
:1021200013070740914D3EC63165232AB7031305B7
:1021300005B8EFE07F87EFD0BFFAB24737270140FD
:10214000AA9BFD1713070740F9FF37170140130734
:102150000780930700025CCB1247824737757C4D9E
:10216000130505D0998F3355F50293064006814536
:1021700023A4A1848247338DA702B7B712019387A6
:102180000788335DDD02B387A74123A2F18493075B
:10219000800CB3D7FB02B7ABE111938B0B300D4D25
:1021A000B387D702B3876741B3DBFB02330B7B03F3
:1021B00023A07185335BDB02330B604123AE618367
:1021C000EFE08FA2B7170140138707802328B701DC
:1021D000A1475CCBEFE08FB42A8B7D1B3165420BAE
:1021E000130505B8135B0B01EFE00FFCEFE0AFA8A0
:1021F000E3626DFF5E858145EFE00F9FB7170140F9
:1022000093870780214798CB1147D8CB8D4BEFE0C0
:10221000EFB02A8B7D1B3165420B130505B8135BAC
:102220000B01EFE06FF8EFE00FA5E3E26BFFEFE0EB
:102230004FCC0DE505671307A730239AE1849387F8
:10224000418529472381E700A38B0184EFE0AFA2FA
:102250003165130505B8EFE02FF5CDBFEFE02FC0D6
:1022600071D9B707EFBE37E700E0938707083CC78F
:102270006FF06FD1856793875730239AF184514768
:10228000938741852381E700138A41858D44EFE0E0
:10229000EFA82A847D142399A18042043165130597
:1022A00005B84180EFE04FF0EFE0EF9CE3E184FE02
:1022B00085679387873895642399018023ACF182E1
:1022C000014D930A800C294BD14B93848420096CD7
:1022D0003165130505B8EFE02FEDEFE0CF9983D717
:1022E000218103A481838507C207C1832399F180DB
:1022F00063F9FA008545228523990180054DEFE0B9
:10230000AF8EEFE0AFA16368AB0093074C7E0A0588
:102310003E951C418287E31D75FB630B0D02130480
:10232000C41263F0840423AC91821DA0856713045A
:10233000C4F9938737CE63F5870023AC818249BF08
:102340008567938747CE23ACF18259B763140D009C
:10235000014DBDBF8567130444ED938737CE63F508
:10236000870023AC8182EDB78567938747CE23AC86
:10237000F182F9BF13044406E3F184FC23AC91829B
:1023800081BFFD779387C7313E949167938747520A
:10239000E3E087F4EFE0EFB505C13165130505B85B
:1023A000EFE08FE0EFE04FB201C9B707EFBE37E7CC
:1023B00000E0938707083CC785679387A730239A77
:1023C000F184A9472301FA00A38B0184EFE0AF8ACF
:1023D0003165130505B8EFE02FDDCDBF03A781837D
:1023E000FD779387C7313E9791679387475263EC98
:1023F000E7B823AC0182EFE0CFAF05C1316513052B
:1024000005B8EFE06FDAEFE02FAC01E9B707EFBEF8
:1024100037E700E0938707083CC705671307A73035
:10242000239AE1849387418529472381E700EFE0E0
:102430008F843165130505B8EFE00FD7CDBF6390EA
:102440000ABE814513050032EFD01FFA0D4BEFE0B5
:10245000EF8CAA8AFD1A2399A180C20A316513055F
:1024600005B893DA0A01EFE02FD4EFE0CF80E36004
:102470005BFF6FF0CFBA5D713AD2377702403ED042
:102480008347970086C696C49AC29EC022DE26DC89
:102490002ADA2ED832D636D442CE46CC72CA76C884
:1024A0007AC67EC493F70702BDC783479700854667
:1024B0008D8B639AD7048356A70015476375D7049D
:1024C0009386818583D486041384818513970401C0
:1024D00041876345070E13D6C4001D8A13F7F40124
:1024E000631706100D466309C70C1946630FC70E24
:1024F0006316F70C2383E60283C74602850793F72A
:10250000F70F2382F602377702408347970093E75D
:102510000702A304F700B777024003C797006207DA
:1025200061876357070403D7C700C166BD16758F5F
:102530002396E70003D7E700C166BD16758F239782
:10254000E700130770072391E70003C7470085469C
:102550001377C70F136727002382E700138781854E
:10256000A302D70203C7970013670708A384E700F5
:10257000B777024003C797001377070409CB03C757
:10258000970013670704A384E700EFE08FDD725420
:10259000B640A64216438643E2545255C2553256BF
:1025A000A256125782577248E248524EC24E324FDC
:1025B000A24F6161730020309D471CC01305005A73
:1025C000EFE08FBE8567A3020402938707E0FD8CCE
:1025D0008347640193E4140009458D8B9A07DD8CD1
:1025E00023149404EFE08FDE39BFA147F9B7E31756
:1025F000F7FC8D471CC093D7C4009D8B230AF400C1
:1026000093D764008D8B230BF40013078404814758
:102610001305C406F146834527003306F5008507F8
:102620002300B6000507E398D7FE49BF8567938767
:10263000C73997E1FF1F9381E11C17310020130177
:10264000619C7D45731005BC13058008732005301F
:102650008D4573904580130540004D8D73105530A6
:10266000739017340D67B7070020130747829387CD
:1026700007009386818063E8D70293878180138760
:10268000018E63E7E702B7270240094798C3B717EF
:10269000024023A2070037F700E0954614C37147B4
:1026A00098CF730020301443110794C39107D1B71A
:1026B00023A007009107E1B71C01000044010000BE
:1026C0006E0100008E010000AE010000D00100008C
:1026D000F2010000FE0100002C02000038020000A0
:1026E000480200006802000088020000A602000004
:1026F000B2020000BE020000DC020000FA0200008C
:1027000018030000420300006003000042010000C3
:102710007E0300008C030000AA030000CA0300002F
:102720001E0F0000280F00002E0F0000580F0000A1
:1027300036100000280F0000280F0000280F0000AE
:10274000521000006810000060170000B21700006F
:10275000C0170000CE170000DC170000DC170000D7
:10276000E8170000F01700004E1800009019000054
:10277000BE1C00007C1F0000AA170000742200008D
:10278000DC2300003E240000C21C0000281D0000C5
:10279000561E0000481F0000661F0000841C000039
:1027A000841C0000841C0000841C0000841C0000A9
:1027B000881D0000401E0000841C0000841C0000D6
:1027C000841C0000841C0000841C0000841C000089
:1027D000841C0000841C0000921E0000841C000069
:1027E000401E0000502300002C2300007423000032
:1027F000D022000082230000D0220000D02200005E
:10280000D0220000D0220000D02200004C23000083
:102810000005FF0105FF0201050703FF0406FF0590
:04282000FFFF0000B6
:082824000100881324000000EC
:00000001FF
