:040000006F20407CB1
:100004000000000000000000F40A0000F40A0000F0
:1000140000000000F40A00000000000000000000DE
:10002400F40A0000F40A00000000000000000000D0
:10003400F40A000000000000F40A000000000000C0
:10004400F40A0000F40A0000F40A000000000000B2
:10005400F40A0000F40A0000F40A0000F40A0000A4
:10006400F40A0000F40A0000F40A0000F40A000094
:10007400F40A0000F40A0000F40A0000F40A000084
:10008400F40A0000F40A0000F40A0000F40A000074
:10009400F40A0000F40A0000F40A0000F40A000064
:1000A400F40A0000F40A0000F40A0000F40A000054
:1000B400F40A0000F40A0000F40A0000F40A000044
:1000C400F40A00000E260000F40A0000F40A0000FE
:0C00D400F40A0000F40A0000F40A000026
:1000E000B7270140938707409847B706400013673A
:1000F000170098C79847558F98C79843098B75DFA5
:10010000E847420541818280E54763ECA7028D679D
:10011000938707850A053E951C418287B7170140E2
:10012000938707800D4798CBB71701403707000525
:10013000938707C01307872D98CBB7170140254732
:1001400098CB8280B7170140938707803707030059
:1001500098CBB717014037070005938707C01307EF
:10016000872D98CBB717014037070900D1BFB717C4
:100170000140416793870780090798CBB717014073
:1001800037070006938707C01307871D75B7B71792
:100190000140938707803707030098CBB7170140CA
:1001A00037070004938707C01307873D71B7B71758
:1001B00001403707020093870780050798CBB717E0
:1001C000014037070004938707C01307873D51BFDD
:1001D000B71701403707020093870780050798CBC0
:1001E000B717014037078004938707C01307873587
:1001F000A1B7B7170140938707800D47CDB7B71751
:1002000001403707020093870780050798CBB7178F
:10021000014037070005938707C01307872D98CB48
:10022000C16737170140A1071CCB8280B717014077
:10023000938707800D4795B7B7170140370702002E
:1002400093870780050791BFB71701409387078001
:100250003707030098CBB71701403707800793870C
:1002600007C013078705F5BDB717014093870780BF
:100270003707030098CBB7170140370780069387ED
:1002800007C013078715F1BDB71701409387078093
:100290000D4798CBB717014037078006938707C0F3
:1002A00013078715ADBFB7170140938707800D4728
:1002B00055B7B7170140938707800D4701B7B717A8
:1002C0000140938707800D4798CBB7170140370748
:1002D0000006938707C01307871D91B7B717014022
:1002E000938707800D4798CBB717014037078007E2
:1002F000938707C01307870581B5B7170140938718
:1003000007800D4798CBB717014037070004938744
:1003100007C01307873D21B7B717014093870780B0
:100320000D4798CBB717014037078007938707C061
:100330001307870598CBB7070800371701408507D3
:10034000E5B5B7170140938707800D4798CBB717DE
:10035000014037078006938707C013078715E9BB5D
:10036000B7170140938707800D4798CBB717014017
:1003700037078006938707C01307871565BFB71730
:1003800001404167938707800907EDB5B717014022
:10039000938707800D4798CBB71701403707800533
:1003A000938707C01307872541BBB71701404167F3
:1003B00093870780090798CBB717014037070004D8
:1003C000938707C01307873DB5B7B71701409387D9
:1003D00007800D4798CBB717014037070006938772
:1003E00007C01307871DB5BB89679387F77063E163
:1003F000A704A9473355F50242054181B9ED854768
:10040000A38DF184A9463357D50293074006B3570D
:10041000F5023377D70293F7F70F3375D502238CA4
:10042000F18493878185A380E7002381A7008280E0
:10043000E1679387F76963EAA7009307400633559E
:10044000F50289474205418165BF9307803E3355D8
:10045000F50281474205418165B7130740063357CE
:10046000E5020946A38DC1843355F5021377F70FD2
:100470003375F5026DB7411122C483C7418006C6AA
:10048000130740026383E704130760026384E706EF
:10049000130730026393E70203C58185B531B717AF
:1004A00001404147938707C0D8CB83C6B185054734
:1004B0006395E6001307004098CB93074002B240D3
:1004C0002382F18022444101828003C591852D3928
:1004D000B717014013070004938707C0D8CB83C622
:1004E000B18509476395E6001307004098CB930751
:1004F0006002F1B703C5A1850139B7170140214753
:10050000938707C0D8CB83C6B1850D476395E600B6
:100510001307004098CB9307300255B737160140B8
:10052000930706C094479395460163CE050283C6A0
:100530004180130640026380C60213066002638096
:10054000C60213063002638EC60083D64185850637
:10055000239AD1843DA89146238BD184FDB78D4643
:10056000E5BF8946D5BF14469395E6008546E3C5A9
:1005700005FE83C6618591CE9145639DB60283C514
:10058000418013064002E392C5FC238B0184A389BA
:10059000D18403C7618521CB83D641859307A00F02
:1005A0001305F00F63F1D708A9473307F702137556
:1005B000F70F82808D456397B60083C5418013068F
:1005C0006002D1B789456397B60083C541801306A1
:1005D000300255BF8545E39AB6F610469315E600FE
:1005E000E3C505F65DB703C531850DC983D64185E1
:1005F0001306A00F637CD600239A0184AD47330510
:10060000F502A38901841375F50F8280094663778B
:10061000D600239A0184A38901848280239A0184CD
:10062000A38901840145828003C7218583C7118581
:1006300001C7860793F7F70F2388F1848280B727D5
:100640000240D84793761700EDFE9376070289E6BD
:1006500023A8070001458280D8C705458280411143
:1006600006C622C426C24AC0D93FB7C7000883A421
:1006700007F023A69184E137B7C7000803A947F024
:10068000FD1423A42185653FB7C7000803A487F0A4
:1006900023A281846D37B7C7000883A7C7F001453F
:1006A00023A0F1847557636B9700FD566308D9004A
:1006B00036946365870085073335F000B2402244E5
:1006C0009244024941018280411106C622C4853FFD
:1006D000B7C7000803A407F123AE81828D37B7C7DF
:1006E000000883A747F1014523ACF1827D7713070A
:1006F000C7313A94116713074752636F8700056744
:100700009386C7E01307479C05456377D700417779
:100710002A97BA9713B51700B2402244410182804C
:100720005D714EDE83A9C184A6C283A44184CAC080
:1007300003A98184B3E7990086C6A2C452DC56DAC5
:100740005AD85ED662D466D2B3E7270185E38144E6
:10075000B64026440649F259625AD25A425BB25B0D
:10076000225C925C2685964461618280C93DB7C750
:10077000000803A487F1FD57E31BF4FCC935B7C794
:10078000000883A7C7EFE39487FCB7270240984B84
:1007900013770708631B070EB7270240984B931681
:1007A000070163C40610613D37240240B707020009
:1007B0001CC8B7C70008938707F05CC81C4893E7BC
:1007C00007041CC8AD3D41D52328040003A70184BC
:1007D0004EC04AC23AC603A7C18326C43AC803A77B
:1007E00081833ACA7D573ACC3ACE1C4893F7070822
:1007F000E9EFB7270240984B9316070163C7060E2F
:100800003D3D37240240C1671CC80149370A080032
:10081000854A7D5BB70B04001C48B3E747011CC841
:10082000393DE30605F2B7C4000837CC0008931C35
:1008300049008A89938404F0130C0CF16317090CA6
:1008400083A709009CC01C4891049109B3E7770174
:100850001CC8F533E39484FFB7C70008938707F0FB
:100860005CC81C4893E707041CC8D13BAA84E3007A
:1008700005EE0509C147E311F9FA23280400C13345
:10088000A167938707081CC8E1B5370767451307B9
:100890003712D8C33797EFCD1307B79AD8C39C4BFD
:1008A00093F70708E38A07EE5DB537076745130737
:1008B0003712D8D33797EFCD1307B79AD8D39C4BBD
:1008C00013970701E35107EE59B5B70767459387BB
:1008D00037125CC0B797EFCD9387B79A5CC01C48BE
:1008E00093F70708E38707F09DB5370767451307B8
:1008F0003712D8D33797EFCD1307B79AD8D39C4B7D
:1009000013970701E35E07EE99B56316590183A7B4
:1009100009019CC80DBFB387940123A0670125B7C7
:1009200003C60183411106C6AE87854683C5C181D2
:100930002DC66382D5028947638EF5028DE903A532
:1009400081815D34B717014093870780114798CBA9
:100950002147D8CB29A803A5418181457134B71718
:100960000140938707801147D8CB214798CBB240ED
:10097000410111B603A7418183A781811305803E00
:100980008145B387E70233D5A702B93CB7170140C9
:1009900093870780114798CBC9BF6388D5008947E3
:1009A0006381F504E9F5854569BF371701401307F1
:1009B0000780914654CBA14614CB41677D17639FB6
:1009C000E70005671307A7B0239CE184938781851F
:1009D00029472381E700A38D018451BF3E85293437
:1009E00079B7238E0180C1B737F700E01C473E95E9
:1009F0001C47898FE3CE07FE82804111B727014053
:100A000093870740214706C6D8DBEFF06FED83A739
:100A1000C1841307803E3305F50283A781843355D3
:100A2000E502B3C7E7023E95B707002083D727004A
:100A300023AAA1829387773E63D2A70A03C70183C3
:100A400019CF23880182B7170140938707801307C6
:100A50000002D8CBB707002005472380E70083A713
:100A6000C182AA973165130505B823A6F182AD3F6F
:100A7000B7270140938707401147D8DBEFF04FE6D7
:100A800083A741841307803E3305F50283A70184C1
:100A90003355E502B3C7E7023E9583D7418223A4CD
:100AA000A1829387471F63D1A70403C7018319CF8E
:100AB00023880182B717014093870780130700023C
:100AC000D8CBB707002005472380E70083A7018222
:100AD000B240AA9723A0F18241018280E35105F838
:100AE00023AA01820145A5BFE35205FE23A401828A
:100AF0000145E9BF01A09387C185DC470A05AA9794
:100B000003D5E7FF82809387C18503C7470183C66A
:100B10005701158F1377F70F6368A700DC470A05A5
:100B2000AA9703D5E7FF8280198D19473305E5029F
:100B30009C4BAA9703D5A7FF82809387C18503C7E3
:100B4000470183C65701158F1377F70F6368A70016
:100B5000DC470A05AA9703D5E7FF8280198D19475C
:100B60003305E5029C4BAA9703D5C7FF8280938784
:100B7000C18503C7470183C65701158F1377F70F48
:100B80006368A700DC470A05AA9703D5C7FF8280E0
:100B9000198D19473305E5029C4BAA9703D5E7FF4A
:100BA0008280B77702401307200A2396E700239735
:100BB000E7009387C185A38407002385070023846A
:100BC0000700238A0700A38A070023A0070023A2A7
:100BD00007002382070213878702A3820702D8C770
:100BE0001387C7032383070298CB0547238BE700AE
:100BF00023810702238DE700A38DE7000567130714
:100C00008738239EE7002390E7028280B77702406F
:100C100003D70700118B15CB03D7E7001367070134
:100C20002397E700B77702401307F0042391E7000A
:100C3000A38207002393A700A384070003C74700EC
:100C4000136737002382E700828003D7C70013674A
:100C500007012396E700F9B79387C18503C5A7016C
:100C600083C6470203C6670105689D8A0908A60670
:100C70000D8A1A06B3E60601D18E03C6470103C8E2
:100C800057019375F50F9377F500330606411387E7
:100C9000C1856357A6040356C701D145F2073356F1
:100CA000B6028565FD156D8E2606D18F0356E701C8
:100CB000930520033356B602B70500031376F607F3
:100CC0004D8EB70500FD938505F8ED8FD18F231567
:100CD000F7041945C1832314D7042316F7043DB73D
:100CE0009387F5FF8A07BA9703D68702A947370586
:100CF00000033356F602F2051376F63F9317A6006B
:100D0000498ED18FCD8FE1B7797122D426D24AD0C6
:100D10004ECE52CC56CA5AC862C49387C18506D6F5
:100D20005EC666C223900702238107029304F00F78
:100D30001384C185377C0240094B0549954937EA40
:100D400000E0B70A02008347240293FCF70F89E70B
:100D5000FD1493F4F40F85E0B25022540259F24985
:100D6000624AD24A424BB24B224C924C33359000ED
:100D700092544561828037B5030013050598AD3163
:100D80008357CC0041671307E7F1F98F2316FC0066
:100D90008357CC00C1669386E6F193E707042316D8
:100DA000FC000357CC008357EC004207F58F231754
:100DB000FC008357EC00418393E707042317FC00F2
:100DC0008356EC008947858A99E293771700035789
:100DD0008401050742074183231CE4001840631E79
:100DE0002703639E27072305040003479400050794
:100DF0001377F70FA304E4000347940063FFE900AF
:100E0000A3040400094718C03776024003570600C0
:100E1000C166ED16758F2310E60018406374E90271
:100E2000ADEF83478400850793F7F70F2304F400A1
:100E30008347840063F8F90023040400232004009E
:100E400023225A19832B04001C402547636FF704A3
:100E50000D678A071307878BBA979C438287A30481
:100E60000400639967030347A40005071377F70F8E
:100E70002305E4000347A400E3F1E9FA2305040095
:100E80001CC0B776024003D70600136747002390C3
:100E9000E60061B72305040049B7230404005DB7E9
:100EA00023225A19FD39232024012322740161BD14
:100EB00058401C40E30BF7FE930770072311FC001A
:100EC00083474C0093F7C70F93E727002302FC00EA
:100ED000A3080A4223225A11C9BF83475402F1D7FB
:100EE000A3020402B7E700E0370702000328C400AA
:100EF000144823A2E718A30A0400B70800F0370338
:100F000000C0294E93052003194613054006834768
:100F1000440163EBFC00B7E700E03707020023A2BF
:100F2000E71091471CC051B713972C00B307E4009A
:100F3000FC57B3FE170163926E060347540193DE1C
:100F4000170193FEFE0F3307C702B38EAE0236972A
:100F50002311D7010347540193DE870093FEFE0F50
:100F60003307C70293F7F707B38EAE023697231005
:100F7000D70103475401B387B7023307C702369737
:100F80002312F70083475401850793F7F70FA30A4D
:100F9000F400850C93FCFC0F9DBF93FEF73FA983E3
:100FA00093F7F73FB38ECE034297B387B702231070
:100FB000D7012311F700F1BF58401C406303F7002D
:100FC000613983476402E38207EE2303040223208E
:100FD0003401E1BD83475402E38907ECA302040214
:100FE000A5471CC0231C0400C9B5230124030347E3
:100FF000A4018347B4016318F7000357C401835762
:101000000402E304F7EA8347A401094593F7F70FC5
:10101000A30DF4008357C401C207C1832310F40257
:101020002301040283474402034764019D8BA60702
:101030000D8B1A0793E77700D98F2314F404F93640
:10104000A947CDB5411122C406C61384C185230D1D
:10105000A400231EB400213E231FA4002244B2405A
:1010600041015DB19387C18503C7470103C657019D
:1010700083A8070103A8C700118FAA851377F70F6C
:1010800081479386C185194303C6460163E4C700BF
:10109000014582801385170063FBE7008A07C2972A
:1010A00083D727006391B7021375F50F61BF998F3E
:1010B000B3876702C69703D6070063E6C50083D7E8
:1010C0002700E3F3B7FE9377F50F7DBF1386C18545
:1010D00083464601834756010346560193F6F60FB1
:1010E00093F7F70F1387C18511CE9D8E0328070153
:1010F00093F6F60FB687994813031003034647018A
:1011000063E4C700014582803386D7403306160367
:1011100085074296035E06006365C503035E2600ED
:101120006361AE0203564600636DB600637BB30095
:1011300093F7F70F230DF700231EA700231FB70017
:10114000E1B693F7F70F5DBF03C701858947631FBA
:10115000F70AB7170140938707809847411122C4C7
:10116000B706002006C626C21377070203D426005E
:101170003DE703C7018325C7B704002003C7040068
:1011800039EF1307000298CB83D5418222853D3F7A
:101190001345150005892380A4009387C18503D7D3
:1011A000C7016318E40083D7E70103D741826303D3
:1011B000F70283C7018399CFB704002083C70400D7
:1011C00091EB83D54182228511371345150005899E
:1011D0002380A400B2402244924441018280984777
:1011E000137707025DDB03C7018345FB130700028A
:1011F000D8CB83D5418203D5E181C93D1345150084
:101200000589B70700202380A70041BF03C70183DA
:10121000B71701409387078011CB3707002003479A
:10122000070009E71307000298CB8280130700022A
:10123000D8CB828079714ECE854922D426D24AD02D
:1012400052CC56CA5AC85EC606D60144B70A002018
:101250001309800C4E8BCD3D83D5418203D52A00E6
:10126000EFF00FECEFF06FF983D701818507C2072C
:10127000C1836364F9022398F180EFF02FAA8D47B0
:10128000630FF504F947E318F5FC83C7C181E3E474
:10129000F9FC8947238EF1807DBF83A7C182B3D734
:1012A00027032398018023A6018223ACF18083A722
:1012B000018223A00182B3D7270323AAF18003C7A9
:1012C00001858947E31BF7FA05044204418093072F
:1012D0008002E3F487FAEFF03F98014479BF83C7B7
:1012E000C18189CBFD1793F7F70FE3E6F9F6238E5B
:1012F000018095B7238E6181B9BF056779711307A6
:10130000B7B022D44AD052CC56CA5AC85EC6239C23
:10131000E18406D626D24ECE62C466C2938781850A
:101320002D47416A238401802381E70005447D1A0B
:101330001387C1858347470183A9C18363FC87085D
:101340008567938787386397F91483A68183C1677C
:10135000FD176391F61483C78180639D0712B70759
:101360000020239137018567938707962392F182A6
:101370002388018423980180B7090020238E0180EF
:10138000238801822380090023A6018223A00182F1
:10139000EFF0AFE683C709006392071603A7C18287
:1013A00085472388F18223ACE18003A70182B250F4
:1013B00023A00182225423A6018223AAE180925411
:1013C0000259F249624AD24A424BB24B224C924CE9
:1013D0004561828083474701034757012285998FE2
:1013E00093F7F70F63E98702EFF0EFF0631C35091D
:1013F00083A7818363984709B70700202391A7003B
:101400002285EFF0CFF62392A182238481800547C5
:101410002388E18485A8EFF00FEF63E5A906228514
:10142000EFF0AFF1636035072285EFF04FF483A44E
:10143000818363769500C167FD176395F40483CCBF
:10144000818063980C02B707002022852391370121
:10145000EFF06FEB239FA180C167FD176398F40243
:101460002285EFF0CFF02392A18223848180094767
:1014700045B72285EFF0AFEF2A8C6685EFF02FEFAE
:10148000E36385FD05041374F40F5DB51395040142
:101490004181D1BF83C7018509476382E704636542
:1014A000F702E38907ECB707002083D5270003C5BF
:1014B0008180493EE31005ECEFE0FFFB3165130549
:1014C00005B8EFF06FD2CDBF0D47E385E7EAEFE057
:1014D0009FFA3165130505B8EFF00FD1CDBF83D565
:1014E000418203D5E181DD36E31605E8EFE0BFF880
:1014F0003165130505B8EFF02FCFCDBFEFE0BFF793
:101500003165130505B8EFF02FCECDBF371601407A
:10151000130706801C43B70610FFFD165D71F58F9B
:10152000B706300086C6CAC0A2C4A6C24EDE52DCD0
:1015300056DA5AD85ED662D466D26AD06ECED58FCD
:101540001CC31C437D751305F50FE98F93E7073026
:101550001CC31C4345787D188D68B3F70701B3E7BA
:1015600017011CC35C4EB7050200930606C093F733
:10157000F7F093E707085CCE0CD2DC422163B3F7A7
:101580000701B3E76700DCC28567938707809CCAC1
:101590001C42B3F70701B3E717011CC29C4237088E
:1015A000003092079183B3E707019CC2DC4293F7B6
:1015B000F7F093E70703DCC21C42C19B93E73700B7
:1015C0001CC21C43370640FE7D1693F7F7F093E7E5
:1015D00007031CC31C43C19B93E737001CC3DC42B9
:1015E000C19B93E73700DCC2DC42E98F93E7073009
:1015F000DCC2930700025CCB37076745B767024040
:1016000013073712D8C73797EFCD1307B79AD8C744
:10161000D843718FD8C3D84337068001518FD8C3C0
:10162000D84337062000518FD8C3D8433706E8FF88
:101630007D16718FD8C3D8434166D8C3D843D8C369
:10164000D843518FD8C3D84337060080518FD8C3B1
:10165000371702401C4F2D4693E717201CCFB727A2
:10166000014093870740B0CB37B66D1B1306B66DAC
:10167000D0C790CB37060E00050690C73D46B0CBCD
:10168000370600407D16D0C790CB1C4F93E717015B
:101690001CCF5C4BCD8F5CCBDC4237070044A207EC
:1016A000A183D98FDCC2370701401C4F93E7073075
:1016B0001CCF9387C18593878704C2073777024081
:1016C000C1832318F700F977A1072310F700F1571A
:1016D000A304F700EFF04FE31389C18505C18347E9
:1016E000590181C705472389E1840347490183479D
:1016F00059016305F7000547A388E18437140140C9
:10170000130404C01C40370AF1FF7D1A3707040098
:10171000B3F74701D98F1CC01C40B70400F1FD147A
:10172000E58F370B0004B3E767011CC01C40C57A86
:10173000FD1AB3F75701916BB3E777011CC0B717D8
:1017400001409C471397E7006350070CEFE0DFED83
:10175000EFE09FF711C983C70185F51793F7D70FFE
:1017600081C791472388F184EFE07FEF01E58D4742
:101770002388F184B7170140938707C09843B706C1
:10178000F1FFFD16758FB7060300558F98C3984378
:10179000B70600F1FD16758FB7060003558F98C385
:1017A0009843C576FD16758F8D66558F98C38567EE
:1017B0009387476123980180854A81440D4B231705
:1017C000F100EFE05FCB3165130505B8EFF0CFA175
:1017D00083CB01858D6C33876B03A38D0184938745
:1017E0000C9D938C0C9DBA97A69703CD07009D473F
:1017F00063E2A70F0D671307078E93172D00BA97A3
:1018000098439387818502871C400D673165B3F744
:101810005701D98F1CC0A1475CC8130505B8EFF06C
:10182000AF9C1C4413974701E35207F21C40370753
:1018300000033165B3F75701B3E777011CC01C40C3
:10184000130505B8E58FD98F1CC0930700045CC849
:10185000EFF08F991C44139747011C40E58FB3E7C5
:1018600067011CC01C40B3F74701634807023707F4
:101870000300D98F1CC0C144316544C8130505B8A5
:10188000EFF08F961C44139747018D476354070070
:1018900044C895472388F18465BD37070300D98F75
:1018A0001CC03165C1475CC8130505B8EFF0CF9384
:1018B0001C4413974701E34B07E883C71185E3876F
:1018C00007E88547C1BF1307A050239CE18429473F
:1018D0002381E700EFE09FC4630A650D6364AB08F2
:1018E0008547630FF5088947630FF50A9147E39A27
:1018F000FBECE3880AEC83D701811307007D8507A1
:10190000C207C1832398F180E37DF7EA2398018021
:10191000EFF0BF9EEFF01F9205671307C7D0239C1F
:10192000E184394775B705671307F7F0239CE18415
:10193000154779BF056713070711239CE1844947C1
:1019400041BF0357E100239CE1845D4751B7056720
:1019500013078731DDB7056713079731239CE184AF
:101960005947BDB79147E313F5F89D47E3E0A7F961
:101970000D6793172D0013070790BA979C43828732
:10198000814AE36595F6B3876B03BE9CA69C03C7AB
:101990001C009307F00F6314F700814A81BF850490
:1019A00093F4F40FA1B7B9D0FD14DDBF9387DBFF2B
:1019B000B337F000B3FAFA0015BF85673706002089
:1019C000938787382311F6008567938707962392BC
:1019D000F182B707002023800700238E018023882F
:1019E00001822398018023A6018223A00182EFF0C7
:1019F000CF80B707002083C7070085452388B182C1
:101A0000E39607EEB717014093870780130500029E
:101A100088CB83A7C1822388B18223ACF18083A7BE
:101A2000018223A6018223AAF18023A00182EFF084
:101A3000AFF1856505659385059613058538EFE05B
:101A40003FEEEFE09FFBB707002083C70700E39F4F
:101A500007E883D701819308800C8507C207C183FB
:101A600063EEF8022398F180EFE05FAB91476309E2
:101A7000F506F947630AF5048D47E31AF5FA83C7BB
:101A80000183D5D783C7C181854585CFFD1793F7DE
:101A9000F70FE3EEF5F8238E018051BF83A7C182D3
:101AA00023980180B3D7170323A6018223ACF180CA
:101AB00083A7018223A00182B3D7170323AAF18051
:101AC00065B7238EB180A5B783C70183ADD383C526
:101AD000C1818547E3EDB7F48947238EF18081BF4B
:101AE000B71701409387078093060002D4CB238861
:101AF00001822147D8CB1147D8CBCDBB854723885E
:101B0000F18485692384F180EA8493898938834745
:101B1000490103475901998F93F7F70F63EA97003B
:101B20002685EFE05FFD6314350B23849180268DBD
:101B30006A85EFE05FFCB70700202391A700AA8425
:101B40006A85EFF0CF822392A182AA892685239805
:101B50000180238E018023880182EFF0AFD01345EE
:101B60001500370C002005892300AC00930C800C75
:101B7000854BEFF06FDDCE852685EFE07FDAEFE075
:101B8000DFE783D701818507C207C18363E5FC04D2
:101B90002398F180EFE09F988D476300F50E63EF87
:101BA000A704630E75078947E315F5FC83C7018316
:101BB000B5EB034749018346590183C78180158FDF
:101BC0001377F70FE3F7E7FA93891700A5A88504C1
:101BD00093F4F40F2DBF83A7C18223980180B3D75C
:101BE000970323A6018223ACF18083A7018223A05F
:101BF0000182B3D7970323AAF18069BF9147630D90
:101C0000F508F947E317F5F683C70183BDD383C70A
:101C1000C181E3E0FBF68947238EF18099BF83C73A
:101C2000018399CBB71701402388018293870780EE
:101C300013070002D8CB35BF83C78180E3FBFBF2DB
:101C40009389F7FF93F9F90F4E8523843181EFE0F3
:101C50009FEAB70700202391A700AA844E85EFE0F2
:101C60001FF12392A182AA892685EFF0AFBF134509
:101C7000150005892300AC00EDBD83C7C181638ACF
:101C8000770109476387E700E39507EE238E7181AB
:101C9000CDB5238E0180F1BD83470C00E39B07EC9B
:101CA00083C7018393C717002388F182D9B583477F
:101CB000490103475901998F93F7F70F63F597048B
:101CC0002685EFE09FE763F0A904856737070020CA
:101CD0009387873826852311F700EFE0DFE2239F03
:101CE000A1802685EFE07FE52396A1802685EFE0A1
:101CF0001FE82395A1802392A1821307401F2397F9
:101D0000E18023849180850493F4F40F8347490193
:101D100083D9C180E3FD97F8B71701409387078007
:101D2000114798CB2147D8CB85454E85EFE0CFEBC7
:101D30000D49EFE0AFFEAA84FD142398A180C204F0
:101D40003165130505B8C180EFE01FCAEFE0AFF2BF
:101D5000E36199FE83D4E18185450D4A2685EFE054
:101D6000AFE8EFE0AFFB2A897D192398A1804209F3
:101D70003165130505B813590901EFE0FFC6EFE01F
:101D80008FEFE3602AFFB717014093870780114761
:101D9000D8CB214798CB03D9A18085458D4A4A8568
:101DA000EFE08FE4EFE08FF72A8A7D1A2398A18075
:101DB000420A3165130505B8135A0A01EFE0DFC284
:101DC000EFE06FEBE3E04AFF03DD4182EA85268521
:101DD0002388018223980180238E0180370C002004
:101DE000EFF0CFAE13451500835C2C000589B707D3
:101DF00000202380A700014B814D054AEFF0CFB4AE
:101E00006685EA85EFE0DFB1EFE03FBF03D50181F2
:101E10009307800C05054205418163E4A7022398DE
:101E2000A180EFE0AFEF594E6360AE060D6E0A057C
:101E3000130E0E927295084102858544C1BD014B77
:101E400075BF03A5C1821307800C3355E5021383C8
:101E50001D00931D030123A601822398018093DDB9
:101E60000D0193078002054B23ACA18003A50182DD
:101E700023A001823355E50223AAA180E3F3B7FB37
:101E8000EFE09FDD814D71BF794EE319C5F703C5C2
:101E900001832DD503C5C181E362AAF60945238ECE
:101EA000A180A9BF03C5C18115E183572C00938789
:101EB000C7F9939C070193DC0C0163E49C006685E1
:101EC00019A02685A68C2311AC000DBFE31845F39D
:101ED00083D5418203D5E1809385C5F9139D050122
:101EE000135D0D012392A183E37AADF02392A182C9
:101EF0002A8D29B703C5C18115E9E3010BF003550C
:101F00002C001308703E330595416354A80023113B
:101F10009C0193874CED939C070193DC0C01014BD2
:101F2000E3FE9CEC23119C00A68CC9BDE31845ED93
:101F3000E3060BEC03D541821308301F3305A5419E
:101F40006354A8002392A1839305CDF9139D050145
:101F500003D5E180135D0D01014B79B703C5C18144
:101F600011ED83572C0093874706939C070193DC60
:101F70000C01E3F699F54E85CE8CB1B7E31045E937
:101F800083D5418293854506139D0501135D0D019F
:101F90006A856374A9014A854A8D2392A182B9BDDD
:101FA00003C5C18115E9E30B0BE403552C001308AD
:101FB000703E3385AC406354A80023119C01938785
:101FC000CC12939C070193DC0C01014BE3F899E3DD
:101FD00023113C01CE8C1DB5E31245E3E3000BE277
:101FE00003D541821308301F3305AD406354A80068
:101FF0002392A18393054D06139D0501135D0D01E9
:10200000014BE37DA9DF239221834A8DC5BB03C524
:10201000C181E365AADE23119C012392A183F9BB50
:1020200003C5C181630A4501094E6307C501E31772
:1020300005DC238E4181D9B3238E0180C1B3B7075C
:10204000002003C50700E31B05DA03C50183134520
:1020500015002388A1825DB3056581451305853888
:10206000EFE08FB8B717014093870780114798CBEF
:102070002147D8CB1307000298CB8D44EFE00FCA5D
:102080002A847D1431654204130505B84180EFE0D0
:10209000BF95EFE04FBEE3E384FE37240140130910
:1020A000800C814913040440A1443165130505B82F
:1020B00044D8EFE07F93EFE0AF827D19AA99E31651
:1020C00009FE93074006B389F90211659307800C56
:1020D000814513050565B3D9F902EFE0EFB0B717F5
:1020E000014093870780114798CBC4CB13070002A8
:1020F00098CB8D44EFE08FC22A847D143165420471
:10210000130505B84180EFE03F8EEFE0CFB6E3E383
:1021100084FE372401409304800C13040440214BB7
:102120003165130505B8232A6403EFE0FF8BEFD078
:102130003FFBFD142A99EDF41304800C33598902F6
:1021400093074006371A014081450145914A3309FA
:10215000F90293070002232AFA80EFE0EFA8232A6E
:102160005A8123286A81372A0140130A0A403165BF
:10217000130505B8232A5A03EFE01F87EFD05FF657
:102180007D14AA946DF493074006B384F4020565A8
:102190009307800C8145130585BBB3D4F402EFE0AF
:1021A000AFA4B71701409387078023AA570121479F
:1021B00098CB1307000298CB8D4AEFE02FB62A8AFE
:1021C0007D1A3165420A130505B8135A0A01EFE07A
:1021D000BF81EFE04FAAE3E24AFF372B0140930AA9
:1021E000800C130B0B40114A3165130505B8232AE7
:1021F0004B03EFE06FFFEFD0BFEEFD1A2A94E3959B
:102200000AFE37757C4DB3093941130505D03355A6
:10221000350313074006B71A01409307000223AAAB
:10222000FA8081453309A90223A6A184B7B7120118
:10223000938707883359E902B387274123A4F184A0
:102240009307800CB357F40237A9E1111309093041
:10225000B387E702858F3359F90223A22185B3871B
:1022600024038D44B3D7E702B307F04023A0F184E1
:10227000EFE08F97A14723A84A8123AAFA80EFE0D5
:10228000EFA92A847D1431654204130505B8418005
:10229000EFE08FF5EFE02F9EE3E384FE81454A8572
:1022A000EFE08F94B717014093870780214798CBC1
:1022B0001147D8CB8D44EFE06FA62A847D14316599
:1022C0004204130505B84180EFE00FF2EFE0AF9A4A
:1022D000E3E384FEEFE0CFC40DC1375507001305DB
:1022E0000530EFE06FF0EFE08FB701C9B707EFBE41
:1022F00037E700E0938707083CC705671307A73057
:10230000239CE1849387818529472381E700A38D5E
:102310000184EFE04F963165130505B8EFE0CFEC8F
:10232000CDBF95472388F184856793875730239CD9
:10233000F1845147938781852381E700138C818540
:102340000D49EFE0AF9DAA84FD142398A180C2043B
:102350003165130505B8C180EFE00FE9EFE0AF91FB
:10236000E36199FE23880182C1668567138BF6FFBE
:102370009387873823980180238E018023AEF182D2
:1023800023AC6183814A854B5A8A3165130505B8B0
:10239000EFE08FE503A9C18383A4818313150901AD
:1023A00093950401C1814181EFE08FD783D70181EB
:1023B0001307800C8507C207C1836374F700814748
:1023C000854A2398F180EFE06F95D147E3EFA7FAB4
:1023D0008D679387C7970A053E951C41828783C7FF
:1023E000C1818DE385671309C9F9938737CE63F5FA
:1023F000270123AE218351BF8567938747CE23AE44
:10240000F18261B7E39377F9638B44019384C4F954
:102410009307301F63F9970023AC9182BDB78564A1
:10242000938484BBD5BF9307401F23ACF182B1BF17
:1024300083C7C18185E763810A028567130949ED76
:10244000938737CE63F5270123AE218331A08567BB
:10245000938747CE23AEF182814A05BFE39E77FF83
:10246000E38C0AFE638B44019384C4F99307301F05
:1024700063F9970023AC9182C5B78564938484BBCC
:10248000D5BF9307401F23ACF182F9B783C7C18141
:1024900089EB95671309490693878720E3E127F7BE
:1024A00089BFE39477EF856793844406938787BB5E
:1024B000E3F497F623AC6183C9BD83C7C18199EB6F
:1024C000E38C0AF895671309C91293878720E3E321
:1024D00027F99DBFE39277F9E3800AF88567938433
:1024E0004406938787BBE3F797F8C167FD1761BF81
:1024F00083C7C18191C7E39A77E9238E018071B5C3
:10250000238E718159B5FD779387C7313E999167C5
:1025100093874752E3EB27E785679385C4E093876A
:10252000479C63F4B700E39244E7EFE06F9F0DC16F
:102530003755070013050530EFE00FCBEFE0CF98DC
:1025400001C9B707EFBE37E700E0938707083CC72C
:1025500085679387A730239CF184A9472301FC005A
:10256000A38D0184EFD03FF13165130505B8EFE08D
:10257000AFC7CDBF99472388F184EFE0EF9419E10D
:102580006FF02FA423AE018223AC0182EFE04F99BC
:102590000DC13755070013050530EFE0EFC4EFE03C
:1025A000AF9201E9B707EFBE37E700E0938707086E
:1025B0003CC705671307A730239CE1849387818577
:1025C00029472381E700EFD01FEB3165130505B8DC
:1025D000EFE08FC1CDBF63920ABC81451305E0389F
:1025E000EFD09FE08D4CEFD07FF3AA8AFD1A23989D
:1025F000A180C20A3165130505B893DA0A01EFE03C
:10260000AFBEEFD05FE7E3E05CFF6FF00FB95D7145
:102610003AD2377702403ED08347970086C696C4A9
:102620009AC29EC022DE26DC2ADA2ED832D636D4D2
:1026300042CE46CC72CA76C87AC67EC493F70702E9
:10264000BDC78347970085468D8B639AD704835611
:10265000A70015476375D7049386C18583D4860484
:102660001384C1851397040141876345070E13D670
:10267000C4001D8A13F7F401631706100D466309A1
:10268000C70C1946630FC70E6316F70C2383E602C7
:1026900083C74602850793F7F70F2382F602377741
:1026A00002408347970093E70702A304F700B77738
:1026B000024003C79700620761876357070403D787
:1026C000C700C166BD16758F2396E70003D7E700E4
:1026D000C166BD16758F2397E70013077007239116
:1026E000E70003C7470085461377C70F1367270026
:1026F0002382E7001387C185A302D70203C797008F
:1027000013670708A384E700B777024003C7970061
:102710001377070409CB03C7970013670704A38443
:10272000E700EFE00FC87254B640A6421643864356
:10273000E2545255C2553256A25612578257724829
:10274000E248524EC24E324FA24F616173002030B8
:102750009D471CC01305005AEFE00FA98567A3022F
:102760000402938707E0FD8C8347640193E414001F
:1027700009458D8B9A07DD8C23149404EFE00FC973
:1027800039BFA147F9B7E317F7FC8D471CC093D7B2
:10279000C4009D8B230AF40093D764008D8B230B18
:1027A000F4001307840481471305C406F1468345EA
:1027B00027003306F50085072300B6000507E398D8
:1027C000D7FE49BF85679387C75097E1FF1F938165
:1027D0006103173100201301E1827D45731005BCB0
:1027E00013058008732005308D45739045801305CF
:1027F00040004D8D73105530739017340D67B70737
:1028000000201307479E938707009386818063E823
:10281000D702938781801387418E63E7E702B7274A
:102820000240094798C3B717024023A2070037F7B1
:1028300000E0954614C3714798CF730020301443CD
:10284000110794C39107D1B723A007009107E1B7FF
:102850001C010000440100006E0100008E01000018
:10286000AE010000D0010000F2010000FE010000F6
:102870002C0200003802000048020000680200003C
:1028800088020000A6020000B2020000BE020000A2
:10289000DC020000FA0200001803000042030000FE
:1028A00060030000420100007E0300008C03000072
:1028B000AA030000CA030000A00E0000AA0E000038
:1028C000B00E0000DA0E0000B80F0000AA0E0000E3
:1028D000AA0E0000AA0E0000D40F0000EA0F0000AC
:1028E000C61800001819000026190000341900004D
:1028F00042190000421900004E190000561900004C
:10290000BA190000FC1A00003A1E0000582000000E
:10291000101900002223000074250000D6250000B5
:102920003E1E0000A41E00005C1F000020200000CE
:102930003E200000FC1D0000FC1D0000FC1D0000EE
:10294000FC1D0000FC1D0000F41E00000E20000015
:10295000FC1D0000FC1D0000FC1D0000FC1D000013
:10296000FC1D0000FC1D0000FC1D0000FC1D000003
:10297000A01F0000FC1D00000E20000058240000D5
:10298000DE2300008C240000F02400000625000057
:102990008A2300008A2300008A2300008A23000083
:1029A0008A230000302400008A2300008A230000CC
:1029B0008A2300008A2300008A2300008A23000063
:1029C0008A2300008A2300008A230000BA24000022
:1029D0000005FF0105FF0201050703FF0406FF05CF
:0429E000FFFF0000F5
:0829E40001008813240000002B
:00000001FF
