:040000006F109006E7
:100004000000000000000000600500006005000022
:100014000000000060050000000000000000000077
:100024006005000060050000000000000000000002
:1000340060050000000000006005000000000000F2
:10004400600500006005000060050000000000007D
:100054006005000060050000600500006005000008
:1000640060050000600500006005000060050000F8
:1000740060050000600500006005000060050000E8
:1000840060050000600500006005000060050000D8
:1000940060050000600500006005000060050000C8
:1000A40060050000600500006005000060050000B8
:1000B40060050000600500006005000060050000A8
:1000C40060050000AC16000060050000600500003B
:0C00D400600500006005000060050000F1
:1000E000B7270140938707409847B706400013673A
:1000F000170098C79847558F98C7B72601401387B0
:1001000006401C43898BE5DF6847420541818280B8
:10011000C94763EAA7048967938787F70A053E956D
:100120001841B717014093870780028737170140AE
:10013000BD4694CB930707C0B716020094CBA947DE
:1001400031A8B7060C008D063717014094CB9307F2
:1001500007C0B716020094CBB7070A001CCBB7073D
:100160000400A5071CD38280BD4694CB37170140FD
:1001700085678907930607C09CCAB7070200A107D5
:100180001CCBB7070500A107F1BFB70608009D0605
:1001900094CB3717014085678907930607C09CCA2F
:1001A000B7070200A1075DBFB7060C008D0694CB10
:1001B0003717014085678907930607C09CCAB707B0
:1001C0000800890761BFB7060800371701409D0680
:1001D00094CB85678907930607C09CCAA9471CCBA7
:1001E000B7070C008507BDBF37170140BD46CDB727
:1001F000B7060C00371701408D0625BF37170140A1
:10020000BD4694CB8567930607C089079CCA05BF86
:10021000B7060800371701409D06E5B7B7060C0082
:100220008D063717014094CB930707C0B71602001D
:1002300094CBB7070A001CCBB7070D0025B7B7064C
:100240000C008D0694CB371701408567930607C0D5
:1002500089079CCAF9BFB7060400AD0694CB3717CF
:1002600001408567930607C089079CCAA947E1B783
:10027000B706040037170140AD0694CB930707C0BB
:10028000B716020094CBB707080089076DB7370788
:1002900004001306B70090CBB716014085678907A5
:1002A000138606C01CCAB707080089079CCA250721
:1002B00098D28280B7060400AD0694CB3717014070
:1002C00085678907930607C09CCAA94755BDBD46E7
:1002D0003717014094CB930707C0B716020094CBA1
:1002E00071B7370704001306B70090CBB71601406B
:1002F00085678907138606C01CCAA94745BF3717FB
:100300000140BD469DBF89679387F77063E8A702E8
:1003100029473355E5028547420541819DC593072D
:100320004006B357F5023355E50293F7F70F3375DF
:10033000E5020947A383E18229473DA093074006D0
:100340003355F502894742054181A383F182A946CD
:10035000B357D502130740063357E502B3F7D70268
:100360001377F70F3375D5022382E1821387418219
:10037000A300F7002301A7008280411126C2B70421
:10038000002022C403C404004AC006C6054963090C
:1003900024039307C002630EF40431E003C56182B5
:1003A000853BB717014013870780894654CB83C626
:1003B00071820D476394E600114798D3854715A0D5
:1003C00003C54182B133B7170140138707C0856663
:1003D00054CB03C7718263148700114798D39307E6
:1003E000C002B24022442380F400024992444101F9
:1003F000828003C55182293BB717014013870780CC
:10040000232A270183C6718209476394E6001147B6
:1004100098D38147F9B7B71701409447B705020051
:1004200037070020ED8E03C6018203470700BDCACF
:1004300019EA35E39146A38FD18005472380E182F5
:100440001305F00F82808546E31CD7FE03C6F181B9
:1004500009E6A38FE1802380E18203C6018203C500
:10046000E18159C203C6F1816316A60683D6C18114
:100470008506C206C182239ED1801307A00F637038
:10048000D70623800182A38F0180A9473305F50297
:100490001375F50F828085462380D1828546E30E51
:1004A000D7FA79BF0DC619CB8546E31BD7F883C6AB
:1004B000F18189EA8946A38FD18045B70D47A38F83
:1004C000E180BDBF23800182A38F018079B7A38F14
:1004D0000180E9B78545239EB180238FC180A38F1A
:1004E000018023800182A9A031C183D5C181130875
:1004F000A00F637CB80023800182239E0180A38F1C
:10050000A180238F0180AD4751B70948637BB800B4
:10051000239E0180A38FA180238F018023800182ED
:100520008280238F0180239E018055BF239E0180FE
:100530000145828003C7A18183C7918101C78607D6
:1005400093F7F70F238CF1808280B7F700E09C4788
:1005500037F700E03E951C47898FE3CE07FE828087
:1005600001A093878182DC470A05AA9703D5E7FF9C
:1005700082809387818203C7470183C65701158F05
:100580001377F70F6368A700DC470A05AA9703D51E
:10059000E7FF8280198D19473305E5029C4BAA9726
:1005A00003D5C7FF82809387818203C7470183C633
:1005B0005701158F1377F70F6368A700DC470A050B
:1005C000AA9703D5C7FF8280198D19473305E50225
:1005D0009C4BAA9703D5E7FF8280B77702401307A9
:1005E000200A2396E7002397E70093878182A3845C
:1005F00007002385070023840700238A0700A38AB6
:10060000070023A0070023A2070023810702138706
:100610008702A3810702D8C71387C7032382070273
:1006200098CB0547238BE70023800702238DE70043
:10063000A38DE700056713078738239EE700239FF4
:10064000E7008280B777024003D70700118B15CBF4
:1006500003D7E700136707012397E700B777024046
:100660001307F0042391E700A38207002393A70058
:10067000A384070003C74700136737002382E700FE
:10068000828003D7C700136707012396E700F9B7F5
:10069000797122D426D24AD04ECE52CC56CA5AC8EC
:1006A0009387818206D65EC662C409698569216A1C
:1006B000C16A238007029304F00F13848182130917
:1006C00049FC138BF9E1130AFAE1FD1A834704028E
:1006D00013FCF70F89E7FD1493F4F40F99ECB25073
:1006E00022540259F249624AD24A424BB24B224C3E
:1006F0003335900092544561828037B5030013056D
:100700000598A135B777024003D7C7004207418358
:100710001377E7F1420741832396E70003D7C70029
:10072000136707042396E70003D7C7009316070152
:1007300003D7E700C182420741831377E7F14207FD
:1007400041832397E70003D7E70013670704239744
:10075000E70003D7E700058B39C30357840105077A
:1007600042074183231CE400144005476395E60CCF
:10077000A30404000347A40005071377F70F23051C
:10078000E4000346A40015476374C706230504006C
:10079000094718C003D707001367470081A813F75C
:1007A00016008356840105468506C206C182231CB5
:1007B000D40014406395C60831C3230504000347E1
:1007C000940005071377F70FA304E4000346940091
:1007D0001547637FC700A3040400094718C003D767
:1007E0000700420741836D9B420741832390E70046
:1007F0001C4063F8F6022304040025A0A3040400AF
:10080000230504001C4063FEF6008347840085072F
:1008100093F7F70F2304F40003478400954763E53B
:10082000E702832B04001C402547636EF7068A0706
:10083000CA979C4382871C40E36FF7FADDB71C40E0
:10084000E371F6FE79D345BF23040400232004009E
:10085000B7E700E03707020023A2E718D9B7B7E7E8
:1008600000E03707020023A2E718853B85471CC03C
:100870001DA858401C406308F702377702409307D1
:1008800070072311F7008347470093F7C70F93E7DB
:1008900027002302F700B7E700E0A38807423707E5
:1008A000020023A2E710232274010DB5834734020E
:1008B000FDDBA3010402B7E700E0370702000328CD
:1008C000C400144823A2E718A30A0400B70800F0E4
:1008D000370300C0294E930520031946130540062F
:1008E00083474401636AFC00B7E700E03707020072
:1008F00023A2E7109147A5BF13172C00B307E4000C
:10090000BC47B3FE170163926E060347540193DEA2
:10091000170193FEFE0F3307C702B38EAE02369760
:100920002311D7010347540193DE870093FEFE0F86
:100930003307C70293F7F707B38EAE02369723103B
:10094000D70103475401B387B7023307C70236976D
:100950002312F70083475401850793F7F70FA30A83
:10096000F400050C137CFC0FA5BF93FEF73FA98391
:1009700093F7F73FB38ECE034297B387B7022310A6
:10098000D7012311F700F1BF58401C40630EF70850
:100990008345A401034724029387290013F6F50F2A
:1009A0001D8B26075D8F83476401337747011377DB
:1009B000F7F38D8B9A07834644015D8F834754017B
:1009C0009D8E9397C50163D9B6068356C401D14560
:1009D000B3D6B6029385F9FFED8EA606D58F834672
:1009E000540183454401B2968D8EFD168A06A29667
:1009F00083D6860213062003B3D6C6023706000349
:100A000093F6F607D18E370600FD130606F8F18F30
:100A1000D58F2312E406194533F75701C1832313F9
:100A2000E4062314F406393983474402E38D07E6CC
:100A300023020402954725BD7D160A062296835699
:100A400086022946B7050003B3D6C60293F6F63FE1
:100A50001396A600CD8ED18E65BF83473402E38402
:100A600007E4A3010402A5471CC0231C040025BD04
:100A700085472300F4020347A4018347B4016318A8
:100A8000F7000357C4018357E401E30EF7E08347FF
:100A9000A401094593F7F70FA30DF4008357C40190
:100AA000C207C183231FF4002300040283472402EA
:100AB000034764019D8BA60793E777000D8B1A0708
:100AC000B3F76701D98F2312F406AD3EA94745B3AA
:100AD0009387818203C6470183C6570103A8070194
:100AE000CC47158E1376F60F81471387818299487C
:100AF0008346470163E4D70001458280938617004F
:100B000063FFC7008A07AE9783D727006395A702C4
:100B100093F6F60F230DD700231EA70095BE918FE5
:100B2000B3871703C29703D307006366650083D7B3
:100B30002700E3FFA7FC93F7F60F5DBFB71602404F
:100B40009C4E197186DEA6DACAD8D6D2A2DCCED6E1
:100B5000D2D4DAD0DECEE2CCE6CAEAC8EEC693E75B
:100B600017009CCE370501405C41370790FF7D1789
:100B7000F98F37070004D98F5CC1B717014013877D
:100B800007801043B70510FFFD156D8EB7053000C7
:100B90004D8E10C31043B7050040B708020012067F
:100BA00011824D8E10C3D04F45787D181376F6F024
:100BB00013660608D0CF23A0170390430D6E7D73F4
:100BC000337606013366C60190C3D04F1303F30F8B
:100BD000337606013366C601D0CFD04F938A418267
:100BE000419A13663600D0CF104333766600136601
:100BF000063010C31043337606013366C60110C3B6
:100C00009043138807C01376F6F01366060390C36B
:100C100003A607C01376F6F01366060323A0C7C029
:100C2000D04F3376660013660630D0CF93070002AC
:100C30005CCB85679387B7B02392F1822D4793876A
:100C400041822381E7009C4E93E717209CCEB72773
:100C5000014093870740B8CB37B76D1B1307B76DBB
:100C6000D8C798CB37070E00050798C73D47B8CBC4
:100C70001387F5FFD8C798CB9C4E3707004493E7FE
:100C800017019CCEDC4AB3E71701DCCA8327480072
:100C9000A207A183D98F2322F8001C4D3777024089
:100CA00093E707301CCD9387818293874706C2075D
:100CB000C1832318F700F977A1072310F700F15734
:100CC000A304F700F1321389818205C183475901DA
:100CD00081C70547238DE1800347490183475901B7
:100CE0006305F7000547A38CE180371A014083278D
:100CF0004AC0370CF1FF7D1CB3F7870137070400AA
:100D0000D98F2322FAC013040A801C40B70B0200BB
:100D100093090AC0C19B93E747001CC01C4093F78E
:100D2000F7F093E707041CC083278A00B3F7770125
:100D300081C7EFF03F8079A81C40094DB16C93F753
:100D4000F7F093E707031CC02328A40113850CB810
:100D5000EFF0AFFF83278A00232AA401B3F77701BE
:100D6000E9FB1C40054D13850CB893F7F7F093E7AA
:100D700007041CC01C40C19B93E737001CC02328FC
:100D8000A401EFF08FFC83278A00232AA401B3F784
:100D900077016385071E1C403707030013850CB8D5
:100DA000C19B93E747001CC083A749000564B3F7C4
:100DB0008701D98F23A2F90023A88900EFF0EFF86B
:100DC00083278A0023AA8900B3F77701BDD38D4713
:100DD000238CF180B7170140138607C05842B7062D
:100DE000F1FFFD16758FB7060300558F58C2938724
:100DF00007809843419B1367370098C39843137744
:100E0000F7F01367070398C303C481818D47E30597
:100E1000F404E3ED870685476307F41E8947630200
:100E2000F4729307A0502392F1823169A94723817C
:100E3000FA00130909B88D49EFF0EFDD2A844A85DD
:100E4000EFF0AFF0EFF06FD39307F4FFC207C18369
:100E5000E3E4F9FE37170140130707801C43B70688
:100E60000030B72B014092079183D58F1CC39307A5
:100E700000085CCB85679387176B3EC2B167938789
:100E800007B83EC88967416A7D7C938797F7014D13
:100E90008149854C02C0014B0149938B0B40930D56
:100EA000803E7D1A130CBCE63EC4914723AAFB0288
:100EB000EFF00FA392473305F5023355B503B3772F
:100EC0004501629542053E9941819307603E63FD6D
:100ED000A700638B0900B7170140938707801307AA
:100EE00000024E8DD8CB8149424505044204EFF003
:100EF000CFE5994723AAFB02EFF08F9EA2474180DE
:100F00003305F5023355B503337545012A9BEFF0E0
:100F1000CFC6930750066316F402130540063359F3
:100F2000A902638E090A63860C0A8145337549015B
:100F3000EFF06FBD93170901C1833EC0014B01491A
:100F40000144EFF04FCD8D476305F50A9147E31E4D
:100F5000F5F482471307603EE297C207C1836368D6
:100F6000F706E3140DF4B717014093870780D847BD
:100F700093C9190013470702D8C705BF1C4037079C
:100F8000030013850CB8C19B93E747001CC083A7DF
:100F900049000564B3F78701D98F23A2F90023A87C
:100FA0008900EFF08FDA83278A00B3F7770189CBC6
:100FB00083C7918191C723AA8900238CA18119BD80
:100FC000B7170140938707C00567D8CB9DB3054D80
:100FD000E9BD3355AB0281453375450191BF930798
:100FE000A0502392F182A9472381FA00A3830182B2
:100FF00091B7B717014093870780D84793CC1C005F
:101000001347070895BF85679387C7D02392F1825E
:10101000B9472381FA0083C7A18195C3B169938938
:1010200009B80D4AEFF02FBFAA84FD14C2044E8503
:10103000C180EFF08FD1EFF04FB4E3659AFEB16459
:10104000938404B88D49EFF00FBD2A8A2685EFF00E
:10105000CFCFEFF08FB29307FAFFC207C183E3E46B
:10106000F9FE37170140130707801C43B70600300D
:10107000416B92079183D58F1CC3930700085CCB0B
:10108000B7270140938707403EC203A8C18083A7CA
:101090008180814942C63EC403A8418183A7018162
:1010A0008144054C02C0814B814A7D1B3EC842CA27
:1010B00092471147D8DBEFF0AF8285679387176BB4
:1010C000B30CF5029307803E2285B3DCFC02EFF0FF
:1010D0004FC9EF007060AA8D2E8DB3FC6C01668540
:1010E000EF00905F2246B2462ED0E69AEA85AA8C9F
:1010F0006E85EF00B01882566686EF00A07F6350C1
:1011000005024246D2466E85EA85EF003017AE866C
:1011100082552A866685EF00E07D634C050091C804
:10112000B71701409387078013070002A689D8CB21
:1011300081443165130505B8EFF02FC11247994777
:10114000050A5CDBEFE0DFF98967938797F73305E2
:10115000F5029307803E420A135A0A013355F502FD
:1011600033756501AA9BEFF04FA1930750066315F5
:10117000FA0213054006B3DAAA02A5C063090C04FB
:10118000814533F56A01EFF00F9893970A01C18307
:101190003EC0814B814A014AEFF0EFA78D476304BF
:1011A000F50E63E6A70485476308F50A8947E3114E
:1011B000F5F0C5E48347490103475901998F93F737
:1011C000F70F6373F40A05046DA08549D5B533D5CF
:1011D000AB028145337565017DB7228563060C003E
:1011E000EFF02FB8854545B7EFF0EFBBE5BF91476E
:1011F000E310F5EC2285EFF0CFB6EF00F04DAA8DAD
:1012000002452E8DEF00504D2246B246AA8C2ED0BC
:101210006E85EA85EF00900682566686EF00C079FB
:10122000E35505FA4246D2466E85EA85EF00100581
:10123000AE8682552A866685EF000078E35705F86A
:10124000E39809E6B717014093870780D84793C40E
:1012500014001347070289A091C8B717014093876C
:10126000078013070002D8CB814499B5E37E85FE41
:101270007D141374F40F2285EFF0AFAEEFF05F85AD
:101280009339150035B5B717014093870780D847C4
:10129000134C1C0013470708D8C719BD83474901E1
:1012A00003475901998F93F7F70F63F2870422855B
:1012B000EFF02FAC824763FCA70283474901034745
:1012C0005901998F93F7F70F63E287268327C900A7
:1012D00013172400BA9783D7E7FF22853EC2EFF0A9
:1012E0004FA92AC02285EFF00FAC2AC4AA890504B1
:1012F0001374F40F83474901E3F287FA85679387F4
:10130000F7F02392F1829547B1642381FA00938428
:1013100004B80D49EFF02F902A847D1442042685ED
:101320004180EFF08FA2EFF04F85E36589FE37171C
:101330000140130707801C43B7060030024592079F
:101340009183D58F1CC3930700085CCB8545B1649E
:10135000EFE07FFB938404B80D49EFF0CF8B2A8434
:101360007D14420426854180EFF02F9EEFF0EF8040
:10137000E36589FE12458545B164EFE0DFF89384AB
:1013800004B80D49EFF02F892A847D144204268584
:101390004180EFF08F9BEFE05FFEE36589FEB717BA
:1013A0000140938707801307000898CB85454E8539
:1013B000B164EFE05FF5938404B80D49EFF0AF85B9
:1013C0002A847D14420426854180EFF00F98EFE0D7
:1013D000DFFAE36589FEB71701409387078013079B
:1013E0000008D8CBB7270140938707403ED003A819
:1013F000C18083A78180056442DA3ED803A8418179
:1014000083A70181C16C81443ECC89679387C7FE65
:101410008149814B054902C813048438014C014AB3
:10142000014B814AFD1C42CE3EDE82571147D8DB7C
:10143000EFE01FCB85679387176B330DF50293079A
:10144000803E2285335DFD02EF0010294256D256C0
:101450002AD22ED425252AD62EDC337D9D016A85FD
:10146000EF0090276A9AAE8D2A8D2A86AE86325575
:10147000E2554921635E05006246F2461255A255C7
:10148000F52B2A86AE866A85EE85AD21634D050073
:10149000638B0B00B7170140938707801307000287
:1014A000DE84D8CB814B3165130505B8EFF0EF89A9
:1014B00002579947850A5CDBEFE09FC289679387F3
:1014C00097F73305F5029307803EC20A93DA0A01C3
:1014D0003355F502337595012A9CEFE01FEA930717
:1014E00050066390FA0A930740063355FA02050B3B
:1014F000420B135B0B011317050141833AC863804C
:101500000B06630B0904814533759501EFE0BFDFDE
:1015100093074006631BFB04130544014205418108
:10152000EFF00FDB8549014C014A99A8B307F4405D
:101530009946B387D70203270901BA9783D7A7FF34
:1015400069BB8567938787BB0544814902C002C296
:101550003EC44DB38544D1BD3355FC026DB78545BE
:101560002285E31509FA224555B79307700CE3FB72
:1015700067FB2285EFF0CFD58549014C014A014B2D
:10158000814AEFE05FE9D947E3E1A7EAF2570A05AC
:101590003E951C418287E30A09E89247E3F787E812
:1015A0001304C4F935A0E30209E8E38009E892478F
:1015B0004E89E3FC87E61304C4F942044180814963
:1015C000ADB5E30409E68247E371F4E6130444068B
:1015D000420441802285EFF0AFCF93341500B1B5BE
:1015E000E30509E4E38309E482474E89E37FF4E2FB
:1015F00013044406D9B7B717014093870780D8472B
:10160000134919001379F90F13470708D8C731BDDB
:101610004245EF00700CAA8D2E8D2A86AE8632557B
:10162000E255592EE35805F26246F2461255A2558C
:10163000B1212A86AE866E85EA85BD2EE35C05F073
:10164000E39504DEB717014093870780D84793CB13
:101650001B00134707025DBF85679387071123921D
:10166000F182C947B1642381FA00938404B80D491B
:10167000EFE07FDA2A847D14420426854180EFE082
:10168000DFECEFE09FCFE36589FE01A0F6506654E2
:10169000D6544659B659265A965A065BF64B664CAE
:1016A000D64C464DB64D0145096182805D713AD2F6
:1016B000377702403ED08347970086C696C49AC2C9
:1016C0009EC022DE26DC2ADA2ED832D636D442CE8E
:1016D00046CC72CA76C87AC67EC493F70702B5C7ED
:1016E0008347970085468D8B6399D7048356A7005F
:1016F00015476374D7049386818203D44606938486
:1017000081821317040141876348070E1D66618EAD
:101710001377F401631B06100D46630DC70C1946C1
:101720006303C710631AF70C2382E60283C72602FD
:10173000850793F7F70F2381F60237770240834737
:10174000970093E70702A304F700B777024003C7A7
:10175000970062076187635B070403D7C70085466C
:10176000420741833D9B420741832396E70003D70D
:10177000E700420741833D9B420741832397E700EF
:10178000130770072391E70003C747001377C70FBC
:10179000136727002382E70013878182A301D70202
:1017A00003C7970013670708A384E700B7770240D1
:1017B00003C797001377070409CB03C79700136784
:1017C0000704A384E700EFE05FE17254B640A6424D
:1017D00016438643E2545255C2553256A25612570A
:1017E00082577248E248524EC24E324FA24F616158
:1017F000730020309D479CC01305005AEFE0FFD4D2
:10180000A381040203C76401935794009D8BA6072C
:101810000D8B1A0793E71700D98F09452392F40619
:10182000EFE05FE219BFA147F9B7E317F7FC8D4777
:101830009CC09357C4009D8B238AF4009357640087
:101840008D8B238BF4001387440681471385840412
:10185000F146834527003306F50085072300B600CF
:101860000507E398D7FE49BF85679387C7B397F10C
:10187000FF1F938121F9173100201301A1787D45C5
:10188000731005BC13058008732005308D457390D7
:101890004580130540004D8D7310553073901734FB
:1018A0000967B707002013078714938707009386FB
:1018B000818163E8D702938781811387018B63E776
:1018C000E702B7270240094798C3B717024023A28F
:1018D000070037F700E0954614C3714798CF7300AF
:1018E00020301043110790C39107E1B723A00700F0
:1018F0009107F1B793D7460113D34501370710007D
:101900007D172A882A8E1373F37F13F5F77F9307C9
:10191000F07FB378B700B28E758FFD81FD826313BF
:10192000F302B3E8080163970808630665000545FC
:10193000C9C17D558280518F795525EFE399D5FE38
:10194000014582806315F502518F79553DE36308A7
:101950000300E39ED5FC7D55A9CD2E858280B3E89A
:101960000801E39808FE7D55A9C636858280630389
:10197000030255DDE39DD5FAE34B65FAE34DA3FC85
:10198000E36717FBE399E8FCE3E3CEFB01456372F1
:10199000DE03D1B733E8080101C5E30608FC55BFF3
:1019A000598E11C6E30108FCE38CD5FC49B7E3105E
:1019B00008F882807955828093D7460113D3450178
:1019C000370710007D172A882A8E1373F37F13F5CB
:1019D000F77F9307F07FB378B700B28E758FFD81E4
:1019E000FD826313F302B3E80801639708086306F6
:1019F00065000545C9C17D558280518F094525EF98
:101A0000E399D5FE014582806315F502518F0945A2
:101A10003DE363080300E39ED5FC7D55A9CD2E85EB
:101A20008280B3E80801E39808FE7D55A9C6368593
:101A300082806303030255DDE39DD5FAE34B65FA2B
:101A4000E34DA3FCE36717FBE399E8FCE3E3CEFB7C
:101A500001456372DE03D1B733E8080101C5E3062F
:101A600008FC55BF598E11C6E30108FCE38CD5FC78
:101A700049B7E31008F8828009458280797156CA17
:101A800093DA450122D426D24ECE52CC5AC8939432
:101A9000C50006D64AD05EC693FAFA7F2A84328BF6
:101AA000B689B18013DAF50163860A249307F07FC3
:101AB000638AFA288E049357D501C58FB704800036
:101AC000DD8C13193500938A1AC0814B13D7490155
:101AD0001394C9001377F77F318093D9F901630517
:101AE00007289307F07F6308F72C0E049357DB0158
:101AF000C18F370480005D8C930617C093173B009D
:101B0000014513972B00B69A498FA94633463A01EF
:101B100093851A0063CDE62E894663CFE62A7D17AA
:101B2000854663FAE62C4168930EF8FF9356090147
:101B300093D807013379D90133FFD701B307E903FC
:101B40003383E60313D50701338728031A973A95A1
:101B5000338E160363736500429E13570501337578
:101B6000D501B3F7D70113580401B37ED401420560
:101B70003E95B30FD903B387D603330928033383C4
:101B800006033E9993D60F01CA9663F4F600C16727
:101B90003E93C16393D706019382F3FF3E93B3F75D
:101BA0005600B3FF5F0013D90401B3F25400C2071B
:101BB000FE97338428033E97B30F5F02B388580221
:101BC00093D60F01330FE903FA98C69663F3E60143
:101BD0001E94B3835E0213DF0601C164229F138447
:101BE000F4FFE18EC206B3FF8F00B69FB30ED90398
:101BF00093D60301B3082803330858027698369821
:101C00006373D801A698B3768800B3F38300C20645
:101C100072979E963693B337F7009A97B336D300F0
:101C200033B3670013580801B3E66600C296330861
:101C3000F7013E9F3337E8007A973334FF00333F94
:101C4000E7013364E4013694469493577701260400
:101C50005D8C93179800C98FB337F0001358780143
:101C60002607B3E70701D98F37070001618F630BA0
:101C7000071A13D71700858B5D8F9317F401D98F3F
:101C800005809386F53F6351D01A13F7770001CF93
:101C900013F7F70011456308A70013874700333592
:101CA000F7002A94BA8737070001618F19C73707F1
:101CB00000FF7D17798C938605401307E07F63440E
:101CC000D7201317D4018D835D8F0D8032043180AE
:101CD000D206B250C18E22547E06B3E7C60092549B
:101CE0000259F249624AD24A424BB24B3A85BE850A
:101CF0004561828033E9A400630F09049DC42685F1
:101D00003D2C130755FFF547930685FF998FB39434
:101D1000D400B357F400C58FB314D400930AD0C0D5
:101D20002689B38AAA40BE844DB3112CAA87138793
:101D30005701F14613050502E3D7E6FCE117B31797
:101D4000F400E9BF33E9A400630B09002A89930A70
:101D5000F07F8D4BA5BB8144814A854B85BB814477
:101D6000930AF07F894B9DB3B3676401A9CF15C473
:101D70002285F122930655FF7547930785FF158F3E
:101D80003314F4003357EB00418F3314FB009306F8
:101D9000D0C0A287898E3A84A5B35A854D22AA87DE
:101DA00093865701714713050502E357D7FCE117E6
:101DB0003317FB00E9BFB367640191CBDA87930661
:101DC000F07F0D453DBB0144814605451DBB0144E7
:101DD0009306F07F094535B38546B396E60013F7C1
:101DE00006530DEF13F806246315080C93F68608C6
:101DF000E38B06D24E8609476307E50C0D47630067
:101E0000E50C0547E31FE5E601440147ADA8BD46E3
:101E10006307D70AAD465286E30ED7FC2684CA87ED
:101E20005E85D1BFD685B1BD054589CA158D13071D
:101E30008003E34BA7FC7D476349A7049385E541F5
:101E400033D7A700B397B700B337F000B315B4008A
:101E5000CD8FD98F3354A40013F7770001CF13F738
:101E6000F70091466308D70013874700B336F700A1
:101E70003694BA8737078000618F39EB1317D40186
:101E80008D835D8F0D80814691B50557158F1308A1
:101E900000023357E4008146630605019385E5435C
:101EA000B316B400DD8EB336D000B367D70001445B
:101EB00065B7370408009306F07F014601BD37047B
:101EC00008000147CDBF014401479306F07FFDBBE9
:101ED000014401478546DDBB411106C622C426C226
:101EE00021CD9357F54133C4A7001D8C9354F501C0
:101EF0002285B1201307E041A947098F63C8A702D3
:101F0000AD47898F5505B357F4003314A4002685D7
:101F1000B207B18352077E055D8FB240B367A70059
:101F2000228522449244BE85410182805515B31713
:101F3000A40026850144E9BF01478147E5BFC16789
:101F40006375F5029337051093C717008E0709676D
:101F5000930600029D8E3355F50093078704AA97D8
:101F600003C507003385A640828037070001C147BB
:101F7000E36FE5FCE147E1BF2C01000042010000F6
:101F8000680100008A010000A8010000C6010000ED
:101F9000E8010000F0010000FC0100001002000058
:101FA0001C0200003E020000560200007002000009
:101FB0008E020000B4020000CE020000E202000027
:101FC000FE0200005E080000A60800007208000083
:101FD000AC08000088090000A6080000A608000060
:101FE000A60800005A0A0000700A0000BE15000092
:101FF00096150000C2150000F6150000101600002E
:102000002A1400002A1400002A1400002A140000D8
:102010002A140000A6150000CC1500002A140000A8
:102020002A1400002A1400002A1400002A140000B8
:102030002A1400002A1400002A140000E0150000F1
:102040002A140000A015000000010202030303038C
:102050000404040404040404050505050505050538
:102060000505050505050505060606060606060618
:102070000606060606060606060606060606060600
:1020800006060606060606060707070707070707E8
:1020900007070707070707070707070707070707D0
:1020A00007070707070707070707070707070707C0
:1020B00007070707070707070707070707070707B0
:1020C0000707070707070707080808080808080898
:1020D0000808080808080808080808080808080880
:1020E0000808080808080808080808080808080870
:1020F0000808080808080808080808080808080860
:10210000080808080808080808080808080808084F
:10211000080808080808080808080808080808083F
:10212000080808080808080808080808080808082F
:10213000080808080808080808080808080808081F
:08214000080808080808080857
:102148002C00000000000000CDCCCCCCCCCCEC3F67
:082158009A9999999999F13FB8
:00000001FF
